:020000040000FA
:06000000020A910201A7B3
:03001B000202736B
:03002B0002082C9C
:030033000201C9FE
:030043000207E7CA
:030053000200DBCD
:03006B0002147507
:030073000202C8BE
:03007B0002072356
:1000830002013B030003000300030003000300031A
:10009300000300030005000A00140028004F009E1F
:1000A3000000000D0D0D0D0D0D0D0DB70BB10B0D5A
:1000B3000DC81600000000281500000000FF000016
:1000C30000FF001420FFFFFFFF01201404030008BA
:1000D3000000FF0020FD0002C0E074F1120576A2CB
:1000E300AFE433FED2AFE5A7FFE5A1F5085FF5095D
:1000F3007410550960061210CD75A1EF74085509E7
:1001030060081210D375A1F78024E508A2E092F0ED
:10011300EFA2E082F05017906198E0F8900B2AE08C
:10012300C398A2D265D0335002E8F075A1FEEEA2C7
:10013300E092AF7F02020632C0E074F2120576A2AB
:10014300AFE433FED2AF9061A4E0F8759B00E59174
:1001530058540860087591F71211278023E59158C8
:10016300541060087591EF12112D8014E591A2E0EF
:1001730092F0E8A2E082F05007E0C2E0F0121271C0
:100183009061A3E0F8E5E9585404600E1212477534
:10019300E9FB906193E0A2E640F2EEA2E092AF7F2A
:1001A30001020632C0E074F2120576A2AFE433FE18
:1001B300D2AF9061A5E0F8E5BF585404600675BF5F
:1001C300FB12128980D4C0E074F1120576E59DA27A
:1001D300E650FA906206E0FAA2E25035A82AE890C7
:1001E300620BF0F508852B0974047808120AF3E50D
:1001F30008906207F0852A08852B0974097808128C
:100203000AF3E508543E906209F0906201E0D2E0FF
:10021300F07827EA46F6906202E0F5087509007463
:10022300047808120A587827E50846F608E50946CF
:10023300F6906204E0F50875090074097808120A5B
:10024300587828E50946F6EAA2E0500375290174B7
:10025300065A6003752900E58BA2E55006758BDF0E
:10026300752900121343758B00C2E87F0202063220
:10027300C0E0C0D0E8C0E0E9C0E0C082C083E5F9D7
:10028300C0E0900A97E0F8741628F582740A3400E7
:10029300F583D0E0F0900A96E0F8A3E0687006E5F5
:1002A30095900A99F0900A97E004F0C39480400275
:1002B300E4F0A374C6F0D083D082D0E0F9D0E0F8A4
:1002C300D0D0D0E032C0E0C0D0E8C0E0C008C00960
:1002D300C082C083900B1AE0F8A3E0687008539AB9
:1002E300F7A374018026C2EA900B1AE0F5087401A3
:1002F3002508F0749A2508F582740A3400F583E022
:10030300F5F9900B1AE0C394804002E4F0D083D057
:1003130082D009D00880A6C3E498F8E499F91203BF
:100323005B8026C3E49AFAE49BFBE920E7E9120326
:100333005BE498F8E499F922C3E498F8E499F91294
:10034300035BE498F8E499F9C3E49AFAE49BFB228B
:10035300EB20E7CFE920E7E0B90010BB0008E88A0B
:10036300F084F8AAF022E4FBC8FA22EB70227B1097
:10037300C833C8C933C9335007C39AC3DBF28006F5
:100383009A50012ADBEAC833F4C8C933F4C9FA2204
:1003930075F008E4C833C8C933C933C99AC99B5037
:1003A30004C92AC93BD5F0ECFBC833F4C8E4C9FA45
:1003B30022080808EAC0E0EBC0E086F0E7A4FA18D8
:1003C3000986F0E7A42AFA180986F0E7A42AFA189E
:1003D3000986F0E7A42AFA1986F0E7A4FBE5F02AD8
:1003E300FA190886F0E7A42BFBE5F03AFA19088618
:1003F300F0E7A42BFBE5F03AFA18180986F0E7A416
:10040300C5F02BFBE43AFA1908E7C5F0C6A426F6B3
:10041300E5F03BFBE43AFA1886F0E7A4F6E5F008CA
:1004230026F6E43B08F6E43A08F6D0E0FBD0E0FA1F
:1004330022E4CFC0E0E4CEC0E0E4CDC0E0E4CCC031
:10044300E075F020C3E633F608E633F608E633F644
:1004530008E633F6181818EC33FCED33FDEE33FEE3
:10046300EF33FFC3EC9709ED9709EE9709EF97195F
:100473001919400FFFEC97FC09ED97FD09EE97FE64
:10048300191906D5F0BEECF709EDF709EEF709EFF8
:10049300F7191919D0E0FCD0E0FDD0E0FED0E0FF61
:1004A300222518C582C0E0E51934FFC583C0E0E505
:1004B30018C3958224F810AF0885831985821880A4
:1004C30008858319858218D2AFCEF0A3E520F0A367
:1004D3007808E608F0A3DEFAEFF0A3E58124FAF842
:1004E300E608F0A3E608F0A3E608F0A30808E60888
:1004F300F0A3E608F0A315811581D0E0FED0E0F863
:10050300158115811581E8C0E0EEC0E022120B369B
:10051300B90003020560E47921780BB80002800476
:10052300F709D8FCE4900301789F79098002F0A3CE
:10053300D8FCD9FA900B9FAA82AB83900086785699
:1005430079018015E493A3AC82AD838A828B83F017
:10055300A3AA82AB838C828D83D8E9D9E77582F411
:100563007583C674011208CB758293758314740066
:100573001208CBC0D02518C582C0E0E51934FFC5E9
:1005830083C0E0E518C3958224F310AF088583196F
:100593008582188008858319858218D2AFC8F0A395
:1005A300E9F0A3EAF0A3EBF0A37908E709F0A3D8F5
:1005B300FAECF0A3EDF0A3EEF0A3EFF0A3D0E0F09C
:1005C300A3D0E0F0A3D0E0F0A3E520F0A3E5F0F0A2
:1005D300A32212010002020000205104A816090000
:1005E300010203010902430002010080190904000A
:1005F3000001020201000524001001042402020587
:100603002406000105240100010705820340004080
:1006130009040100020A00000007058402400000EB
:1006230007050402400000F00500001306000085E2
:100633001983851882E0C0E0A3E0F9A3E0FAA3E000
:10064300FBA37808E0F608A3DFFAE0FCA3E0FDA330
:10065300E0FEA3E0FFA3E0C0E0A3E0C0E0A3E0F579
:10066300D0A3E0F520A3E0A3F5F010AF088583192C
:100673008582188008858319858218D2AFD082D0ED
:1006830083D0E0F8D0E032E47375F0108E218F222E
:10069300858226858325851882851983E0CEA3E08C
:1006A300CF852682852583EBC9EAC8EDCBECCAC387
:1006B300E833C8E933C9EA33CAEB33CBC3EA9EF55F
:1006C30024EB9FF523B35004AB23AA24EC33CCEDE6
:1006D30033CDD5F0DAAE21AF222285198385188276
:1006E300E0A3FEE0A3F5207808E0A3F608DFFAE034
:1006F300A3FFE0A3C0E0E0A3C0E0E0A3C0E0E0A369
:10070300C0E0E0A3C0E010AF08858218858319809C
:1007130008858218858319D2AFD083D0820208D18D
:10072300C0E074F2120576A2AFE433FED2AFE58ADD
:10073300A2E25007900607E0D2E0F0E58AA2E35078
:1007430007900607E0D2E1F0758A00C2EB7A107BCE
:1007530000900603E0F9120E8DEEA2E092AF7F0146
:100763000206327404800474028000CCC0E0EDC041
:10077300E0E518C39CCCAD1950011D10AF068C18D1
:100783008D1980068C188D19D2AF12084DD0E0FD5B
:10079300D0E0FC22D083D082CCC0E0E493A36006F7
:1007A30012086E1470FAE493A3600612097C1470A5
:1007B300FAD0E0FCE493A3C0E0E493C0E022C008D5
:1007C300C3E096F50808A3E096420808A3E0964222
:1007D3000808A3E0964208A2D265D033E508700169
:1007E300D3D00822C0E074F2120576A2AFE433FE40
:1007F300D2AFC2C0E5D1A2E4500312104FEEA2E083
:1008030092AF7F01020632CAC0E0E493A3C582CC53
:10081300C582C583CDC583F0A3C582CCC582C583FC
:10082300CDC583DAE5D0E0CA22C0E0C0D0E8C0E09D
:10083300E9C0E0E5A8D2AFC2C7A2E7A2E792AFD072
:10084300E0F9D0E0F8D0D0D0E032CAC0E0E0A3C5F0
:1008530082CCC582C583CDC583F0A3C582CCC582B6
:10086300C583CDC583DAE6D0E0CA22C0E0E493A312
:10087300D39C5010E493A3C39C400AD0E0D0E0D0B3
:10088300E00207B4A3A3A3D0E0227009080808225A
:100893006016181818C6C333C608C633C608C6334D
:1008A300C608C633C6D5E0EA22C008C3E096F508F9
:1008B30008A3E096420808A3E096420808A3E0963E
:1008C30045087001D3D00822C09FF59FE473D09FE1
:1008D30022D083D082C09FE493C0E0740193C0E030
:1008E300740293F59F222518F58210AF08F518407E
:1008F3000215198008F51840021519D2AF8519831E
:1009030022C0D0251810AF08F51850020519800829
:10091300F51850020519D2AFD0D022601608080886
:10092300C6C313C618C613C618C613C618C613C63D
:10093300D5E0EA22C3E0C696F608A3E0C696F60819
:10094300A3E0C696F608A3E0C696F62274048006D2
:10095300740280027401C0E0F4041208E9D0E012CA
:100963000B1122251810AF08F5184002151980083D
:10097300F51840021519D2AF22C0E0E493A36C70BE
:1009830009D0E0D0E0D0E00207B4A3A3D0E022E78F
:100993006670100809E766700A0809E766700408BC
:1009A30009E76622C3E09608A3E09608A3E0960849
:1009B300A3E096A2D265D03322E066701008A3E0CC
:1009C30066700A08A3E066700408A3E06622C3E623
:1009D30097F60809E697F60809E697F60809E697F1
:1009E300F622C3E096F008A3E096F008A3E096F0A1
:1009F30008A3E096F022E056F008A3E056F008A31F
:100A0300E056F008A3E056F022E026F008A3E03613
:100A1300F008A3E036F008A3E036F022E026F6085B
:100A2300A3E036F608A3E036F608A3E036F622E69E
:100A330027F60809E637F60809E637F60809E63720
:100A4300F622E647F60809E647F60809E647F608F8
:100A530009E647F622700422600D18C6C333C608A0
:100A6300C633C6D5E0F41822E493F608740193F66E
:100A730008740293F608740393F622E056F608A36B
:100A8300E056F608A3E056F608A3E056F62275D022
:100A93000075813F751801751903759F00020510D4
:100AA300E4C396F608E496F608E496F608E496F6A8
:100AB30022C6F4C608C6F4C608C6F4C608C6F4C6F9
:100AC30022C3E7960809E7960809E7960809E79617
:100AD30022C3E09608A3E09608A3E09608A3E09655
:100AE30022E6F008A3E6F008A3E6F008A3E6F02266
:100AF300600C08C6C313C618C613C6D5E0F422E0BB
:100B0300F608A3E0F608A3E0F608A3E0F622CAC0BD
:100B1300E0E6F0A308DAFAD0E0FA22EAF0A3EBF079
:100B2300A3ECF0A3EDF022E0FAA3E0FBA3E0FCA327
:100B3300E0FD22E5C754F84401F5C77901222518E1
:100B4300F582E43519F583221208D47E34001208A5
:100B5300D4AF34001208D44935001208D4543600F7
:100B63001208D46436001208D49B36001208D4B09D
:100B730036001208D4B936001208D413370012080D
:100B8300D46B37001208D4B537001208D4D037001D
:100B93001208D4F737001208D41438001208D420EE
:100BA30038001208D4623A001208D47B3A001208C3
:100BB300D4073B001208D41A3B001208D42B3B0085
:100BC3001208D4EB3B001208D4603D001208D4177E
:100BD3003F001208D4973F001208D4A13F00120827
:100BE300D40940001208D41A40001208D4B44000BB
:100BF3001208D4E540001208D4E840001208D412C9
:100C030041001208D47241001208D4964100120820
:100C1300D4B441001208D40242001208D43B43006A
:100C23001208D49343001208D4EC43001208D4777B
:100C330044001208D49F44001208D4D5440012087B
:100C4300D4E444001208D44245001208D4AF45004E
:100C53001208D4EC45001208D42746001208D452D7
:100C630046001208D46C46001208D48646001208C7
:100C7300D45747001208D46147001208D4944700A0
:100C83001208D4F247001208D40648001208D40F01
:100C930049001208D42249001208D4374900120827
:100CA300D4E849001208D44A4A001208D4EB4A0097
:100CB3001208D4F64A001208D4384C001208D4544F
:100CC3004C001208D4AC4C001208D4E84C001208B3
:100CD300D4024D001208D4644D001208D4034E0010
:100CE3001208D4454E001208D4AB4E001208D4FFAC
:100CF30050001208D4AE51001208D4E0520012087A
:100D0300D48953001208D4DA55001208D4ED5500E3
:100D13001208D4F055001208D4FC55001208D41060
:100D230056001208D41856001208D4585600120858
:100D3300D45157001208D4D457001208D45658007F
:100D43001208D4D058001208D49959001208D4BB01
:100D530059001208D4575A001208D4635A001208D3
:100D6300D4895A001208D4BC5A001208D42B5B0051
:100D73001208D47D5C001208D4085E001208D493D4
:100D83005E001208D4BC5F001208D49C60001208F5
:100D9300D4CD60001208D4F960001208D4026100B7
:100DA3001208D43161001208D4E161001208D4950D
:100DB30062001208D40963001208D4A56300120864
:100DC300D42364001208D46B64001208D4A1640015
:100DD3001208D4DE64001208D41365001208D46A22
:100DE30065001208D4E365001208D40566001208F2
:100DF300D47F80011208D43883011208D4C185013D
:100E03001208D46786011208D43E87011208D465FC
:100E130087011208D40E88011208D48089011208B0
:100E2300D48589011208D48789011208D44E8A0116
:100E33001208D48E8A011208D4C88B011208D44038
:100E43008C011208D46C7A001208D4B37A00120809
:100E5300D4D47A001208D4217B001208D44A7B0030
:100E63001208D4547B001208D4C07B001208D45259
:100E73007C001208D48D7C001208D4E97C0012088F
:100E8300D41F7D001208D49E7D001208D4E87D0093
:100E93001208D4297E001208D4607E001208D4728E
:100EA3007E001208D4847E001208D4A37E001208A8
:100EB300D4AC7E001208D42FC1011208D472C2012F
:100EC3001208D498C2011208D441BB011208D47786
:100ED300BB011208D4C2BB011208D40DBD01120814
:100EE300D45D66001208D49167001208D4CD670060
:100EF3001208D48569001208D4BF69001208D438D7
:100F03006C001208D4786C001208D40C6E0012081E
:100F1300D4AC6E001208D40E6F001208D49B6F007D
:100F23001208D4D36F001208D41370001208D4A48B
:100F330071001208D44C73001208D4A9750012086A
:100F4300D4D775001208D42B34001208D40C7600C1
:100F53001208D48A76001208D4E779001208D46400
:100F6300CA011208D4CAA9011208D4DFA9011208C0
:100F7300D492AA011208D4D2AA011208D4EBAA016E
:100F83001208D426AB011208D45FAB011208D46057
:100F9300C8011208D441B3011208D4C3B301120823
:100FA300D4E1C3011208D4A1C4011208D4D9A10108
:100FB3001208D461A2011208D42EA3011208D4048A
:100FC300B6011208D496B6011208D499B6011208D4
:100FD300D421B7011208D486B8011208D44ACA0131
:100FE3001208D48BBF011208D499BF011208D4ECA4
:100FF3007F001208D4F7C7011208D407C8011208EA
:10100300D413C8011208D457C8011208D4F8C40174
:101013001208D47DC5011208D4E3C5011208D447D0
:10102300C9011208D48ECA011208D480C90112085A
:10103300D4ED95011208D45996011208D4F79601FC
:101043001208D4EE97011208D44B99011208D4A2C6
:1010530099011208D4039A011208D44F9A01120875
:10106300D4F79A011208D47F9B011208D49E9B01E6
:101073001208D4239C011208D49A9C011208D4B9F3
:101083009C011208D4C69C011208D4BFC9011208DE
:10109300D4D3C9011208D4BFB8011208D4E3B801EC
:1010A3001208D4FCB8011208D43BB9011208D48940
:1010B300B9011208D4BCB9011208D4ECB901120861
:1010C300D454BA011208D457BA011208D420BB0170
:1010D3001208D42ABB011208D437BB011208D4600A
:1010E300B0011208D488B0011208D4C9B0011208A3
:1010F300D4E7B0011208D402B1011208D46AB101D5
:101103001208D476B1011208D4D5B1011208D40162
:10111300B2011208D410B2011208D434B201120879
:10112300D4F5B2011208D402B3011208D413B301E7
:101133001208D409C9011208D421C9011208D458CC
:101143009D011208D4C19E011208D4D39E01120836
:10115300D4EB9E011208D40C9F011208D4229F01E4
:101163001208D4369F011208D4B59F011208D41A6D
:10117300A0011208D4B0A0011208D489A101120859
:10118300D499A1011208D4A8A1011208D47B7F002D
:101193001208D49F7F001208D4C77F001208D474AA
:1011A300BD011208D49BBD011208D4B9BD011208B8
:1011B300D421BE011208D46AAD011208D483AD0153
:1011C3001208D49AAD011208D4A3AD011208D4C1F8
:1011D300AD011208D4CBAD011208D4D5AD0112086C
:1011E300D4E8AD011208D474AE011208D4E9AE01FB
:1011F3001208D417AF011208D468AF011208D4B98A
:10120300AF011208D4D4AF011208D4DEAF01120823
:10121300D405B0011208D44BB0011208D494C7010D
:101223001208D47ACA011208D4438C011208D46F6D
:101233008C011208D48D8C011208D4A08C011208E1
:10124300D4BB8C011208D41A8D011208D44D8D0120
:101253001208D46991011208D4BF92011208D4F183
:1012630092011208D45D93011208D4D69401120896
:10127300D4FE94011208D41395011208D4239501C6
:101283001208D46395011208D4AF95011208D4BF94
:1012930095011208D4A9C2011208D4B9C2011208D7
:1012A300D4D7C2011208D4F2C2011208D419C3015F
:1012B3001208D43AC3011208D454C3011208D48CBF
:1012C300C3011208D4AFC3011208D4C3C801120862
:1012D300D4F5A5011208D4FCA5011208D452A70124
:1012E3001208D482A7011208D4B2A7011208D4E5C8
:1012F300A7011208D4F7A7011208D433A8011208D2
:10130300D499A8011208D4D5A8011208D41CA901A4
:101313001208D449A9011208D475A9011208D47876
:10132300C7011208D4ECC9011208D4FCC501120884
:10133300D45BC6011208D499C6011208D4DAC601D7
:101343001208D48BCA011208D41ECA011208D49DF4
:1013530033001208D4D632001208D4033200120824
:10136300D45E31001208D4D530001208D485300081
:101373001208D44C30001208D4E02F001208D4A471
:101383002F001208D43D2F001208D42F2E0012086C
:10139300D46F2D001208D4F72C001208D44C2B0064
:1013A3001208D4302A001208D42529001208D46662
:1013B30028001208D42328001208D4CD27001208CD
:1013C300D45627001208D42926001208D4F8240082
:1013D3001208D4B624001208D43423001208D4E12E
:1013E30022001208D44B22001208D4A421001208B0
:1013F300D44421001208D49720001208D47220008C
:101403001208D46920001208D43A20001208D40626
:1014130020001208D4DC1F001208D47E1F0012081B
:10142300D4A41E001208D4981E001208D45134000C
:101433001208D4B118001208D4E41D001208D4B95C
:101443001D001208D44E1D001208D4F41C0012080B
:10145300D4D01C001208D4A11B001208D44B1B00CB
:101463001208D4271B001208D4731A001208D4DF01
:101473001800758900C2C5321208D4CC19001208AD
:10148300D4A419001208D48219001208D4037600D8
:1014930000000080FB00013636010100010201005B
:1014A3000103010001040106060502000007010013
:1014B300340801000F090401010D0100FF0E0800AB
:1014C3000017020000190100FF1A0100011B0100AF
:1014D300FE1C0100081D0200001F01000120010085
:1014E30001210200002301000F2402000026010055
:1014F3000127010008280200FF2A0100072B01022F
:10150300402C0100002D0100012E0100012F0100DC
:10151300FF30010B1C310800003A0100083B0100B9
:101523000F3C0100010103710301030103010301E6
:10153300030103220302030103100300030003005A
:101543000300030003000300034203000324030614
:1015530003000300030403120325032303250323CA
:101563000304030403000300030003440300030014
:1015730003230300036503210035038103000305EF
:101583000300030003000300032503230301017188
:101593000101010101110101013101010101018079
:1015A30001100161013B00140063017301720162C8
:1015B3000143010001130106013D0135000401123D
:1015C30001000100010001000104010401330133A2
:1015D300013C0144013201360000010001650100B4
:1015E30001350081010001050182018301000166CB
:1015F3000100010001030271023001600211027057
:10160300020102020202028002100261023A004158
:101613000063027302720262024302000213023881
:101623000000020002040212020002000200020093
:101633000204020402370037003C0244020002396C
:101643000000020002650200023502810200020569
:101653000282028302000266020002000203047196
:10166300040204600411047004020402040104026D
:101673000410046104000414046304730472046218
:1016830004430400041304060400040004040412C5
:101693000400040004000400045104640000040076
:1016A300040004440400040004000400046504006E
:1016B3000435048104640005040004830400046603
:1016C3000400040004030071003001600011007085
:1016D3000031022003500480001000610000001458
:1016E30000630073007200620043000000130006F1
:1016F30000000000000400120000000000000000D1
:101703000004000400370037003C024400000000DE
:1017130000000000006500000035008100000005A6
:10172300000000830000006600000000003000009D
:101733000060000000C00000008001000000030002
:101743000000060000000C0000001800000030003C
:10175300000060000000C0000000800100000003E2
:10176300000000060000000C0000000C0036000121
:1017730000060000000F0000000000000000000051
:1017830000000003FFFF00000403FFFF0000FFFF52
:101793000FF4010005C4040320000100130B000033
:1017A30000000000000003010F0007ECFDFDFDEC4D
:1017B300DCDCCCBCACAC9C9C8C7C7C6C6C5C5C5CE6
:1017C3004C4C3C3C2C2C1C1C170C470C1D0C230CA8
:1017D300410C350C2F0C4D0C530C590C650C290C7A
:1017E300110C0B0C00160F160D0B150B0211022218
:1017F3000F3303020E0D0D1F0D250DDB0B2B0DD526
:101803000BE10B731379134B0B570B2D148B1351E4
:101813000B140AE5D5C5B5A5A59585857565303045
:1018230017181921301B1D1F30336D0D8B0D910DB2
:10183300730D7F0D790D003C40423A3F3F392F47EE
:101843003066303016181920231A1C1E30320C0E45
:10185300020B040B0A0708000F00011916181616CD
:101863001823030000034D4C4651181A2505023B6B
:101873000C5F0C850D6B0C710C610D310D370D4335
:101883000D3D0D020402010101010902C713CD132D
:10189300C113BB13671361136D135D0B5B13470F09
:1018A3005714391400BE040AFA06AD171418C0827F
:1018B300C083900BC7746FF0A37414F0900BC974BA
:1018C30087F0A37414F0900383747BF0A37414F073
:1018D300900BCB7481F0A37414023BE374F71204EE
:1018E300A474FD120966EAFEEBFF900B42E0640F5D
:1018F3006007122D58A2E550051219708069123A3B
:10190300FDD2E1F09003D4E0600F8E828F83A3A316
:1019130012564C120CE3E96023122D584403F09045
:101923000315E0704312232B120B41E4F0740212EF
:101933000B4174FF123648120D55802C1219701288
:101943005595124DEE6402701FE82405F8E9340042
:10195300121976F874FF68700374FF69700A123AFB
:10196300FDD2E5F0122FDAF074030236AA122D5CD1
:10197300D2E022F988828983E0FAA3E0F9EA22C05F
:1019830082C083120C95E9600479208011900B4288
:10199300E0640F700479018005900312E0F9023BC3
:1019A300E4C082C083EA240EF582EB123F917010EB
:1019B300EAFCEBFD7A787B03120E7B123A4F80062A
:1019C300123D2512068A023BE474F01204A490032C
:1019D30012E0F47003021A5C900314E0602E90038B
:1019E30012E0640270261210AF8A088B098C0A8DEC
:1019F3000B90030A780812093775F014900B3EE038
:101A030084F50CE4F50DF50EF50F803C1210AF8A4A
:101A13000C8B0D8C0E8D0F90030E7808120B027831
:101A230008790C1209D190037CE0F50CA3E0F50DC5
:101A3300E4F50EF50F7808790C1209D1900B5D12BD
:101A430022C0F50CA3E0F50D7808790C1209D190AA
:101A5300806178081207C140047900801090807972
:101A630078081207C14004A908800279FF022B47B6
:101A730074F01204A4E9FEEAFF7A007B00ECF91289
:101A83000B81E990030AF0A3121B0C740F6F70050E
:101A9300121B208049900B42E06F900313701A12BF
:101AA3001B1312088D90804D780C120B0278087965
:101AB3000C1203B490803D8018121B1312088D90F2
:101AC300804D780C120B027808790C1203B49080C5
:101AD3006D7808120A1F90030E7808120AE4EEA329
:101AE300F074016E7020900B437808120B02900380
:101AF3000A7808120A0C900B437808120B02900321
:101B03000E7808120A0C022B47E4F0A3F0A3F0228C
:101B13001222B595E0F50AF50BEF780822A3121B04
:101B23000CA3F022C082C083900BC57421F0A37470
:101B330014F09003CC74A3F0A37418F01214339030
:101B430003B1E04408023BE374F01204A4900B4396
:101B53007808120B02E5084509450A450B600A900F
:101B63000B43780C120B028015750C30750D007544
:101B73000E00750F00900B42E0780C12088D9080D8
:101B830011780C120A1F90807E121F6F780C79084F
:101B93001209D1900334780C120AE4022B4774EB38
:101BA3001204A474F7120966EAFEEBFF121355E957
:101BB300F5146003021C6C8E828F83A3A3A3A3A3DB
:101BC300A3A3A3A3A3E0FC1222C612564CEAC33379
:101BD300FAEB33FB8E828F83A3A3780C120B029054
:101BE30080157808120B02780C7908120434740FEC
:101BF3006C7003021C87900315E064026003021CEF
:101C030087EE240C123B007075751030751100754A
:101C13001200751300EE240B123B00781012088D8E
:101C23008A088B09F50AF50B78107908120A3278BD
:101C330010790C120AC4402E750830750900EC782F
:101C43000812088D8A108B11F512F5137808791094
:101C53001209D1780C7908120AC4400A900B437810
:101C63000C120AE4801E7514FD8E828F83A3E51483
:101C73001243DA1214397409120904025198900BB1
:101C830043121B21EE240E123B0060DD1232BD1203
:101C93000B7BEA4B60D37408120B411232C8120754
:101CA3006A7508FF7509FF78081209538E828F83BE
:101CB300A3A3A3A3A3A3A3A3E0F97404120B41ACAE
:101CC30082AD831213A9740412090480A9C082C0CF
:101CD3008390031274FFF0121409900B5DE0F890E7
:101CE3000B42E06860031212AD7908120C83023BC9
:101CF300E4C082C0839003381247EC602B1247E99B
:101D0300701F90033812558190038112432C900366
:101D130038E4F0A3F079021212D779021212A180EB
:101D2300077A387B03120CBF9003D4E0601A900B40
:101D330042E0640F6012121E8A1207667A227B0346
:101D4300120DC17404120904023BE474F41204A4D6
:101D53009003D4E0605D90031F744BF0A37414F000
:101D63009003347808120B029080717808120A1FCE
:101D7300780812094F7A197B03120DC174041209F2
:101D830004120C95E9701F12349F12139D8A088B5D
:101D930009A808A90990033812432CE849601412D2
:101DA3003D4BD2E6800C900B47E004F0900338E4FF
:101DB300F0A3F002281E74F71204A4E9FE12564998
:101DC30012134F7940120C83EEF912144512145D6D
:101DD3009003D5E06008900B42E0F9120DE5024351
:101DE300E774F41204A4EAFEEBFF900B42E0F5085B
:101DF3008E828F83A3E070719003D4E06019740F17
:101E030065086013E5A8F8C2AF900328743FF0A3F8
:101E13007414123A59805E121E7B640F90035F6044
:101E23004212564C12134F12145D740F6508701F43
:101E3300121E7BF99003347808120B0290805D78B0
:101E430008120A1FAA08AB09AC0AAD0B120DD9126E
:101E53001E8A1207667A227B03120DC174041209CB
:101E630004800612564C12134F8E828F83742C12E9
:101E730043DA120C9B02281E90035F1255BB240801
:101E8300F582E8122D62229003287445F0A374149E
:101E9300F090033422C082C08379021212A7023B5E
:101EA300E474F41204A4E9900B426003021F4DE0B2
:101EB300640F7003021F52900313740F123EFDFC54
:101EC3007D00900B5DE0FA7901121469900B3DE0FF
:101ED300603A900B5AE060349003317427F0A37496
:101EE30014F0900B3E121F6F75830375820A7808F6
:101EF300120A1F9080197808120A1F780812094FD6
:101F03007A2B7B03120DC17404120904900B5DE05C
:101F1300640F70051212AD801C9003077451F0A377
:101F23007414F090030E1207667A017B03120DC13D
:101F33007404120904900381123D1D123045A2E47A
:101F4300500312141B12140F8018E0640F701390C7
:101F53000B5AE06005790212129B121415790812CC
:101F63000C837A817B03120CBF02281E121F73227B
:101F7300E0F508E4F509F50AF50B2274F51204A45B
:101F8300750800750900A2AFE433F50AC2AF9003E8
:101F93007880078E088F09122F2C1231FB601C12D8
:101FA3003AFDA2E550ED7808120953EEFCEFFD7AF5
:101FB300787B03120E817402120904E50AA2E092EF
:101FC300AFEE4F6011122D58D2E4F0EEFCEFFD7A24
:101FD300787B03120E7B02361DC082C083A2AFE45E
:101FE30033FAC2AF900378800D12212FA2E550037C
:101FF30012202F12205E1247EC70EEEAA2E092AF9D
:10200300023BE4C082C083A2AFE433FAC2AF9003C1
:10201300788012123BC2E9122E1E5006C2E7F0125C
:10202300202F12205E1247EC70E980CF123D14E995
:10203300122D62D2E4F022C082C083A2AFE433FA4D
:10204300C2AF900378800D12213CA2E75003C2E493
:10205300F012205E1247EC70EE80A0E824FBF582BC
:10206300E934FFF58322C082C0837910021E9EC02B
:1020730082C083900B5AE0600579021212A1792085
:102083001212A77A437B03120DD37A3A7B03120D04
:10209300D3023BE4C082C08374EF1209669003D479
:1020A300E4F0900315F090031204F0900317E4F0AA
:1020B300A2AF33FAC2AF900378801012213CA2E1A1
:1020C3005006D2E0F012212F12205E1247EC70EB83
:1020D300EAA2E092AF7910120C837908120C839074
:1020E3000316E06004E4F080408518828519837448
:1020F30009F07401120B4174E0F0900B57125581F3
:102103007402120B4112432C900B6AE0C0E074047A
:10211300120B41D0E0F07405120B41E4F0740E127F
:102123000B41E4123648120E1502370BE82410F562
:1021330082E9122D62C2E1F022123D14E9122D62EE
:102143002274F41204A4900317E070411247E9705B
:102153000B9003177401F0792012129B75083075E8
:102163000900750A00750B00900B42E0780812080D
:102173008D90801D7808120A1F780812094F7A4340
:102183007B03120DC7740412090402281E90035521
:10219300E004F0640470C579201212A71213F780CB
:1021A300E974F01204A4900B42E0FE900317E4F0EC
:1021B300900355E004F0640470091213FD1213F741
:1021C30002224879201212A7900B75E0640F601960
:1021D300900B421224AD5011900B75E0FE90031842
:1021E300E0F9900B42F0120DEB750C30750D007594
:1021F3000E00750F00900B42E0780C12088DEE1262
:10220300604D900355E02401F50AE43400F50BE535
:1022130008850AF0A4C508A8F0850BF0A428F88562
:102223000AF0E509A428F509E4F50AF50B780C7919
:10223300081209D1780C12094F7A3A7B03120DC1A7
:102243007404120904022B4774F41204A4900317B4
:102253001222D770051213FD8055792012129B901C
:10226300034974EBF0A37413F0900B421222C0F8ED
:10227300A3E0F99003551222B5E88508F0A4C8AA93
:10228300F08509F0A42AFA8508F0E9A42AF9E8C33D
:1022930033F8E933F988088909E4F50AF50B780876
:1022A30012094F7A437B03120DC17404120904020D
:1022B300281EE02401F508E43400F50922E0122287
:1022C300C6E022C333F8E433F9749F28F582740B14
:1022D30039F583227401F0900B42E0640F22C0822F
:1022E300C08374FD12096690031274FFF090031506
:1022F300E06401701FE4F090037FE0602612232B5B
:10230300120B41E4F07402120B4174FF12364812AF
:102313000D55800F900B5DE0F8900B42E068600371
:102323001212AD740302370D900B6A124C1C740128
:102333002274F01204A4EAFEEBFF900317E070038B
:102343000224AAEE242B1257C87003A3E06960038A
:102353000224AA123622120CDDE970030224AA9089
:102363000317E4F0900B5AE0600579021212A19072
:1023730003ABE0600579011212A18E828F83A3A3C0
:10238300A3A3A3A3A3E0A2E4500A79101212A17994
:1023930080120C8379201212A77A437B03120DD388
:1023A3008E828F83A3A3124CE41219762400E4399E
:1023B300FB540F900313F08A088B09740C780812EE
:1023C3000AF3E5085401A3F0EA540F900318F0EA66
:1023D300C4540F900B5DF0900B75E0640F601712FF
:1023E30024AD50128E828F83A3A3123D21A3E070EC
:1023F30005900B758003900318E0900B42F0900357
:1024030055E41222D9700302249CE0F9EEFAEFFBA3
:10241300120DDF900315E06402703E7A3A7B0312DB
:102423000DD3900B42E0F9750C30750D00750E005D
:10243300750F00780C12088DE912604DE4F50AF56A
:102443000B780C79081209D1780C12094F7A3A7B70
:1024530003120DC174041209048E828F83A3A3A3F4
:10246300A3E0FC7D00900B5DE0FA79021214697A17
:10247300017B03120DD390030774DFF0A37413F0F1
:1024830090030E1207667A017B03120DC1740412C6
:1024930009047910120C83800E900315E064027016
:1024A300061213FD1213F7022B47E0F8900318E00E
:1024B300C39822C082C08390034074E5F0A37413D1
:1024C300F090034974EBF0A37413F0900352740378
:1024D300F0A37414F0900BC374D9F0A37413F090A9
:1024E30003D2748FF0A37418F01214339003B1E085
:1024F3004410023BE374F21204A474F712096690C9
:1025030003ABE060030225D3900B3CE0700302258C
:10251300D38A828B83A3A3A3A3A3A31262758A8204
:102523008B83A3A3A3A3A3E0F8740758FCE8C454C4
:102533000F5407F5098008EE2402FEEF3400FF8CE8
:102543000874FF25081C046027900B5BC0828E82F1
:102553008F8312197BF875830BD082E0687003A315
:10256300E06970D37E028024EE2408FEEF3400FF7E
:1025730085090A74FF250AF509046054EEFCEFFD92
:102583007A6B7B0B121337E960DE7E039003ABE0BB
:10259300D2E2123648120CC579011212A1750CA0B1
:1025A300750D03780C120953750C01750D00780C29
:1025B300120953900B5712076A7406120B41AC822F
:1025C300AD83EEFA7905120CEF74061209048051FB
:1025D300900B42E0640F6049E0F8900B5DE06860A7
:1025E30040900B5AE0703A120C8FE96034A2AFE4CA
:1025F30033FEC2AF900315E064027020900312E033
:10260300F460191247E970149003781247EC700CC8
:102613007A017B03120DD379001213DFEEA2E0924D
:10262300AF7409022A2874F01204A4EAFEEBFF75C2
:1026330008008E828F831227434003022740900BAA
:1026430042E0640F7003022740900B57E0F47003DD
:10265300A3E0F47003022740900B51E0F47003A34E
:10266300E0F470030227408E828F83A3A3A3A3E029
:102673006401700575090280258E828F83A3A3A34D
:10268300A3E070057509018015F4600302274090EB
:102693000315E060030227407509017508017A43B9
:1026A3007B03120DD37A3A7B03120DD37A017B039A
:1026B300120DD3A2AFE433F50AC2AFE509900315B7
:1026C300F090030EE412274C1247E99003177004AD
:1026D30074018001E4F0E508900316F0A2E0900392
:1026E30055500474038001E4F0E50AA2E092AF12AE
:1026F30029F8FB79E11211B1900317E06401700529
:10270300792012129B90034974F1F0A37413F075AE
:102713000C30750D00750E00750F00900B42E078BC
:102723000C12088D90801D780C120A1F780C120968
:102733004F7A437B03120DC77404120904022B471B
:10274300A3A3E024F5C3941222121B0DA3F0A374D8
:10275300FFF02274F01204A412281012035B8808FD
:102763008909E4F50AF50B900B42E0640F60481207
:1027730010AF8A0C8B0D8C0E8D0F90030E780C7995
:1027830008120A32780C1208AC502C750C30750DF7
:1027930000750E00750F00900B42E0780C12088D47
:1027A3007808790C120A3290801D7808120A1F905B
:1027B300030E78081209377A8E7B03120DD378083B
:1027C30012094F7A8E7B03022B3F74F41204A490F8
:1027D3000B42E0640F602F900B5DE0602E7A4C7B20
:1027E30003120DD312281012035B88088909E4F53C
:1027F3000AF50B780812094F7A4C7B03120DC77444
:1028030004120904800579101212A7800E900B623E
:102813001255857A147B00221209047F040206DD17
:10282300C082C08390035F1247EC600612564912C0
:102833000EDB90035C1241097408F0A3E4F0A3F0EB
:102843009003D4F0900361F07C0BFDF97A627B0373
:10285300120E4B7C0B7D0079007A6D7B03120E4BBD
:10286300023BE474F71204A474F7120966EAFEEB60
:10287300FF123634740512291A740312528C124350
:102883001FEE2430FCEF3400FD8C828D8312529CAA
:10289300122905600BEE242E12363774FFF0A3F0D5
:1028A300EE242EEF34001C1CFD8C828D83A3E0C02C
:1028B300E08A828B83123D1DD0E01229058882892C
:1028C3008312473E240312536812133D7408120BFC
:1028D300417403F0900B5712076A7402120B41AC58
:1028E30082AD837903EEFAEFFB120CE9740212094D
:1028F30004E9F5087007EEFAEFFB120BCFA9080203
:1029030036A81255D4122A158A828B83E8F0A3E9DC
:10291300F08C828D83E022F0A3E4F0EE240D1250BC
:10292300C82274F21204A4EAFEEBFF8C088D098915
:102933000A1229F8122A0C740E120B41122A1AE8F1
:1029430024FF18E934FFF988828983E50A12529833
:10295300900B5C125295900B5B1252957410120BF4
:1029630041122A1AEE2404FCEF3400FD880B8A82FC
:102973008B83E0F50C8C828D83E0250CC3950B12C1
:1029830052ABE8F0A3E9123EF0A3A3A3A3A3A3A32E
:10299300A3E064037008122A00F0A3E4800AEE2483
:1029A3000EF582EF1257C2A312291D7409F0750C9C
:1029B3000B750D00780C1209537C627D0312519D37
:1029C300120E457402120904750CFF750DFF780C85
:1029D300120953AC08AD097903EEFAEFFB120CE9C7
:1029E3007402120904E9F5087007EEFAEFFB120B03
:1029F300CFA9088033EE2402FAEF340022EE240E2E
:102A0300F582EF1250CB740122FB8A828B83122A48
:102A13001522124332F922E0F50CA312529C1252F2
:102A2300D8E50CF0221209047F060206DD74F012C9
:102A330004A4EAFEEBFF890B8C0E8D0F750A00A22E
:102A4300AFE433F50CC2AF900378803F122B1450E0
:102A530037122B2164037030EE24F9FEEF34FFFFAD
:102A6300850882850983A3A3E02405FCA3E0340041
:102A7300FDEEFAEFFB12133DEE24FF1EEF34FFFFD2
:102A83007410250AF50A150B123EA012605DE50BC2
:102A93006006E508450970B4E50CA2E092AFA2AF69
:102AA300E433F50CC2AF90037880232402FAE509DE
:102AB3003400FB8A828B831239F0122B308A828B8B
:102AC300831239D8122B30050A150B123EA0123E81
:102AD300B56027122B21640270F1122B14E5084014
:102AE300CA123BC3E509123B03A2E550DE850E8201
:102AF300850F837401F0E50B70D1E50CA2E092AF72
:102B03008E828F83E50AF0EE24FFFAEF34FFFB8019
:102B130033E508123D15E509122D62A2E622850868
:102B230082850983A3A3123D34124DFA22E08E82DB
:102B33008F83F0EE24FF1EEF34FFFF22120DC774C4
:102B4300041209047F080206DD74EC1204A474F66F
:102B530012096689118A0F8B0E851882851983E401
:102B6300F090037EE0C3940840057510078003E0EE
:102B7300F510E51033333354F8F8900B41E0282473
:102B830037F50CFA7B00120E518A088B09EA4509C6
:102B93007003022CE9EA2402F50AEB3400F50BEA90
:102BA300250CF8EB3400F9850A82850B8312432C3C
:102BB300EA2404F50CEB3400F50D850C82F583E46F
:102BC300F0900B41E0F512F8C3E498F895E0F9852D
:102BD3000A82850B83E028FEA3E039FF7513007892
:102BE30012120953900B3F125286EEFAEFFB120EAC
:102BF300457402120904851882851983AC82AD835A
:102C0300A910EE24FFFAEF34FFFB1213A38A128BF1
:102C130013AE12AF138E828F83E4122B35E50EC4ED
:102C230054F0F99003D5E0C4333354C0F8900B3B10
:102C3300E0A2E0E43313134849440F122B31E50FAC
:102C4300C454F045118E828F83F0EEF8850A828595
:102C53000B83E0FA850C82850D83E02AC398F08507
:102C63000A82850B83EEF0A3EFF0E508240E1257DA
:102C7300BEA3F0E508240D1257BE7409120B41E4FC
:102C8300F0750A0BF50B780A1209537C6D7D03E589
:102C930008241BFAE5093400FB120E4574021209DD
:102CA30004851882851983E0600EE508240EF582F9
:102CB300E509123B034408F0E4F50A780A120953C4
:102CC3007403120B41AE82AF83120CCBEEFCEFFD0B
:102CD300AA08AB09120CE97402120904E9AA08ABA9
:102CE300096007120E577A007B00740A1209047FE9
:102CF3000C0206DD74F31204A48A0A8B0BA2AFE460
:102D030033F50CC2AF750800750900900378802C69
:102D1300122F375024850A82850B83A3A312528670
:102D23008E828F83A3A312564C120CD1E9600A1230
:102D33002D58C2E6F08E088F09122F2C1231FB702A
:102D4300CFE50845096006122E24D2E6F0E50CA271
:102D5300E092AF8012122D5C22EE2411F582EF1265
:102D63003EDDE0221209047F050206DD74F0120441
:102D7300A4EAFEEBFF8C0C8D0D750E00A2AFE433BD
:102D8300F50FC2AF7508007509009003788025859B
:102D93000A08850B09122E24D2E4F0E508123BC37E
:102DA300E509123B03D2E7F0E50A24FBF582E50BC4
:102DB30034FFF583E0F50AA3E0F50BE50A450B6064
:102DC30043E50A123D15E50B122E1E50DB850A82E0
:102DD300850B83A3A312076AAC0CAD0DEEFAEFFBD0
:102DE300120CD77402120904E960BDE508450960B5
:102DF3009EE508240DF582E5091231ED70061230C7
:102E03003FD2E4F0E50FA2E092AFE5084509600682
:102E1300120BC9750E01A90E022B47122D62A2E7F0
:102E230022E508123D15E509122D622274F21204FF
:102E3300A474FE120966750C00750D008518828551
:102E43001983E4F0A3F0A2AF33F50AC2AF9003787D
:102E5300126275803BEE24FBF582EF34FF12605B58
:102E6300780C120953EEFCEFFD7A787B03120E8186
:102E73007402120904EEFCEFFD851882851983AAFA
:102E830082AB83120E6FAE08AF0990037EE014F09D
:102E9300EE4F6027122F375019EE240BF8EF12393B
:102EA300E724FFF0A3E034FFF0888289831247EC24
:102EB30060A38E0C8F0D122F2C8095E50AA2E09251
:102EC300AF90037EE06031900B42E0640F600690A8
:102ED30003D4E070237A567B03120DD390801D1226
:102EE30007667A567B03120DC7740412090480081F
:102EF30074F01243DA120BBD851882851983AA82F6
:102F0300AB83120E758A0A8B0BAE0AAF0BEE4F60C2
:102F130013121397122D58A2E28E828F83A350D0DF
:102F230074E980CE7402022A28EE24FBF582EF3482
:102F3300FFF58322122D5CA2E72274F71204A4EAA0
:102F4300FEEBFF121397123D1A12068AE9640190F1
:102F53000B5E700AE02401F8A3E034008003124CF6
:102F6300E4F9EE240B12363712432C90037EE07003
:102F730021900B42E0640F70197A567B03120DD334
:102F830090801D1207667A567B03120DC7740412D4
:102F93000904E5A8F8C2AF90037EE004F0E8024C10
:102FA300A374F71204A4EAFEEBFF122FDAF0121354
:102FB30097EEFCEFFD7A787B03120E7BE5A8F8C24F
:102FC300AF90037E123A57900B42E0640F7005797D
:102FD30008120C830243E7122D5CC2E42274F71239
:102FE30004A474EA120966EAFEEBFF900B3BE0606F
:102FF300468518828519837401F0120B41E412305F
:10300300C9120B41AA82AB8312133D8E828F8312A6
:103013003045C0E0740A120B41D0E0124730740B04
:10302300120B41AA82AB83120D078518828519837F
:10303300AA82AB83120E1574160236AA85088285FE
:103043000983A3A3123D34E02274F71204A4EAFE19
:10305300EBFF1213AF74DC69601E74DD69601974D1
:10306300E469601474F369600F74DE69600A74DFE5
:1030730069600574DB697007EEFAEFFB120C8902D5
:1030830043E774F71204A474EB120966EAFEEBFF3C
:1030930085188285198374061230C9120B41AA82DE
:1030A300AB8312133D12362B740A120B41AA82AB67
:1030B30083120D07851882851983AA82AB83120EAA
:1030C3001574150236AAF0EE2413FCEF3400FD74D8
:1030D300022274F71204A474F7120966EAFEEBFFE6
:1030E300EE2430123B006070123AF4851882851981
:1030F30083AA82AB8312133D7408120B417403F04D
:10310300900B5712076AEE242E12363712076A9075
:103113000B6AE0F97404120B41AC82AD83EEFAEF53
:10312300FB1213A9740412090474DC69602374DDAF
:1031330069601E74E469601974F369601474DE696C
:10314300600F74DF69600A74E869600574DB697095
:1031530007EEFAEFFB120C890236A874F21204A4EC
:103163008A088B09750A00750B00750CE7A2AFE49A
:1031730033F50DC2AF90037880078E0A8F0B122FA1
:103183002C1231FB6035122F3750EF1231E770EA02
:10319300EE24321231F38A828B83A3A3E06870DAC0
:1031A300780A120953EEFCEFFD7A787B03120E8145
:1031B300740212090490037EE014F0E50DA2E0927C
:1031C300AFEE4F6013EEFAEFFB12139779F0EEFABE
:1031D300EFFB120C89750C00A90CAA08AB09120CA1
:1031E30089022A2BEE240DF582EF122D626401224F
:1031F300F582EF122D62F822E0FEA3E0FFEE4F22EC
:1032030074F41204A474F7120966EAFEEBFF8E82CB
:103213008F83A3E064F370030232B18E828F83A3A2
:10322300E064DF70030232B18E828F83A3E064E82F
:10323300607C8E828F83A3E064DB6072121355E996
:10324300F5087062EE240E123B00605A1232BD1272
:103253000B7BEA4B60507408120B411232C8120701
:103263006A7508FF7509FF78081209538E828F83E8
:10327300A3A3A3A3A3A3A3A3E0F97404120B41ACD8
:1032830082AD831213A97404120904E9F50874F3D7
:103293006508601274DF6508600C74E865086006F1
:1032A30074DB6508700F8E828F83A3E508F0EEFA56
:1032B300EFFB120F47740902281BEE240FFAEF34B9
:1032C30000FB7909227402124C2A74FFF0A3125CEA
:1032D3004FA32274F41204A4EAFEEBFF7508008ED8
:1032E300828F83A3A3A3A3A3A31227434003750839
:1032F300E88E828F83A3A3A3A3A3A3A3A3A3A3E083
:10330300C3941040057508E880138E828F83A3A3AE
:10331300A3A3A3A3A3A3A3A3E0640F600B9003B190
:10332300E0540870037508E8EE240B1231F38E8223
:103333008F83A3A3A3A3A3A3A3A3A3A3E0C398508F
:103343000DEE240B123B00640F60037508E8900B2D
:103353005BE0F47003A3E0F470037508EC7A237B5D
:1033630000120ED590035F12559F90035F1247EC36
:103373006020750A23750B00780A120953EE2402A4
:10338300FCEF3400FD125649120E45740212090473
:10339300800375081AA90802281E74F61204A4EA09
:1033A300FEEBFF8E828F83A3A3A3A3A3A3A3A3E018
:1033B300900B42125C6A900B5D125C62900B3D12A3
:1033C3005C6F9003D5F0F91211C99003D5E0601A30
:1033D300EE2404FAEF3400FB79501211B1EE240607
:1033E300FAEF3400FB79E11211B19003D41222D722
:1033F300600474018001E49003611241681209536F
:10340300EE240DFCEF3400FD7A627B03120E45744B
:10341300021209047808120953EE2418FCEF340051
:10342300FD7A6D7B0302537C74F71204A4EAFEEB6E
:10343300FF8E828F83A3E0700612564912134F8EBC
:10344300828F83742C1243DA120C9B0243E774F7C6
:103453001204A4EAFEEBFF90035F1247EC600D1227
:10346300564990035FE4F0A3F0120EDB8E828F8344
:1034730074081243DA120E150243E774F61204A419
:103483009003D4E06013900361E0700D12349F1237
:10349300139DEA4B6003120BCF025384900B3DE064
:1034A300FB900B5DE0FA900B42E0F92274F61204F4
:1034B300A4EAFEEBFF7508001211C3E975F064A4DA
:1034C300F8A9F07AFF7B00120353E8FA8E828F8308
:1034D300A3A31239DDFBA3A882A983A2E05006901F
:1034E3000B3BE06003750801EBA2E15021E508A264
:1034F300E0501B88828983E0FCA308A983EE242F74
:103503001240A79C40057508018003750800EBA2D3
:10351300E25011E508A2E0500B88828983E0C39A48
:1035230040218006E508A2E050199003D4E060131F
:10353300900361E0700D12349F12139DEA4B6003F8
:10354300120BCF02538474F51204A474E7120966B4
:10355300EAFEEBFF750A018E828F83A3A3A3A3A3C5
:10356300A3A3E0A2E2507EEE242BF582EF340012F7
:103573005284123622121391E9706A908010E0642B
:1035830001700DEE241B12430F7005750A00805560
:1035930075080B750900780812095312362B74103D
:1035A300120B41AA82AB83120E4574021209041254
:1035B3000CCBE9FA740E120B4185820885830978D6
:1035C300081209537508307509007808120953EE7B
:1035D300242B12363712076A1255717901120CEF38
:1035E300740612090485188285198374101230C970
:1035F300120B41AA82AB83121331EE242B12557A9C
:10360300740B120B4112432C740D120B41E50A1279
:103613003648120E1574191209047F030206DDEEF3
:103623002413FAEF3400FB22EE2408FCEF3400FDF0
:1036330022EE240EF582EF1250CB228518828519D3
:1036430083EAF0A3EB12364C22124C2AAA82AB83F4
:1036530022C082C0839003D5E06003120D49023B70
:10366300E4C082C0839003CC749FF0A37418F0A3CA
:103673007406F0A37418F0A37497F0A37418125A85
:10368300A7F0900BBF7485F0A37413F0900BC17473
:103693007FF0A37413023BDCC082C083EAFCEBFD22
:1036A300790302478E74091209040243E7C082C0FA
:1036B300837908025A5DC082C08374FE1209668052
:1036C3000D7A787B03120E7512363E120CBF9003EF
:1036D300781247EC70EB90037A1247EC600F7A7A1A
:1036E3007B03120E7512363E120CBF80E9900378ED
:1036F300E4F0A3F090037E121B0D90038B74F3F0A0
:10370300A3740BF0740280027411120904023BE4E7
:1037130074F61204A4E9FF8F0874392508F582743E
:10372300181249DEFE8E08FA7B00120E51EA4B6036
:103733000BEA2508124ABBA3E4F080297A027B0036
:10374300120E51EA4B601A8F0874212508F5827412
:1037530018123BC8F0A3741AF09003ACE0F9120EF0
:103763005D7A007B00025384E9FD74062DFCEAA216
:10377300E0501EEC75F00A84A8F0E86014740A2C7B
:10378300C398FCE8C394054004740A2CFC740B2C06
:10379300FCEDC394134004781480027806E82C24CB
:1037A30009F8E43400F97A0A7B00120353E8F902BA
:1037B30008D1C082C0839003B1E05402600A120EA4
:1037C3001BE96004790180027900023BE4C082C0F6
:1037D300839003B1E05402601690037EE0700C12F4
:1037E30047E9600B123D0AA2E75004790180027990
:1037F30000023BE4C082C08390800EE0F890038017
:10380300E0C3985005120E5180047A007B00023BFE
:10381300E4C082C083120CBF7900023BE474F71248
:1038230004A474FE120966851882851983EAF0A33D
:10383300EB123A34601114606C24FE606F24F8704C
:10384300030239620239BD900B42E0640F60181223
:103853000C95E9701285188285198312564C900BCA
:10386300C3123D1D12068A900B6AE0C0E0851882E0
:1038730085198312470ED0E0123A29F583888274A2
:1038830014F08518828519831252867A7A7B031283
:103893000E6FE5A8F8C2AF900380123A5779201251
:1038A3000C83024191123A1C741580D51239CDA3B1
:1038B300A3E070030239BD8518828519831239DDAF
:1038C300FAA3E0FB8A828B83E0C0E0851882851926
:1038D30083E0FCA3E0CC2406F582EC12363AD0E078
:1038E3001255C888828983EAF0A3EB123A29C812D9
:1038F3003BC3E8123B03851882851983600812399C
:10390300FE403F0239BD1239FE5022123A07FA85B2
:103913001882851983A3E0C82406F582E81231F6DC
:10392300748528F58274181249DE6A601585188239
:103933008519831239F0E06408707F123A0764082E
:103943007078123A0714123A42240AC0E0851882AA
:10395300851983123D1DD0E0123A420402388412C5
:1039630039CD12558188828983E0541F6403703AEC
:10397300E0C4135407F8E58228F8E5833400F9E836
:103983002402F582E9123B03641F701EA3A3A3E084
:10399300C0E08518828519831239D8D0E0123A34F1
:1039A30064077006123A1C7431F0851882851983F6
:1039B3001230476431700302388585188285198374
:1039C300AA82AB83120CBF0238A58518828519839E
:1039D300A312475122123A12A322E02402F8A3E0D1
:1039E3001239E7223400F988828983E0221239F4FC
:1039F30022123F12C82406123EDA221239F4E014CE
:103A0300C3940922851882851983123A12E022E0B1
:103A1300F8123A22A3A3A3A322851882851983A3AC
:103A2300E0F583888222123A2D22124C2A123F1289
:103A330022123A2DF5838882A3A3A3A3A3E0221223
:103A43003A2DC82406F582E8122D6222E5A8F8C2B1
:103A5300AF90037FE004F0E8A2E7A2E792AF22C0B1
:103A630082C0839003831247EC6008123A23120644
:103A73008A80027900023BE474F71204A4EAFEEBA5
:103A8300FFEE240D122A031240ACF8A3E0F912361C
:103A93003412432CEE2435123B00C0E0EE24131203
:103AA3003637D0E0F0EE2436123B00C0E0EE2414AB
:103AB300123637D0E0F0EE2438123B00C0E0EE249B
:103AC30018123637D0E01255A512076A123AF4EEEF
:103AD3002431F582EF123EB0120CE974021209048C
:103AE300E9F5087007EEFAEFFB120BCFA9080243C2
:103AF300E7EE2426FCEF3400FD22EE2410F582EFDE
:103B0300122D6222C082C083120C95E960047920D1
:103B130080027901023BE4C082C083EA123D15EBC7
:103B2300123B03D2E0023BE3C082C083123BBB12D1
:103B330031ED7011123BD0400C8A828B83A3E0F9E4
:103B4300120C898071EA123BC3EB123B03A2E650CD
:103B5300128A828B83A3E0F9900BC5123D1D1206D6
:103B63008A8053123BBB1231ED700D123BD05008CB
:103B73008A828B83743080358A828B83A3E0641BB3
:103B83008A828B83700474228023A3E0700F123B1C
:103B9300BB1231F6744528F5827418800D123BBBB5
:103BA3001231F6742128F5827418123BC8F0900381
:103BB300ACE0F9120E5D8029EA240DF582EB22E8D0
:103BC3002410F582221249E28A828B8322EA24108E
:103BD300F582EB122D62A2E322F09003B1E04402DE
:103BE300F0D083D0820208D174F71204A4E9FE1244
:103BF30047E97003023D07EE6010741B6E701212EA
:103C0300558AE064057003023CD5125987E4023CEF
:103C1300D974E96E705B123D3D700B120E21E960A1
:103C230005123D56605B900381123D3A900381601B
:103C330039123D59900381700B123D3A14F0121260
:103C4300EF023D07123D48C2E7123EF8240DF5820C
:103C5300E8126047700C900381E0F8A3123D0AD28A
:103C6300E2F0123D2512068A807612598A74E980A1
:103C73006574E16E703F120E21E96056123D567075
:103C830051900B64E0C0E0124CE1C82412F582E8C5
:103C930012363AD0E0F0900B53E0C0E0900381126B
:103CA3003D21123D21D0E0F0900B53E004F0790167
:103CB3001212D7804F741C6E701890038112564CE9
:103CC300900BCB123D1D12068A900381E4F0A3F002
:103CD3008032125987EEF090038112564C120BBDBD
:103CE300123EC9E054806010900B6AE0F91211EDA6
:103CF300900B69E0F91211E1900381E4F0A3F079EC
:103D030010120C830243E7E0C8123D15E8122D623E
:103D130022E82411F58222900BC9123D3422124766
:103D23004E22900381E0FAA3E0FB900BC1123D34D5
:103D330022E0F8123A2222E0F8A3E0C82412F58226
:103D4300E8122D6222E0F8A3E0C82410F582E812FD
:103D53002D6222900381123ED0E054042274F412A7
:103D630004A4750A00750B00A2AFE433FFC2AF12BF
:103D730047E96003023E58123D1A12068AE94410CD
:103D8300F8900378800985080A85090B123EA01272
:103D93003EB57003023E58122E24586870E8780A24
:103DA300120953AC08AD097A787B03120E817402B1
:103DB300120904900381E508F0A3E509123EF81205
:103DC3003D15E8122E1E5003023E5F90037FE01460
:103DD300F0EFA2E092AF900381E0240EF8A3E03469
:103DE30000F9880889098882F58312564C9003816B
:103DF300123A0DF9120B81E990037CF0123EEEE0CA
:103E030054806018124CE1C82413123EAD1211ED18
:103E1300124CE1C82414123EAD1211E1123EC9A3A3
:103E2300E05401606690037C1247EC6049123EE265
:103E33006044123EE2F8790090037C12564C120360
:103E43005BE8C0E0123EBDD0E0123EFDC3941340D8
:103E5300117402800EEFA2E092AF803E90037E02C7
:103E63003DD1E4C0E0900382E0C8241AF582E81251
:103E7300363AD0E08010123EBD7401123EF8241A87
:103E8300F582E8122A06F07903800C900381123D33
:103E930048A2E1B3E433F91212D702281EE508243D
:103EA300FBF582E50934FFF58322F582E8122D62E2
:103EB300F922126061E5084509221255B82419F563
:103EC30082E81250CB22900381123ED022123F127D
:103ED300C8240E123EDA22F582E83400F58322125A
:103EE30055B82418F582E8122D6222A3E4F0850860
:103EF3008285098322123F0AC822123F0AF583886A
:103F030082A3A3A3A3E022F0900381123F1222E035
:103F1300F8A3E02274F71204A4EAFEEBFF120CB933
:103F2300EE123BC3EF123BD6400A1231E770059005
:103F3300800C800390800DE0F9EEFCEFFD7A787B36
:103F430003120E87E96034EEFAEFFB900BC7123DC4
:103F53001D12068AEE240E123F8E7010123A4FEE97
:103F6300240E12409F7021120BC9801CEEFAEFFB46
:103F7300900BBF123D1D12068A800D8E828F83A384
:103F830074F11243DA120BBD0243E7F582EF122DEF
:103F930062540422C082C083120BC9023BE474F74B
:103FA3001204A4EAFEEBFF79009003B1E05402701F
:103FB3000AEE2433123F8E600279E89003B1E05495
:103FC30060700CEE2433123B005402600279E88ED9
:103FD300828F83A3A3A3A3E0C39475400279E8EE81
:103FE3002431123B00700CEE242E123B0070047936
:103FF300F58009E97003120BABE96007EEFAEFFBFA
:10400300120C890243E7C082C0838A828B83740DBA
:10401300F0120E15023BE474F41204A4EAFEEBFF63
:104023008E828F83E4F0A31240AC540490800C7012
:1040330012E0F890037FE0C398401279F1120C89E3
:1040430002281EE0F890037EE0C39850EEEE24337E
:1040530012409F6035EE24371240A794054039EE95
:104063002433123B005405702F7A857B03120DD342
:10407300EE2437123637121F6F780812094F7A85EC
:104083007B03120DC77404120904EEFAEFFB9003CD
:10409300ACE0F9120E5D80A879E880A11250C8A3A4
:1040A300E0540122122D5FC322F0EE2433122D5F60
:1040B3002274F61204A4E9FE2451FAE43400FB123C
:1040C3000E51EA4B6015EE8A828B83A3A3A3A3F060
:1040D300EA2451124AC612432C80047A007B000260
:1040E3005384023F97C082C0839003A8E4F09003F7
:1040F300ABF09003941241097402F090039D1241B6
:10410300097401023BE37483F0A3740CF0A32274DB
:10411300F61204A474F11209668518828519837452
:1041230002F07401120B41E9F060047AFF7BFF7423
:1041330002120B41EAF0A3EB1241681209537CA06F
:104143007D037406120B41AA82AB83120E457402DF
:10415300120904851882851983AA82AB83120E156E
:10416300740F025381F075080B75090078082274E7
:10417300F71204A474FE12096685188285198374E4
:104183000AF07401120B41E9123648120E1574023B
:104193000236AA74F01204A4125E87120B02780886
:1041A300790C1203B4780812094F7A977B03022B18
:1041B3003F74F41204A474C6120966900B42E064BF
:1041C3000F6010851882851983742E124C32120CDD
:1041D3009B80277A8E7B03120DD312281012035B68
:1041E30088088909E4F50AF50B780812094F7A8ED5
:1041F3007B03120DC77404120904743A02281B745A
:10420300F61204A474F7120966EAFEEBFF8E828F9E
:1042130083A3E0F50860030242F812430C6008E050
:10422300640360037508E8EE242612363712274527
:104233005034E50860030242F8EE2426FAEF340016
:10424300FB79E11211B1EE2431FAEF3400FB79501E
:104253001211B112430C7014EE242812557A900BEC
:104263005112432C80187508E80242FC900B5174DC
:10427300FEF0A3041243157A487B0B12133D750815
:104283000B7509007808120953EE241BFCEF340068
:10429300FD7AA07B03120E457402120904122A0050
:1042A30012291A7402124315851882851983AA826A
:1042B300AB83121331EE2431125346122A0C8A8235
:1042C3008B83E8F0A3E91240AC12535C12095374D8
:1042D30002120B41AC82AD8379831A1AEFFB120CE5
:1042E300E97402120904E9F5097007EEFAEFFB120B
:1042F3000BCF850908E508600B126412741712438B
:10430300DA120C9B7409025381EE2430122D5F6480
:104313000222F0EE2428FCEF3400FD22FB8A828B7C
:1043230083124332F98A828B83E8F0A3E9F022E017
:1043330024FFF8A3E034FF2274F61204A474F712E6
:1043430009669003ABE070457401F0F91212A18580
:104353001882851983AA82AB83120CC57508A075D0
:1043630009037808120953750801750900780812C2
:104373000953900B5712076A7406120B41AC82ADB6
:10438300837A037905120CEF7406120904024307BA
:1043930074F71204A4EAFEEBFF79011212A78E82CE
:1043A3008F83E064207004A374EBF09003ABE0A26E
:1043B300E25003C2E2F0E0A2E150081245E3120C1E
:1043C30005800C8E828F83742A1243DA120C9B8031
:1043D300138E828F837429F0EEFAEFFB22EEFAEF4D
:1043E300FB120D3D7F010206DD74F41204A474FE7A
:1043F300120966EAFEEBFF79011212A77A8E7B039C
:10440300120DD37A977B03120DD312471A851882A4
:10441300851983124747E0F50870158518828519B9
:1044230083AA82AB8379531211B11260391211B18D
:10443300750A0B750B00780A12095312362B7AA0F2
:104443007B03120E457402120904851882851983B1
:1044530012564CA908120BFF9003ABE0A2E1500ADD
:104463008E828F83A3E0F9120C059003ABE4F07402
:104473000202281B74F71204A4EAFEEBFF8E828F5C
:1044830083A374EBF09003ABE0A2E1500579EB1248
:104493000C05EEFAEFFB120C350243E774F7120436
:1044A300A4EAFEEBFF79011212A77A8E7B03120DA9
:1044B300D37A977B03120DD39003A8E4F09003AB58
:1044C300F07AFF7BFF8E828F83A3E0F9120BFF024A
:1044D30043E774F71204A4EAFEEBFF120C2F024326
:1044E300E074F71204A4EAFEEBFF79011212A78E1F
:1044F300828F83A3A3A3A3E06003E4800274EB127F
:1045030045355003C2E2F0E0A2E150081245E31240
:104513000C058014A2E050108E828F83742AF0A3BE
:1045230074EB1243DA120C9BEEFAEFFB120BE1026F
:1045330043E78E828F83A3F09003ABE0A2E2227461
:10454300F61204A4EAFEEBFF9003ABE0D2E1F079AC
:10455300011212A18E828F83A3E07041120CCBE96A
:10456300FAEE240DF508EF3400F509780812095323
:104573007508017509007808120953EE240B1236E9
:104583003712076AEE2402FCEF3400FD7905120CA2
:10459300EF7406120904E98E828F83A3F08E828F53
:1045A30083A3E06004F9120C0502538474F7120428
:1045B300A4EAFEEBFF79011212A78E828F83E064D7
:1045C300207004A374EBF09003ABE0A2E25003C2AB
:1045D300E2F0E0A2E150061245E3120C050243E7C4
:1045E300C2E112641DA3E0F92274F71204A4EAFEE7
:1045F300EBFF79011212A77A8E7B03120DD38E8201
:104603008F83A3A3A3A3E06003E4800274EB1245AA
:10461300355003C2E2F0E0A2E150061245E3120C6A
:104623000502452B74F71204A4EAFEEBFF7901128D
:1046330012A78E828F83A374EB12453A5003C2E212
:10464300F0E0A2E150061245E3120C050243E774C1
:10465300F71204A4EAFEEBFF7A8E7B03120DD3EE6E
:10466300FAEFFB120C590243E074F71204A4EAFEBA
:10467300EBFF7A8E7B03120DD3EEFAEFFB120C598C
:104683000243E774F71204A474EF120966EAFEEB1F
:10469300FF1255717A487B0B12132BE9606885185A
:1046A300828519837409F07401120B4174EFF012BF
:1046B300471AF87402120B41E8124747A3A3E0C05C
:1046C300E07404120B41D0E012473E640870158E6B
:1046D300828F83A3A312470EE0C0E07405120B413F
:1046E300D0E080067405120B41E4124730740612C1
:1046F3000B41AA82AB83120D07851882851983AA01
:1047030082AB83120E1574110236AA1255BB24070D
:10471300F582E81250CB22125350FB8A828B83120C
:10472300558588828983E0FCA3E0F9EC22124734A3
:1047330022F0EE2408FCEF3400FD2212474222123D
:104743005C58E0221255D112474E22E0F8A3123AE8
:1047530023A3A322C082C083120D49023BE4C0827B
:10476300C0839003C874CBF0A37417F0A37472F0E2
:10477300A37418F0900BCF7490F0A37415F0A37486
:10478300F8F0A37415125A95023BE3120CA7023BEF
:10479300E474F61204A474FE1209669003AD124782
:1047A300EC60077AAD7B03120CBF9003B3E4F09087
:1047B3000B9D1247EC602C800D851882851983AA06
:1047C30082AB83120CBF9003ACE0F9120E698A0826
:1047D3008B09A808A90985188285198312432CE837
:1047E3004970D602537F900381125585E84922749C
:1047F300F61204A4E9FA7B009003ACE0F9120E8DE3
:1048030002538474F71204A474F0120966EAFEEBEF
:10481300FF89088E828F83E0F8745128F58274181B
:104823001249DEC0E07401120B41D0E0F0640B705A
:104833000D8E828F83A3E9F0120D2B02490AE070DB
:104843000302490A640C60030248F6741A6508708F
:104853000B7404120B41E4F0A30248F57404120B29
:1048630041EEF0A3EF1255C0C0E07403120B41D028
:10487300E0125C4B120B2A7406120B41120B1E8EB4
:10488300828F83A3A3A3A3A3A3A3A3A3125581747A
:104893000A120B411252AFE0541060098518828549
:1048A3001983E48012EE24121231F3900B64E0C3F7
:1048B30098851882851983F0E0C0E0740C120B41CF
:1048C300D0E0F0EE2415123B00C0E0740D120B4152
:1048D300D0E0F0EE2416123B00C0E0740E120B4140
:1048E300D0E0F0EE2417123B00C0E0740F120B412E
:1048F300D0E0F07402120B41E508F07401120B4191
:10490300AA82AB83120E1574100236AAC082C0832A
:104913009003B3E07004790180027900023BE4C0A4
:1049230082C0839003B3E064037004790180027949
:1049330000023BE474F61204A49003B3E0C333F81B
:10494300E433F974CD28F582740B39F583124E3CA8
:10495300C2E7F0C333FCE82CF582E912363AA3E44C
:1049630093FEC333FCE433FD74CD2CF582740B3D0D
:10497300125284EC4D6005EE9003B3F08A828B8370
:10498300E0C333FCE433FDE82CF582E93DF583E431
:1049930093F508C4540FC333F874C228F582740323
:1049A30012363A1247EC7005120D19801BE50854B4
:1049B3000FC333FCE82CF582E91249DEC0E0740131
:1049C30093F583D08212068A025384890CEAFEEBA4
:1049D300FF890874672508F58274181249E22212C8
:1049E3003EDDE4932274F31204A474FE12096612EA
:1049F30049CEFA7B00120E518A088B09EA450960F9
:104A03002F8A828B83E50CF0124AD2120953EEFCF3
:104A1300EFFDEA2402FAEB3400FB120E4574021296
:104A23000904AA08AB099003ACE0F9120E5D8012E9
:104A3300851882851983E50CF0791AAA82AB831253
:104A43000C897402022D6774F01204A474FE120917
:104A5300661249CEF50AFA7B00120E518A088B09B9
:104A6300EA4509603A8A828B83E50CF0A3E4F0EA15
:104A7300250A124ABB124AD2120953EEFCEFFDEA91
:104A8300241BFAEB3400FB120E457402120904AA2C
:104A930008AB099003ACE0F9120E5D790080148530
:104AA3001882851983E50CF0791AAA82AB83120C5C
:104AB30089791A7402022B44124AC6E81255D1A30B
:104AC300A3A322F8EB3400F98A828B83A3A322A346
:104AD300E4F0850C0A745C250AF58274181249E225
:104AE300F50A750B00780A22C082C083E99003ACF3
:104AF300023BE374F61204A474FE120966EAFEEBA9
:104B0300FFEE5420702E8037E5A8F8C2AF900380E3
:104B1300E014123A598A828B83124C1C12559C1250
:104B23000C9B851882851983E0641560077AAF7B37
:104B330003120CBF7A7A7B03120E75EA4B70C9EF2E
:104B43005480700F801912559C120C9B7AAF7B0313
:104B5300120CBF9003ACE0F9120E69EA4B70E7EE5A
:104B63005410600E851882851983742D124C3212ED
:104B73000C9BEEA2E0500E851882851983742412D3
:104B83004C32120C9BEE5402600E851882851983F9
:104B93007425124C32120C9BEE5404600E8518825D
:104BA3008519837426124C32120C9BEE5408600E46
:104BB3008518828519837428124C32120C9BEE548B
:104BC3004060107401120B41124C25742C124C32AC
:104BD300120C9BEE548060107401120B41124C2591
:104BE300742F124C32120C9B9003AD1247EC6022CF
:104BF300E5A8F8C2AF9003AD12564C9003ADE4F0B4
:104C0300A3123A59A312559F120C9B7AAF7B03123E
:104C13000CBF7A007B0002537FE0851882851983DD
:104C2300F022E4124C2A22F085188285198322F09F
:104C3300AA82AB8322C082C0839003AF125581EA5C
:104C4300687002EB6970079003AFE4F0A3F0023BD6
:104C5300E474F71204A4EAFEEBFFEE4F7003120FA5
:104C6300E3A2AFE433F508C2AF8E828F831247EC21
:104C73006028E824FBFAE934FFFB9003AF12528665
:104C8300E86C7002E96D70079003AFE4F0A3F08E57
:104C9300828F83E4F0A3F0120EDBE508A2E0800428
:104CA300A2E7A2E792AF0243E7C082C083900B5111
:104CB300E064FE7003A3E0F470097C487D0B1213DB
:104CC3003180188A828B83A3A3A3A3A3A3A3A37472
:104CD30002F0900B51124CE4124327023BE4900381
:104CE30081123F1222C082C083900B5BC3E094FE0B
:104CF300A3E094FF4004790380027902023BE4C0FD
:104D030082C083124EA28C828D83124DFA68703B4F
:104D1300740268701C8A828B83124D53E068702B77
:104D23008A828B83A3124D53A3E068701E7901809E
:104D33001C7403687015EC2405FCED3400FDEA24B3
:104D430005FAEB3400FB12133780027900023BE4CF
:104D5300A3A3A3A3A3E0F88C828D83A3A3A3A3A3FC
:104D63002274F61204A47E00740A120B41E0124D61
:104D7300EEFF8A828B83A3A3A3A3A3A3A3A3E06FC2
:104D8300706474026F704D8A828B83C082C0838883
:104D9300828983A3A3A3A3A3E0F50888828983A3BD
:104DA300A3A3A3A3A3E0FBAA08D083D082E06A70E5
:104DB30003A3E06B703088828983A3A3A3E0FA88FE
:104DC300828983A3A3A3A3E0F9EA6C7002E96D705F
:104DD300150E801274036F700DE82405FCE934008E
:104DE300FD121337E9FEEEF9025384F8A3E0F988C4
:104DF300828983124DFA22A3E01313543F540322F2
:104E0300C082C0838A828B83A3A3A3A3A3A3A3A3E8
:104E1300E064027016900B51124E3C687003A3E0DD
:104E23006970047901800F7900800BEAFCEBFD7A4D
:104E3300487B0B12132B023BE41255858A828B832A
:104E4300E022C082C083124EA2603A740268703DB1
:104E5300900B51C3E094FEA3E094FF50308A828B01
:104E630083A3A3A3A3A3E0FC8A828B83A3A3A3A30B
:104E7300A3A3E0F9ECF875830B758251E068700326
:104E8300A3E0697004790180137900800FEA240597
:104E9300FCEB3400FD7A487B0B121337023BE48AA8
:104EA300828B83124DFAF82274EC1204A4EAFEEB0F
:104EB300FF8C128D13750A00750B008C828D83A3F2
:104EC300A3A3A3A3A3A3A3E0F510E9A2E750087546
:104ED3000CFF750DFF800A900B57E0F50CA3E0F56E
:104EE3000DE9C2E7F511EE240E123B005420600ACF
:104EF300EE241012363774088006EE24101250B9CF
:104F03001250D8540460071250C1748080051250A7
:104F1300C174101250D854106008EE24121250B904
:104F2300800E900B64E0C0E0EE2412123637D0E01E
:104F33001250D8A2E05003750A205408600674107A
:104F4300450AF50A8E828F83A3A3E024FFF508A305
:104F5300E01250B4EE240D1240A79402E040106416
:104F63000B6007E0141250DE8003750B22740345B7
:104F73000AF50A85110E750F00740E780E120A5881
:104F8300E50F450BF50B7414120B411251A6740275
:104F93006511700E900B5C1250DD900B5B1250CFBD
:104FA30080137403651170161250AC7C6B7D0BAAD1
:104FB30008FB12133DE50824FF1250B08004E511ED
:104FC3006028E5106014E50E650C7004E50F650DAF
:104FD30070087440450AF50A8010850882850983A4
:104FE300E50D1250F6E50C1250E485100C750D001A
:104FF300740A780C120A58E50D450BF50B7402651B
:10500300107015851282851383A31250DD851282D9
:105013008513831250CF80137403651070161250DA
:10502300ACAC12AD13AA08FB12133DE50824FF1222
:1050330050B08004E5106010850882850983E50F70
:105043001250F6E50E1250E4A808A909E824FFF56A
:1050530008E91250B4EE240D123B007005900B4783
:105063008003900B53E0FA04F0EA88828983123EAE
:10507300F0E50B1250F6E50AF0EE2404F8EF3400E5
:10508300F91229F8FBAC088A828B83E0F50A88823F
:105093008983E0250AC39C1252ABECF0A3E5091205
:1050A3006419A3E4F0F9022CF2E50824F9F508E504
:1050B3000934FFF50922F582EF1250CBE422EE24E6
:1050C300111250C822F582EF123EDD22E0850882DC
:1050D300850983F0221252B7E022E0850882850910
:1050E300831250E822F0E50824FFF508E50934FFB0
:1050F300F509221250E8850882F5832274EB120425
:10510300A4890D8A0C8C108D117415120B41E0F5D6
:105113000AA3E0F50B7417120B411251A675141A6A
:105123007419120B4112605DAA08FB120B7B8A12E1
:105133008B13AE12AF13EE4F6059123634E50EF0F7
:10514300A3E50F12291DE50DF0750E0B750F007801
:105153000E120953AC08AD0912519D120E4574028B
:10516300120904780A120953AC10AD11A90CEEFA16
:10517300EFFB120CE97402120904E9F5147014E54B
:105183000D24F9600314700412527EF0EEFAEFFB63
:10519300120BCFA9147F0D0206DDEE241BFAEF34A8
:1051A30000FB22E0F50EA3E0F50F2274F21204A433
:1051B300EAFEEBFF8C088D09890A740E120B41126B
:1051C30052867A008E828F83A3A3122A1188828942
:1051D3008374071252C288828983E41252988882A8
:1051E3008983741F1252987411120B41E0600312E9
:1051F30052A27410120B41E060031252A2888289FA
:1052030083E50A1252C274012AC43354E04403886A
:1052130082898312528CFB880B8A828B83E0C3952D
:105223000B8E828F83A3A3A3A31252AB1252AFE4BC
:10523300F0A312291D740BF0F50C750D00780C12F8
:10524300095312519D120E457402120904750CFF85
:10525300750DFF780C120953AC08AD097902EEFA0B
:10526300EFFB120CE97402120904E9F50870091244
:10527300527E1243DA120BCF0229F4122D5CD2E5CF
:1052830022F583E0FCA3E0FD22F0EE2402FAEF34E2
:10529300002212529C1252CA22E0888289832288F9
:1052A3008289831252CA0A221255D422E8F0A3E952
:1052B3001252B722F0EE240EF582EF123EDD2212D7
:1052C30052D8E41252CA221252CE22F0E824FF1816
:1052D300E934FFF9221252CE888289832274F612AE
:1052E30004A474F7120966EAFEEBFF7801EE243298
:1052F300123B0060027805123634E812291A74044E
:10530300125368121331EE242F12534612431FEE29
:105313002431123B0012535C1209537402120B41E5
:10532300AC82AD8379031A1AEFFB120CE9740212F3
:105333000904E9F5087007EEFAEFFB120BCFA90891
:105343000243071250C812606112535022EE240226
:10535300F8EF3400F9E8FAE9228882898312474298
:1053630004F0780822F0EE2426FCEF3400FD8518C3
:1053730082851983AA82AB8322120E457402120915
:10538300047F020206DD74F31204A48A088B09EC7D
:10539300FEEDFF8A828B8374051255C08A828B834C
:1053A300A3A3F0EA2403F50AEB3400F50B850A8284
:1053B30012557FEE2425123637120B2A123D14E9BB
:1053C30012363A120B1E125571E8FAE9FB12133129
:1053D300850A82850B8312598FFAA3E0FB888289A1
:1053E30083A3A3A3A3A3A3A3A3A3EAF0A3EB1255AD
:1053F300A5E0C0E0123BC2E912363AD0E01255AD47
:105403002415F582E81250BC1255AD240EF582E83E
:105413001250BC124730850A82850B83E02416FAAA
:10542300A3E03400FB120D078E828F83A3A3A3A3F3
:10543300A3A3A3E0C0E0850A82850B83E0F8A3124F
:10544300558AD0E0125595FAA3E0FB850A82850BB5
:1054530083125581E8240BFCE93400FD8A828B8397
:10546300E08C828D83F0A3E41255C8E0F50B8C82A7
:105473008D83A3E0450B1252ABA3E0FCA30A0AAB56
:1054830083A2E7E433C0E0E8240FF582E912363A59
:10549300D0E0F074075C600478018002780075F056
:1054A3000374075CA428F8EA28FAEB3400FBE50848
:1054B3002405F8E5093400F98A828B8312529C1281
:1054C30055C8850882850983A3A3A3A3A3A3125563
:1054D3009F88828983E0F85407C333FCE8C4540FE0
:1054E3005407F50A750B007403780A120A58EC2561
:1054F3000AF8EA28F8EB3400F9850882850983A3C2
:10550300A3A3A3A3A3A3A3A3E8F0A3E912473EFA8B
:105513008E828F83A3A3E02AFAA3E03400FBC3EABD
:1055230098EB9940308E828F83A3A3E0F88508829D
:10553300850983A3A3A3A3A3A3A3A3A3E0FA8E82B2
:105543008F83A3A3A3A3E0C39A2885088285098335
:10555300A3A3A38010850882850983A3A3A3A3A380
:10556300A3A3123EEEA3A3A3A3A3F0022D6AEE24EA
:1055730013FCEF3400FD22F582EF3400F58312555E
:105583008522123F12F922E0C8240DF582E8125059
:10559300CB2212641DA3A3E0229003AFEAF0A3EB96
:1055A300F022F0EE242F1250C822F0850A82850BD8
:1055B300831255BB22900381123F12C822F0EE24BE
:1055C30032122D5F221255D4A3AA82AB8322F0A3F9
:1055D300E9F08A828B832274F61204A475080B7592
:1055E3000900780812095302537C0208D1C082C013
:1055F300837918120C89023BE4C082C0838A828BB0
:1056030083E0C3940B5003120D13023BE4C082C02A
:1056130083791980DE74F71204A4EAFEEBFF90038A
:10562300AD1247EC60109003AD12564C120D1F7A69
:10563300AD7B03120CBFEEFAEFFB120CB99003AD76
:10564300EEF0A3EF800B90035FE0FAA3E0FB22F000
:10565300A3F00243E774F71204A474DE120966EAA6
:10566300FEEBFF8E828F83E024FD601124FE601524
:1056730024ED600924FA600D14600A803D7416124B
:105683000B41E480077416120B417401F0123AF4D3
:10569300740B120B41AA82AB8312133D7413120BCA
:1056A30041125733120B4112432C740A120B41124D
:1056B300573F120B4112432C80417416120B417455
:1056C30002F0125571740B120B41AA82AB831213B1
:1056D3003D7413120B41125733120B4112432C74B6
:1056E3000A120B4112573F120B41E8F0A3E912577C
:1056F3004B120B41AA82AB83120D078518828519C1
:1057030083740B126419A3E0C0E07401120B41D03F
:10571300E012574B120B41AA82AB83120D07851877
:1057230082851983AA82AB83120E1574220236AACC
:105733007403F0900B5B1255857402227402F0908F
:105743000B5712558574142212473474172274F7B9
:105753001204A4EAFEEBFF8E828F83A3E0F50870A8
:1057630035EE242F1257C87003A3E0696003750850
:10577300E8EE2426FAEF3400FB120CDDE96029EE93
:105783002432F582EF1257C2E508700AEEFAEFFBF6
:10579300120CFBE9F508E508600B12641274191288
:1057A30043DA120C9B0243E7EE2432123B0060D82B
:1057B3009003D4E070D27508E880DFF582E5091222
:1057C30050CBE4F0221250C8125585900B57E06875
:1057D30022C082C08374F11209667402120B4174F1
:1057E300041252ABA3E0C0E07403120B41D0E0F00B
:1057F300EA242FF582EB12557D740D120B411243EF
:105803002CEA2426FCEB3400FD7404120B41AA821B
:10581300AB831213317404120B41AA82AB83120CB3
:10582300DDE9600E1258461211B1900B5174FFF06E
:10583300A3F07402120B41AA82AB83120E15740FEC
:1058430002370D85188285198374FFF0A312364C35
:1058530079532274F61204A474E81209668A088B39
:10586300097402120B417403F0EA2413FEEB3400B3
:10587300FFEEFCEFFD7404120B41AA82AB831213FB
:105883003D12303FC0E0740C120B41D0E0F0E5084C
:105893002408FCE5093400FD740D120B41AA82AB08
:1058A30083120D07EEFAEFFB120CDDE9600E1258BE
:1058B300461211B1900B5174FFF0A3F07402120B56
:1058C30041AA82AB83120E15741802538174F61227
:1058D30004A474D4120966EAFEEBFF8E828F83A3BD
:1058E300A312598AE0A2E65017900B5712598F68FA
:1058F3007003A3E06970099003D5E06046120D4977
:10590300740B120B41A882A9837403120B41125F1B
:10591300A8120D01851882851983742B124C32123B
:105923000C9B900B3CE060087408120B41E0600E86
:105933008518828519837405124C32120E15742C46
:10594300025381900B60E060B7123622120CDDE93E
:1059530070AEEE2408F508EF3400F5097808120953
:10596300537508017509007808120953900B5712F3
:10597300076A7C487D0B7A037906120CEF740612D2
:10598300090480BA900381123D34A322125585EE97
:10599300242B122D5F22C082C08374EF1209668507
:1059A30018828519837409F07401120B4174EE1285
:1059B3003648120E1502370B74F71204A4E9FFA23E
:1059C300AFE433F508C2AFEF600312119F12113930
:1059D300900B6AE0F91211ED900B69E0F91211E1F5
:1059E3009003D5E0F91211C9900B5712564C1211BE
:1059F300CF900B5B12564C1211D57A6B7B0B1211A5
:105A0300DB7E00125A451247EC6009125A45123DDB
:105A13001D12068A0EEEC3940740E8120D9D120C68
:105A23007D9003D6E4F0120B759003D5E4F07A5A17
:105A33007B0B79521211B1E508A2E092AF79000213
:105A430043E7EEC333F8E433F974B428F5827403FF
:105A530039F58322C082C0837909120CA1023BE489
:105A6300C082C0839003C274F8F0A37417F0A374C8
:105A73007CF0A37418F0A3742DF0A37418125A8C3D
:105A8300121133023BE40208D1F09003B1E4F0A316
:105A9300F022F09003B474F9F0A3740BF09003B107
:105AA300E0440122F0900BD57460F0A37416F090DB
:105AB30003B674B5F0A374132274F71204A4EAFEB8
:105AC300EBFFECF8EDF98E828F837407125B1FE016
:105AD3008E828F83A3A3125B1FA3A3E08E828F8387
:105AE300A3A3A3F088828983A3A3120B2A8E828F98
:105AF30083A3A3A3A3120B1E8E828F83A3A3A3A3AB
:105B0300A3A3A3A3E4F0E82418F582E91231F61263
:105B1300627BA3A3A3E8F0A3E9025654F088828929
