:020000040000FA
:060000000209920201BD9D
:03002B0002077059
:030033000201DFE8
:030053000200F1B7
:03006B0002136419
:03007B00020693E7
:100083000201510300030003000300030003000304
:10009300000300030005000A00140028004F009E1F
:1000A300000000200C200C200C200CC40ABE0A20E7
:1000B3000CAB15000000000B1400000000FF000053
:1000C30000FF0012DE434A8E2A225E020A06A23392
:1000D300C22327FF1420FFFFFFFF0120140403782E
:1000E30000080000FF1F1F1FC80020FD0002C0E022
:1000F30074F11204E5A2AFE433FED2AFE5A7FFE546
:10010300A1F5085FF509741055096006120FC8754B
:10011300A1EF740855096008120FCE75A1F780246A
:10012300E508A2E092F0EFA2E082F0501790619808
:10013300E0F8900616E0C398A2D265D0335002E8E7
:10014300F075A1FEEEA2E092AF7F020205A1C0E02E
:1001530074F21204E5A2AFE433FED2AF9061A4E0DF
:10016300F8759B00E59158540860087591F71210D3
:10017300228023E59158541060087591EF121028DE
:100183008014E591A2E092F0E8A2E082F05007E04B
:10019300C2E0F01211669061A3E0F8E5E958540457
:1001A300600E12113C75E9FB906193E0A2E640F208
:1001B300EEA2E092AF7F010205A1C0E074F2120447
:1001C300E5A2AFE433FED2AF9061A5E0F8E5BF58F6
:1001D3005404600675BFFB12117E80D4C0E074F135
:1001E3001204E5E59DA2E650FA906206E0FAA2E267
:1001F3005035A82AE890620BF0F508852B097404A2
:1002030078081209F4E508906207F0852A08852B1F
:1002130009740978081209F4E508543E906209F05C
:10022300906201E0D2E0F07827EA46F6906202E0BD
:10023300F508750900740478081209597827E50848
:1002430046F608E50946F6906204E0F508750900EC
:10025300740978081209597828E50946F6EAA2E0F4
:10026300500375290174065A6003752900E58BA2B2
:10027300E55006758BDF75290012123E758B00C29F
:10028300E87F020205A1C3E498F8E499F91202CACF
:100293008026C3E49AFAE49BFBE920E7E91202CA49
:1002A300E498F8E499F922C3E498F8E499F912027E
:1002B300CAE498F8E499F9C3E49AFAE49BFB22EBC5
:1002C30020E7CFE920E7E0B90010BB0008E88AF097
:1002D30084F8AAF022E4FBC8FA22EB70227B10C850
:1002E30033C8C933C9335007C39AC3DBF280069AB4
:1002F30050012ADBEAC833F4C8C933F4C9FA2275BA
:10030300F008E4C833C8C933C933C99AC99B500438
:10031300C92AC93BD5F0ECFBC833F4C8E4C9FA22B7
:10032300080808EAC0E0EBC0E086F0E7A4FA180981
:1003330086F0E7A42AFA180986F0E7A42AFA18092E
:1003430086F0E7A42AFA1986F0E7A4FBE5F02AFA77
:10035300190886F0E7A42BFBE5F03AFA190886F0B2
:10036300E7A42BFBE5F03AFA18180986F0E7A4C5D1
:10037300F02BFBE43AFA1908E7C5F0C6A426F6E524
:10038300F03BFBE43AFA1886F0E7A4F6E5F008261A
:10039300F6E43B08F6E43A08F6D0E0FBD0E0FA22B4
:1003A300E4CFC0E0E4CEC0E0E4CDC0E0E4CCC0E004
:1003B30075F020C3E633F608E633F608E633F608AD
:1003C300E633F6181818EC33FCED33FDEE33FEEF8D
:1003D30033FFC3EC9709ED9709EE9709EF971919C6
:1003E30019400FFFEC97FC09ED97FD09EE97FE19F5
:1003F3001906D5F0BEECF709EDF709EEF709EFF7AB
:10040300191919D0E0FCD0E0FDD0E0FED0E0FF22C6
:100413002518C582C0E0E51934FFC583C0E0E5189F
:10042300C3958224F810AF08858319858218800844
:10043300858319858218D2AFCEF0A3E520F0A37887
:1004430008E608F0A3DEFAEFF0A3E58124FAF8E664
:1004530008F0A3E608F0A3E608F0A30808E608F00E
:10046300A3E608F0A315811581D0E0FED0E0F815CE
:100473008115811581E8C0E0EEC0E022120A37B988
:1004830000030204CFE47921780BB800028004F75B
:1004930009D8FCE4900301788B79048002F0A3D897
:1004A300FCD9FA90068BAA82AB83900086786C798C
:1004B300018015E493A3AC82AD838A828B83F0A37E
:1004C300AA82AB838C828D83D8E9D9E775829F7525
:1004D30083BB74011207CF75827675831374001280
:1004E30007CFC0D02518C582C0E0E51934FFC58306
:1004F300C0E0E518C3958224F310AF0885831985FE
:1005030082188008858319858218D2AFC8F0A3E9C1
:10051300F0A3EAF0A3EBF0A37908E709F0A3D8FA74
:10052300ECF0A3EDF0A3EEF0A3EFF0A3D0E0F0A383
:10053300D0E0F0A3D0E0F0A3E520F0A3E5F0F0A332
:100543002212010002020000205104A81609000132
:10055300020301090243000201008019090400009B
:1005630001020201000524001001042402020524F3
:10057300060001052401000107058203400040092C
:10058300040100020A00000007058402400000077E
:100593000504024000005F05000082050000851984
:1005A30083851882E0C0E0A3E0F9A3E0FAA3E0FBAF
:1005B300A37808E0F608A3DFFAE0FCA3E0FDA3E0DC
:1005C300FEA3E0FFA3E0C0E0A3E0C0E0A3E0F5D01A
:1005D300A3E0F520A3E0A3F5F010AF088583198508
:1005E30082188008858319858218D2AFD082D08380
:0805F300D0E0F8D0E032E4731F
:1005FC0075F0108E218F22858226858325851882A1
:10060C00851983E0CEA3E0CF852682852583EBC9AF
:10061C00EAC8EDCBECCAC3E833C8E933C9EA33CA3C
:10062C00EB33CBC3EA9EF524EB9FF523B35004AB1D
:10063C0023AA24EC33CCED33CDD5F0DAAE21AF22A6
:10064C0022851983851882E0A3FEE0A3F5207808A3
:10065C00E0A3F608DFFAE0A3FFE0A3C0E0E0A3C04C
:10066C00E0E0A3C0E0E0A3C0E0E0A3C0E010AF086E
:10067C008582188583198008858218858319D2AFE5
:10068C00D083D0820207D5C0E074F21204E5A2AF89
:10069C00E433FED2AFE58AA2E25007900605E0D221
:1006AC00E0F0E58AA2E35007900605E0D2E1F07590
:1006BC008A00C2EB7A107B00900601E0F9120DFA69
:1006CC00EEA2E092AF7F010205A1740480047402D3
:1006DC008000CCC0E0EDC0E0E518C39CCCAD195057
:1006EC00011D10AF068C188D1980068C188D19D22F
:1006FC00AF12074FD0E0FDD0E0FC22C008C3E0965B
:10070C00F50808A3E096420808A3E096420808A35F
:10071C00E0964208A2D265D033E5087001D3D00828
:10072C0022CAC0E0E493A3C582CCC582C583CDC5E3
:10073C0083F0A3C582CCC582C583CDC583DAE5D051
:10074C00E0CA22CAC0E0E0A3C582CCC582C583CD75
:10075C00C583F0A3C582CCC582C583CDC583DAE63B
:10076C00D0E0CA22C0E0C0D0E8C0E0E9C0E0E5A813
:10077C00D2AFC2C7A2E7A2E792AFD0E0F9D0E0F8BF
:10078C00D0D0D0E03270090808082260161818186A
:10079C00C6C333C608C633C608C633C608C633C676
:1007AC00D5E0EA22C008C3E096F50808A3E096421B
:1007BC000808A3E096420808A3E09645087001D308
:1007CC00D00822C09FF59FE473D09F22D083D082A3
:1007DC00C09FE493C0E0740193C0E0740293F59F52
:1007EC00222518F58210AF08F5184002151980085B
:1007FC00F51840021519D2AF85198322C0D02518DF
:10080C0010AF08F518500205198008F518500205AC
:10081C0019D2AFD0D0226016080808C6C313C61868
:10082C00C613C618C613C618C613C6D5E0EA22C32B
:10083C00E0C696F608A3E0C696F608A3E0C696F6C0
:10084C0008A3E0C696F62274048006740280027433
:10085C0001C0E0F4041207EDD0E0120A12222518B0
:10086C0010AF08F518400215198008F5184002154C
:10087C0019D2AF22E76670100809E766700A0809FA
:10088C00E76670040809E76622E066701008A3E0CA
:10089C0066700A08A3E066700408A3E06622C3E051
:1008AC009608A3E09608A3E09608A3E096A2D2656A
:1008BC00D03322C3E697F60809E697F60809E697BF
:1008CC00F60809E697F622C3E096F008A3E096F046
:1008DC0008A3E096F008A3E096F022E046F008A307
:1008EC00E046F008A3E046F008A3E046F022E64715
:1008FC00F60809E647F60809E647F60809E647F65A
:10090C0022E056F608A3E056F608A3E056F608A334
:10091C00E056F622E026F008A3E036F008A3E03615
:10092C00F008A3E036F022E026F608A3E036F6083D
:10093C00A3E036F608A3E036F622E627F60809E629
:10094C0037F60809E637F60809E637F6227004226E
:10095C00600D18C6C333C608C633C6D5E0F41822DA
:10096C00E056F008A3E056F008A3E056F008A3E028
:10097C0056F022E493F608740193F608740293F689
:10098C0008740393F62275D00075813F75180175B4
:10099C001903759F0002047FE4C396F608E496F6EB
:1009AC0008E496F608E496F622C3E7960809E7965B
:1009BC000809E7960809E79622C3E09608A3E09693
:1009CC0008A3E09608A3E09622C6F4C608C6F4C6AF
:1009DC0008C6F4C608C6F4C622E0F608A3E0F6087A
:1009EC00A3E0F608A3E0F622600C08C6C313C618F1
:1009FC00C613C6D5E0F422E6F008A3E6F008A3E699
:100A0C00F008A3E6F022CAC0E0E6F0A308DAFAD0B8
:100A1C00E0FA22EAF0A3EBF0A3ECF0A3EDF022E075
:100A2C00FAA3E0FBA3E0FCA3E0FD22E5C754F844E5
:100A3C0001F5C77901222518F582E43519F58322D1
:100A4C001207D8FF31001207D8C632001207D8544B
:100A5C0033001207D87A33001207D8A733001207D5
:100A6C00D8D833001207D87234001207D87D35005D
:100A7C001207D88D35001207D8CC35001207D826AE
:100A8C0036001207D87E36001207D8C83600120777
:100A9C00D8E336001207D80A37001207D8273700D8
:100AAC001207D83337001207D87539001207D88EC1
:100ABC0039001207D81A3A001207D82D3A0012073B
:100ACC00D83E3A001207D8FE3A001207D8733C0001
:100ADC001207D82A3E001207D8AA3E001207D8B433
:100AEC003E001207D81C3F001207D82D3F001207FA
:100AFC00D8C73F001207D8F83F001207D8FB3F00B9
:100B0C001207D82540001207D88540001207D8A933
:100B1C0040001207D8C740001207D8154100120731
:100B2C00D84E42001207D8A642001207D8FF420046
:100B3C001207D88A43001207D8B243001207D8E82C
:100B4C0043001207D8F743001207D8554400120788
:100B5C00D8C244001207D8FF44001207D83A450007
:100B6C001207D86545001207D87F45001207D8999F
:100B7C0045001207D86A46001207D87446001207BF
:100B8C00D8A146001207D8B146001207D80F47006B
:100B9C001207D82347001207D82C48001207D83F59
:100BAC0048001207D85448001207D805490012070C
:100BBC00D86749001207D8084A001207D8134A0010
:100BCC001207D8554B001207D8714B001207D8C921
:100BDC004B001207D8054C001207D81F4C00120707
:100BEC00D8814C001207D8204D001207D8624D0056
:100BFC001207D8C84D001207D81C50001207D8CBCA
:100C0C0050001207D8FD51001207D8A65200120747
:100C1C00D8F754001207D80A55001207D80D550002
:100C2C001207D81955001207D82D55001207D835C0
:100C3C0055001207D87555001207D86E56001207CA
:100C4C00D8F156001207D87357001207D8ED570089
:100C5C001207D8B658001207D8D858001207D87403
:100C6C0059001207D88059001207D8A6590012074C
:100C7C00D8D959001207D8485A001207D89A5B00E5
:100C8C001207D8255D001207D8B05D001207D8D91D
:100C9C005E001207D8B95F001207D8EA5F0012078E
:100CAC00D81660001207D81F60001207D84E6000DB
:100CBC001207D8FE60001207D8B261001207D826BE
:100CCC0062001207D8C262001207D84063001207F4
:100CDC00D88863001207D8BE63001207D8FB6300E4
:100CEC001207D83064001207D88764001207D800A6
:100CFC0065001207D82265001207D84ABC011207FA
:100D0C00D888BC011207D8A5BC011207D87F800176
:100D1C001207D8B780011207D88282011207D84770
:100D2C0086011207D87186011207D8238701120792
:100D3C00D80188011207D82888011207D8C4880165
:100D4C001207D80A89011207D8818A011207D8869E
:100D5C008A011207D8968A011207D80A8B0112074A
:100D6C00D8318C011207D8AE8C011207D8DF8C0158
:100D7C001207D81E8D011207D822B2011207D86AA9
:100D8C00B2011207D863B3011207D882B30112075C
:100D9C00D8A9B3011207D8B9B3011207D8E6B30129
:100DAC001207D823B4011207D88979001207D8D0BA
:100DBC0079001207D8F179001207D83E7A00120791
:100DCC00D8677A001207D8717A001207D8DD7A003A
:100DDC001207D86F7B001207D8AA7B001207D8061F
:100DEC007C001207D83C7C001207D8BB7C00120791
:100DFC00D8057D001207D8467D001207D87D7D00EE
:100E0C001207D88F7D001207D8A17D001207D8C019
:100E1C007D001207D8C97D001207D8917E001207F9
:100E2C00D8EFAF011207D825B0011207D870B00166
:100E3C001207D8BBB1011207D87A65001207D88700
:100E4C0030001207D8EA66001207D8A26800120711
:100E5C00D8DC68001207D8556B001207D8956B00C8
:100E6C001207D8296D001207D8C96D001207D82BAC
:100E7C006E001207D8B86E001207D8F06E00120779
:100E8C00D8306F001207D8C170001207D8697200F1
:100E9C001207D8C674001207D8F474001207D820B1
:100EAC0075001207D82975001207D8A7750012070C
:100EBC00D80479001207D896BF011207D8ACBF012D
:100ECC001207D841A4011207D856A4011207D80959
:100EDC00A5011207D849A5011207D88BA501120745
:100EEC00D8DDBA011207D8B6BF011207D805B60172
:100EFC001207D813B6011207D8D0BF011207D8D2E7
:100F0C00BD011207D8E2BD011207D8EEBD011207D0
:100F1C00D832BE011207D8E1B8011207D866B90160
:100F2C001207D8CCB9011207D8BFBE011207D8FBE3
:100F3C00BF011207D8F8BE011207D8F2BF01120781
:100F4C00D8F5BF011207D8CB96011207D8719701BB
:100F5C001207D80598011207D83898011207D870D3
:100F6C0098011207D8A398011207D86299011207A9
:100F7C00D8FF99011207D8D19A011207D837BF01AF
:100F8C001207D84BBF011207D86DAD011207D891CB
:100F9C00AD011207D8AAAD011207D8E9AD011207AD
:100FAC00D837AE011207D86AAE011207D89AAE0133
:100FBC001207D802AF011207D805AF011207D8CE1D
:100FCC00AF011207D8D8AF011207D8E5AF0112074D
:100FDC00D88CAA011207D8B4AA011207D8F5AA0115
:100FEC001207D813AB011207D82EAB011207D896F3
:100FFC00AB011207D8A2AB011207D801AC01120742
:10100C00D82DAC011207D83CAC011207D860AC014A
:10101C001207D821AD011207D82EAD011207D83F07
:10102C00AD011207D881BE011207D899BE01120773
:10103C00D8EB9B011207D8549D011207D8669D016D
:10104C001207D87E9D011207D89F9D011207D8B5B3
:10105C009D011207D8C99D011207D8489E0112079D
:10106C00D8AD9E011207D8439F011207D81CA001CE
:10107C001207D82CA0011207D83BA0011207D8F6F2
:10108C00BC011207D81ABD011207D842BD011207C4
:10109C00D851B4011207D878B4011207D89BB40107
:1010AC001207D896A7011207D8AFA7011207D8C606
:1010BC00A7011207D8CFA7011207D8EDA701120775
:1010CC00D8F7A7011207D801A8011207D814A80154
:1010DC001207D8A0A8011207D815A9011207D843E6
:1010EC00A9011207D894A9011207D8E5A901120782
:1010FC00D800AA011207D80AAA011207D831AA01EE
:10110C001207D877AA011207D86FBD011207D8E1D0
:10111C00BF011207D8218D011207D84D8D0112077E
:10112C00D86B8D011207D87E8D011207D8998D01CD
:10113C001207D8F88D011207D82B8E011207D84749
:10114C0092011207D89D93011207D8CF9301120771
:10115C00D83B94011207D8B495011207D8DC95013D
:10116C001207D8F195011207D80196011207D84140
:10117C0096011207D88D96011207D89D9601120779
:10118C00D8A9B7011207D8B9B7011207D8D7B70138
:10119C001207D8F2B7011207D819B8011207D83ABA
:1011AC00B8011207D854B8011207D88CB80112072D
:1011BC00D8AFB8011207D83BBE011207D86CA001FA
:1011CC001207D873A0011207D8C9A1011207D8F9C8
:1011DC00A1011207D829A2011207D85CA20112079B
:1011EC00D86EA2011207D8AAA2011207D810A30127
:1011FC001207D84CA3011207D893A3011207D8C029
:10120C00A3011207D8ECA3011207D823BC011207C3
:10121C00D837BC011207D864BF011207D8E5B90151
:10122C001207D844BA011207D882BA011207D8C3E0
:10123C00BA011207D8F8BF011207D8D47F001207E1
:10124C00D8FE2F001207D8AE2F001207D8752F002A
:10125C001207D8092F001207D8CD2E001207D86616
:10126C002E001207D8582D001207D8982C00120700
:10127C00D8202C001207D8752A001207D85929003B
:10128C001207D84E28001207D88F27001207D84C07
:10129C0027001207D8F626001207D87F260012075F
:1012AC00D85225001207D82124001207D8DF2300BA
:1012BC001207D85D22001207D80A22001207D87430
:1012CC0021001207D8CD20001207D86D200012077C
:1012DC00D8C01F001207D89B1F001207D8921F00FE
:1012EC001207D8631F001207D82F1F001207D8054A
:1012FC001F001207D8A71E001207D8CD1D00120719
:10130C00D8C11D001207D80D1D001207D8E21C0011
:10131C001207D8771C001207D81D1C001207D8F929
:10132C001B001207D82C31001207D8DA170012074D
:10133C00D8CA1A001207D8741A001207D8501A000B
:10134C001207D89C19001207D8F518001207D8CD2F
:10135C0018001207D8081800758900C2C532120788
:10136C00D8AB18001207D8AE660000000080FB0056
:10137C0001363601010001020100010301000104E4
:10138C0001060605020000070100340801000F09E0
:10139C000401010D0100FF0E0800001702000019E6
:1013AC000100FF1A0100011B0100FE1C0100081DB9
:1013BC000200001F01000120010001210200002396
:1013CC0001000F240200002601000127010008285B
:1013DC000200FF2A0100072B0102402C0100002D06
:1013EC000100012E0100012F0100FF30010B1C3107
:1013FC000800003A0100083B01000F3C010001010C
:10140C00037103010301030103010301032203021E
:10141C000301031003000300030003000300030097
:10142C000300034203000324030603000300030428
:10143C0003120325032303250323030403040300DE
:10144C0003000300034403000300032303000365AC
:10145C00032100350381030003050300030003008F
:10146C000300032503230301017101010101011193
:10147C000101013101010101018001100161013BF8
:10148C000014006301730172016201430100011336
:10149C000106013D013500040112010001000100AB
:1014AC0001000104010401330133013C0144013208
:1014BC0001360000010001650100013500810100C9
:1014CC000105018201830100016601000100010395
:1014DC00027102300160021102700201020202026A
:1014EC00028002100261023A004100630273027230
:1014FC0002620243020002130238000002000204DE
:10150C00021202000200020002000204020402376E
:10151C000037003C02440200023900000200026560
:10152C0002000235028102000205028202830200DF
:10153C00026602000200020304710402046004113A
:10154C000470040204020401040204100461040087
:10155C00041404630473047204620443040004134B
:10156C000406040004000404041204000400040033
:10157C00040004510464000004000400044404004A
:10158C0004000400040004650400043504810464B0
:10159C000005040004830400046604000400040332
:1015AC000071003001600011007000310220035006
:1015BC0004800010006100000014006300730072CE
:1015CC00006200430000001300060000000000044D
:1015DC0000120000000000000000000400040037AE
:1015EC000037003C024400000000000000000065D1
:1015FC0000000035008100000005000000830000A1
:10160C0000660000000000000F0F000000010056F3
:10161C000F010F0403020F00015C0F020F05010301
:10162C000F0002620F030F0602010F0003680F0484
:10163C00010104040F0F046E0F05020205050F0FC4
:10164C0005740F06030306060F0F067A0F30000011
:10165C000060000000C000000080010000000300DA
:10166C000000060000000C00000018000000300014
:10167C00000060000000C0000000800100000003BA
:10168C00000000060000000C0000000C00360001F9
:10169C0000060000000F0000000000000000000029
:1016AC0000000003FFFF00000403FFFF0000FFFF2A
:1016BC000FF4010005C4040320000100130B00000B
:1016CC0000000000000003010F0007ECFDFDFDEC25
:1016DC00DCDCCCBCACAC9C9C8C7C7C6C6C5C5C5CBE
:1016EC004C4C3C3C2C2C1C1C240B540B2A0B300B50
:1016FC004E0B420B3C0B5A0B600B660B720B360BF2
:10170C001E0B180B00160F160D0B150B02110222D7
:10171C000F3303020E200C320C380CE80A3E0CE29C
:10172C000AEE0A56125C12640A700A5E0A6E126A9B
:10173C000A140AE5D5C5B5A5A5958585756530301E
:10174C0016181920231A1C1E3032800C9E0CA40C67
:10175C00860C920C8C0C303017181921301B1D1F65
:10176C003033003C40423A3F3F392F47306600034C
:10177C004D4C4651181A2505020C0E020B040B0A8F
:10178C000708000F00011916181616182303007409
:10179C000C440C4A0C560C500C480B6C0B980C78E7
:1017AC000B7E0B020402010101010902AA12B01204
:1017BC00A4129E124A12480E5012760A2E13580A80
:1017CC003A13101300BE040AFA06D6163D17C0824F
:1017DC00C0839006B3745EF0A37413F09006B574D6
:1017EC006AF0A37413F09003837452F0A37413F093
:1017FC009006B77458F0A37413023AF674F71204F7
:10180C001374FD12086AEAFEEBFF90062EE0640FDB
:10181C006007122C81A2E550051218998069123AC2
:10182C0010D2E1F09003D4E0600F8E828F83A3A3DB
:10183C00125569120BF6E96023122C814403F090C7
:10184C000315E07043122254120A42E4F07402129F
:10185C000A4274FF123571120C68802C12189912FE
:10186C0054B2124D0B6402701FE82405F8E93400E1
:10187C0012189FF874FF68700374FF69700A123AAB
:10188C0010D2E5F0122F03F074030235C6122C852A
:10189C00D2E022F988828983E0FAA3E0F9EA22C037
:1018AC0082C083120BA8E960047920801190062E67
:1018BC00E0640F700479018005900312E0F9023A9C
:1018CC00F7C082C083EA240EF582EB123EA470109E
:1018DC00EAFCEBFD7A787B03120DE8123962800684
:1018EC00123C381205F9023AF774F0120413900303
:1018FC0012E0F47003021985900314E0602E90033B
:10190C0012E064027026120FAA8A088B098C0A8DC9
:10191C000B90030A780812083B75F01490062AE025
:10192C0084F50CE4F50DF50EF50F803C120FAA8A28
:10193C000C8B0D8C0E8D0F90030E78081209E57828
:10194C0008790C1208BF90037CE0F50CA3E0F50DB0
:10195C00E4F50EF50F7808790C1208BF90064912C1
:10196C0021E9F50CA3E0F50D7808790C1208BF906D
:10197C008061780812070740047900801090807904
:10198C0078081207074004A908800279FF022A7020
:10199C0074F0120413E9FEEAFF7A007B00ECF912F2
:1019AC000A8EE990030AF0A3121A35740F6F7005B2
:1019BC00121A49804990062EE06F900313701A1288
:1019CC001A3C12079190804D780C1209E578087931
:1019DC000C12032390803D8018121A3C1207919030
:1019EC00804D780C1209E57808790C12032390804D
:1019FC006D780812093390030E7808120A03EEA3CF
:101A0C00F074016E702090062F78081209E590038F
:101A1C000A780812092090062F78081209E590031D
:101A2C000E7808120920022A70E4F0A3F0A3F02229
:101A3C001221DE95E0F50AF50BEF780822A3121AB5
:101A4C0035A3F022C082C0839006B17404F0A37455
:101A5C0013F09003CC74CCF0A37417F012133490E1
:101A6C0003B1E04408023AF674F012041390062F06
:101A7C0078081209E5E5084509450A450B600A9006
:101A8C00062F780C1209E58015750C30750D007554
:101A9C000E00750F0090062EE0780C1207919080C6
:101AAC0011780C12093390807E121E98780C7908EC
:101ABC001208BF900334780C120A03022A7074EBDC
:101ACC0012041374F712086AEAFEEBFF120A4CE9CF
:101ADC00F5146003021B958E828F83A3A3A3A3A38B
:101AEC00A3A3A3A3A3E0FC1221EF125569EAC3330D
:101AFC00FAEB33FB8E828F83A3A3780C1209E5904B
:101B0C00801578081209E5780C79081203A3740F74
:101B1C006C7003021BB0900315E064026003021B9F
:101B2C00B0EE240C123A13707575103075110075E7
:101B3C001200751300EE240B123A13781012079151
:101B4C008A088B09F50AF50B781079081209467882
:101B5C0010790C1209B5402E750830750900EC7817
:101B6C00081207918A108B11F512F5137808791069
:101B7C001208BF780C79081209B5400A90062F7824
:101B8C000C120A03801E7514FD8E828F83A3E5143C
:101B9C001242ED12131074091208080250B5900687
:101BAC002F121A4AEE240E123A1360DD1231E6128D
:101BBC000A88EA4B60D37408120A421231F11206F9
:101BCC00DA7508FF7509FF78081208578E828F8323
:101BDC00A3A3A3A3A3A3A3A3E0F97404120A42AC86
:101BEC0082AD8312128C740412080880A9C082C0C2
:101BFC008390031274FFF01212EC900649E0F890F7
:101C0C00062EE06860031211A27908120B96023AB4
:101C1C00F7C082C083900338124709602B12470625
:101C2C00701F90033812549E90038112423F900310
:101C3C0038E4F0A3F079021211CC790212119680DB
:101C4C00077A387B03120BD29003D4E0601A90060B
:101C5C002EE0640F6012121DB31206D67A227B039B
:101C6C00120CD47404120808023AF774F412041318
:101C7C009003D4E0605D90031F7422F0A37413F002
:101C8C0090033478081209E59080397808120933EA
:101C9C0078081208537A197B03120CD474041208B6
:101CAC0008120BA8E9701F1233C81212808A088B15
:101CBC0009A808A90990033812423FE84960141298
:101CCC003C5ED2E6800C900633E004F0900338E4DE
:101CDC00F0A3F002274774F7120413E9FE125566BD
:101CEC00120A527940120B96EEF912131C12134081
:101CFC009003D5E0600890062EE0F9120CF8024231
:101D0C00FA74F4120413EAFEEBFF90062EE0F508C9
:101D1C008E828F83A3E070719003D4E06019740FEE
:101D2C0065086013E5A8F8C2AF9003287416F0A3F9
:101D3C00741312396C805E121DA4640F90035F60E3
:101D4C0042125569120A52121340740F6508701F23
:101D5C00121DA4F990033478081209E590805D787F
:101D6C0008120933AA08AB09AC0AAD0B120CEC1221
:101D7C001DB31206D67A227B03120CD474041208FB
:101D8C00088006125569120A528E828F83742C12A7
:101D9C0042ED120BAE02274790035F1254D8240871
:101DAC00F582E8122C8B22900328741CF0A3741378
:101DBC00F090033422C082C083790212119C023A43
:101DCC00F774F4120413E990062E6003021E76E0F9
:101DDC00640F7003021E7B900313740F123E10FCF1
:101DEC007D00900649E0FA790112134C900629E027
:101DFC00603A900646E06034900331740AF0A374A4
:101E0C0013F090062A121E9875830375820A7808BF
:101E1C001209339080197808120933780812085384
:101E2C007A2B7B03120CD47404120808900649E038
:101E3C00640F70051211A2801C9003077428F0A384
:101E4C007413F090030E1206D67A017B03120CD495
:101E5C007404120808900381123C30122F6EA2E415
:101E6C0050031212FE1212F28018E0640F701390DD
:101E7C000646E0600579021211901212F8790812E8
:101E8C000B967A817B03120BD2022747121E9C22DF
:101E9C00E0F508E4F509F50AF50B2274F5120413C4
:101EAC00750800750900A2AFE433F50AC2AF9003C0
:101EBC007880078E088F09122E55123124601C125F
:101ECC003A10A2E550ED7808120857EEFCEFFD7AB7
:101EDC00787B03120DEE7402120808E50AA2E09258
:101EEC00AFEE4F6011122C81D2E4F0EEFCEFFD7AD4
:101EFC00787B03120DE8023546C082C083A2AFE4A2
:101F0C0033FAC2AF900378800D122058A2E550032B
:101F1C00121F58121F8712470970EEEAA2E092AF07
:101F2C00023AF7C082C083A2AFE433FAC2AF900387
:101F3C00788012123AD5E9122D475006C2E7F012FA
:101F4C001F58121F8712470970E980CF123C27E9EE
:101F5C00122C8BD2E4F022C082C083A2AFE433FAFD
:101F6C00C2AF900378800D122065A2E75003C2E443
:101F7C00F0121F8712470970EE80A0E824FBF5824F
:101F8C00E934FFF58322C082C0837910021DC7C0DB
:101F9C0082C083900646E060057902121196792082
:101FAC0012119C7A437B03120CE67A3A7B03120CD7
:101FBC00E6023AF7C082C08374EF12086A9003D429
:101FCC00E4F0900315F090031204F0900317E4F082
:101FDC00A2AF33FAC2AF9003788010122065A2E151
:101FEC005006D2E0F0122058121F8712470970EBEE
:101FFC00EAA2E092AF7910120B967908120B969028
:10200C000316E06004E4F08040851882851983741F
:10201C0009F07401120A4274E0F090064312549EC7
:10202C007402120A4212423F900656E0C0E0740459
:10203C00120A42D0E0F07405120A42E4F0740E1257
:10204C000A42E4123571120D4C02361EE82410F5CA
:10205C0082E9122C8BC2E1F022123C27E9122C8B64
:10206C002274F4120413900317E0704112470670A7
:10207C000B9003177401F0792012119075083075CC
:10208C000900750A00750B0090062EE078081207FF
:10209C009190801D780812093378081208537A43FE
:1020AC007B03120CDA7404120808022747900355BC
:1020BC00E004F0640470C5792012119C1212DA80CD
:1020CC00E974F012041390062EE0FE900317E4F06E
:1020DC00900355E004F0640470091212E01212DA55
:1020EC00022171792012119C900661E0640F601935
:1020FC0090062E1223D65011900661E0FE90031824
:10210C00E0F990062EF0120CFE750C30750D007572
:10211C000E00750F0090062EE0780C120791EE124F
:10212C005F6A900355E02401F50AE43400F50BE5F1
:10213C0008850AF0A4C508A8F0850BF0A428F8853A
:10214C000AF0E509A428F509E4F50AF50B780C79F1
:10215C00081208BF780C1208537A3A7B03120CD47D
:10216C007404120808022A7074F4120413900317F2
:10217C0012220070051212E08055792012119090F5
:10218C00034974CEF0A37412F090062E1221E9F8D4
:10219C00A3E0F99003551221DEE88508F0A4C8AA43
:1021AC00F08509F0A42AFA8508F0E9A42AF9E8C315
:1021BC0033F8E933F988088909E4F50AF50B78084E
:1021CC001208537A437B03120CD4740412080802CD
:1021DC002747E02401F508E43400F50922E0122138
:1021EC00EFE022C333F8E433F9748B28F5827406DC
:1021FC0039F583227401F090062EE0640F22C08220
:10220C00C08374FD12086A90031274FFF0900315DA
:10221C00E06401701FE4F090037FE060261222540A
:10222C00120A42E4F07402120A4274FF123571125F
:10223C000C68800F900649E0F890062EE068600369
:10224C001211A27403023620900656124B397401F7
:10225C002274F0120413EAFEEBFF900317E07003F4
:10226C000223D3EE242B1256E57003A3E06960031E
:10227C000223D312354B120BF0E970030223D390D7
:10228C000317E4F0900646E060057902121196906F
:10229C0003ABE0600579011211968E828F83A3A3A4
:1022AC00A3A3A3A3A3E0A2E4500A79101211967978
:1022BC0080120B96792012119C7A437B03120CE648
:1022CC008E828F83A3A3124C0112189F2400E43931
:1022DC00FB540F900313F08A088B09740C780812C6
:1022EC0009F4E5085401A3F0EA540F900318F0EA3E
:1022FC00C4540F900649F0900661E0640F60171209
:10230C0023D650128E828F83A3A3123C34A3E07089
:10231C00059006618003900318E090062EF0900360
:10232C0055E412220270030223C5E0F9EEFAEFFB2A
:10233C00120CF2900315E06402703E7A3A7B0312A1
:10234C000CE690062EE0F9750C30750D00750E003C
:10235C00750F00780C120791E9125F6AE4F50AF523
:10236C000B780C79081208BF780C1208537A3A7B58
:10237C0003120CD474041208088E828F83A3A3A3B7
:10238C00A3E0FC7D00900649E0FA790212134C7A26
:10239C00017B03120CE690030774C2F0A37412F0D5
:1023AC0090030E1206D67A017B03120CD47404121D
:1023BC0008087910120B96800E900315E0640270D9
:1023CC00061212E01212DA022A70E0F8900318E0FA
:1023DC00C39822C082C08390034074C8F0A37412C7
:1023EC00F090034974CEF0A37412F090035274E68B
:1023FC00F0A37412F09006AF74BCF0A37412F090BA
:10240C0003D274B8F0A37417F01213349003B1E034
:10241C004410023AF674F212041374F712086A901C
:10242C0003ABE060030224FC900628E07003022456
:10243C00FC8A828B83A3A3A3A3A3A31261928A8297
:10244C008B83A3A3A3A3A3E0F8740758FCE8C4549C
:10245C000F5407F5098008EE2402FEEF3400FF8CC0
:10246C000874FF25081C046027900647C0828E82E2
:10247C008F831218A4F8758306D082E0687003A3CA
:10248C00E06970D37E028024EE2408FEEF3400FF56
:10249C0085090A74FF250AF509046054EEFCEFFD6A
:1024AC007A577B06121232E960DE7E039003ABE0B2
:1024BC00D2E2123571120BD87901121196750CA05B
:1024CC00750D03780C120857750C01750D00780CFE
:1024DC001208579006431206DA7406120A42AC82AE
:1024EC00AD83EEFA7905120C0274061208088051BD
:1024FC0090062EE0640F6049E0F8900649E06860B1
:10250C0040900646E0703A120BA2E96034A2AFE4A8
:10251C0033FEC2AF900315E064027020900312E00A
:10252C00F460191247067014900378124709700C66
:10253C007A017B03120CE679001212C2EEA2E09231
:10254C00AF740902295174F0120413EAFEEBFF7503
:10255C0008008E828F8312266C4003022669900637
:10256C002EE0640F7003022669900643E0F47003BA
:10257C00A3E0F4700302266990063DE0F47003A317
:10258C00E0F470030226698E828F83A3A3A3A3E0D9
:10259C006401700575090280258E828F83A3A3A325
:1025AC00A3E070057509018015F46003022669909B
:1025BC000315E060030226697509017508017A4369
:1025CC007B03120CE67A3A7B03120CE67A017B034E
:1025DC00120CE6A2AFE433F50AC2AFE5099003157D
:1025EC00F090030EE4122675124706900317700440
:1025FC0074018001E4F0E508900316F0A2E090036A
:10260C0055500474038001E4F0E50AA2E092AF1285
:10261C002921FB79E11210A6900317E064017005E3
:10262C00792012119090034974D4F0A37412F075B0
:10263C000C30750D00750E00750F0090062EE078AD
:10264C000C12079190801D780C120933780C12082B
:10265C00537A437B03120CDA7404120808022A70B2
:10266C00A3A3E024F5C3941222121A36A3F0A37488
:10267C00FFF02274F01204131227391202CA8808D0
:10268C008909E4F50AF50B90062EE0640F604812F8
:10269C000FAA8A0C8B0D8C0E8D0F90030E780C7973
:1026AC0008120946780C1207B0502C750C30750DB9
:1026BC0000750E00750F0090062EE0780C12079135
:1026CC007808790C12094690801D7808120933900D
:1026DC00030E780812083B7A8E7B03120CE67808FE
:1026EC001208537A8E7B03022A6874F41204139036
:1026FC00062EE0640F602F900649E0602E7A4C7B2A
:10270C0003120CE61227391202CA88088909E4F56B
:10271C000AF50B78081208537A4C7B03120CDA7406
:10272C00041208088005791012119C800E90064E38
:10273C001254A27A147B00221208087F0402064D60
:10274C00C082C08390035F1247096006125566125F
:10275C000E3C90035C12401C7408F0A3E4F0A3F050
:10276C009003D4F0900361F07C0BFDF97A627B034B
:10277C00120DB87C0B7D0079007A6D7B03120DB8BD
:10278C00023AF774F712041374F712086AEAFEEBB4
:10279C00FF12355D740512284374031251A91242BD
:1027AC0032EE2430FCEF3400FD8C828D831251B953
:1027BC0012282E600BEE242E12356074FFF0A3F05D
:1027CC00EE242EEF34001C1CFD8C828D83A3E0C004
:1027DC00E08A828B83123C30D0E012282E888289CA
:1027EC008312465124031252851212387408120AAD
:1027FC00427403F09006431206DA7402120A42ACD9
:10280C0082AD837903EEFAEFFB120BFC7402120813
:10281C0008E9F5087007EEFAEFFB120ADCA90802CA
:10282C0035C41254F112293E8A828B83E8F0A3E955
:10283C00F08C828D83E022F0A3E4F0EE240D124F95
:10284C00E52274F2120413EAFEEBFF8C088D098961
:10285C000A122921122935740E120A42122943E850
:10286C0024FF18E934FFF988828983E50A1251B5EF
:10287C009006481251B29006471251B27410120AC7
:10288C0042122943EE2404FCEF3400FD880B8A82AB
:10289C008B83E0F50C8C828D83E0250CC3950B1299
:1028AC0051C8E8F0A3E9123E03A3A3A3A3A3A3A3D7
:1028BC00A3E064037008122929F0A3E4800AEE2433
:1028CC000EF582EF1256DFA31228467409F0750C30
:1028DC000B750D00780C1208577C627D031250BAF0
:1028EC00120DB27402120808750CFF750DFF780CEE
:1028FC00120857AC08AD097903EEFAEFFB120BFC8A
:10290C007402120808E9F5087007EEFAEFFB120AD8
:10291C00DCA9088033EE2402FAEF340022EE240EF8
:10292C00F582EF124FE8740122FB8A828B83122905
:10293C003E22124245F922E0F50CA31251B9125174
:10294C00F5E50CF0221208087F0602064D74F01211
:10295C000413EAFEEBFF890B8C0E8D0F750A00A297
:10296C00AFE433F50CC2AF900378803F122A3D5090
:10297C0037122A4A64037030EE24F9FEEF34FFFF5D
:10298C00850882850983A3A3E02405FCA3E0340019
:10299C00FDEEFAEFFB121238EE24FF1EEF34FFFFB0
:1029AC007410250AF50A150B123DB3125F7AE50B6C
:1029BC006006E508450970B4E50CA2E092AFA2AF41
:1029CC00E433F50CC2AF90037880232402FAE509B6
:1029DC003400FB8A828B83123903122A598A828B28
:1029EC00831238EB122A59050A150B123DB3123D0E
:1029FC00C86027122A4A640270F1122A3DE5084089
:102A0C00CA123AD6E509123A16A2E550DE850E82B4
:102A1C00850F837401F0E50B70D1E50CA2E092AF49
:102A2C008E828F83E50AF0EE24FFFAEF34FFFB80F1
:102A3C0033E508123C28E509122C8BA2E622850806
:102A4C0082850983A3A3123C47124D1722E08E8284
:102A5C008F83F0EE24FF1EEF34FFFF22120CDA748A
:102A6C00041208087F0802064D74EC12041374F665
:102A7C0012086A89118A0F8B0E851882851983E4D6
:102A8C00F090037EE0C3940840057510078003E0C6
:102A9C00F510E51033333354F8F890062DE0282464
:102AAC0037F50CFA7B00120DBE8A088B09EA450932
:102ABC007003022C12EA2402F50AEB3400F50BEA3F
:102ACC00250CF8EB3400F9850A82850B8312423F02
:102ADC00EA2404F50CEB3400F50D850C82F583E447
:102AEC00F090062DE0F512F8C3E498F895E0F9851E
:102AFC000A82850B83E028FEA3E039FF751300786A
:102B0C001212085790062B1251A3EEFAEFFB120D7E
:102B1C00B27402120808851882851983AC82AD83C1
:102B2C00A910EE24FFFAEF34FFFB1212868A128BE7
:102B3C0013AE12AF138E828F83E4122A5EE50EC49D
:102B4C0054F0F99003D5E0C4333354C0F890062701
:102B5C00E0A2E0E43313134849440F122A5AE50F5C
:102B6C00C454F045118E828F83F0EEF8850A82856D
:102B7C000B83E0FA850C82850D83E02AC398F085DF
:102B8C000A82850B83EEF0A3EFF0E508240E1256B3
:102B9C00DBA3F0E508240D1256DB7409120A42E49B
:102BAC00F0750A0BF50B780A1208577C6D7D03E55E
:102BBC0008241BFAE5093400FB120DB2740212084A
:102BCC0008851882851983E0600EE508240EF582CD
:102BDC00E509123A164408F0E4F50A780A12085787
:102BEC007403120A42AE82AF83120BDEEEFCEFFDD1
:102BFC00AA08AB09120BFC7402120808E9AA08AB6C
:102C0C00096007120DC47A007B00740A1208087F51
:102C1C000C02064D74F31204138A0A8B0BA2AFE458
:102C2C0033F50CC2AF750800750900900378802C41
:102C3C00122E605024850A82850B83A3A31251A304
:102C4C008E828F83A3A3125569120BE4E9600A12DA
:102C5C002C81C2E6F08E088F09122E551231247089
:102C6C00CFE50845096006122D4DD2E6F0E50CA221
:102C7C00E092AF8012122C8522EE2411F582EF1215
:102C8C003DF0E0221208087F0502064D74F0120494
:102C9C0013EAFEEBFF8C0C8D0D750E00A2AFE43326
:102CAC00F50FC2AF75080075090090037880258573
:102CBC000A08850B09122D4DD2E4F0E508123AD61C
:102CCC00E509123A16D2E7F0E50A24FBF582E50B8A
:102CDC0034FFF583E0F50AA3E0F50BE50A450B603C
:102CEC0043E50A123C28E50B122D4750DB850A827E
:102CFC00850B83A3A31206DAAC0CAD0DEEFAEFFB39
:102D0C00120BEA7402120808E960BDE50845096077
:102D1C009EE508240DF582E5091231167006122F76
:102D2C0068D2E4F0E50FA2E092AFE5084509600631
:102D3C00120AD6750E01A90E022A70122C8BA2E76C
:102D4C0022E508123C28E509122C8B2274F212049D
:102D5C001374FE12086A750C00750D0085188285B7
:102D6C001983E4F0A3F0A2AF33F50AC2AF90037855
:102D7C00126192803BEE24FBF582EF34FF125F78F8
:102D8C00780C120857EEFCEFFD7A787B03120DEEEF
:102D9C007402120808EEFCEFFD851882851983AACF
:102DAC0082AB83120DDCAE08AF0990037EE014F009
:102DBC00EE4F6027122E605019EE240BF8EF1238EC
:102DCC00FA24FFF0A3E034FFF088828983124709CC
:102DDC0060A38E0C8F0D122E558095E50AA2E09201
:102DEC00AF90037EE0603190062EE0640F60069099
:102DFC0003D4E070237A567B03120CE690801D12EC
:102E0C0006D67A567B03120CDA7404120808800872
:102E1C0074F01242ED120ACA851882851983AA82AF
:102E2C00AB83120DE28A0A8B0BAE0AAF0BEE4F602E
:102E3C001312127A122C81A2E28E828F83A350D0AD
:102E4C0074E980CE7402022951EE24FBF582EF3432
:102E5C00FFF58322122C85A2E72274F7120413EAE1
:102E6C00FEEBFF12127A123C2D1205F9E964019067
:102E7C00064A700AE02401F8A3E034008003124CE7
:102E8C0001F9EE240B12356012423F90037EE07084
:102E9C002190062EE0640F70197A567B03120CE613
:102EAC0090801D1206D67A567B03120CDA7404122B
:102EBC000808E5A8F8C2AF90037EE004F0E8024BE6
:102ECC00C074F7120413EAFEEBFF122F03F0121278
:102EDC007AEEFCEFFD7A787B03120DE8E5A8F8C2D8
:102EEC00AF90037E12396A90062EE0640F7005795C
:102EFC0008120B960242FA122C85C2E42274F712C5
:102F0C00041374EA12086AEAFEEBFF900627E060ED
:102F1C00468518828519837401F0120A42E4122F37
:102F2C00F2120A42AA82AB831212388E828F83125B
:102F3C002F6EC0E0740A120A42D0E0124643740BA2
:102F4C00120A42AA82AB83120C1A85188285198345
:102F5C00AA82AB83120D4C74160235C68508828585
:102F6C000983A3A3123C47E02274F7120413EAFE70
:102F7C00EBFF12129274DC69601E74DD69601974C7
:102F8C00E469601474F369600F74DE69600A74DFBD
:102F9C0069600574DB697007EEFAEFFB120B9C029B
:102FAC0042FA74F712041374EB12086AEAFEEBFF90
:102FBC008518828519837406122FF2120A42AA828E
:102FCC00AB83121238123554740A120A42AA82AB1D
:102FDC0083120C1A851882851983AA82AB83120D71
:102FEC004C74150235C6F0EE2413FCEF3400FD745E
:102FFC00022274F712041374F712086AEAFEEBFF4C
:10300C00EE2430123A136070123A07851882851933
:10301C0083AA82AB831212387408120A427403F02A
:10302C009006431206DAEE242E1235601206DA9060
:10303C000656E0F97404120A42AC82AD83EEFAEF44
:10304C00FB12128C740412080874DC69602374DDA2
:10305C0069601E74E469601974F369601474DE6944
:10306C00600F74DF69600A74E869600574DB69706D
:10307C0007EEFAEFFB120B9C0235C474F212041328
:10308C008A088B09750A00750B00750CE7A2AFE472
:10309C0033F50DC2AF90037880078E0A8F0B122E7A
:1030AC00551231246035122E6050EF12311070EA37
:1030BC00EE243212311C8A828B83A3A3E06870DA6F
:1030CC00780A120857EEFCEFFD7A787B03120DEEAE
:1030DC00740212080890037EE014F0E50DA2E09251
:1030EC00AFEE4F6013EEFAEFFB12127A79F0EEFAB4
:1030FC00EFFB120B9C750C00A90CAA08AB09120B68
:10310C009C022954EE240DF582EF122C8B640122C3
:10311C00F582EF122C8BF822E0FEA3E0FFEE4F229B
:10312C0074F412041374F712086AEAFEEBFF8E8231
:10313C008F83A3E064F370030231DA8E828F83A352
:10314C00E064DF70030231DA8E828F83A3E064E8DF
:10315C00607C8E828F83A3E064DB6072120A4CE980
:10316C00F5087062EE240E123A13605A1231E61210
:10317C000A88EA4B60507408120A421231F11206A6
:10318C00DA7508FF7509FF78081208578E828F834D
:10319C00A3A3A3A3A3A3A3A3E0F97404120A42ACB0
:1031AC0082AD8312128C7404120808E9F50874F3CA
:1031BC006508601274DF6508600C74E865086006C9
:1031CC0074DB6508700F8E828F83A3E508F0EEFA2E
:1031DC00EFFB120A587409022744EE240FFAEF345D
:1031EC0000FB7909227402124B4774FFF0A3125BA7
:1031FC006CA32274F4120413EAFEEBFF7508008E24
:10320C00828F83A3A3A3A3A3A312266C40037508E8
:10321C00E88E828F83A3A3A3A3A3A3A3A3A3A3E05A
:10322C00C3941040057508E880138E828F83A3A386
:10323C00A3A3A3A3A3A3A3A3E0640F600B9003B168
:10324C00E0540870037508E8EE240B12311C8E82D2
:10325C008F83A3A3A3A3A3A3A3A3A3A3E0C3985067
:10326C000DEE240B123A13640F60037508E89006F8
:10327C0047E0F47003A3E0F470037508EC7A237B49
:10328C0000120E3690035F1254BC90035F12470974
:10329C006020750A23750B00780A120857EE240279
:1032AC00FCEF3400FD125566120DB27402120808C0
:1032BC00800375081AA90802274774F6120413EA4A
:1032CC00FEEBFF8E828F83A3A3A3A3A3A3A3A3E0F0
:1032DC0090062E125B87900649125B7F900629128E
:1032EC005B8C9003D5F0F91210BE9003D5E0601AF8
:1032FC00EE2404FAEF3400FB79501210A6EE2406EB
:10330C00FAEF3400FB79E11210A69003D4122200DC
:10331C00600474018001E490036112407B12085731
:10332C00EE240DFCEF3400FD7A627B03120DB274B7
:10333C00021208087808120857EE2418FCEF340023
:10334C00FD7A6D7B0302529974F7120413EAFEEBBB
:10335C00FF8E828F83A3E07006125566120A528E7E
:10336C00828F83742C1242ED120BAE0242FA74F768
:10337C00120413EAFEEBFF90035F124709600D1273
:10338C00556690035FE4F0A3F0120E3C8E828F839F
:10339C0074081242ED120D4C0242FA74F612041328
:1033AC009003D4E06013900361E0700D1233C812E7
:1033BC001280EA4B6003120ADC0252A1900629E04B
:1033CC00FB900649E0FA90062EE0F92274F61204FE
:1033DC0013EAFEEBFF7508001210B8E975F064A44F
:1033EC00F8A9F07AFF7B001202C2E8FA8E828F8372
:1033FC00A3A31238F0FBA3A882A983A2E0500690E5
:10340C000627E06003750801EBA2E15021E508A254
:10341C00E0501B88828983E0FCA308A983EE242F4B
:10342C00123FBA9C40057508018003750800EBA299
:10343C00E25011E508A2E0500B88828983E0C39A20
:10344C0040218006E508A2E050199003D4E06013F7
:10345C00900361E0700D1233C8121280EA4B6003C6
:10346C00120ADC0252A174F512041374E712086AF2
:10347C00EAFEEBFF750A018E828F83A3A3A3A3A39D
:10348C00A3A3E0A2E2507EEE242BF582EF340012CF
:10349C0051A112354B121274E9706A908010E064DD
:1034AC0001700DEE241B1242227005750A00805526
:1034BC0075080B75090078081208571235547410EA
:1034CC00120A42AA82AB83120DB2740212080812BD
:1034DC000BDEE9FA740E120A42858208858309789C
:1034EC00081208577508307509007808120857EE4D
:1034FC00242B1235601206DA12548E7901120C024A
:10350C0074061208088518828519837410122FF21C
:10351C00120A42AA82AB8312122CEE242B1254975D
:10352C00740B120A4212423F740D120A42E50A123F
:10353C003571120D4C74191208087F0302064DEEFA
:10354C002413FAEF3400FB22EE2408FCEF3400FDC8
:10355C0022EE240EF582EF124FE82285188285198F
:10356C0083EAF0A3EB12357522124B47AA82AB8388
:10357C0022C082C0839003D5E06003120C5C023A37
:10358C00F7C082C0839003CC74C8F0A37417F0A367
:10359C00742FF0A37417F0A374C0F0A3741712590E
:1035AC00C4F09006AB7468F0A37412F09006AD747E
:1035BC0062F0A37412023AEF74091208080242FA7C
:1035CC00C082C08374FE12086A800D7A787B031265
:1035DC000DE2123567120BD290037812470970EB8B
:1035EC0090037A124709600F7A7A7B03120DE2126C
:1035FC003567120BD280E9900378E4F0A3F09003C6
:10360C007E121A3690038B7400F0A3740BF07402C4
:10361C0080027411120808023AF774F6120413E9C6
:10362C00FF8F08746E2508F58274171248FBFE8E06
:10363C0008FA7B00120DBEEA4B600BEA2508124912
:10364C00D8A3E4F080297A027B00120DBEEA4B600D
:10365C001A8F0874622508F5827417123ADBF0A3EE
:10366C00741AF09003ACE0F9120DCA7A007B0002D8
:10367C0052A1E9FD74062DFCEAA2E0501EEC75F097
:10368C000A84A8F0E86014740A2CC398FCE8C3946C
:10369C00054004740A2CFC740B2CFCEDC3941340F1
:1036AC0004781480027806E82C2409F8E43400F934
:1036BC007A0A7B001202C2E8F90207D5C082C083E5
:1036CC009003B1E05402600A120D52E960047901D2
:1036DC0080027900023AF7C082C0839003B1E054B3
:1036EC0002601690037EE0700C124706600B123CD1
:1036FC001DA2E75004790180027900023AF7C082DA
:10370C00C08390800EE0F8900380E0C398500512BF
:10371C000DBE80047A007B00023AF7C082C083128F
:10372C000BD27900023AF774F712041374FE1208E4
:10373C006A851882851983EAF0A3EB123947601168
:10374C0014606C24FE606F24F87003023875023824
:10375C00D090062EE0640F6018120BA8E970128549
:10376C0018828519831255699006AF123C301205E8
:10377C00F9900656E0C0E08518828519831246211F
:10378C00D0E012393CF58388827414F08518828558
:10379C0019831251A37A7A7B03120DDCE5A8F8C2C7
:1037AC00AF90038012396A7920120B960240A41252
:1037BC00392F741580D51238E0A3A3E070030238BA
:1037CC00D08518828519831238F0FAA3E0FB8A821F
:1037DC008B83E0C0E0851882851983E0FCA3E0CCE4
:1037EC002406F582EC123563D0E01254E588828908
:1037FC0083EAF0A3EB12393CC8123AD6E8123A1617
:10380C008518828519836008123911403F0238D01F
:10381C00123911502212391AFA851882851983A38C
:10382C00E0C82406F582E812311F74AE28F58274C4
:10383C00171248FB6A6015851882851983123903A3
:10384C00E06408707F12391A6408707812391A14FF
:10385C00123955240AC0E0851882851983123C3030
:10386C00D0E0123955040237971238E012549E8872
:10387C00828983E0541F6403703AE0C4135407F840
:10388C00E58228F8E5833400F9E82402F582E91290
:10389C003A16641F701EA3A3A3E0C0E085188285AE
:1038AC0019831238EBD0E0123947640770061239CD
:1038BC002F7431F0851882851983122F7064317042
:1038CC0003023798851882851983AA82AB83120B61
:1038DC00D20237B8851882851983A3124664221246
:1038EC003925A322E02402F8A3E01238FA2234008E
:1038FC00F988828983E02212390722123E25C824D6
:10390C0006123DED22123907E014C39409228518E2
:10391C0082851983123925E022E0F8123935A3A3E8
:10392C00A3A322851882851983A3E0F583888222BC
:10393C0012394022124B47123E2522123940F58390
:10394C008882A3A3A3A3A3E022123940C82406F5BE
:10395C0082E8122C8B22E5A8F8C2AF90037FE0041A
:10396C00F0E8A2E7A2E792AF22C082C08390038363
:10397C0012470960081239361205F98002790002E3
:10398C003AF774F7120413EAFEEBFFEE240D12293A
:10399C002C123FBFF8A3E0F912355D12423FEE2422
:1039AC0035123A13C0E0EE2413123560D0E0F0EE7D
:1039BC002436123A13C0E0EE2414123560D0E0F035
:1039CC00EE2438123A13C0E0EE2418123560D0E021
:1039DC001254C21206DA123A07EE2431F582EF12B3
:1039EC003DC3120BFC7402120808E9F5087007EECF
:1039FC00FAEFFB120ADCA9080242FAEE2426FCEFCD
:103A0C003400FD22EE2410F582EF122C8B22C082A2
:103A1C00C083120BA8E96004792080027901023A74
:103A2C00F7C082C083EA123C28EB123A16D2E002AD
:103A3C003AF6C082C083123ACE1231167011123A85
:103A4C00E3400C8A828B83A3E0F9120B9C8071EA11
:103A5C00123AD6EB123A16A2E650128A828B83A344
:103A6C00E0F99006B1123C301205F98053123ACEAF
:103A7C00123116700D123AE350088A828B8374301F
:103A8C0080358A828B83A3E0641B8A828B837004CB
:103A9C0074228023A3E0700F123ACE12311F744AA5
:103AAC0028F5827417800D123ACE12311F746228D9
:103ABC00F5827417123ADBF09003ACE0F9120DCAE0
:103ACC008029EA240DF582EB22E82410F5822212DB
:103ADC0048FF8A828B8322EA2410F582EB122C8B0E
:103AEC00A2E322F09003B1E04402F0D083D0820232
:103AFC0007D574F7120413E9FE1247067003023C53
:103B0C001AEE6010741B6E70121254A7E0640570EC
:103B1C0003023BE81258A4E4023BEC74E96E705BC0
:103B2C00123C50700B120D58E96005123C69605B39
:103B3C00900381123C4D9003816039123C6C9003D0
:103B4C0081700B123C4D14F01211E4023C1A123C21
:103B5C005BC2E7123E0B240DF582E8125F64700C19
:103B6C00900381E0F8A3123C1DD2E2F0123C381213
:103B7C0005F980761258A774E9806574E16E703F80
:103B8C00120D58E96056123C697051900650E0C015
:103B9C00E0124BFEC82412F582E8123563D0E0F037
:103BAC0090063FE0C0E0900381123C34123C34D0CC
:103BBC00E0F090063FE004F079011211CC804F74D4
:103BCC001C6E70189003811255699006B7123C3028
:103BDC001205F9900381E4F0A3F080321258A4EEA0
:103BEC00F0900381125569120ACA123DDCE0548030
:103BFC006010900656E0F91210E2900655E0F912AA
:103C0C0010D6900381E4F0A3F07910120B960242C7
:103C1C00FAE0C8123C28E8122C8B22E82411F58219
:103C2C00229006B5123C472212466122900381E095
:103C3C00FAA3E0FB9006AD123C4722E0F8123935AE
:103C4C0022E0F8A3E0C82412F582E8122C8B22E0C3
:103C5C00F8A3E0C82410F582E8122C8B2290038183
:103C6C00123DE3E054042274F4120413750A007537
:103C7C000B00A2AFE433FFC2AF1247066003023D54
:103C8C006B123C2D1205F9E94410F8900378800969
:103C9C0085080A85090B123DB3123DC87003023D1D
:103CAC006B122D4D586870E8780A120857AC08ADA5
:103CBC00097A787B03120DEE7402120808900381C6
:103CCC00E508F0A3E509123E0B123C28E8122D473B
:103CDC005003023D7290037FE014F0EFA2E092AF2C
:103CEC00900381E0240EF8A3E03400F988088909D8
:103CFC008882F583125569900381123920F9120AD2
:103D0C008EE990037CF0123E01E054806018124B57
:103D1C00FEC82413123DC01210E2124BFEC824142C
:103D2C00123DC01210D6123DDCA3E0540160669027
:103D3C00037C1247096049123DF56044123DF5F8C9
:103D4C00790090037C1255691202CAE8C0E0123D5A
:103D5C00D0D0E0123E10C3941340117402800EEFC9
:103D6C00A2E092AF803E90037E023CE4E4C0E0907F
:103D7C000382E0C8241AF582E8123563D0E0801083
:103D8C00123DD07401123E0B241AF582E812292F31
:103D9C00F07903800C900381123C5BA2E1B3E43315
:103DAC00F91211CC022747E50824FBF582E509340A
:103DBC00FFF58322F582E8122C8BF922125F7EE547
:103DCC00084509221254D52419F582E8124FE8222D
:103DDC00900381123DE322123E25C8240E123DEDC4
:103DEC0022F582E83400F583221254D52418F5828A
:103DFC00E8122C8B22A3E4F0850882850983221219
:103E0C003E1DC822123E1DF5838882A3A3A3A3E006
:103E1C0022F0900381123E2522E0F8A3E02274F7F1
:103E2C00120413EAFEEBFF120BCCEE123AD6EF1291
:103E3C003AE9400A123110700590800C8003908092
:103E4C000DE0F9EEFCEFFD7A787B03120DF4E960DE
:103E5C0034EEFAEFFB9006B3123C301205F9EE2467
:103E6C000E123EA17010123962EE240E123FB27087
:103E7C0021120AD6801CEEFAEFFB9006AB123C30F6
:103E8C001205F9800D8E828F83A374F11242ED120C
:103E9C000ACA0242FAF582EF122C8B540422C08219
:103EAC00C083120AD6023AF774F7120413EAFEEB37
:103EBC00FF79009003B1E05402700AEE2433123EF5
:103ECC00A1600279E89003B1E05460700CEE2433E9
:103EDC00123A135402600279E88E828F83A3A3A353
:103EEC00A3E0C39475400279E8EE2431123A1370C2
:103EFC000CEE242E123A13700479F58009E9700344
:103F0C00120AB8E96007EEFAEFFB120B9C0242FAB8
:103F1C00C082C0838A828B83740DF0120D4C023ADE
:103F2C00F774F4120413EAFEEBFF8E828F83E4F035
:103F3C00A3123FBF540490800C7012E0F890037FE2
:103F4C00E0C398401279F1120B9C022747E0F890DD
:103F5C00037EE0C39850EEEE2433123FB26035EE90
:103F6C002437123FBA94054039EE2433123A1354D5
:103F7C0005702F7A857B03120CE6EE243712356020
:103F8C00121E9878081208537A857B03120CDA7487
:103F9C0004120808EEFAEFFB9003ACE0F9120DCA1C
:103FAC0080A879E880A1124FE5A3E0540122122CDD
:103FBC0088C322F0EE2433122C882274F6120413D8
:103FCC00E9FE2451FAE43400FB120DBEEA4B6015F5
:103FDC00EE8A828B83A3A3A3A3F0EA24511249E3B4
:103FEC0012423F80047A007B000252A1023EAAC01A
:103FFC0082C0839003A8E4F09003ABF0900394127A
:10400C00401C7402F090039D12401C7401023AF69D
:10401C007496F0A3740BF0A32274F612041374F1CB
:10402C0012086A8518828519837402F07401120AC9
:10403C0042E9F060047AFF7BFF7402120A42EAF054
:10404C00A3EB12407B1208577CA07D037406120A66
:10405C0042AA82AB83120DB2740212080885188230
:10406C00851983AA82AB83120D4C740F02529EF0F9
:10407C0075080B75090078082274F712041374FE86
:10408C0012086A851882851983740AF07401120A61
:10409C0042E9123571120D4C74020235C674F012DD
:1040AC000413125DA41209E57808790C1203237825
:1040BC00081208537A977B03022A6874F4120413CB
:1040CC0074C612086A90062EE0640F601085188280
:1040DC00851983742E124B4F120BAE80277A8E7B70
:1040EC0003120CE61227391202CA88088909E4F572
:1040FC000AF50B78081208537A8E7B03120CDA74CB
:10410C0004120808743A02274474F612041374F764
:10411C0012086AEAFEEBFF8E828F83A3E0F508603B
:10412C000302420B12421F6008E06403600375082F
:10413C00E8EE242612356012266E5034E508600332
:10414C0002420BEE2426FAEF3400FB79E11210A6A2
:10415C00EE2431FAEF3400FB79501210A612421FF4
:10416C007014EE242812549790063D12423F80188A
:10417C007508E802420F90063D74FEF0A30412424B
:10418C00287A347B0612123875080B7509007808EA
:10419C00120857EE241BFCEF3400FD7AA07B0312AF
:1041AC000DB2740212080812292912284374021243
:1041BC004228851882851983AA82AB8312122CEEB1
:1041CC0024311252631229358A828B83E8F0A3E9D9
:1041DC00123FBF1252791208577402120A42AC8273
:1041EC00AD8379831A1AEFFB120BFC7402120808C8
:1041FC00E9F5097007EEFAEFFB120ADC850908E510
:10420C0008600B12632F74171242ED120BAE740977
:10421C0002529EEE2430122C88640222F0EE2428E6
:10422C00FCEF3400FD22FB8A828B83124245F98A13
:10423C00828B83E8F0A3E9F022E024FFF8A3E034BA
:10424C00FF2274F612041374F712086A9003ABE0A1
:10425C0070457401F0F9121196851882851983AA9C
:10426C0082AB83120BD87508A07509037808120865
:10427C005775080175090078081208579006431203
:10428C0006DA7406120A42AC82AD837A03790512FF
:10429C000C02740612080802421A74F7120413EA8C
:1042AC00FEEBFF790112119C8E828F83E0642070EB
:1042BC0004A374EBF09003ABE0A2E25003C2E2F073
:1042CC00E0A2E150081244F6120B12800C8E828F81
:1042DC0083742A1242ED120BAE80138E828F83747C
:1042EC0029F0EEFAEFFB22EEFAEFFB120C507F01F5
:1042FC0002064D74F412041374FE12086AEAFEEB03
:10430C00FF790112119C7A8E7B03120CE67A977B53
:10431C0003120CE612462D85188285198312465A13
:10432C00E0F5087015851882851983AA82AB83790C
:10433C00531210A6125F561210A6750A0B750B00BD
:10434C00780A1208571235547AA07B03120DB274F6
:10435C0002120808851882851983125569A908125A
:10436C000B0C9003ABE0A2E1500A8E828F83A3E08A
:10437C00F9120B129003ABE4F0740202274474F7A9
:10438C00120413EAFEEBFF8E828F83A374EBF09082
:10439C0003ABE0A2E1500579EB120B12EEFAEFFB46
:1043AC00120B420242FA74F7120413EAFEEBFF7985
:1043BC000112119C7A8E7B03120CE67A977B031206
:1043CC000CE69003A8E4F09003ABF07AFF7BFF8E31
:1043DC00828F83A3E0F9120B0C0242FA74F71204D9
:1043EC0013EAFEEBFF120B3C0242F374F7120413B8
:1043FC00EAFEEBFF790112119C8E828F83A3A3A39B
:10440C00A3E06003E4800274EB1244485003C2E260
:10441C00F0E0A2E150081244F6120B128014A2E054
:10442C0050108E828F83742AF0A374EB1242ED121B
:10443C000BAEEEFAEFFB120AEE0242FA8E828F837B
:10444C00A3F09003ABE0A2E22274F6120413EAFE8E
:10445C00EBFF9003ABE0D2E1F079011211968E8262
:10446C008F83A3E07041120BDEE9FAEE240DF50800
:10447C00EF3400F509780812085775080175090022
:10448C007808120857EE240B1235601206DAEE2467
:10449C0002FCEF3400FD7905120C027406120808B8
:1044AC00E98E828F83A3F08E828F83A3E06004F960
:1044BC00120B120252A174F7120413EAFEEBFF79ED
:1044CC000112119C8E828F83E064207004A374EB24
:1044DC00F09003ABE0A2E25003C2E2F0E0A2E150A4
:1044EC00061244F6120B120242FAC2E112633AA30C
:1044FC00E0F92274F7120413EAFEEBFF79011211B2
:10450C009C7A8E7B03120CE68E828F83A3A3A3A3CB
:10451C00E06003E4800274EB1244485003C2E2F002
:10452C00E0A2E150061244F6120B1202443E74F75C
:10453C00120413EAFEEBFF790112119C8E828F8319
:10454C00A374EB12444D5003C2E2F0E0A2E150061A
:10455C001244F6120B120242FA74F7120413EAFE1A
:10456C00EBFF7A8E7B03120CE6EEFAEFFB120B6676
:10457C000242F374F7120413EAFEEBFF7A8E7B030C
:10458C00120CE6EEFAEFFB120B660242FA74F7120B
:10459C00041374EF12086AEAFEEBFF12548E7A349D
:1045AC007B06121226E960688518828519837409C6
:1045BC00F07401120A4274EFF012462DF8740212D4
:1045CC000A42E812465AA3A3E0C0E07404120A425D
:1045DC00D0E0124651640870158E828F83A3A3120B
:1045EC004621E0C0E07405120A42D0E08006740552
:1045FC00120A42E41246437406120A42AA82AB83A0
:10460C00120C1A851882851983AA82AB83120D4C61
:10461C0074110235C61254D82407F582E8124FE8FB
:10462C002212526DFB8A828B831254A28882898358
:10463C00E0FCA3E0F9EC2212464722F0EE2408FC41
:10464C00EF3400FD2212465522125B75E022125403
:10465C00EE12466122E0F8A3123936A3A322C082DF
:10466C00C083120C5C023AF7C082C0839003C874FA
:10467C00F4F0A37416F0A374A5F0A37417F09006CD
:10468C00BB7473F0A37414F0A374DBF0A374141252
:10469C0059B2023AF6C082C083EAFCEBFD790212F1
:1046AC000BBA023AF774F612041374FE12086A90ED
:1046BC0003AD12470960077AAD7B03120BD290034E
:1046CC00B3E4F0900689124709602C800D8518829E
:1046DC00851983AA82AB83120BD29003ACE0F9123A
:1046EC000DD68A088B09A808A90985188285198313
:1046FC0012423FE84970D602529C9003811254A298
:10470C00E8492274F6120413E9FA7B009003ACE03A
:10471C00F9120DFA0252A174F712041374F0120874
:10472C006AEAFEEBFF89088E828F83E0F874852895
:10473C00F58274171248FBC0E07401120A42D0E0F3
:10474C00F0640B700D8E828F83A3E9F0120C3E0285
:10475C004827E07003024827640C60030248137476
:10476C001A6508700B7404120A42E4F0A302481292
:10477C007404120A42EEF0A3EF1254DDC0E074038D
:10478C00120A42D0E0125B68120A2B7406120A421B
:10479C00120A1F8E828F83A3A3A3A3A3A3A3A3A3F5
:1047AC0012549E740A120A421251CCE05410600941
:1047BC00851882851983E48012EE241212311C9024
:1047CC000650E0C398851882851983F0E0C0E07428
:1047DC000C120A42D0E0F0EE2415123A13C0E07429
:1047EC000D120A42D0E0F0EE2416123A13C0E07417
:1047FC000E120A42D0E0F0EE2417123A13C0E07405
:10480C000F120A42D0E0F07402120A42E508F0746A
:10481C0001120A42AA82AB83120D4C74100235C6E7
:10482C00C082C0839003B3E07004790180027900E8
:10483C00023AF7C082C0839003B3E064037004793A
:10484C000180027900023AF774F61204139003B354
:10485C00E0C333F8E433F974B928F582740639F5FA
:10486C0083124D59C2E7F0C333FCE82CF582E912F0
:10487C003563A3E493FEC333FCE433FD74B92CF528
:10488C008274063D1251A1EC4D6005EE9003B3F01D
:10489C008A828B83E0C333FCE433FDE82CF582E998
:1048AC003DF583E493F508C4540FC333F874C22860
:1048BC00F58274031235631247097005120C2C80B3
:1048CC001BE508540FC333FCE82CF582E91248FBB6
:1048DC00C0E0740193F583D0821205F90252A189CC
:1048EC000CEAFEEBFF8908747A2508F5827417121E
:1048FC0048FF22123DF0E4932274F312041374FE69
:10490C0012086A1248EBFA7B00120DBE8A088B095A
:10491C00EA4509602F8A828B83E50CF01249EF126D
:10492C000857EEFCEFFDEA2402FAEB3400FB120D03
:10493C00B27402120808AA08AB099003ACE0F91291
:10494C000DCA8012851882851983E50CF0791AAA94
:10495C0082AB83120B9C7402022C9074F012041321
:10496C0074FE12086A1248EBF50AFA7B00120DBEAF
:10497C008A088B09EA4509603A8A828B83E50CF038
:10498C00A3E4F0EA250A1249D81249EF120857EEAF
:10499C00FCEFFDEA241BFAEB3400FB120DB274029F
:1049AC00120808AA08AB099003ACE0F9120DCA79F9
:1049BC00008014851882851983E50CF0791AAA8277
:1049CC00AB83120B9C791A7402022A6D1249E3E82C
:1049DC001254EEA3A3A322F8EB3400F98A828B8342
:1049EC00A3A322A3E4F0850C0A7490250AF5827423
:1049FC00171248FFF50A750B00780A22C082C08393
:104A0C00E99003AC023AF674F612041374FE120821
:104A1C006AEAFEEBFFEE5420702E8037E5A8F8C250
:104A2C00AF900380E01412396C8A828B83124B395D
:104A3C001254B9120BAE851882851983E064156087
:104A4C00077AAF7B03120BD27A7A7B03120DE2EA60
:104A5C004B70C9EF5480700F80191254B9120BAE01
:104A6C007AAF7B03120BD29003ACE0F9120DD6EAAD
:104A7C004B70E7EE5410600E851882851983742DE7
:104A8C00124B4F120BAEEEA2E0500E851882851918
:104A9C00837424124B4F120BAEEE5402600E851829
:104AAC00828519837425124B4F120BAEEE540460A1
:104ABC000E8518828519837426124B4F120BAEEE9D
:104ACC005408600E8518828519837428124B4F1276
:104ADC000BAEEE544060107401120A42124B427439
:104AEC002C124B4F120BAEEE548060107401120A54
:104AFC0042124B42742F124B4F120BAE9003AD125D
:104B0C0047096022E5A8F8C2AF9003AD1255699031
:104B1C0003ADE4F0A312396CA31254BC120BAE7AA1
:104B2C00AF7B03120BD27A007B0002529CE08518FB
:104B3C0082851983F022E4124B4722F08518828576
:104B4C00198322F0AA82AB8322C082C0839003AF68
:104B5C0012549EEA687002EB6970079003AFE4F0A0
:104B6C00A3F0023AF774F7120413EAFEEBFFEE4FD0
:104B7C007003120EF6A2AFE433F508C2AF8E828F2B
:104B8C00831247096028E824FBFAE934FFFB900301
:104B9C00AF1251A3E86C7002E96D70079003AFE49B
:104BAC00F0A3F08E828F83E4F0A3F0120E3CE508A4
:104BBC00A2E08004A2E7A2E792AF0242FAC082C050
:104BCC008390063DE064FE7003A3E0F470097C342E
:104BDC007D0612122C80188A828B83A3A3A3A3A315
:104BEC00A3A3A37402F090063D124C0112423A02A8
:104BFC003AF7900381123E2522C082C0839006476B
:104C0C00C3E094FEA3E094FF400479038002790290
:104C1C00023AF7C082C083124DBF8C828D83124D35
:104C2C001768703B740268701C8A828B83124C70FC
:104C3C00E068702B8A828B83A3124C70A3E068709F
:104C4C001E7901801C7403687015EC2405FCED348E
:104C5C0000FDEA2405FAEB3400FB121232800279D3
:104C6C0000023AF7A3A3A3A3A3E0F88C828D83A33D
:104C7C00A3A3A3A32274F61204137E00740A120ACF
:104C8C0042E0124D0BFF8A828B83A3A3A3A3A3A3A1
:104C9C00A3A3E06F706474026F704D8A828B83C023
:104CAC0082C08388828983A3A3A3A3A3E0F5088889
:104CBC00828983A3A3A3A3A3A3E0FBAA08D083D0D8
:104CCC0082E06A7003A3E06B703088828983A3A3AF
:104CDC00A3E0FA88828983A3A3A3A3E0F9EA6C700A
:104CEC0002E96D70150E801274036F700DE82405C7
:104CFC00FCE93400FD121232E9FEEEF90252A1F881
:104D0C00A3E0F988828983124D1722A3E013135470
:104D1C003F540322C082C0838A828B83A3A3A3A3A4
:104D2C00A3A3A3A3E06402701690063D124D59682C
:104D3C007003A3E06970047901800F7900800BEA9D
:104D4C00FCEBFD7A347B06121226023AF71254A2BF
:104D5C008A828B83E022C082C083124DBF603A747A
:104D6C000268703D90063DC3E094FEA3E094FF50B2
:104D7C00308A828B83A3A3A3A3A3E0FC8A828B83B8
:104D8C00A3A3A3A3A3A3E0F9ECF875830675823D56
:104D9C00E0687003A3E069700479018013790080E6
:104DAC000FEA2405FCEB3400FD7A347B0612123238
:104DBC00023AF78A828B83124D17F82274EC120494
:104DCC0013EAFEEBFF8C128D13750A00750B008C29
:104DDC00828D83A3A3A3A3A3A3A3A3E0F510E9A2AD
:104DEC00E75008750CFF750DFF800A900643E0F53F
:104DFC000CA3E0F50DE9C2E7F511EE240E123A13FF
:104E0C005420600AEE241012356074088006EE24DB
:104E1C0010124FD6124FF554046007124FDE7480F7
:104E2C008005124FDE7410124FF554106008EE24FA
:104E3C0012124FD6800E900650E0C0E0EE241212F3
:104E4C003560D0E0124FF5A2E05003750A205408EB
:104E5C0060067410450AF50A8E828F83A3A3E024A2
:104E6C00FFF508A3E0124FD1EE240D123FBA9402C5
:104E7C00E04010640B6007E014124FFB8003750BCD
:104E8C00227403450AF50A85110E750F00740E780D
:104E9C000E120959E50F450BF50B7414120A421248
:104EAC0050C374026511700E900648124FFA9006AA
:104EBC0047124FEC8013740365117016124FC97CA6
:104ECC00577D06AA08FB121238E50824FF124FCDB5
:104EDC008004E5116028E5106014E50E650C700483
:104EEC00E50F650D70087440450AF50A80108508B9
:104EFC0082850983E50D125013E50C1250018510C3
:104F0C000C750D00740A780C120959E50D450BF55A
:104F1C000B740265107015851282851383A3124FD2
:104F2C00FA851282851383124FEC8013740365107B
:104F3C007016124FC9AC12AD13AA08FB121238E549
:104F4C000824FF124FCD8004E5106010850882857F
:104F5C000983E50F125013E50E125001A808A90998
:104F6C00E824FFF508E9124FD1EE240D123A137024
:104F7C0005900633800390063FE0FA04F0EA88823D
:104F8C008983123E03E50B125013E50AF0EE24045C
:104F9C00F8EF3400F9122921FBAC088A828B83E0EC
:104FAC00F50A88828983E0250AC39C1251C8ECF06B
:104FBC00A3E509126336A3E4F0F9022C1BE50824DF
:104FCC00F9F508E50934FFF50922F582EF124FE8EF
:104FDC00E422EE2411124FE522F582EF123DF0226D
:104FEC00E0850882850983F0221251D4E022E08505
:104FFC00088285098312500522F0E50824FFF50884
:10500C00E50934FFF50922125005850882F5832243
:10501C0074EB120413890D8A0C8C108D11741512FB
:10502C000A42E0F50AA3E0F50B7417120A4212507B
:10503C00C375141A7419120A42125F7AAA08FB1269
:10504C000A888A128B13AE12AF13EE4F60591235C9
:10505C005DE50EF0A3E50F122846E50DF0750E0B7D
:10506C00750F00780E120857AC08AD091250BA1221
:10507C000DB27402120808780A120857AC10AD1160
:10508C00A90CEEFAEFFB120BFC7402120808E9F5FE
:10509C00147014E50D24F9600314700412519BF084
:1050AC00EEFAEFFB120ADCA9147F0D02064DEE247A
:1050BC001BFAEF3400FB22E0F50EA3E0F50F22748F
:1050CC00F2120413EAFEEBFF8C088D09890A740EA8
:1050DC00120A421251A37A008E828F83A3A3122943
:1050EC003A8882898374071251DF88828983E4129B
:1050FC0051B588828983741F1251B57411120A42FA
:10510C00E060031251BF7410120A42E060031251A6
:10511C00BF88828983E50A1251DF74012AC4335493
:10512C00E04403888289831251A9FB880B8A828B05
:10513C0083E0C3950B8E828F83A3A3A3A31251C8C4
:10514C001251CCE4F0A3122846740BF0F50C750D3B
:10515C0000780C1208571250BA120DB274021208D1
:10516C0008750CFF750DFF780C120857AC08AD09CB
:10517C007902EEFAEFFB120BFC7402120808E9F547
:10518C0008700912519B1242ED120ADC02291D1201
:10519C002C85D2E522F583E0FCA3E0FD22F0EE2481
:1051AC0002FAEF3400221251B91251E722E0888240
:1051BC00898322888289831251E70A221254F122B0
:1051CC00E8F0A3E91251D422F0EE240EF582EF128E
:1051DC003DF0221251F5E41251E7221251EB22F06C
:1051EC00E824FF18E934FFF9221251EB88828983F5
:1051FC002274F612041374F712086AEAFEEBFF78B5
:10520C0001EE2432123A136002780512355DE81271
:10521C002843740412528512122CEE242F1252635E
:10522C00124232EE2431123A131252791208577488
:10523C0002120A42AC82AD8379031A1AEFFB120BED
:10524C00FC7402120808E9F5087007EEFAEFFB127D
:10525C000ADCA90802421A124FE5125F7E12526D47
:10526C0022EE2402F8EF3400F9E8FAE92288828968
:10527C008312465504F0780822F0EE2426FCEF3415
:10528C0000FD851882851983AA82AB8322120DB288
:10529C0074021208087F0202064D74F31204138A7A
:1052AC00088B09ECFEEDFF8A828B8374051254DDAA
:1052BC008A828B83A3A3F0EA2403F50AEB3400F56E
:1052CC000B850A8212549CEE2425123560120A2B8F
:1052DC00123C27E9123563120A1F12548EE8FAE9C0
:1052EC00FB12122C850A82850B831258ACFAA3E0B0
:1052FC00FB88828983A3A3A3A3A3A3A3A3A3EAF0FC
:10530C00A3EB1254C2E0C0E0123AD5E9123563D0D7
:10531C00E01254CA2415F582E8124FD91254CA244B
:10532C000EF582E8124FD9124643850A82850B830B
:10533C00E02416FAA3E03400FB120C1A8E828F8341
:10534C00A3A3A3A3A3A3A3E0C0E0850A82850B8338
:10535C00E0F8A31254A7D0E01254B2FAA3E0FB85F4
:10536C000A82850B8312549EE8240BFCE93400FD61
:10537C008A828B83E08C828D83F0A3E41254E5E067
:10538C00F50B8C828D83A3E0450B1251C8A3E0FC76
:10539C00A30A0AAB83A2E7E433C0E0E8240FF5824A
:1053AC00E9123563D0E0F074075C60047801800288
:1053BC00780075F00374075CA428F8EA28FAEB343B
:1053CC0000FBE5082405F8E5093400F98A828B8393
:1053DC001251B91254E5850882850983A3A3A3A3AE
:1053EC00A3A31254BC88828983E0F85407C333FC0E
:1053FC00E8C4540F5407F50A750B007403780A12AD
:10540C000959EC250AF8EA28F8EB3400F9850882EA
:10541C00850983A3A3A3A3A3A3A3A3A3E8F0A3E950
:10542C00124651FA8E828F83A3A3E02AFAA3E034AA
:10543C0000FBC3EA98EB9940308E828F83A3A3E0E4
:10544C00F8850882850983A3A3A3A3A3A3A3A3A37D
:10545C00E0FA8E828F83A3A3A3A3E0C39A288508C6
:10546C0082850983A3A3A38010850882850983A361
:10547C00A3A3A3A3A3A3123E01A3A3A3A3A3F002DC
:10548C002C93EE2413FCEF3400FD22F582EF340054
:10549C00F5831254A222123E25F922E0C8240DF500
:1054AC0082E8124FE82212633AA3A3E0229003AFE2
:1054BC00EAF0A3EBF022F0EE242F124FE522F08558
:1054CC000A82850B831254D822900381123E25C880
:1054DC0022F0EE2432122C88221254F1A3AA82ABB1
:1054EC008322F0A3E9F08A828B832274F6120413D0
:1054FC0075080B75090078081208570252990207B3
:10550C00D5C082C0837918120B9C023AF7C082C0B6
:10551C00838A828B83E0C3940B5003120C26023ACD
:10552C00F7C082C083791980DE74F7120413EAFE87
:10553C00EBFF9003AD12470960109003AD12556953
:10554C00120C327AAD7B03120BD2EEFAEFFB120B7C
:10555C00CC9003ADEEF0A3EF800B90035FE0FAA3C9
:10556C00E0FB22F0A3F00242FA74F712041374DE8B
:10557C0012086AEAFEEBFF8E828F83E024FD601135
:10558C0024FE601524ED600924FA600D14600A8075
:10559C003D7416120A42E480077416120A42740112
:1055AC00F0123A07740B120A42AA82AB8312123819
:1055BC007413120A42125650120A4212423F740AD3
:1055CC00120A4212565C120A4212423F8041741671
:1055DC00120A427402F012548E740B120A42AA82FE
:1055EC00AB831212387413120A42125650120A422A
:1055FC0012423F740A120A4212565C120A42E8F036
:10560C00A3E9125668120A42AA82AB83120C1A85BD
:10561C001882851983740B126336A3E0C0E0740101
:10562C00120A42D0E0125668120A42AA82AB8312C6
:10563C000C1A851882851983AA82AB83120D4C74BF
:10564C00220235C67403F09006471254A27402224B
:10565C007402F09006431254A2741422124647743A
:10566C00172274F7120413EAFEEBFF8E828F83A3CA
:10567C00E0F5087035EE242F1256E57003A3E069AF
:10568C0060037508E8EE2426FAEF3400FB120BF0E9
:10569C00E96029EE2432F582EF1256DFE508700A34
:1056AC00EEFAEFFB120C0EE9F508E508600B12633D
:1056BC002F74191242ED120BAE0242FAEE24321282
:1056CC003A1360D89003D4E070D27508E880DFF507
:1056DC0082E509124FE8E4F022124FE51254A29031
:1056EC000643E06822C082C08374F112086A740217
:1056FC00120A4274041251C8A3E0C0E07403120AE7
:10570C0042D0E0F0EA242FF582EB12549A740D1279
:10571C000A4212423FEA2426FCEB3400FD740412C8
:10572C000A42AA82AB8312122C7404120A42AA8275
:10573C00AB83120BF0E9600E1257631210A69006A1
:10574C003D74FFF0A3F07402120A42AA82AB8312DA
:10575C000D4C740F02362085188285198374FFF066
:10576C00A312357579532274F612041374E81208D7
:10577C006A8A088B097402120A427403F0EA241331
:10578C00FEEB3400FFEEFCEFFD7404120A42AA8219
:10579C00AB83121238122F68C0E0740C120A42D07C
:1057AC00E0F0E5082408FCE5093400FD740D120A4C
:1057BC0042AA82AB83120C1AEEFAEFFB120BF0E941
:1057CC00600E1257631210A690063D74FFF0A3F002
:1057DC007402120A42AA82AB83120D4C7418025244
:1057EC009E74F612041374D412086AEAFEEBFF8E50
:1057FC00828F83A3A31258A7E0A2E650179006430A
:10580C001258AC687003A3E06970099003D5E0608E
:10581C0046120C5C740B120A42A882A98374031200
:10582C000A42125EC5120C14851882851983742BDA
:10583C00124B4F120BAE900628E060087408120A47
:10584C0042E0600E8518828519837405124B4F1245
:10585C000D4C742C02529E90064CE060B712354BE6
:10586C00120BF0E970AEEE2408F508EF3400F509E0
:10587C00780812085775080175090078081208573E
:10588C009006431206DA7C347D067A037906120CF4
:10589C0002740612080880BA900381123C47A322B6
:1058AC001254A2EE242B122C8822C082C08374EFD7
:1058BC0012086A8518828519837409F07401120A1A
:1058CC004274EE123571120D4C02361E74F712042E
:1058DC0013E9FFA2AFE433F508C2AFEF6003121077
:1058EC009A121034900656E0F91210E2900655E028
:1058FC00F91210D69003D5E0F91210BE900643129F
:10590C0055691210C49006471255691210CA7A577D
:10591C007B061210D07E00125962124709600912E0
:10592C005962123C301205F90EEEC3940740E8128E
:10593C000CB0120B909003D6E4F0120A829003D5AF
:10594C00E4F07A467B0679521210A6E508A2E092A2
:10595C00AF79000242FAEEC333F8E433F974B42899
:10596C00F582740339F58322C082C0837909120B46
:10597C00B4023AF7C082C0839003C27421F0A374BE
:10598C0017F0A3749BF0A37417F0A37456F0A374D0
:10599C00171259A912102E023AF70207D5F09003EC
:1059AC00B1E4F0A3F022F09003B47406F0A3740BEE
:1059BC00F09003B1E0440122F09006C17443F0A3CF
:1059CC007415F09003B67498F0A374122274F71245
:1059DC000413EAFEEBFFECF8EDF98E828F8374076B
:1059EC00125A3CE08E828F83A3A3125A3CA3A3E0ED
:1059FC008E828F83A3A3A3F088828983A3A3120A28
:105A0C002B8E828F83A3A3A3A3120A1F8E828F8354
:105A1C00A3A3A3A3A3A3A3A3E4F0E82418F582E90A
:105A2C0012311F126198A3A3A3E8F0A3E9025571E8
:105A3C00F088828983A3A3A3A3A3A32274F41204E2
:105A4C0013EAFEEBFF9003D8E4125B68A3E0C39467
:105A5C000640069003D874E8F08E828F83A3A3A32C
:105A6C00A3A3A3A3E0C3940F40158E828F83A3A39B
:105A7C00A3A3A3A3E0640360159003D874E8F08E8D
:105A8C00828F83A3A3A3A3A3A3E06403700E90034C
:105A9C00B1E0A2E040069003D874E8F0EEFCEFFD14
:105AAC007AD77B03120C7A8E828F83A3A378081289
:105ABC0009E5740A78081208229003EB7808120A98
:105ACC00038E828F83A3A3A3A3A3A3A3E09003EFCE
:105ADC00125B879003F0125B8C9003F1125B7F904A
:105AEC0003F2F0EE240C123A139003F3F0A3740AB1
:105AFC00F0900656E09003F5F09003E812401C7409
:105B0C000412407B120857EE240DFCEF3400FD7A92
:105B1C00F67B03120DB274021208089003D8E070E1
