:020000040000FA
:06000000020ACE0201AD70
:03002B0002086464
:030033000202883E
:030053000200E1C7
:03006B000201CFC0
:03007B0002073B3E
:100083000201410300030003000300030003000314
:10009300000300030005000A00140028004F009E1F
:1000A300000000480D480D480D480DE60BE00B48D5
:1000B3000D3B1F00000000A31F00000000FF000015
:1000C30000FF000E1420FFFFFFFF012014040300B4
:1000D30008000001FF0E0E0EC80020FD0002C0E064
:1000E30074F112058EA2AFE433FED2AFE5A7FFE5AC
:1000F300A1F5085FF5097410550960061212EE7533
:10010300A1EF7408550960081212F475A1F7802451
:10011300E508A2E092F0EFA2E082F0501790619818
:10012300E0F8900655E0C398A2D265D0335002E8B8
:10013300F075A1FEEEA2E092AF7F0202064AC0E094
:1001430074F212058EA2AFE433FED2AF9061A4E045
:10015300F8759B00E59158540860087591F71213E0
:10016300488023E59158541060087591EF12134E9F
:100173008014E591A2E092F0E8A2E082F05007E05B
:10018300C2E0F01214929061A3E0F8E5E958540438
:10019300600E12146875E9FB906193E0A2E640F2E9
:1001A300EEA2E092AF7F0102064AC0E074F21205AC
:1001B3008EA2AFE433FED2AF9061A5E0F8E5BF585D
:1001C3005404600675BFFB1214AA80D4C0E074F215
:1001D30012058EE589A2E1400FE589A2E24009E517
:1001E30089A2E3400302026D900599E0A2E1500960
:1001F300E589A2E3400F02027E7A207B0090057A14
:10020300E0F9121072900599E0D2E0F090071AE03D
:100213007035900599E0A2E150117A007B109005AA
:100223007AE0F9121072908256802B90825A12074C
:100233007E7A007B1090057AE0F91211747404122F
:10024300091B908252800F7A007B1090057AE0F9A7
:1002530012107290828612077E7A087B0090057ACC
:10026300E0F9121174740412091BE589A2E6500B1C
:10027300E5AB540E640E600343AB0E758900C2C533
:100283007F0102064AC0E074F112058EE59DA2E6E5
:1002930050FA906206E0FAA2E25035A82AE890628A
:1002A3000BF0F508852B0974047808120B31E50867
:1002B300906207F0852A08852B0974097808120BC8
:1002C30031E508543E906209F0906201E0D2E0F01B
:1002D3007827EA46F6906202E0F50875090074048F
:1002E3007808120AA87827E50846F608E50946F6CD
:1002F300906204E0F50875090074097808120AA8E9
:100303007828E50946F6EAA2E05003752901740648
:100313005A6003752900E58BA2E55006758BDF75DE
:10032300290012156A758B00C2E87F0202064AC3D0
:10033300E498F8E499F91203738026C3E49AFAE483
:100343009BFBE920E7E9120373E498F8E499F922A7
:10035300C3E498F8E499F9120373E498F8E499F97B
:10036300C3E49AFAE49BFB22EB20E7CFE920E7E022
:10037300B90010BB0008E88AF084F8AAF022E4FB75
:10038300C8FA22EB70227B10C833C8C933C9335073
:1003930007C39AC3DBF280069A50012ADBEAC8330B
:1003A300F4C8C933F4C9FA2275F008E4C833C8C9DC
:1003B30033C933C99AC99B5004C92AC93BD5F0EC48
:1003C300FBC833F4C8E4C9FA22080808EAC0E0EB22
:1003D300C0E086F0E7A4FA180986F0E7A42AFA1821
:1003E3000986F0E7A42AFA180986F0E7A42AFA197D
:1003F30086F0E7A4FBE5F02AFA190886F0E7A42BB8
:10040300FBE5F03AFA190886F0E7A42BFBE5F03A8E
:10041300FA18180986F0E7A4C5F02BFBE43AFA1999
:1004230008E7C5F0C6A426F6E5F03BFBE43AFA1864
:1004330086F0E7A4F6E5F00826F6E43B08F6E43A8E
:1004430008F6D0E0FBD0E0FA22E4CFC0E0E4CEC06F
:10045300E0E4CDC0E0E4CCC0E075F020C3E633F6C1
:1004630008E633F608E633F608E633F6181818EC10
:1004730033FCED33FDEE33FEEF33FFC3EC9709EDB1
:100483009709EE9709EF97191919400FFFEC97FC9D
:1004930009ED97FD09EE97FE191906D5F0BEECF7A5
:1004A30009EDF709EEF709EFF7191919D0E0FCD0B8
:1004B300E0FDD0E0FED0E0FF222518C582C0E0E5D4
:1004C3001934FFC583C0E0E518C3958224F810AF43
:1004D300088583198582188008858319858218D237
:1004E300AFCEF0A3E520F0A37808E608F0A3DEFA88
:1004F300EFF0A3E58124FAF8E608F0A3E608F0A3F9
:10050300E608F0A30808E608F0A3E608F0A31581BF
:100513001581D0E0FED0E0F8158115811581E8C082
:10052300E0EEC0E022120B83B90003020578E47900
:1005330021780BB800028004F709D8FCE49003018A
:1005430078CA79048002F0A3D8FCD9FA9006CAAA23
:1005530082AB83900086785C79018015E493A3AC29
:1005630082AD838A828B83F0A3AA82AB838C828D34
:1005730083D8E9D9E77582E975839C74021208E28E
:100583007582C675831674001208E2C0D02518C59B
:1005930082C0E0E51934FFC583C0E0E518C3958246
:1005A30024F310AF08858319858218800885831981
:1005B300858218D2AFC8F0A3E9F0A3EAF0A3EBF069
:1005C300A37908E709F0A3D8FAECF0A3EDF0A3EEC2
:1005D300F0A3EFF0A3D0E0F0A3D0E0F0A3D0E0F0DD
:1005E300A3E520F0A3E5F0F0A3221201000202002C
:1005F30000205104A8160900010203010902430067
:10060300020100801909040000010202010005240F
:100613000010010424020205240600010524010040
:10062300010705820340004009040100020A00009B
:10063300000705840240000007050402400000088B
:100643000600002B060000851983851882E0C0E0B0
:10065300A3E0F9A3E0FAA3E0FBA37808E0F608A37C
:10066300DFFAE0FCA3E0FDA3E0FEA3E0FFA3E0C00C
:10067300E0A3E0C0E0A3E0F5D0A3E0F520A3E0A36E
:10068300F5F010AF088583198582188008858319D2
:10069300858218D2AFD082D083D0E0F8D0E032E4A4
:1006A3007375F0108E218F22858226858325851808
:1006B30082851983E0CEA3E0CF852682852583EB4F
:1006C300C9EAC8EDCBECCAC3E833C8E933C9EA3396
:1006D300CAEB33CBC3EA9EF524EB9FF523B3500457
:1006E300AB23AA24EC33CCED33CDD5F0DAAE21AF76
:1006F3002222851983851882E0A3FEE0A3F52078E2
:1007030008E0A3F608DFFAE0A3FFE0A3C0E0E0A35C
:10071300C0E0E0A3C0E0E0A3C0E0E0A3C0E010AF0E
:10072300088582188583198008858218858319D2E4
:10073300AFD083D0820208E8C0E074F212058EA223
:10074300AFE433FED2AFE58AA2E25007900649E058
:10075300D2E0F0E58AA2E35007900649E0D2E1F047
:10076300758A00C2EB7A107B00900645E0F91210FF
:1007730072EEA2E092AF7F0102064A740480047411
:10078300028000CCC0E0EDC0E0E518C39CCCAD19FD
:1007930050011D10AF068C188D1980068C188D1909
:1007A300D2AF120843D0E0FDD0E0FC22D083D08248
:1007B300CCC0E0E493A360061208C31470FAE49378
:1007C300A3600612097D1470FAD0E0FCE493A3C081
:1007D300E0E493C0E022C008C3E096F50808A3E074
:1007E30096420808A3E096420808A3E0964208A2AE
:1007F300D265D033E5087001D3D00822CAC0E0E443
:1008030093A3C582CCC582C583CDC583F0A3C5821E
:10081300CCC582C583CDC583DAE5D0E0CA22A2E781
:1008230092D65002F40430F70663F0FF05F0B340AC
:100833000384800384F40430D60563F0FF05F022BB
:10084300CAC0E0E0A3C582CCC582C583CDC583F011
:10085300A3C582CCC582C583CDC583DAE6D0E0CA01
:1008630022C0E0C0D0E8C0E0E9C0E0E5A8D2AFC252
:10087300C7A2E7A2E792AFD0E0F9D0E0F8D0D0D09A
:10088300E032C008C3E096F50808A3E096420808E2
:10089300A3E096420808A3E09645087001D3D00868
:1008A300227009080808226016181818C6C333C630
:1008B30008C633C608C633C608C633C6D5E0EA221F
:1008C300C0E0E493A3D39C5010E493A3C39C400AD9
:1008D300D0E0D0E0D0E00207CCA3A3A3D0E022C0B5
:1008E3009FF59FE473D09F22D083D082C09FE4936F
:1008F300C0E0740193C0E0740293F59F222518F5BC
:100903008210AF08F518400215198008F518400247
:100913001519D2AF85198322C0D0251810AF08F559
:1009230018500205198008F51850020519D2AFD0E6
:10093300D0226016080808C6C313C618C613C61803
:10094300C613C618C613C6D5E0EA22C3E0C696F698
:1009530008A3E0C696F608A3E0C696F608A3E0C689
:1009630096F62274048006740280027401C0E0F4D7
:1009730004120900D0E0120B5E22C0E0E493A36CE2
:100983007009D0E0D0E0D0E00207CCA3A3D0E022EE
:10099300251810AF08F518400215198008F51840FE
:1009A300021519D2AF22E76670100809E766700ACC
:1009B3000809E76670040809E76622E06670100814
:1009C300A3E066700A08A3E066700408A3E0662249
:1009D300C3E09608A3E09608A3E09608A3E096A2D6
:1009E300D265D03322C3E096F008A3E096F008A3C3
:1009F300E096F008A3E096F022C3E697F60809E62E
:100A030097F60809E697F60809E697F622E056F600
:100A130008A3E056F608A3E056F608A3E056F6222C
:100A2300E046F008A3E046F008A3E046F008A3E0A0
:100A330046F022E046F608A3E046F608A3E046F6B1
:100A430008A3E046F622E647F60809E647F6080952
:100A5300E647F60809E647F622E026F008A3E03663
:100A6300F008A3E036F008A3E036F022E026F6080B
:100A7300A3E036F608A3E036F608A3E036F622E64E
:100A830027F60809E637F60809E637F60809E637D0
:100A9300F622E493F608740193F608740293F608B9
:100AA300740393F622700422600D18C6C333C6087C
:100AB300C633C6D5E0F41822E056F008A3E056F09A
:100AC30008A3E056F008A3E056F02275D000758124
:100AD3003F751801751903759F00020528E4C39635
:100AE300F608E496F608E496F608E496F622C6F4C9
:100AF300C608C6F4C608C6F4C608C6F4C622C3E7C9
:100B0300960809E7960809E7960809E79622C3E0DD
:100B13009608A3E09608A3E09608A3E09622600D4A
:100B230008C6A2E713C618C613C6D5E0F322600CA5
:100B330008C6C313C618C613C6D5E0F422E6F008E8
:100B4300A3E6F008A3E6F008A3E6F022E0F608A384
:100B5300E0F608A3E0F608A3E0F622CAC0E0E6F058
:100B6300A308DAFAD0E0FA22E0FAA3E0FBA3E0FC60
:100B7300A3E0FD22EAF0A3EBF0A3ECF0A3EDF02257
:100B8300E5C754F84401F5C77901222518F582E435
:100B93003519F583221208EB5840001208EB684020
:100BA300001208EBA740001208EB0141001208EB0A
:100BB3005941001208EBA341001208EBBE41001299
:100BC30008EBE541001208EB0242001208EB0E426B
:100BD300001208EB5044001208EB6944001208EBC2
:100BE300F544001208EB0845001208EB1945001202
:100BF30008EBD945001208EB4E47001208EB0549F4
:100C0300001208EB8549001208EB8F49001208EB2C
:100C1300F749001208EB084A001208EBA24A001237
:100C230008EBD34A001208EBD64A001208EB004B3C
:100C3300001208EB604B001208EB844B001208EB28
:100C4300A24B001208EBF04B001208EB294D0012E7
:100C530008EB814D001208EBDA4D001208EB654EEC
:100C6300001208EB8D4E001208EBC34E001208EB86
:100C7300D24E001208EB304F001208EB9D4F0012CA
:100C830008EBDA4F001208EB1550001208EB405046
:100C9300001208EB5A50001208EB7450001208EBD4
:100CA3004551001208EB4F51001208EB7C51001222
:100CB30008EB8C51001208EB9551001208EBF3512D
:100CC300001208EB0752001208EB1053001208EB56
:100CD3002353001208EB3853001208EBE9530012B8
:100CE30008EB4B54001208EBEC54001208EBF754DA
:100CF300001208EB3956001208EB5556001208EBA8
:100D0300AD56001208EBE956001208EB0357001228
:100D130008EB6557001208EB0458001208EB46581D
:100D2300001208EBAC58001208EB005B001208EB52
:100D3300AF5B001208EBE15C001208EB8A5D001266
:100D430008EBDB5F001208EBEE5F001208EBF15FCC
:100D5300001208EBFD5F001208EB1160001208EBB4
:100D63001960001208EB5960001208EB526100127F
:100D730008EBD561001208EB5762001208EBD16251
:100D8300001208EB9A63001208EBBC63001208EB35
:100D93005864001208EB6464001208EB8A640012C2
:100DA30008EBBD64001208EB2C65001208EB7E66AD
:100DB300001208EB0968001208EB9468001208EBB4
:100DC300BD69001208EB9D6A001208EBCE6A00129F
:100DD30008EBFA6A001208EB036B001208EB326BA4
:100DE300001208EBE26B001208EB966C001208EBA2
:100DF3000A6D001208EBA66D001208EB246E0012B8
:100E030008EB6C6E001208EBA26E001208EBDF6EAB
:100E1300001208EB146F001208EB6B6F001208EB63
:100E2300E46F001208EB0670001208EB5E7000120C
:100E330008EBB970001208EBF870001208EB45726A
:100E4300001208EB6978001208EB8EAC011208EB74
:100E53008CAE011208EB20B9011208EB48B901125C
:100E630008EBE1B9011208EB7DBA011208EB1DBBD7
:100E7300011208EB9CBB011208EB37BC011208EB13
:100E8300B5BD011208EBBABD011208EBD7BD0112C3
:100E930008EB4BBE011208EB7CBF011208EBC1BF8C
:100EA300011208EB39C0011208EB66C0011208EB0E
:100EB300A5C0011208EBBD83021208EBF2830212F4
:100EC30008EB0A84021208EB1D84021208EB368435
:100ED300021208EB5984021208EB7C84021208EB1D
:100EE3002B85021208EB2187021208EBF4F701129B
:100EF30008EB0DF8011208EB30F8011208EB6FF85C
:100F0300011208EB86F8011208EBA1F8011208EBB5
:100F13002FF9011208EB1CFA011208EB2DFA01124A
:100F230008EB3FFA011208EB2283011208EB8783D7
:100F3300011208EBDF83011208EB5084011208EB66
:100F4300D084011208EB8385011208EB1587011287
:100F530008EBE987011208EBE788011208EB0E8A18
:100F6300011208EBFB8A011208EB218B011208EB3B
:100F7300318B011208EBA48B011208EBD28B011207
:100F830008EBE38C011208EB7C8F011208EB2A9229
:100F9300011208EBEA92011208EB7493011208EBB9
:100FA3001694011208EB3295011208EB9195011288
:100FB30008EBFF95011208EB4D98011208EB8C9892
:100FC300011208EB9698011208EBEB98011208EB5B
:100FD3003199011208EB259B011208EB1E9C0112AB
:100FE30008EBE99C011208EB6D9E011208EBD79FF9
:100FF300011208EBB3A0011208EBEBA1011208EBFD
:101003002DA3011208EB16AA011208EB0AAB011279
:1010130008EBC7AB011208EB80A0021208EB85A016
:10102300021208EB8AA0021208EB27EE011208EB6A
:101033006EEE011208EB8FEE011208EBDCEE0112EB
:1010430008EB05EF011208EB0FEF011208EB7BEF42
:10105300011208EB0DF0011208EB48F0011208EB46
:10106300A4F0011208EBDAF0011208EB59F10112B6
:1010730008EBA3F1011208EBE4F1011208EBB33E14
:10108300001208EB2DF2011208EB3FF2011208EBFC
:101093005EF2011208EB67F2011208EB0080021204
:1010A30008EB4381021208EB6981021208EB7A8193
:1010B300021208EB9983021208EB6593021208EB04
:1010C3009B93021208EBE693021208EB319502128E
:1010D30008EBA8C0011208EBDCC1011208EB18C22F
:1010E300011208EBD0C3011208EB0AC4011208EB8A
:1010F30083C6011208EBC3C6011208EB57C80112DD
:1011030008EBF7C8011208EB59C9011208EBE6C94D
:10111300011208EB1ECA011208EB5ECA011208EBAA
:10112300EFCB011208EB97CD011208EBF4CF0112BC
:1011330008EB22D0011208EB4ED0011208EB57D076
:10114300011208EBD5D0011208EB32D4011208EBDF
:1011530035A0021208EB4BA0021208EB6C870212B7
:1011630008EB8187021208EB3488021208EB7488BB
:10117300021208EB8D88021208EBC888021208EBF2
:101183000189021208EB717C001208EB617D0012E9
:1011930008EB667E001208EB087F001208EBE79865
:1011A300021208EB0299021208EB2999021208EBCA
:1011B300B7D4011208EBF5D4011208EB39D50112AB
:1011C30008EB57D5011208EB6FD5011208EB79D65E
:1011D300011208EB51D7011208EB69D7011208EB92
:1011E30081D7011208EB41D8011208EB38D901125B
:1011F30008EB35DA011208EB6CDB011208EB27DC94
:10120300011208EB00DD011208EB12DE011208EBFC
:101213003DDF011208EB9FE0011208EB92E101129E
:1012230008EB53E2011208EBE8E2011208EB049C1D
:10123300021208EB079C021208EB617F001208EB15
:101243008E7F001208EBB57F001208EBD87F0012E7
:1012530008EB55A0021208EB8CA0021208EB6FA05A
:10126300021208EB7E9E021208EB8E9E021208EB1E
:101273009A9E021208EBDE9E021208EB089A0212F3
:1012830008EB8D9A021208EBF39A021208EBC7FFE0
:10129300011208EB9CA0021208EB6B9F021208EBF1
:1012A30096A0021208EB99A0021208EBAA9F021261
:1012B30008EBBE9F021208EBE390021208EB0791C2
:1012C300021208EB2091021208EB5F91021208EB65
:1012D300AD91021208EBE091021208EB1092021298
:1012E30008EB7892021208EB7B92021208EB44930C
:1012F300021208EB4E93021208EB5B93021208EB07
:10130300028E021208EB2A8E021208EB6B8E021277
:1013130008EB898E021208EBA48E021208EB0C8FE5
:10132300021208EB188F021208EB778F021208EBF8
:10133300A38F021208EBB28F021208EBD68F0212B0
:1013430008EB9790021208EBA490021208EBB590F9
:10135300021208EB2D9F021208EB459F021208EBC5
:1013630073F3011208EBDCF4011208EBEEF4011243
:1013730008EB06F5011208EB27F5011208EB3DF522
:10138300011208EB51F5011208EBD0F5011208EB3D
:1013930035F6011208EBCBF6011208EBA4F70112A4
:1013A30008EBB4F7011208EBC3F7011208EBA29D97
:1013B300021208EBC69D021208EBEE9D021208EB27
:1013C3009895021208EBBF95021208EBDD95021205
:1013D30008EB4596021208EB0C8B021208EB258BE7
:1013E300021208EB3C8B021208EB458B021208EB4E
:1013F300638B021208EB6D8B021208EB778B0212E0
:1014030008EB8A8B021208EB168C021208EB8B8C0A
:10141300021208EBB98C021208EB0A8D021208EBD8
:101423005B8D021208EB768D021208EB808D02129F
:1014330008EBA78D021208EBED8D021208EB1B9E41
:10144300021208EBED7F001208EB7DE4011208EBBA
:10145300A9E4011208EBC7E4011208EBDAE4011274
:1014630008EBF5E4011208EB54E5011208EB87E5FC
:10147300011208EBA3E9011208EBF9EA011208EBE8
:101483002BEB011208EB97EB011208EB10ED0112A5
:1014930008EB38ED011208EB4DED011208EB5DEDA1
:1014A300011208EB9DED011208EBE9ED011208EBC7
:1014B300F9ED011208EBAF97021208EBBF97021286
:1014C30008EBDD97021208EBF897021208EB1F985E
:1014D300021208EB4098021208EB5A98021208EB2A
:1014E3009298021208EBB598021208EBE79E0212DB
:1014F30008EBF2FB011208EBF9FB011208EB4FFDBD
:10150300011208EB7FFD011208EBAFFD011208EB9E
:10151300E2FD011208EBF4FD011208EB30FE0112AB
:1015230008EB96FE011208EBD2FE011208EB19FF3D
:10153300011208EB46FF011208EB72FF011208EBE0
:10154300749D021208EB889D021208EBD79F0212CA
:1015530008EB0C9B021208EB6B9B021208EBA99B96
:10156300021208EBEA9B021208EB9FA0021208EB9F
:1015730009A0021208EB823E001208EB553E00124E
:1015830008EB2F3E001208EBA13D001208EBDA3CFA
:10159300001208EB073C001208EB623B001208EB59
:1015A300D93A001208EB893A001208EB503A0012BC
:1015B30008EBE439001208EBA839001208EB4139B3
:1015C300001208EB3338001208EB7337001208EBF4
:1015D300FB36001208EB5035001208EB34340012CE
:1015E30008EB2933001208EB6A32001208EB2732AA
:1015F300001208EBD131001208EB5A31001208EB4C
:101603002D30001208EBFC2E001208EBBA2E00124C
:1016130008EB382D001208EBE52C001208EB4F2CD9
:10162300001208EBA82B001208EB482B001208EB62
:101633009B2A001208EB762A001208EB6D2A00128F
:1016430008EB3E2A001208EB0A2A001208EBE029F5
:10165300001208EB8229001208EBA828001208EBFD
:101663009C28001208EBE827001208EB4D3F0012FC
:1016730008EBB522001208EBBD27001208EB522736
:10168300001208EBF826001208EBD426001208EB30
:10169300A525001208EB4F25001208EB2B2500129D
:1016A30008EB7724001208EBD023001208EBE322A7
:1016B300001208EBA823001208EB8623001208EBA4
:1016C3001BF20100000080FB00000000000000008E
:1016D3000000000000000000000000F8000000000F
:1016E300000000333000000000100C06100C060050
:1016F300000000000000000040C07840C0784000B7
:10170300043F04043F040400007088FC0830000018
:10171300001820FF211E0000F008F000E018000070
:1017230000211C031E211E0000F008887000000029
:101733001E2123241927211010160E00000000007B
:101743000000000000000000000000E01804020098
:10175300000000071820400000020418E000000009
:101763000040201807000000404080F08040400007
:101773000202010F01020200000000F0000000005D
:101783000101011F01010100000000000000000031
:1017930080B07000000000000000000000000000A6
:1017A300000101010101010100000000000000002F
:1017B30000303000000000000000000080601804CA
:1017C300006018060100000000E010080810E000A7
:1017D300000F102020100F00001010F80000000070
:1017E3000020203F202000000070080808887000B7
:1017F3000030282422213000003008888848300037
:101803000018202020110E000000C02010F8000056
:1018130000070424243F240000F8088888080800EF
:101823000019212020110E0000E010888818000004
:10183300000F112020110E0000380808C8380800D6
:101843000000003F00000000007088080888700056
:10185300001C222121221C0000E010080810E000D7
:101863000000312222110F00000000C0C000000060
:101873000000003030000000000000800000000085
:10188300000080600000000000008040201008007D
:101893000001020408102000404040404040400046
:1018A3000404040404040400000810204080000021
:1018B3000020100804020100007048080808F00026
:1018C3000000003036010000C030C828E810E000F6
:1018D3000718272423140B000000C038E000000081
:1018E300203C23020227382008F8888888700000EB
:1018F300203F202020110E00C030080808083800BF
:10190300071820202010080008F808080810E00035
:10191300203F202020100F0008F88888E8081000D6
:10192300203F20202320180008F88888E8081000AA
:10193300203F200003000000C030080808380000E2
:1019430007182020221E020008F808000008F808E3
:10195300203F210101213F20000808F8080800006A
:101963000020203F2020000000000808F80808009D
:10197300C08080807F00000008F888C02818080015
:10198300203F20012638200008F80800000000004E
:10199300203F20202020300008F8F800F8F8080045
:1019A300203F003F003F200008F830C00008F8083F
:1019B300203F200007183F00E01008080810E0004F
:1019C3000F10202020100F0008F808080808F00066
:1019D300203F210101010000E01008080810E00089
:1019E3000F18242438504F0008F88888888870001E
:1019F300203F2000030C30200070880808083800BE
:101A03000038202121221C00180808F808081800B3
:101A13000000203F2000000008F808000008F80834
:101A2300001F202020201F000878880000C83808E5
:101A3300000007380E010000F80800F80008F8005D
:101A4300033C0700073C03000818688080681808F7
:101A530020302C03032C30200838C800C838080075
:101A63000000203F2000000010080808C8380800C4
:101A73002038262120201800000000FE0202020068
:101A83000000007F40404000000C30C00000000018
:101A9300000000010638C00000020202FE00000040
:101AA300004040407F0000000000040202020400E6
:101AB3000000000000000000000000000000000023
:101AC300808080808080808000020204000000000B
:101AD3000000000000000000000080808080000003
:101AE3000019242222223F2008F8008080000000F1
:101AF300003F112020110E000000008080800000B4
:101B0300000E112020201100000000808088F800C2
:101B1300000E112020103F200000808080800000F4
:101B2300001F222222221300008080F08888881858
:101B33000020203F20200000000080808080800063
:101B4300006B94949493600008F8008080800000F8
:101B5300203F210000203F200080989800000000D3
:101B63000020203F20200000000000809898000003
:101B730000C08080807F000008F800008080800023
:101B8300203F24022D302000000808F80000000048
:101B93000020203F20200000808080808080800003
:101BA300203F20003F20003F808000808080000095
:101BB300203F210000203F20000080808080000023
:101BC300001F202020201F00808000808000000054
:101BD30080FFA12020110E00000000808080800083
:101BE300000E112020A0FF80808080008080800074
:101BF30020203F21200001000000808080808000A1
:101C03000033242424241900008080E08080000015
:101C13000000001F20200000808000000080800062
:101C2300001F202020103F208080800000808080C3
:101C330000010E3008060100808000800080808053
:101C43000F300C030C300F00008080008080800078
:101C53000020312E0E3120008080800000808080A3
:101C630080818E7018060100008080808080800053
:101C73000021302C2221300000000000807C020271
:101C830000000000003F404000000000FF00000093
:101C930000000000FF0000000002027C8000000042
:101CA3000040403F0000000000060101020204045E
:101CB3000000000000000000000000000000000021
:101CC300000000000000000000FFFFFF01FFFFFF16
:101CD300FFFFFFFF04FFC2110102FFFF000501FF29
:101CE300FFFFFF0304FFC811020102020001FFFF0F
:101CF300FFFFFFFFFFFFCE110301010100FFFF0103
:101D0300FFFFFFFF04FFD41104010101FFFFFFFFE9
:101D1300FFFFFFFF01FFDA110505050106FFFFFFC6
:101D2300FF0AFFFFFF05E011060606070601FFFF96
:101D3300FF09FFFFFF06E611070707080701FFFF7B
:101D4300FF09FFFFFF07EC11080808060801FFFF62
:101D5300FF09FFFFFF08F211090909060A0909FF34
:101D6300FFFFFFFFFF09F8110A0A0A0B0AFFFFFF33
:101D7300FF06FFFFFF0AFE110B0B0B0C0BFFFFFF10
:101D8300FF06FFFFFF0B04120C0C0C0D0CFFFFFFF3
:101D9300FF06FFFFFF0C0A120D0D0D0E0DFFFFFFD7
:101DA300FF06FFFFFF0D10120E0E0E0F0EFFFFFFBB
:101DB300FF0601FFFF0E16120F0F0F100FFFFFFF9D
:101DC300FF0601FFFF0F1C121010100A10FFFFFF88
:101DD300FF06FFFFFF10221200013636010100014A
:101DE30002010001030100010401060605020000CF
:101DF300070100340801000F090401010D0100FF70
:101E03000E08000017020000190100FF1A0100016B
:101E13001B0100FE1C0100081D0200001F01000140
:101E230020010001210200002301000F2402000011
:101E33002601000127010008280200FF2A010007EC
:101E43002B0102402C0100002D0100012E01000195
:101E53002F0100FF30010B1C310800003A0100087C
:101E63003B01000F3C01000101017101010101016E
:101E73001101010131010101010180011001610121
:101E83003B0014006301730172016201430100010D
:101E9300130106013D013500040112010001000197
:101EA3000001000104010401330133013C01440139
:101EB3003201360000010001650100013500810196
:101EC3000001050182018301000166010001000197
:101ED3000302710230016002110270020102020268
:101EE30002028002100261023A004100630273029F
:101EF300720262024302000213023800000200026F
:101F030004021202000200020002000204020402A0
:101F1300370037003C02440200023900000200028D
:101F23006502000235028102000205028202830279
:101F3300000266020002000203007100300160002B
:101F43001100700031022003500480001000610072
:101F5300000014006300730072006200430000007D
:101F6300130006000000000004001200000000003F
:101F73000000000004000400370037003C02440066
:101F83000000000000000000650000003500810033
:101F93000000050000008300000066000000000050
:101FA300010371030103010301030103010322037D
:101FB30002030103100300030003000300030003F3
:101FC300000300034203000324030603000300038A
:101FD3000403120325032303250323030403040338
:101FE300000300030003440300030003230300036F
:101FF3006503210035038103000305030003000388
:102003000003000325032303030471040204600493
:1020130011047004020402040104020410046104A4
:10202300000414046304730472046204430400048C
:10203300130406040004000404041204000400044E
:102043000004000451046400000400040004440478
:102053000004000400040004650400043504810442
:1020630064000504000483040004660400040004FF
:1020730000000000000000000000000000600000FD
:10208300000000000000000000600070000000007D
:1020930000000000006000700078000000000000F5
:1020A300006000700078007C000000000060007099
:1020B3000078007C007E0000006000700078007CE7
:1020C300007E007F00502050000000000000000050
:1020D3003000000060000000C0000000800100002C
:1020E3000003000000060000000C000000180000C0
:1020F300003000000060000000C00000008001000C
:10210300000003000000060000000C0000000C00AB
:1021130036000100060000000F0000000000000070
:1021230000000000000003FFFF00000403FFFF00A6
:1021330000FFFF0FF4010005C40403200001001396
:102143000B000000000000000003010F000000006E
:10215300000000FE83838383FEFEC3C3C3C3FEFE6E
:10216300E3E3E3E3FEFEF3F3F3F3FEFEFBFBFBFB30
:10217300FEFEFFFFFFFFFE00C0C0C0C0C0C0C0FC2A
:10218300F8F0E0C080000000030303030303033FF0
:102193001F0F070301000007ECFDFDFDECDCDCCCA9
:1021A300BCACAC9C9C8C7C7C6C6C5C5C5C4C4C3C9C
:1021B3003C2C2C1C1C460C760C4C0C520C700C64E6
:1021C3000C5E0C7C0C820C880C940C580C400C3A62
:1021D3000C30313233343536373839414243444594
:1021E300460000160F160D0B150B021102220F33BA
:1021F30003020E480D5A0D600D0A0C660D040C10F7
:102203000CAC15B21576156C167C15C4157E10141E
:102213000AE5D5C5B5A5A59585857565A80DC60D32
:10222300CC0DAE0DBA0DB40D303017181921301B7B
:102233001D1F3033003C40423A3F3F392F47306641
:10224300303016181920231A1C1E303200034D4C4F
:102253004651181A2505020C0E020B040B0A070837
:10226300000F00011916181616182303006A0C8EA6
:102273000CC00D9A0CA00C9C0D6C0D720D7E0D788C
:102283000D020402010101010902A0159A15A61508
:10229300980B00160616FA15F4150003057F0503BF
:1022A300901666169415821500BE040AFA069A2142
:1022B3001222C082C0839006F274AEF0A37416F0AB
:1022C3009006F474BAF0A37416F090038374A8F024
:1022D300A37416F09006F674B4F0A374160245D1F5
:1022E30074F71204BC74FD120993EAFEEBFF900627
:1022F3006DE0640F600712375CA2E550051223748A
:1023030080691244EBD2E1F09003D4E0600F8E8237
:102313008F83A3A312604D120D1EE9602312375C55
:102323004403F0900315E07043122D2F120B8EE43B
:10233300F07402120B8E74FF12404C120D90802C1D
:10234300122374125F961257EF6402701FE824057C
:10235300F8E9340012237AF874FF68700374FF6994
:10236300700A1244EBD2E5F01239DEF07403024036
:10237300A1123760D2E022F988828983E0FAA3E0D0
:10238300F9EA22C082C083120CD0E960047920806C
:102393001190066DE0640F700479018005900312BB
:1023A300E0F90245D2C082C083EA240EF582EB1223
:1023B300497F7010EAFCEBFD7A787B031210601200
:1023C300443D80061247131206A20245D274F0124E
:1023D30004BC900312E0F47003022460900314E041
:1023E300602E900312E0640270261212D08A088BCA
:1023F300098C0A8D0B90030A780812094E75F014A4
:10240300900669E084F50CE4F50DF50EF50F803CBC
:102413001212D08A0C8B0D8C0E8D0F90030E780840
:10242300120B4F7808790C1209FC90037CE0F50C31
:10243300A3E0F50DE4F50EF50F7808790C1209FC0D
:10244300900688122CC4F50CA3E0F50D7808790CDE
:102453001209FC90830A78081207D9400479008096
:102463001090831678081207D94004A908800279CE
:10247300FF02354B74F01204BCE9FEEAFF7A007BDD
:1024830000ECF9120BB0E990030AF0A312251074C3
:102493000F6F7005122524804990066DE06F90033D
:1024A30013701A1225171208A49082DE780C120BEF
:1024B3004F7808790C1203CC9082BA801812251732
:1024C3001208A49082DE780C120B4F7808790C1254
:1024D30003CC9083127808120A6F90030E780812C7
:1024E3000B40EEA3F074016E702090066E78081214
:1024F3000B4F90030A7808120A5C90066E78081254
:102503000B4F90030E7808120A5C02354BE4F0A3DC
:10251300F0A3F022122CB995E0F50AF50BEF780839
:1025230022A3122510A3F022C082C0839006F07468
:102533005AF0A37416F09003CC74A3F0A37422F0A2
:102543001216729003B1E044080245D174F01204EC
:10255300BC90066E7808120B4FE5084509450A45FD
:102563000B600A90066E780C120B4F8015750C30B9
:10257300750D00750E00750F0090066DE0780C1256
:1025830008A49082B6780C120A6F908321122973E3
:10259300780C79081209FC900334780C120B400272
:1025A300354B74EB1204BC74F7120993EAFEEBFF8C
:1025B30012158EE9F51460030226708E828F83A3B1
:1025C300A3A3A3A3A3A3A3A3A3E0FC122CCA1260F7
:1025D3004DEAC333FAEB33FB8E828F83A3A3780CCC
:1025E300120B4F9082B27808120B4F780C790812B5
:1025F300044C740F6C700302268B900315E0640285
:10260300600302268BEE240C1244EE7075751030B5
:10261300751100751200751300EE240B1244EE7849
:10262300101208A48A088B09F50AF50B78107908AB
:10263300120A827810790C120B01402E750830753E
:102643000900EC78081208A48A108B11F512F5130F
:10265300780879101209FC780C7908120B01400AEA
:1026630090066E780C120B40801E7514FD8E828FBF
:1026730083A3E514124DC8121666740912091B02CE
:102683005B9990066E122525EE240E1244EE60DD52
:10269300123CC1120BAAEA4B60D37408120B8E12C0
:1026A3003CCC1207827508FF7509FF780812096A86
:1026B3008E828F83A3A3A3A3A3A3A3A3E0F974048C
:1026C300120B8EAC82AD831215E2740412091B80C7
:1026D300A9C082C08390031274FFF01216429006C1
:1026E30088E0F890066DE06860031214CE79081252
:1026F3000CBE0245D2C082C0839003381251ED60F4
:102703002B1251EA701F900338125F8290038112DB
:102713004D1A900338E4F0A3F079021214F8790209
:102723001214C280077A387B03120CFA9003D4E0A8
:10273300601A90066DE0640F601212288E12077EF5
:102743007A227B03120DFC740412091B0245D27416
:10275300F41204BC9003D4E0605D90031F7484F012
:10276300A37416F09003347808120B4F9082C2784A
:1027730008120A6F78081209667A197B03120DFC96
:10278300740412091B120CD0E9701F123EA3121518
:10279300D68A088B09A808A909900338124D1AE8AC
:1027A300496014124739D2E6800C900672E004F0B7
:1027B300900338E4F0A3F002322274F71204BCE968
:1027C300FE12604A1215887940120CBEEEF91216F9
:1027D3007E1216969003D5E0600890066DE0F9121C
:1027E3000E20024DD574F41204BCEAFEEBFF9006F2
:1027F3006DE0F5088E828F83A3E070719003D4E0BF
:102803006019740F65086013E5A8F8C2AF90032838
:102813007478F0A37416124447805E12287F640F05
:1028230090035F604212604D121588121696740F62
:102833006508701F12287FF99003347808120B4F34
:102843009083067808120A6FAA08AB09AC0AAD0B8D
:10285300120E1412288E12077E7A227B03120DFCAD
:10286300740412091B800612604D1215888E828F24
:1028730083742C124DC8120CD602322290035F12BD
:102883005FBC2408F582E812376622900328747E21
:10289300F0A37416F090033422C082C0837902122D
:1028A30014C80245D274F41204BCE990066D6003A7
:1028B300022951E0640F7003022956900313740F29
:1028C3001248EBFC7D00900688E0FA79011216A20B
:1028D300900668E0603A900685E0603490033174B6
:1028E30060F0A37416F0900669122973758303755B
:1028F300820A7808120A6F9082AE7808120A6F78FB
:10290300081209667A2B7B03120DFC740412091B4F
:10291300900688E0640F70051214CE801C900307A4
:10292300748AF0A37416F090030E12077E7A017B6B
:1029330003120DFC740412091B90038112470B123E
:102943003A49A2E450031216541216488018E06460
:102953000F7013900685E0600579021214BC1216FD
:102963004E7908120CBE7A817B03120CFA023222D2
:1029730012297722E0F508E4F509F50AF50B22742C
:10298300F51204BC750800750900A2AFE433F50A1B
:10299300C2AF90037880078E088F09123930123B3B
:1029A300FF601C1244EBA2E550ED780812096AEEB1
:1029B300FCEFFD7A787B03121066740212091BE5A3
:1029C3000AA2E092AFEE4F601112375CD2E4F0EE50
:1029D300FCEFFD7A787B03121060024021C082C0B5
:1029E30083A2AFE433FAC2AF900378800D122B3386
:1029F300A2E55003122A33122A621251ED70EEEA55
:102A0300A2E092AF0245D2C082C083A2AFE433FA00
:102A1300C2AF90037880121245B0E91238225006F3
:102A2300C2E7F0122A33122A621251ED70E980CF05
:102A3300124702E9123766D2E4F022C082C083A2B1
:102A4300AFE433FAC2AF900378800D122B40A2E7B4
:102A53005003C2E4F0122A621251ED70EE80A0E836
:102A630024FBF582E934FFF58322C082C083791009
:102A73000228A2C082C083900685E0600579021215
:102A830014C279201214C87A437B03120E0E7A3AC9
:102A93007B03120E0E0245D2C082C08374EF12096B
:102AA300939003D4E4F0900315F090031204F09094
:102AB3000317E4F0A2AF33FAC2AF90037880101289
:102AC3002B40A2E15006D2E0F0122B33122A6212FD
:102AD30051ED70EBEAA2E092AF7910120CBE7908C7
:102AE300120CBE900316E06004E4F0804085188267
:102AF3008519837409F07401120B8E74E0F090064B
:102B030082125F827402120B8E124D1A900695E0A8
:102B1300C0E07404120B8ED0E0F07405120B8EE447
:102B2300F0740E120B8EE412404C120E7A0240F92E
:102B3300E82410F582E9123766C2E1F02212470257
:102B4300E91237662274F41204BC900317E0704153
:102B53001251EA700B9003177401F079201214BC20
:102B6300750830750900750A00750B0090066DE055
:102B730078081208A49082AA7808120A6F780812BB
:102B830009667A437B03120E02740412091B023294
:102B930022900355E004F0640470C579201214C830
:102BA30012163080E974F01204BC90066DE0FE90BA
:102BB3000317E4F0900355E004F06404700912165F
:102BC30036121630022C4C79201214C89006A0E05D
:102BD300640F601990066D122EB150119006A0E09B
:102BE300FE900318E0F990066DF0120E26750C3076
:102BF300750D00750E00750F0090066DE0780C12D0
:102C030008A4EE126A4E900355E02401F50AE43459
:102C130000F50BE508850AF0A4C508A8F0850BF0BC
:102C2300A428F8850AF0E509A428F509E4F50AF5CE
:102C33000B780C79081209FC780C1209667A3A7B36
:102C430003120DFC740412091B02354B74F41204B5
:102C5300BC900317122CDB700512163680557920B1
:102C63001214BC9003497424F0A37416F090066DFB
:102C7300122CC4F8A3E0F9900355122CB9E8850887
:102C8300F0A4C8AAF08509F0A42AFA8508F0E9A4FB
:102C93002AF9E8C333F8E933F988088909E4F50A1E
:102CA300F50B78081209667A437B03120DFC740452
:102CB30012091B023222E02401F508E43400F5096D
:102CC30022E0122CCAE022C333F8E433F974CA2891
:102CD300F582740639F583227401F090066DE06481
:102CE3000F22C082C08374FD12099390031274FFF4
:102CF300F0900315E06401701FE4F090037FE0603F
:102D030026122D2F120B8EE4F07402120B8E74FF19
:102D130012404C120D90800F900688E0F890066DDB
:102D2300E06860031214CE74030240FB9006951210
:102D3300561D74012274F01204BCEAFEEBFF9003EB
:102D430017E07003022EAEEE242B1261C97003A3A9
:102D5300E0696003022EAE124026120D18E97003DB
:102D6300022EAE900317E4F0900685E06005790229
:102D73001214C29003ABE0600579011214C28E8273
:102D83008F83A3A3A3A3A3A3A3E0A2E4500A791070
:102D93001214C27980120CBE79201214C87A437BB4
:102DA30003120E0E8E828F83A3A31256E512237A8B
:102DB3002400E439FB540F900313F08A088B097441
:102DC3000C7808120B31E5085401A3F0EA540F9074
:102DD3000318F0EAC4540F900688F09006A0E0644C
:102DE3000F6017122EB150128E828F83A3A3124746
:102DF3000FA3E070059006A08003900318E09006EF
:102E03006DF0900355E4122CDD7003022EA0E0F95F
:102E1300EEFAEFFB120E1A900315E06402703E7A8D
:102E23003A7B03120E0E90066DE0F9750C30750DAA
:102E330000750E00750F00780C1208A4E9126A4E93
:102E4300E4F50AF50B780C79081209FC780C1209E1
:102E5300667A3A7B03120DFC740412091B8E828F6F
:102E630083A3A3A3A3E0FC7D00900688E0FA790284
:102E73001216A27A017B03120E0E9003077418F048
:102E8300A37416F090030E12077E7A017B03120DD2
:102E9300FC740412091B7910120CBE800E900315EA
:102EA300E06402700612163612163002354BE0F853
:102EB300900318E0C39822C082C083900340741E1D
:102EC300F0A37416F09003497424F0A37416F090E1
:102ED3000352743CF0A37416F09006EE7412F0A340
:102EE3007416F09003D27495F0A37422F012167244
:102EF3009003B1E044100245D174F21204BC74F79C
:102F03001209939003ABE06003022FD7900667E0AA
:102F13007003022FD78A828B83A3A3A3A3A3A31235
:102F23006C768A828B83A3A3A3A3A3E0F8740758C8
:102F3300FCE8C4540F5407F5098008EE2402FEEFA1
:102F43003400FF8C0874FF25081C04602790068654
:102F5300C0828E828F8312237FF8758306D082E02E
:102F6300687003A3E06970D37E028024EE2408FE18
:102F7300EF3400FF85090A74FF250AF5090460543C
:102F8300EEFCEFFD7A967B0612155EE960DE7E03AA
:102F93009003ABE0D2E212404C120D0079011214FF
:102FA300C2750CA0750D03780C12096A750C0175B6
:102FB3000D00780C12096A900682120782740612B9
:102FC3000B8EAC82AD83EEFA7905120D2A740612CC
:102FD300091B805190066DE0640F6049E0F890068C
:102FE30088E0686040900685E0703A120CCAE96098
:102FF30034A2AFE433FEC2AF900315E06402702045
:10300300900312E0F460191251EA701490037812DD
:1030130051ED700C7A017B03120E0E790012161813
:10302300EEA2E092AF740902342C74F01204BCEAED
:10303300FEEBFF7508008E828F8312314740030237
:10304300314490066DE0640F7003023144900682B0
:10305300E0F47003A3E0F4700302314490067CE0D3
:10306300F47003A3E0F470030231448E828F83A3D0
:10307300A3A3A3E06401700575090280258E828FE6
:1030830083A3A3A3A3E070057509018015F460036E
:10309300023144900315E060030231447509017560
:1030A30008017A437B03120E0E7A3A7B03120E0E4B
:1030B3007A017B03120E0EA2AFE433F50AC2AFE529
:1030C30009900315F090030EE41231501251EA9067
:1030D3000317700474018001E4F0E508900316F00F
:1030E300A2E0900355500474038001E4F0E50AA2C2
:1030F300E092AF1233FCFB79E11213D2900317E095
:103103006401700579201214BC900349742AF0A35A
:103113007416F0750C30750D00750E00750F009068
:10312300066DE0780C1208A49082AA780C120A6F3C
:10313300780C1209667A437B03120E027404120997
:103143001B02354BA3A3E024F5C3941222122511CD
:10315300A3F0A374FFF02274F01204BC1232141211
:10316300037388088909E4F50AF50B90066DE0649A
:103173000F60481212D08A0C8B0D8C0E8D0F9003AA
:103183000E780C7908120A82780C120885502C7577
:103193000C30750D00750E00750F0090066DE0780C
:1031A3000C1208A47808790C120A829082AA780873
:1031B300120A6F90030E780812094E7A8E7B03125F
:1031C3000E0E78081209667A8E7B0302354374F477
:1031D3001204BC90066DE0640F602F900688E060D7
:1031E3002E7A4C7B03120E0E1232141203738808CC
:1031F3008909E4F50AF50B78081209667A4C7B0312
:10320300120E02740412091B800579101214C8806F
:103213000E90068D125F867A147B002212091B7FA3
:10322300040206F5C082C08390035F1251ED60066D
:1032330012604A1210CC90035C124AF77408F0A390
:10324300E4F0A3F09003D4F0900361F07C0BFDF95C
:103253007A627B031210307C0B7D0079007A6D7BE0
:10326300031210300245D274F71204BC74F712092A
:1032730093EAFEEBFF124038740512331E740312F7
:103283005C8D124D0DEE2430FCEF3400FD8C828DED
:1032930083125C9D123309600BEE242E12403B74A3
:1032A300FFF0A3F0EE242EEF34001C1CFD8C828D66
:1032B30083A3E0C0E08A828B8312470BD0E01233F2
:1032C300098882898312512C2403125D69121564C3
:1032D3007408120B8E7403F0900682120782740234
:1032E300120B8EAC82AD837903EEFAEFFB120D2441
:1032F300740212091BE9F5087007EEFAEFFB120BD3
:10330300FEA90802409F125FD51234198A828B836B
:10331300E8F0A3E9F08C828D83E022F0A3E4F0EEE1
:10332300240D125AC92274F21204BCEAFEEBFF8C7C
:10333300088D09890A1233FC123410740E120B8E95
:1033430012341EE824FF18E934FFF988828983E5E3
:103353000A125C99900687125C96900686125C9618
:103363007410120B8E12341EEE2404FCEF3400FD95
:10337300880B8A828B83E0F50C8C828D83E0250C8D
:10338300C3950B125CACE8F0A3E91248DEA3A3A338
:10339300A3A3A3A3A3E064037008123404F0A3E47B
:1033A300800AEE240EF582EF1261C3A31233217457
:1033B30009F0750C0B750D00780C12096A7C627D9F
:1033C30003125B9E12102A740212091B750CFF75FF
:1033D3000DFF780C12096AAC08AD097903EEFAEF18
:1033E300FB120D24740212091BE9F5087007EEFAAB
:1033F300EFFB120BFEA9088033EE2402FAEF340030
:1034030022EE240EF582EF125ACC740122FB8A823B
:103413008B8312341922124D20F922E0F50CA312EA
:103423005C9D125CD9E50CF02212091B7F06020693
:10343300F574F01204BCEAFEEBFF890B8C0E8D0FC2
:10344300750A00A2AFE433F50CC2AF900378803F56
:10345300123518503712352564037030EE24F9FE07
:10346300EF34FFFF850882850983A3A3E02405FCCD
:10347300A3E03400FDEEFAEFFB121564EE24FF1E09
:10348300EF34FFFF7410250AF50A150B12488E124C
:103493006A5EE50B6006E508450970B4E50CA2E039
:1034A30092AFA2AFE433F50CC2AF9003788023242C
:1034B30002FAE5093400FB8A828B831243DE12355C
:1034C300348A828B831243C6123534050A150B12D4
:1034D300488E1248A36027123525640270F1123515
:1034E30018E50840CA1245B1E5091244F1A2E550B6
:1034F300DE850E82850F837401F0E50B70D1E50C38
:10350300A2E092AF8E828F83E50AF0EE24FFFAEFFA
:1035130034FFFB8033E508124703E509123766A23F
:10352300E622850882850983A3A31247221257FB4B
:1035330022E08E828F83F0EE24FF1EEF34FFFF2202
:10354300120E02740412091B7F080206F574EC12B2
:1035530004BC74F612099389118A0F8B0E851882A5
:10356300851983E4F090037EE0C394084005751049
:10357300078003E0F510E51033333354F8F8900671
:103583006CE0282437F50CFA7B001210368A088B7E
:1035930009EA450970030236EDEA2402F50AEB3421
:1035A30000F50BEA250CF8EB3400F9850A82850B4C
:1035B30083124D1AEA2404F50CEB3400F50D850C47
:1035C30082F583E4F090066CE0F512F8C3E498F812
:1035D30095E0F9850A82850B83E028FEA3E039FF95
:1035E300751300781212096A90066A125C87EEFA64
:1035F300EFFB12102A740212091B851882851983A6
:10360300AC82AD83A910EE24FFFAEF34FFFB121551
:10361300DC8A128B13AE12AF138E828F83E41235C2
:1036230039E50EC454F0F99003D5E0C4333354C0E4
:10363300F8900666E0A2E0E43313134849440F12FE
:103643003535E50FC454F045118E828F83F0EEF8C3
:10365300850A82850B83E0FA850C82850D83E02A37
:10366300C398F0850A82850B83EEF0A3EFF0E5089B
:10367300240E1261BFA3F0E508240D1261BF740983
:10368300120B8EE4F0750A0BF50B780A12096A7CAB
:103693006D7D03E508241BFAE5093400FB12102AAB
:1036A300740212091B851882851983E0600EE508F0
:1036B300240EF582E5091244F14408F0E4F50A7892
:1036C3000A12096A7403120B8EAE82AF83120D06BF
:1036D300EEFCEFFDAA08AB09120D24740212091BBC
:1036E300E9AA08AB09600712103C7A007B00740A50
:1036F30012091B7F0C0206F574F31204BC8A0A8BB1
:103703000BA2AFE433F50CC2AF7508007509009046
:103713000378802C12393B5024850A82850B83A3BE
:10372300A3125C878E828F83A3A312604D120D0CAC
:10373300E9600A12375CC2E6F08E088F091239304D
:10374300123BFF70CFE50845096006123828D2E620
:10375300F0E50CA2E092AF801212376022EE241142
:10376300F582EF1248CBE02212091B7F050206F512
:1037730074F01204BCEAFEEBFF8C0C8D0D750E0089
:10378300A2AFE433F50FC2AF7508007509009003CB
:10379300788025850A08850B09123828D2E4F0E5DC
:1037A300081245B1E5091244F1D2E7F0E50A24FB1A
:1037B300F582E50B34FFF583E0F50AA3E0F50BE5AD
:1037C3000A450B6043E50A124703E50B1238225002
:1037D300DB850A82850B83A3A3120782AC0CAD0D94
:1037E300EEFAEFFB120D12740212091BE960BDE53C
:1037F300084509609EE508240DF582E509123BF1B1
:103803007006123A43D2E4F0E50FA2E092AFE50866
:1038130045096006120BF8750E01A90E02354B120D
:103823003766A2E722E508124703E5091237662245
:1038330074F21204BC74FE120993750C00750D002A
:10384300851882851983E4F0A3F0A2AF33F50AC289
:10385300AF900378126C76803BEE24FBF582EF3455
:10386300FF126A5C780C12096AEEFCEFFD7A787B32
:1038730003121066740212091BEEFCEFFD85188219
:10388300851983AA82AB83121054AE08AF09900343
:103893007EE014F0EE4F602712393B5019EE240BF3
:1038A300F8EF1243D524FFF0A3E034FFF0888289B8
:1038B300831251ED60A38E0C8F0D1239308095E584
:1038C3000AA2E092AF90037EE0603190066DE0645F
:1038D3000F60069003D4E070237A567B03120E0E1A
:1038E3009082AA12077E7A567B03120E0274041288
:1038F300091B800874F0124DC8120BEC85188285E1
:103903001983AA82AB8312105A8A0A8B0BAE0AAFB1
:103913000BEE4F60131215D012375CA2E28E828F2A
:1039230083A350D074E980CE740202342CEE24FBBE
:10393300F582EF34FFF58322123760A2E72274F792
:103943001204BCEAFEEBFF1215D01247081206A2BE
:10395300E96401900689700AE02401F8A3E03400C9
:1039630080031256E5F9EE240B12403B124D1A90D8
:10397300037EE0702190066DE0640F70197A567B28
:1039830003120E0E9082AA12077E7A567B03120E42
:1039930002740412091BE5A8F8C2AF90037EE00489
:1039A300F0E80256A474F71204BCEAFEEBFF1239E6
:1039B300DEF01215D0EEFCEFFD7A787B0312106077
:1039C300E5A8F8C2AF90037E12444590066DE0640B
:1039D3000F70057908120CBE024DD5123760C2E490
:1039E3002274F71204BC74EA120993EAFEEBFF9007
:1039F3000666E060468518828519837401F0120B10
:103A03008EE4123ACD120B8EAA82AB831215648E0A
:103A1300828F83123A49C0E0740A120B8ED0E012EF
:103A2300511E740B120B8EAA82AB83120D428518A2
:103A330082851983AA82AB83120E7A74160240A17F
:103A4300850882850983A3A3124722E02274F71213
:103A530004BCEAFEEBFF1215E874DC69601E74DD3A
:103A630069601974E469601474F369600F74DE6942
:103A7300600A74DF69600574DB697007EEFAEFFBB7
:103A8300120CC4024DD574F71204BC74EB120993E3
:103A9300EAFEEBFF8518828519837406123ACD126C
:103AA3000B8EAA82AB8312156412402F740A120B79
:103AB3008EAA82AB83120D42851882851983AA824E
:103AC300AB83120E7A74150240A1F0EE2413FCEFBF
:103AD3003400FD74022274F71204BC74F7120993C4
:103AE300EAFEEBFFEE24301244EE60701244E285EE
:103AF3001882851983AA82AB831215647408120B8A
:103B03008E7403F0900682120782EE242E12403B3D
:103B1300120782900695E0F97404120B8EAC82AD05
:103B230083EEFAEFFB1215E2740412091B74DC69CD
:103B3300602374DD69601E74E469601974F369605D
:103B43001474DE69600F74DF69600A74E8696005E4
:103B530074DB697007EEFAEFFB120CC402409F742A
:103B6300F21204BC8A088B09750A00750B00750CE8
:103B7300E7A2AFE433F50DC2AF90037880078E0A56
:103B83008F0B123930123BFF603512393B50EF1265
:103B93003BEB70EAEE2432123BF78A828B83A3A3BA
:103BA300E06870DA780A12096AEEFCEFFD7A787B36
:103BB30003121066740212091B90037EE014F0E5F1
:103BC3000DA2E092AFEE4F6013EEFAEFFB1215D0A9
:103BD30079F0EEFAEFFB120CC4750C00A90CAA08DD
:103BE300AB09120CC402342FEE240DF582EF123709
:103BF30066640122F582EF123766F822E0FEA3E045
:103C0300FFEE4F2274F41204BC74F7120993EAFE18
:103C1300EBFF8E828F83A3E064F37003023CB58EC7
:103C2300828F83A3E064DF7003023CB58E828F83AF
:103C3300A3E064E8607C8E828F83A3E064DB607220
:103C430012158EE9F5087062EE240E1244EE605AE6
:103C5300123CC1120BAAEA4B60507408120B8E126D
:103C63003CCC1207827508FF7509FF780812096AB0
:103C73008E828F83A3A3A3A3A3A3A3A3E0F97404B6
:103C8300120B8EAC82AD831215E2740412091BE988
:103C9300F50874F36508601274DF6508600C74E856
:103CA3006508600674DB6508700F8E828F83A3E559
:103CB30008F0EEFAEFFB121582740902321FEE24AC
:103CC3000FFAEF3400FB790922740212562B74FFAA
:103CD300F0A3126650A32274F41204BCEAFEEBFFB5
:103CE3007508008E828F83A3A3A3A3A3A3123147D6
:103CF30040037508E88E828F83A3A3A3A3A3A3A382
:103D0300A3A3A3E0C3941040057508E880138E8233
:103D13008F83A3A3A3A3A3A3A3A3A3A3E0640F607D
:103D23000B9003B1E0540870037508E8EE240B12FE
:103D33003BF78E828F83A3A3A3A3A3A3A3A3A3A3CE
:103D4300E0C398500DEE240B1244EE640F6003752C
:103D530008E8900686E0F47003A3E0F470037508A6
:103D6300EC7A237B001210C690035F125FA09003CE
:103D73005F1251ED6020750A23750B00780A120952
:103D83006AEE2402FCEF3400FD12604A12102A741A
:103D93000212091B800375081AA90802322274F65D
:103DA3001204BCEAFEEBFF8E828F83A3A3A3A3A31B
:103DB300A3A3A3E090066D12666B90068812666358
:103DC3009006681266709003D5F0F91213EA900317
:103DD300D5E0601AEE2404FAEF3400FB7950121395
:103DE300D2EE2406FAEF3400FB79E11213D29003EA
:103DF300D4122CDB600474018001E4900361124B44
:103E03005612096AEE240DFCEF3400FD7A627B033F
:103E130012102A740212091B780812096AEE241878
:103E2300FCEF3400FD7A6D7B03025D7D74F71204B1
:103E3300BCEAFEEBFF8E828F83A3E0700612604A1A
:103E43001215888E828F83742C124DC8120CD602E1
:103E53004DD574F71204BCEAFEEBFF90035F1251D9
:103E6300ED600D12604A90035FE4F0A3F01210CCF2
:103E73008E828F837408124DC8120E7A024DD57448
:103E8300F61204BC9003D4E06013900361E0700D5C
:103E9300123EA31215D6EA4B6003120BFE025D8598
:103EA300900668E0FB900688E0FA90066DE0F92240
:103EB30074F61204BCEAFEEBFF7508001213E4E982
:103EC30075F064A4F8A9F07AFF7B0012036BE8FA9B
:103ED3008E828F83A3A31243CBFBA3A882A983A2C1
:103EE300E05006900666E06003750801EBA2E1501E
:103EF30021E508A2E0501B88828983E0FCA308A97E
:103F030083EE242F124A959C4005750801800375A2
:103F13000800EBA2E25011E508A2E0500B88828969
:103F230083E0C39A40218006E508A2E0501990037C
:103F3300D4E06013900361E0700D123EA31215D616
:103F4300EA4B6003120BFE025D8574F51204BC7428
:103F5300E7120993EAFEEBFF750A018E828F83A3B2
:103F6300A3A3A3A3A3A3E0A2E2507EEE242BF58296
:103F7300EF3400125C851240261215CAE9706A906C
:103F83008245E06401700DEE241B124CFD70057533
:103F93000A00805575080B750900780812096A1222
:103FA300402F7410120B8EAA82AB8312102A740254
:103FB30012091B120D06E9FA740E120B8E85820884
:103FC300858309780812096A75083075090078082D
:103FD30012096AEE242B12403B120782125F727998
:103FE30001120D2A740612091B8518828519837420
:103FF30010123ACD120B8EAA82AB83121558EE24FF
:104003002B125F7B740B120B8E124D1A740D120B55
:104013008EE50A12404C120E7A741912091B7F03A3
:104023000206F5EE2413FAEF3400FB22EE2408FC1B
:10403300EF3400FD22EE240EF582EF125ACC2285D6
:104043001882851983EAF0A3EB1240502212562BF3
:10405300AA82AB8322C082C0839003D5E06003129F
:104063000D840245D2C082C0839003CC74A7F0A311
:104073007422F0A37404F0A37422F0A3748DF0A34C
:1040830074221264A8F09006EA74BEF0A37415F0CB
:104093009006EC74B8F0A374150245CA74091209AA
:1040A3001B024DD5C082C08374FE120993800D7A22
:1040B300787B0312105A124042120CFA90037812C2
:1040C30051ED70EB90037A1251ED600F7A7A7B0316
:1040D30012105A124042120CFA80E9900378E4F06D
:1040E300A3F090037E12251190038B7422F0A37426
:1040F3000CF074028002741112091B0245D274F68B
:104103001204BCE9FF8F0874372508F58274221264
:1041130053DFFE8E08FA7B00121036EA4B600BEA7F
:1041230025081254BCA3E4F080297A027B00121004
:1041330036EA4B601A8F08742B2508F58274221215
:1041430045B6F0A3741AF09003ACE0F91210427A6A
:10415300007B00025D85E9FD74062DFCEAA2E050B8
:104163001EEC75F00A84A8F0E86014740A2CC39856
:10417300FCE8C394054004740A2CFC740B2CFCED7E
:10418300C394134004781480027806E82C2409F8B9
:10419300E43400F97A0A7B0012036BE8F90208E8B9
:1041A300C082C0839003B1E05402600A120E80E91A
:1041B30060047901800279000245D2C082C08390F5
:1041C30003B1E05402601690037EE0700C1251EAD2
:1041D300600B1246F8A2E7500479018002790002CD
:1041E30045D2C082C083908243E0F8900380E0C34D
:1041F30098500512103680047A007B000245D2C025
:1042030082C083120CFA79000245D274F71204BCFF
:1042130074FE120993851882851983EAF0A3EB12C1
:104223004422601114606C24FE606F24F870030252
:1042330043500243AB90066DE0640F6018120CD03C
:10424300E9701285188285198312604D9006EE126B
:10425300470B1206A2900695E0C0E08518828519E7
:10426300831250FCD0E0124417F58388827414F053
:10427300851882851983125C877A7A7B031210541E
:10428300E5A8F8C2AF9003801244457920120CBE12
:10429300024B7F12440A741580D51243BBA3A3E0DB
:1042A30070030243AB8518828519831243CBFAA3AB
:1042B300E0FB8A828B83E0C0E0851882851983E066
:1042C300FCA3E0CC2406F582EC12403ED0E0125F62
:1042D300C988828983EAF0A3EB124417C81245B157
:1042E300E81244F185188285198360081243EC4073
:1042F3003F0243AB1243EC50221243F5FA85188276
:10430300851983A3E0C82406F582E8123BFA748377
:1043130028F58274221253DF6A6015851882851985
:10432300831243DEE06408707F1243F564087078FB
:104333001243F514124430240AC0E085188285190B
:104343008312470BD0E0124430040242721243BB83
:10435300125F8288828983E0541F6403703AE0C449
:10436300135407F8E58228F8E5833400F9E82402BA
:10437300F582E91244F1641F701EA3A3A3E0C0E019
:104383008518828519831243C6D0E012442264073C
:10439300700612440A7431F0851882851983123A23
:1043A3004B64317003024273851882851983AA8294
:1043B300AB83120CFA024293851882851983A312E8
:1043C300513F22124400A322E02402F8A3E0124347
:1043D300D5223400F988828983E0221243E2221233
:1043E3004900C824061248C8221243E2E014C394C9
:1043F3000922851882851983124400E022E0F8120D
:104403004410A3A3A3A322851882851983A3E0F5EF
:104413008388822212441B2212562B124900221235
:10442300441BF5838882A3A3A3A3A3E02212441B06
:10443300C82406F582E812376622E5A8F8C2AF90D1
:10444300037FE004F0E8A2E7A2E792AF22C082C0B4
:10445300839003831251ED60081244111206A28067
:104463000279000245D274F71204BCEAFEEBFFEEB8
:10447300240D123407124A9AF8A3E0F912403812B5
:104483004D1AEE24351244EEC0E0EE241312403BE5
:10449300D0E0F0EE24361244EEC0E0EE24141240D5
:1044A3003BD0E0F0EE24381244EEC0E0EE241812C4
:1044B300403BD0E0125FA61207821244E2EE2431A1
:1044C300F582EF12489E120D24740212091BE9F5BE
:1044D300087007EEFAEFFB120BFEA908024DD5EEAA
:1044E3002426FCEF3400FD22EE2410F582EF123770
:1044F3006622C082C083120CD0E960047920800256
:1045030079010245D2C082C083EA124703EB124409
:10451300F1D2E00245D1C082C0831245A9123BF11A
:1045230070111245BE400C8A828B83A3E0F9120CF2
:10453300C48071EA1245B1EB1244F1A2E650128A2B
:10454300828B83A3E0F99006F012470B1206A28038
:10455300531245A9123BF1700D1245BE50088A82D1
:104563008B83743080358A828B83A3E0641B8A82B9
:104573008B83700474228023A3E0700F1245A91269
:104583003BFA744328F5827422800D1245A9123B2D
:10459300FA742B28F58274221245B6F09003ACE02E
:1045A300F91210428029EA240DF582EB22E8241047
:1045B300F582221253E38A828B8322EA2410F58246
:1045C300EB123766A2E322F09003B1E04402F0D08D
:1045D30083D0820208E874F71204BCE9FE1251EAA0
:1045E30070030246F5EE6010741B6E7012125F8B3F
:1045F300E0640570030246C3126388E40246C7748D
:10460300E96E705B12472B700B120E86E960051280
:104613004744605B900381124728900381603912FD
:104623004747900381700B12472814F012151002AC
:1046330046F5124736C2E71248E6240DF582E81222
:104643006A48700C900381E0F8A31246F8D2E2F0B6
:104653001247131206A2807612638B74E980657485
:10466300E16E703F120E86E9605612474470519016
:10467300068FE0C0E01256E2C82412F582E8124029
:104683003ED0E0F090067EE0C0E090038112470F39
:1046930012470FD0E0F090067EE004F07901121487
:1046A300F8804F741C6E701890038112604D900651
:1046B300F612470B1206A2900381E4F0A3F08032B6
:1046C300126388EEF090038112604D120BEC1248D6
:1046D300B7E054806010900695E0F912140E90062E
:1046E30094E0F9121402900381E4F0A3F07910121C
:1046F3000CBE024DD5E0C8124703E812376622E824
:104703002411F582229006F41247222212513C22F0
:10471300900381E0FAA3E0FB9006EC12472222E02B
:10472300F812441022E0F8A3E0C82412F582E8123C
:10473300376622E0F8A3E0C82410F582E812376652
:10474300229003811248BEE054042274F41204BC84
:10475300750A00750B00A2AFE433FFC2AF1251EA32
:1047630060030248461247081206A2E94410F89073
:104773000378800985080A85090B12488E1248A31D
:104783007003024846123828586870E8780A1209FC
:104793006AAC08AD097A787B0312106674021209B9
:1047A3001B900381E508F0A3E5091248E6124703CD
:1047B300E8123822500302484D90037FE014F0EFD3
:1047C300A2E092AF900381E0240EF8A3E03400F955
:1047D300880889098882F58312604D90038112430A
:1047E300FBF9120BB0E990037CF01248DCE0548033
:1047F30060181256E2C8241312489B12140E125664
:10480300E2C8241412489B1214021248B7A3E054BE
:1048130001606690037C1251ED60491248D06044F8
:104823001248D0F8790090037C12604D120373E8AC
:10483300C0E01248ABD0E01248EBC39413401174AC
:1048430002800EEFA2E092AF803E90037E0247BF4C
:10485300E4C0E0900382E0C8241AF582E812403EE7
:10486300D0E080101248AB74011248E6241AF58296
:10487300E812340AF07903800C900381124736A2C0
:10488300E1B3E433F91214F8023222E50824FBF50C
:1048930082E50934FFF58322F582E8123766F922AF
:1048A300126A62E508450922125FB92419F582E804
:1048B300125ACC229003811248BE22124900C82406
:1048C3000E1248C822F582E83400F58322125FB93C
:1048D3002418F582E812376622A3E4F0850882855E
:1048E3000983221248F8C8221248F8F5838882A364
:1048F300A3A3A3E022F090038112490022E0F8A3CE
:10490300E02274F71204BCEAFEEBFF120CF4EE1281
:1049130045B1EF1245C4400A123BEB70059082414A
:104923008003908242E0F9EEFCEFFD7A787B03127C
:10493300106CE96034EEFAEFFB9006F212470B12AB
:1049430006A2EE240E12497C701012443DEE240E92
:10495300124A8D7021120BF8801CEEFAEFFB9006C1
:10496300EA12470B1206A2800D8E828F83A374F185
:10497300124DC8120BEC024DD5F582EF1237665477
:104983000422C082C083120BF80245D274F71204CA
:10499300BCEAFEEBFF79009003B1E05402700AEE2B
:1049A300243312497C600279E89003B1E0546070CB
:1049B3000CEE24331244EE5402600279E88E828FA7
:1049C30083A3A3A3A3E0C39475400279E8EE243143
:1049D3001244EE700CEE242E1244EE700479F5802E
:1049E30009E97003120BDAE96007EEFAEFFB120C28
:1049F300C4024DD5C082C0838A828B83740DF012AA
:104A03000E7A0245D274F41204BCEAFEEBFF8E82E6
:104A13008F83E4F0A3124A9A54049082417012E007
:104A2300F890037FE0C398401279F1120CC402326C
:104A330022E0F890037EE0C39850EEEE2433124A4E
:104A43008D6035EE2437124A9594054039EE2433B0
:104A53001244EE5405702F7A857B03120E0EEE245A
:104A63003712403B12297378081209667A857B0353
:104A7300120E02740412091BEEFAEFFB9003ACE072
:104A8300F912104280A879E880A1125AC9A3E05410
:104A93000122123763C322F0EE24331237632274E8
:104AA300F61204BCE9FE2451FAE43400FB1210367A
:104AB300EA4B6015EE8A828B83A3A3A3A3F0EA24B7
:104AC300511254C7124D1A80047A007B00025D858F
:104AD300024985C082C0839003A8E4F09003ABF041
:104AE300900394124AF77402F090039D124AF774EC
:104AF300010245D174BEF0A3740CF0A32274F61224
:104B030004BC74F11209938518828519837402F029
:104B13007401120B8EE9F060047AFF7BFF740212BA
:104B23000B8EEAF0A3EB124B5612096A7CA07D03AD
:104B33007406120B8EAA82AB8312102A7402120916
:104B43001B851882851983AA82AB83120E7A740F90
:104B5300025D82F075080B75090078082274F7125C
:104B630004BC74FE120993851882851983740AF0B4
:104B73007401120B8EE912404C120E7A7402024039
:104B8300A174F01204BC126888120B4F7808790CD8
:104B93001203CC78081209667A977B0302354374B3
:104BA300F41204BC74C612099390066DE0640F609E
:104BB30010851882851983742E125633120CD680F1
:104BC300277A8E7B03120E0E123214120373880897
:104BD3008909E4F50AF50B78081209667A8E7B03D6
:104BE300120E02740412091B743A02321F74F61275
:104BF30004BC74F7120993EAFEEBFF8E828F83A342
:104C0300E0F5086003024CE6124CFA6008E0640326
:104C130060037508E8EE242612403B1231495034F4
:104C2300E5086003024CE6EE2426FAEF3400FB7934
:104C3300E11213D2EE2431FAEF3400FB7950121350
:104C4300D2124CFA7014EE2428125F7B90067C1269
:104C53004D1A80187508E8024CEA90067C74FEF041
:104C6300A304124D037A737B0612156475080B7542
:104C73000900780812096AEE241BFCEF3400FD7A60
:104C8300A07B0312102A740212091B12340412337C
:104C93001E7402124D03851882851983AA82AB8381
:104CA300121558EE2431125D471234108A828B8319
:104CB300E8F0A3E9124A9A125D5D12096A740212BE
:104CC3000B8EAC82AD8379831A1AEFFB120D247419
:104CD3000212091BE9F5097007EEFAEFFB120BFE4E
:104CE300850908E508600B126E137417124DC8127C
:104CF3000CD67409025D82EE2430123763640222FB
:104D0300F0EE2428FCEF3400FD22FB8A828B831211
:104D13004D20F98A828B83E8F0A3E9F022E024FF97
:104D2300F8A3E034FF2274F61204BC74F71209935B
:104D33009003ABE070457401F0F91214C285188238
:104D4300851983AA82AB83120D007508A075090328
:104D5300780812096A750801750900780812096A4A
:104D63009006821207827406120B8EAC82AD837A90
:104D7300037905120D2A740612091B024CF574F708
:104D83001204BCEAFEEBFF79011214C88E828F83F2
:104D9300E064207004A374EBF09003ABE0A2E25054
:104DA30003C2E2F0E0A2E15008124FD1120C3480AA
:104DB3000C8E828F83742A124DC8120CD680138EE8
:104DC300828F837429F0EEFAEFFB22EEFAEFFB12E7
:104DD3000D787F010206F574F41204BC74FE120907
:104DE30093EAFEEBFF79011214C87A8E7B03120E4D
:104DF3000E7A977B03120E0E1251088518828519BD
:104E030083125135E0F5087015851882851983AA38
:104E130082AB8379531213D2126A3A1213D2750AF0
:104E23000B750B00780A12096A12402F7AA07B03D4
:104E330012102A740212091B8518828519831260C5
:104E43004DA908120C2E9003ABE0A2E1500A8E820A
:104E53008F83A3E0F9120C349003ABE4F0740202E5
:104E6300321F74F71204BCEAFEEBFF8E828F83A31A
:104E730074EBF09003ABE0A2E1500579EB120C3434
:104E8300EEFAEFFB120C64024DD574F71204BCEA80
:104E9300FEEBFF79011214C87A8E7B03120E0E7A91
:104EA300977B03120E0E9003A8E4F09003ABF07A05
:104EB300FF7BFF8E828F83A3E0F9120C2E024DD568
:104EC30074F71204BCEAFEEBFF120C5E024DCE74C3
:104ED300F71204BCEAFEEBFF79011214C88E828F2D
:104EE30083A3A3A3A3E06003E4800274EB124F2324
:104EF3005003C2E2F0E0A2E15008124FD1120C3489
:104F03008014A2E050108E828F83742AF0A374EB76
:104F1300124DC8120CD6EEFAEFFB120C10024DD54F
:104F23008E828F83A3F09003ABE0A2E22274F61289
:104F330004BCEAFEEBFF9003ABE0D2E1F07901128F
:104F430014C28E828F83A3E07041120D06E9FAEE3C
:104F5300240DF508EF3400F509780812096A75087D
:104F630001750900780812096AEE240B12403B12FE
:104F73000782EE2402FCEF3400FD7905120D2A743A
:104F83000612091BE98E828F83A3F08E828F83A37F
:104F9300E06004F9120C34025D8574F71204BCEA74
:104FA300FEEBFF79011214C88E828F83E0642070B8
:104FB30004A374EBF09003ABE0A2E25003C2E2F06F
:104FC300E0A2E15006124FD1120C34024DD5C2E1DA
:104FD300126E1EA3E0F92274F71204BCEAFEEBFF83
:104FE30079011214C87A8E7B03120E0E8E828F8380
:104FF300A3A3A3A3E06003E4800274EB124F235046
:1050030003C2E2F0E0A2E15006124FD1120C3402C7
:105013004F1974F71204BCEAFEEBFF79011214C8AE
:105023008E828F83A374EB124F285003C2E2F0E009
:10503300A2E15006124FD1120C34024DD574F7126F
:1050430004BCEAFEEBFF7A8E7B03120E0EEEFAEF40
:10505300FB120C88024DCE74F71204BCEAFEEBFF80
:105063007A8E7B03120E0EEEFAEFFB120C88024DC2
:10507300D574F71204BC74EF120993EAFEEBFF1226
:105083005F727A737B06121552E960688518828510
:1050930019837409F07401120B8E74EFF012510826
:1050A300F87402120B8EE8125135A3A3E0C0E0742A
:1050B30004120B8ED0E012512C640870158E828F6F
:1050C30083A3A31250FCE0C0E07405120B8ED0E062
:1050D30080067405120B8EE412511E7406120B8E99
:1050E300AA82AB83120D42851882851983AA82ABEB
:1050F30083120E7A74110240A1125FBC2407F58259
:10510300E8125ACC22125D51FB8A828B83125F868E
:1051130088828983E0FCA3E0F9EC2212512222F079
:10512300EE2408FCEF3400FD22125130221266599E
:10513300E022125FD212513C22E0F8A3124411A3E1
:10514300A322C082C083120D840245D2C082C083D1
:105153009003C874B8F0A37421F0A37470F0A3741F
:1051630022F09006FA746BF0A3741EF0A374D3F0CC
:10517300A3741E1264960245D1C082C083EAFCEB7D
:10518300FD7902120CE20245D2C082C08379060285
:10519300645E74F61204BC74FE1209939003AD129C
:1051A30051ED60077AAD7B03120CFA9003B3E4F080
:1051B3009006C81251ED602C800D851882851983E5
:1051C300AA82AB83120CFA9003ACE0F912104E8A58
:1051D300088B09A808A909851882851983124D1A15
:1051E300E84970D6025D80900381125F86E8492208
:1051F30074F61204BCE9FA7B009003ACE0F91210D8
:1052030072025D8574F71204BC74F0120993EAFE0E
:10521300EBFF89088E828F83E0F8745A28F5827435
:10522300221253DFC0E07401120B8ED0E0F0640B46
:10523300700D8E828F83A3E9F0120D6602530BE08B
:10524300700302530B640C60030252F7741A65086F
:10525300700B7404120B8EE4F0A30252F674041262
:105263000B8EEEF0A3EF125FC1C0E07403120B8E3E
:10527300D0E012664C120B6B7406120B8E120B7776
:105283008E828F83A3A3A3A3A3A3A3A3A3125F824B
:10529300740A120B8E125CB0E054106009851882F8
:1052A300851983E48012EE2412123BF790068FE0F7
:1052B300C398851882851983F0E0C0E0740C120B43
:1052C3008ED0E0F0EE24151244EEC0E0740D120B04
:1052D3008ED0E0F0EE24161244EEC0E0740E120BF2
:1052E3008ED0E0F0EE24171244EEC0E0740F120BE0
:1052F3008ED0E0F07402120B8EE508F07401120BED
:105303008EAA82AB83120E7A74100240A1C082C0AF
:10531300839003B3E070047901800279000245D2DF
:10532300C082C0839003B3E06403700479018002F8
:1053330079000245D274F61204BC9003B3E0C33380
:10534300F8E433F974F828F582740639F5831258B2
:105353003DC2E7F0C333FCE82CF582E912403EA3DB
:10536300E493FEC333FCE433FD74F82CF582740636
:105373003D125C85EC4D6005EE9003B3F08A828BA1
:1053830083E0C333FCE433FDE82CF582E93DF58388
:10539300E493F508C4540FC333F874C228F5827438
:1053A3000312403E1251ED7005120D54801BE508A7
:1053B300540FC333FCE82CF582E91253DFC0E074C9
:1053C3000193F583D0821206A2025D85890CEAFE61
:1053D300EBFF8908744F2508F58274221253E322E8
:1053E3001248CBE4932274F31204BC74FE120993A3
:1053F3001253CFFA7B001210368A088B09EA45094B
:10540300602F8A828B83E50CF01254D312096AEE63
:10541300FCEFFDEA2402FAEB3400FB12102A7402BB
:1054230012091BAA08AB099003ACE0F912104280E1
:1054330012851882851983E50CF0791AAA82AB8349
:10544300120CC4740202376B74F01204BC74FE12A3
:1054530009931253CFF50AFA7B001210368A088B90
:1054630009EA4509603A8A828B83E50CF0A3E4F0EC
:10547300EA250A1254BC1254D312096AEEFCEFFD5A
:10548300EA241BFAEB3400FB12102A740212091BE4
:10549300AA08AB099003ACE0F9121042790080141A
:1054A300851882851983E50CF0791AAA82AB8312D9
:1054B3000CC4791A74020235481254C7E8125FD239
:1054C300A3A3A322F8EB3400F98A828B83A3A3223C
:1054D300A3E4F0850C0A7465250AF582742212533D
:1054E300E3F50A750B00780A22C082C083E99003B2
:1054F300AC0245D174F61204BC74FE120993EAFEA1
:10550300EBFFEE5420702E8037E5A8F8C2AF90036E
:1055130080E0141244478A828B8312561D125F9DCA
:10552300120CD6851882851983E0641560077AAF5B
:105533007B03120CFA7A7A7B0312105AEA4B70C976
:10554300EF5480700F8019125F9D120CD67AAF7BD7
:1055530003120CFA9003ACE0F912104EEA4B70E719
:10556300EE5410600E851882851983742D125633FC
:10557300120CD6EEA2E0500E85188285198374248E
:10558300125633120CD6EE5402600E85188285191A
:10559300837425125633120CD6EE5404600E85180C
:1055A300828519837426125633120CD6EE54086082
:1055B3000E8518828519837428125633120CD6EE81
:1055C300544060107401120B8E125626742C12561E
:1055D30033120CD6EE548060107401120B8E1256E7
:1055E30026742F125633120CD69003AD1251ED6070
:1055F30022E5A8F8C2AF9003AD12604D9003ADE46D
:10560300F0A3124447A3125FA0120CD67AAF7B0318
:10561300120CFA7A007B00025D80E08518828519FE
:1056230083F022E412562B22F085188285198322F7
:10563300F0AA82AB8322C082C0839003AF125F8241
:10564300EA687002EB6970079003AFE4F0A3F0021D
:1056530045D274F71204BCEAFEEBFFEE4F7003125F
:105663001258A2AFE433F508C2AF8E828F83125172
:10567300ED6028E824FBFAE934FFFB9003AF125CEA
:1056830087E86C7002E96D70079003AFE4F0A3F054
:105693008E828F83E4F0A3F01210CCE508A2E080A1
:1056A30004A2E7A2E792AF024DD5C082C083900661
:1056B3007CE064FE7003A3E0F470097C737D061242
:1056C300155880188A828B83A3A3A3A3A3A3A3A3A0
:1056D3007402F090067C1256E5124D150245D290E5
:1056E300038112490022C082C083900686C3E094DE
:1056F300FEA3E094FF40047903800279020245D2BD
:10570300C082C0831258A38C828D831257FB6870AA
:105713003B740268701C8A828B83125754E0687052
:105723002B8A828B83A3125754A3E068701E7901DE
:10573300801C7403687015EC2405FCED3400FDEA4D
:105743002405FAEB3400FB12155E80027900024552
:10575300D2A3A3A3A3A3E0F88C828D83A3A3A3A3C3
:10576300A32274F61204BC7E00740A120B8EE0129C
:1057730057EFFF8A828B83A3A3A3A3A3A3A3A3E0CF
:105783006F706474026F704D8A828B83C082C08392
:1057930088828983A3A3A3A3A3E0F50888828983CE
:1057A300A3A3A3A3A3A3E0FBAA08D083D082E06AA8
:1057B3007003A3E06B703088828983A3A3A3E0FA0C
:1057C30088828983A3A3A3A3E0F9EA6C7002E96D3D
:1057D30070150E801274036F700DE82405FCE93414
:1057E30000FD12155EE9FEEEF9025D85F8A3E0F90E
:1057F300888289831257FB22A3E01313543F540377
:1058030022C082C0838A828B83A3A3A3A3A3A3A35F
:10581300A3E06402701690067C12583D687003A3DF
:10582300E06970047901800F7900800BEAFCEBFDDD
:105833007A737B061215520245D2125F868A828BD7
:1058430083E022C082C0831258A3603A7402687056
:105853003D90067CC3E094FEA3E094FF50308A821F
:105863008B83A3A3A3A3A3E0FC8A828B83A3A3A319
:10587300A3A3A3E0F9ECF875830675827CE0687056
:1058830003A3E0697004790180137900800FEA248F
:1058930005FCEB3400FD7A737B0612155E0245D2DC
:1058A3008A828B831257FBF82274EC1204BCEAFE43
:1058B300EBFF8C128D13750A00750B008C828D83A0
:1058C300A3A3A3A3A3A3A3A3E0F510E9A2E750080E
:1058D300750CFF750DFF800A900682E0F50CA3E0BE
:1058E300F50DE9C2E7F511EE240E1244EE542060E3
:1058F3000AEE241012403B74088006EE2410125A5C
:10590300BA125AD954046007125AC274808005121D
:105913005AC27410125AD954106008EE2412125A43
:10592300BA800E90068FE0C0E0EE241212403BD006
:10593300E0125AD9A2E05003750A20540860067495
:1059430010450AF50A8E828F83A3A3E024FFF5088E
:10595300A3E0125AB5EE240D124A959402E04010CA
:10596300640B6007E014125ADF8003750B22740383
:10597300450AF50A85110E750F00740E780E120A8A
:10598300A8E50F450BF50B7414120B8E125BA7746D
:10599300026511700E900687125ADE900686125A1F
:1059A300D08013740365117016125AAD7C967D0670
:1059B300AA08FB121564E50824FF125AB18004E516
:1059C300116028E5106014E50E650C7004E50F65A1
:1059D3000D70087440450AF50A8010850882850910
:1059E30083E50D125AF7E50C125AE585100C750D77
:1059F30000740A780C120AA8E50D450BF50B740226
:105A030065107015851282851383A3125ADE8512E1
:105A130082851383125AD080137403651070161293
:105A23005AADAC12AD13AA08FB121564E50824FFA6
:105A3300125AB18004E5106010850882850983E558
:105A43000F125AF7E50E125AE5A808A909E824FF30
:105A5300F508E9125AB5EE240D1244EE70059006CE
:105A630072800390067EE0FA04F0EA88828983124A
:105A730048DEE50B125AF7E50AF0EE2404F8EF349A
:105A830000F91233FCFBAC088A828B83E0F50A88A9
:105A9300828983E0250AC39C125CACECF0A3E50980
:105AA300126E1AA3E4F0F90236F6E50824F9F508B4
:105AB300E50934FFF50922F582EF125ACCE422EE10
:105AC3002411125AC922F582EF1248CB22E085082D
:105AD30082850983F022125CB8E022E08508828582
:105AE3000983125AE922F0E50824FFF508E5093491
:105AF300FFF50922125AE9850882F5832274EB1215
:105B030004BC890D8A0C8C108D117415120B8EE058
:105B1300F50AA3E0F50B7417120B8E125BA775142D
:105B23001A7419120B8E126A5EAA08FB120BAA8A48
