:020000040000FA
:06000000020A590201DDB5
:03002B000207C009
:030033000201FFC8
:0300430002077B36
:0300530002011196
:03006B0002150F6C
:03007B000206B3C7
:1000830002017103000300030003000300030003E4
:10009300000300030005000A00140028004F009E1F
:1000A300000000CF0CCF0CCF0CCF0C790B730BCF10
:1000B3000C5C1700000000BC1500000000FF0000EE
:1000C30000FF001420FFFFFFFF01201404030008BA
:1000D3000000FF0020FD000200035F005F0030000E
:1000E30058000000000000000000000000000000B5
:1000F30000000000000000000000000000000000FD
:1001030000006405B905B905B905B905C105C0E025
:1001130074F1120505A2AFE433FED2AFE5A7FFE504
:10012300A1F5085FF50974105509600612109B7557
:10013300A1EF7408550960081210A175A1F7802476
:10014300E508A2E092F0EFA2E082F05017906198E8
:10015300E0F8900A2AE0C398A2D265D0335002E8AF
:10016300F075A1FEEEA2E092AF7F020205C1C0E0EE
:1001730074F2120505A2AFE433FED2AF9061A4E09E
:10018300F8759B00E59158540860087591F71210B3
:10019300F58023E59158541060087591EF1210FB18
:1001A3008014E591A2E092F0E8A2E082F05007E02B
:1001B300C2E0F012123F9061A3E0F8E5E95854045D
:1001C300600E12121575E9FB906193E0A2E640F20E
:1001D300EEA2E092AF7F010205C1C0E074F2120506
:1001E30005A2AFE433FED2AF9061A5E0F8E5BF58B6
:1001F3005404600675BFFB12125780D4C0E074F13B
:10020300120505E59DA2E650FA906206E0FAA2E225
:100213005035A82CE890620BF0F508852D0974047D
:100223007808120ABBE508906207F0852C08852D33
:100233000974097808120ABBE508543E906209F074
:10024300906201E0D2E0F07829EA46F6906202E09B
:10025300F50875090074047808120A337829E5084B
:1002630046F608E50946F6906204E0F508750900CC
:1002730074097808120A33782AE50946F6EAA2E0F7
:100283005003752B0174065A6003752B00E58BA28E
:10029300E55006758BDF752B0012133B758B00C27F
:1002A300E87F020205C1C3E498F8E499F91202EA6F
:1002B3008026C3E49AFAE49BFBE920E7E91202EA09
:1002C300E498F8E499F922C3E498F8E499F912025E
:1002D300EAE498F8E499F9C3E49AFAE49BFB22EB85
:1002E30020E7CFE920E7E0B90010BB0008E88AF077
:1002F30084F8AAF022E4FBC8FA22EB70227B10C830
:1003030033C8C933C9335007C39AC3DBF280069A93
:1003130050012ADBEAC833F4C8C933F4C9FA227599
:10032300F008E4C833C8C933C933C99AC99B500418
:10033300C92AC93BD5F0ECFBC833F4C8E4C9FA2297
:10034300080808EAC0E0EBC0E086F0E7A4FA180961
:1003530086F0E7A42AFA180986F0E7A42AFA18090E
:1003630086F0E7A42AFA1986F0E7A4FBE5F02AFA57
:10037300190886F0E7A42BFBE5F03AFA190886F092
:10038300E7A42BFBE5F03AFA18180986F0E7A4C5B1
:10039300F02BFBE43AFA1908E7C5F0C6A426F6E504
:1003A300F03BFBE43AFA1886F0E7A4F6E5F00826FA
:1003B300F6E43B08F6E43A08F6D0E0FBD0E0FA2294
:1003C300E4CFC0E0E4CEC0E0E4CDC0E0E4CCC0E0E4
:1003D30075F020C3E633F608E633F608E633F6088D
:1003E300E633F6181818EC33FCED33FDEE33FEEF6D
:1003F30033FFC3EC9709ED9709EE9709EF971919A6
:1004030019400FFFEC97FC09ED97FD09EE97FE19D4
:100413001906D5F0BEECF709EDF709EEF709EFF78A
:10042300191919D0E0FCD0E0FDD0E0FED0E0FF22A6
:100433002518C582C0E0E51934FFC583C0E0E5187F
:10044300C3958224F810AF08858319858218800824
:10045300858319858218D2AFCEF0A3E520F0A37867
:1004630008E608F0A3DEFAEFF0A3E58124FAF8E644
:1004730008F0A3E608F0A3E608F0A30808E608F0EE
:10048300A3E608F0A315811581D0E0FED0E0F815AE
:100493008115811581E8C0E0EEC0E022120AFEB9A1
:1004A30000030204EFE47921780DB800028004F719
:1004B30009D8FCE490030178CB79088002F0A3D833
:1004C300FCD9FA900ACBAA82AB83900086788C7908
:1004D300018015E493A3AC82AD838A828B83F0A35E
:1004E300AA82AB838C828D83D8E9D9E77582827522
:1004F30083D4740112085F75822775831574001203
:10050300085FC0D02518C582C0E0E51934FFC58354
:10051300C0E0E518C3958224F310AF0885831985DD
:1005230082188008858319858218D2AFC8F0A3E9A1
:10053300F0A3EAF0A3EBF0A37908E709F0A3D8FA54
:10054300ECF0A3EDF0A3EEF0A3EFF0A3D0E0F0A363
:10055300D0E0F0A3D0E0F0A3E520F0A3E5F0F0A312
:100563002212010002020000205104A81609000112
:10057300020301090243000201008019090400007B
:1005830001020201000524001001042402020524D3
:10059300060001052401000107058203400040090C
:1005A300040100020A00000007058402400000075E
:1005B3000504024000007F050000A2050000851924
:1005C30083851882E0C0E0A3E0F9A3E0FAA3E0FB8F
:1005D300A37808E0F608A3DFFAE0FCA3E0FDA3E0BC
:1005E300FEA3E0FFA3E0C0E0A3E0C0E0A3E0F5D0FA
:1005F300A3E0F520A3E0A3F5F010AF0885831985E8
:1006030082188008858319858218D2AFD082D0835F
:08061300D0E0F8D0E032E473FE
:10061C0075F0108E218F2285822685832585188280
:10062C00851983E0CEA3E0CF852682852583EBC98F
:10063C00EAC8EDCBECCAC3E833C8E933C9EA33CA1C
:10064C00EB33CBC3EA9EF524EB9FF523B35004ABFD
:10065C0023AA24EC33CCED33CDD5F0DAAE21AF2286
:10066C0022851983851882E0A3FEE0A3F520780883
:10067C00E0A3F608DFFAE0A3FFE0A3C0E0E0A3C02C
:10068C00E0E0A3C0E0E0A3C0E0E0A3C0E010AF084E
:10069C008582188583198008858218858319D2AFC5
:1006AC00D083D082020865C0E074F2120505A2AFB7
:1006BC00E433FED2AFE58AA2E25007900607E0D2FF
:1006CC00E0F0E58AA2E35007900607E0D2E1F0756E
:1006DC008A00C2EB7A107B00900603E0F9120E4FF1
:1006EC00EEA2E092AF7F010205C17404800874038E
:1006FC00800474028000CCC0E0EDC0E0E518C39C1F
:10070C00CCAD1950011D10AF068C188D1980068CBC
:10071C00188D19D2AF1207E1D0E0FDD0E0FC22D049
:10072C0083D082CCC0E0E493A3600612082114703D
:10073C00FAE493A360061209441470FAD0E0FCE4C6
:10074C0093A3C0E0E493C0E022C008C3E096F50890
:10075C0008A3E096420808A3E096420808A3E09696
:10076C004208A2D265D033E5087001D3D00822C06C
:10077C00E074F2120505A2AFE433FED2AFC2C0E5BD
:10078C00D1A2E45003121011EEA2E092AF7F01024D
:10079C0005C1CAC0E0E493A3C582CCC582C583CD94
:1007AC00C583F0A3C582CCC582C583CDC583DAE5EC
:1007BC00D0E0CA22C0E0C0D0E8C0E0E9C0E0E5A8C3
:1007CC00D2AFC2C7A2E7A2E792AFD0E0F9D0E0F86F
:1007DC00D0D0D0E032CAC0E0E0A3C582CCC582C57F
:1007EC0083CDC583F0A3C582CCC582C583CDC5831B
:1007FC00DAE6D0E0CA227009080808226016181838
:10080C0018C6C333C608C633C608C633C608C633B3
:10081C00C6D5E0EA22C0E0E493A3D39C5010E49345
:10082C00A3C39C400AD0E0D0E0D0E0020748A3A3C9
:10083C00A3D0E022C008C3E096F50808A3E09642D6
:10084C000808A3E096420808A3E09645087001D377
:10085C00D00822C09FF59FE473D09F22D083D08212
:10086C00C09FE493C0E0740193C0E0740293F59FC1
:10087C00227404800A74038006740280027401C01E
:10088C00E0F404120898D0E0120AD9222518F58257
:10089C0010AF08F518400215198008F5184002151C
:1008AC0019D2AF85198322C0D0251810AF08F518BE
:1008BC00500205198008F51850020519D2AFD0D096
:1008CC0022BB0102E722C082C08389828A83BB00DB
:1008DC0003E08002E493D083D082226016080808DB
:1008EC00C6C313C618C613C618C613C618C613C675
:1008FC00D5E0EA22C3E0C696F608A3E0C696F60851
:10090C00A3E0C696F608A3E0C696F622251810AF0B
:10091C0008F518400215198008F51840021519D26F
:10092C00AF22BB000EC082C0838A838982F0D08341
:10093C00D08222BB0101F722C0E0E493A36C7009C2
:10094C00D0E0D0E0D0E0020748A3A3D0E022C3E07F
:10095C009608A3E09608A3E09608A3E096A2D265B9
:10096C00D03322E066701008A3E066700A08A3E09A
:10097C0066700408A3E06622E76670100809E76653
:10098C00700A0809E76670040809E76622C3E6974F
:10099C00F60809E697F60809E697F60809E697F6C9
:1009AC0022C3E096F008A3E096F008A3E096F008C6
:1009BC00A3E096F022E026F608A3E036F608A3E0C2
:1009CC0036F608A3E036F622E627F60809E637F6EF
:1009DC000809E637F60809E637F622E493F60874B8
:1009EC000193F608740293F608740393F622E0560A
:1009FC00F608A3E056F608A3E056F608A3E056F670
:100A0C0022E026F008A3E036F008A3E036F008A3B5
:100A1C00E036F022E647F60809E647F60809E6470D
:100A2C00F60809E647F622700422600D18C6C33397
:100A3C00C608C633C6D5E0F41822E056F008A3E089
:100A4C0056F008A3E056F008A3E056F02275D0004B
:100A5C0075813F751801751903759F0002049FE499
:100A6C00C396F608E496F608E496F608E496F622A1
:100A7C00C6F4C608C6F4C608C6F4C608C6F4C62230
:100A8C00C3E7960809E7960809E7960809E796224E
:100A9C00C3E09608A3E09608A3E09608A3E096228C
:100AAC00E6F008A3E6F008A3E6F008A3E6F022605F
:100ABC000C08C6C313C618C613C6D5E0F422E0F65C
:100ACC0008A3E0F608A3E0F608A3E0F622CAC0E00B
:100ADC00E6F0A308DAFAD0E0FA22E0FAA3E0FBA3EE
:100AEC00E0FCA3E0FD22EAF0A3EBF0A3ECF0A3ED15
:100AFC00F022E5C754F84401F5C77901222518F511
:100B0C0082E43519F583221208684335001208680F
:100B1C00DD3500120868E83600120868F836001255
:100B2C0008682F37001208684437001208684D37E0
:100B3C0000120868A73700120868FF37001208680F
:100B4C004938001208686438001208688B380012A3
:100B5C000868A83800120868B43800120868F63A19
:100B6C00001208680F3B001208689B3B00120868D3
:100B7C00AE3B00120868BF3B001208687F3C0012B5
:100B8C000868F43D00120868AB3F001208682B405F
:100B9C00001208683540001208689D400012086871
:100BAC00AE400012086848410012086879410012F2
:100BBC0008687C4100120868A641001208680642C9
:100BCC00001208682A42001208684842001208689D
:100BDC00964200120868CF4300120868274400129E
:100BEC0008688044001208680B45001208683345F9
:100BFC0000120868694500120868784500120868F8
:100C0C00D645001208684346001208688046001258
:100C1C000868BB4600120868E646001208680047E0
:100C2C00001208681A4700120868EB47001208689F
:100C3C00F547001208682848001208688648001218
:100C4C0008689A4800120868A34900120868B64957
:100C5C0000120868CB49001208687C4A0012086828
:100C6C00DE4A001208687F4B001208688A4B00129B
:100C7C000868CC4C00120868E84C00120868404D1B
:100C8C00001208687C4D00120868964D0012086826
:100C9C00F84D00120868974E00120868D94E0012E1
:100CAC0008683F4F001208689351001208684252BE
:100CBC00001208687453001208681D54001208686A
:100CCC006E5600120868815600120868845600128D
:100CDC000868905600120868A45600120868AC56B2
:100CEC0000120868EC5600120868E55700120868F4
:100CFC00685800120868EA58001208686459001213
:100D0C0008682D5A001208684F5A00120868EB5AEE
:100D1C0000120868F75A001208681D5B0012086878
:100D2C00505B00120868BF5B00120868115D00126E
:100D3C0008689C5E00120868275F00120868506003
:100D4C0000120868306100120868616100120868BE
:100D5C008D6100120868966100120868C561001266
:100D6C0008687562001208682963001208689D63A0
:100D7C0000120868396400120868B7640012086829
:100D8C00FF6400120868356500120868726500126D
:100D9C000868A76500120868FE6500120868776687
:100DAC0000120868996600120868E380011208684E
:100DBC009C8301120868258601120868CB860112F3
:100DCC000868A28701120868C9870112086872882E
:100DDC0001120868E48901120868E989011208689F
:100DEC00EB8901120868B28A01120868F28A0112B2
:100DFC0008682C8C01120868A48C01120868FCA4E9
:100E0C000112086843A50112086864A5011208685C
:100E1C00B1A501120868DAA501120868E4A501124F
:100E2C00086850A601120868E2A6011208681DA7FE
:100E3C000112086879A701120868AFA701120868A7
:100E4C002EA80112086878A801120868B9A8011226
:100E5C000868F0A80112086802A90112086814A910
:100E6C000112086833A9011208683CA9011208682C
:100E7C00BDCE0112086800D00112086826D00112FC
:100E8C000868A8C601120868DEC60112086829C7DE
:100E9C000112086874C801120868F166001208682B
:100EAC00256800120868616800120868196A001247
:100EBC000868536A00120868CC6C001208680C6D44
:100ECC0000120868A06E00120868406F00120868D3
:100EDC00A26F001208682F70001208686770001269
:100EEC000868A77000120868387200120868E0736E
:100EFC00001208683D76001208686B7600120868CC
:100F0C00977600120868A076001208681E77001207
:100F1C0008687B7A0012086896D901120868F5B146
:100F2C00011208680AB201120868BDB20112086801
:100F3C00FDB20112086816B30112086851B3011210
:100F4C0008688AB301120868E8D601120868A0BEC6
:100F5C000112086822BF011208686FD101120868DB
:100F6C002FD20112086804AA01120868E534001295
:100F7C00086859AB0112086863C101120868F5C111
:100F8C0001120868F8C10112086880C201120868D1
:100F9C00EDC3011208687CD90112086819CD011241
:100FAC00086827CD01120868ACD9011208687FD6F1
:100FBC00011208688FD6011208689BD601120868C6
:100FCC00DFD60112086886D2011208680BD3011211
:100FDC00086871D301120868C57F00120868D0D95F
:100FEC0001120868B2D801120868519601120868FB
:100FFC00BD96011208686397011208685C9801128B
:10100C000868B79901120868139A01120868679A60
:10101C0001120868999A01120868389B0112086835
:10102C00759B01120868C49B011208689D9C0112F3
:10103C000868D39C01120868F29C011208686D9D27
:10104C00011208688F9D011208689C9D01120868A6
:10105C00F1D80112086805D90112086826C40112DA
:10106C0008684AC40112086863C401120868A2C463
:10107C0001120868F0C40112086823C5011208683F
:10108C0053C501120868BBC501120868BEC5011220
:10109C00086887C60112086891C6011208689EC6C6
:1010AC0001120868BFBB01120868E7BB011208688F
:1010BC0028BC0112086846BC0112086861BC011208
:1010CC000868C9BC01120868D5BC0112086834BD97
:1010DC000112086860BD011208686FBD0112086832
:1010EC0093BD0112086854BE0112086861BE01125A
:1010FC00086872BE0112086874D8011208688CD88E
:10110C0001120868447B00120868AD7C0012086864
:10111C00BF7C00120868D77C00120868F87C0012AB
:10112C0008680E7D00120868227D00120868A17DF7
:10113C0000120868067E001208689C7E001208687F
:10114C00757F00120868857F00120868947F001272
:10115C000868A3D501120868C7D501120868EFD535
:10116C000112086802CB0112086829CB0112086829
:10117C0047CB01120868AFCB01120868C9B801123D
:10118C000868E2B801120868F9B80112086802B9D7
:10119C000112086820B9011208682AB901120868FE
:1011AC0034B90112086847B901120868D3B90112A1
:1011BC00086848BA0112086876BA01120868C7BAFA
:1011CC000112086818BB0112086833BB01120868C9
:1011DC003DBB0112086864BB01120868AABB01126E
:1011EC0008681CD601120868BFD901120868A78CC0
:1011FC0001120868D38C01120868F18C011208687E
:10120C00048D011208681F8D011208687E8D011271
:10121C000868B18D01120868CD91011208682393FA
:10122C0001120868559301120868C19301120868ED
:10123C003A950112086862950112086877950112B7
:10124C000868879501120868C795011208681396FB
:10125C000112086823960112086837D00112086839
:10126C0047D00112086865D00112086880D00112BD
:10127C000868A7D001120868C8D001120868E2D02B
:10128C00011208681AD1011208683DD101120868D0
:10129C00E8D70112086820AE0112086827AE0112C7
:1012AC0008687DAF01120868ADAF01120868DDAFA8
:1012BC000112086810B00112086822B00112086807
:1012CC005EB001120868C4B00112086800B10112C6
:1012DC00086847B10112086874B101120868A0B11E
:1012EC000112086806D5011208681ED90112086897
:1012FC008AD301120868E9D30112086827D40112B5
:10130C00086868D4011208681AD5011208684AD511
:10131C00011208687FD50112086881D5011208688E
:10132C0083D50112086894D50112086896D501126C
:10133C00086899D501120868E2C8011208684FC9FB
:10134C000112086871C901120868A9C9011208685C
:10135C00DFC90112086895B501120868D8B50112E9
:10136C000868F6B5011208682CB80112086864B850
:10137C000112086889B8011208689DD70112086823
:10138C00E29D01120868C79E01120868B89F0112FD
:10139C000868C99F01120868DA9F0112086824A026
:1013AC0001120868C1A10112086822A30112086881
:1013BC0052A30112086820A40112086880A401122B
:1013CC0008684BD7011208682ED80112086850D94A
:1013DC0001120868BF340012086831340012086822
:1013EC006A3300120868973200120868F231001252
:1013FC000868693100120868193100120868E03079
:10140C00001208687430001208683830001208683E
:10141C00D12F00120868C32E00120868032E001288
:10142C0008688B2D00120868E02B00120868C42A8B
:10143C0000120868B92900120868FA280012086816
:10144C00B72800120868612800120868EA27001201
:10145C000868BD26001208688C25001208684A2509
:10146C0000120868C8230012086875230012086867
:10147C00DF2200120868382200120868D8210012F6
:10148C0008682B2100120868062100120868FD204C
:10149C0000120868CE20001208689A200012086812
:1014AC00702000120868122000120868381F001201
:1014BC0008682C1F00120868781E00120868123584
:1014CC00001208684519001208684D1E00120868C1
:1014DC00E21D00120868881D00120868641D0012C5
:1014EC000868351C00120868DF1B00120868BB1B5B
:1014FC0000120868071B00120868601A00120868BE
:10150C00731900758900C2C532120868381A0012A6
:10151C000868161A001208688CAA0100000080FBEB
:10152C000001363601010001020100010301000136
:10153C000401060605020000070100340801000F33
:10154C00090401010D0100FF0E0800001702000044
:10155C00190100FF1A0100011B0100FE1C0100080B
:10156C001D0200001F0100012001000121020000EA
:10157C002301000F240200002601000127010008AE
:10158C00280200FF2A0100072B0102402C01000059
:10159C002D0100012E0100012F0100FF30010B1C59
:1015AC00310800003A0100083B01000F3C0100012A
:1015BC00010371030103010301030103010322036E
:1015CC0002030103100300030003000300030003E4
:1015DC00000300034203000324030603000300037B
:1015EC000403120325032303250323030403040329
:1015FC000003000300034403000300032303000360
:10160C006503210035038103000305030003000378
:10161C0000030003250323030101710101010101F2
:10162C001101010131010101010180011001610170
:10163C003B0014006301730172016201430100015C
:10164C00130106013D0135000401120100010001E6
:10165C000001000104010401330133013C01440188
:10166C0032013600000100016501000135008101E5
:10167C0000010501820183010001660100010001E6
:10168C0003027102300160021102700201020202B7
:10169C0002028002100261023A00410063027302EE
:1016AC0072026202430200021302380000020002BE
:1016BC0004021202000200020002000204020402F0
:1016CC00370037003C0244020002390000020002DD
:1016DC0065020002350281020002050282028302C9
:1016EC00000266020002000203047104020460049A
:1016FC0011047004020402040104020410046104C5
:10170C0000041404630473047204620443040004AC
:10171C00130406040004000404041204000400046E
:10172C000004000451046400000400040004440498
:10173C000004000400040004650400043504810462
:10174C00640005040004830400046604000400041F
:10175C0003007100300160001100700031022003A1
:10176C00500480001000610000001400630073003E
:10177C00720062004300000013000600000000002D
:10178C00040012000000000000000000040004002F
:10179C00370037003C02440000000000000000004D
:1017AC00650000003500810000000500000083008A
:1017BC000000660000000000300000006000000027
:1017CC00C0000000800100000003000000060000C3
:1017DC00000C000000180000003000000060000049
:1017EC0000C00000008001000000030000000600A3
:1017FC0000000C0000000C00360001000600000088
:10180C000F0000000000000000000000000003FFBB
:10181C00FF00000403FFFF0000FFFF0FF4010005B1
:10182C00C4040320000100130B00000000000000A2
:10183C000003010F0007ECFDFDFDECDCDCCCBCACC7
:10184C00AC9C9C8C7C7C6C6C5C5C5C4C4C3C3C2CFC
:10185C002C1C1CD90B090CDF0BE50B030CF70BF143
:10186C000B0F0C150C1B0C270CEB0BD30BCD0B001F
:10187C00160F160D0B150B021102220F3303020E5D
:10188C00CF0CE10CE70C9D0BED0C970BA30B071485
:10189C000D14C714190B750F1F14130B140AE5D56F
:1018AC00C5B5A5A5958585756530301718192130F6
:1018BC001B1D1F30332F0D4D0D530D350D410D3BA1
:1018CC000D003C40423A3F3F392F473066303016CE
:1018DC00181920231A1C1E30320C0E020B040B0A92
:1018EC000708000F0001191618161618230300001C
:1018FC00034D4C4651181A250502FD0B210C470DC2
:10190C002D0C330C230DF30CF90C050DFF0C0204FC
:10191C00020101010109025B14611455144F14FBFF
:10192C0013F51301141F0BEF13DD13EB14C114008B
:10193C00BE040AFA064118A818C082C083900AF3A4
:10194C007409F0A37415F0900AF5741BF0A37415C8
:10195C00F09003837403F0A37415F0900AF77415D8
:10196C00F0A37415023C7774F712043374FD12095A
:10197C0018EAFEEBFF900A42E0640F6007122DECB0
:10198C00A2E55005121A048069123B91D2E1F09045
:10199C0003D4E0600F8E828F83A3A31256E0120C47
:1019AC00A5E96023122DEC4403F0900315E070437D
:1019BC001223BF120B09E4F07402120B0974FF120C
:1019CC0036DC120D17802C121A04125629124E8274
:1019DC006402701FE82405F8E93400121A0AF8743E
:1019EC00FF68700374FF69700A123B91D2E5F01224
:1019FC00306EF0740302373E122DF0D2E022F988DB
:101A0C00828983E0FAA3E0F9EA22C082C083120C37
:101A1C0057E9600479208011900A42E0640F700449
:101A2C0079018005900312E0F9023C78C082C083F2
:101A3C00EA240EF582EB1240257010EAFCEBFD7ADD
:101A4C00787B03120E3D123AE38006123DB9120662
:101A5C0019023C7874F0120433900312E0F4700312
:101A6C00021AF0900314E0602E900312E0640270EE
:101A7C002612107D8A088B098C0A8D0B90030A782C
:101A8C000812090075F014900A3EE084F50CE4F598
:101A9C000DF50EF50F803C12107D8A0C8B0D8C0E03
:101AAC008D0F90030E7808120ACA7808790C120967
:101ABC009990037CE0F50CA3E0F50DE4F50EF50F21
:101ACC007808790C120999900A5D122354F50CA32D
:101ADC00E0F50D7808790C1209999080B17808120C
:101AEC0007554004790080109080DD780812075566
:101AFC004004A908800279FF022BDB74F012043336
:101B0C00E9FEEAFF7A007B00ECF9120B43E9900343
:101B1C000AF0A3121BA0740F6F7005121BB480493E
:101B2C00900A42E06F900313701A121BA71208025E
:101B3C009080C9780C120ACA7808790C1203439069
:101B4C0080D18018121BA71208029080C9780C1241
:101B5C000ACA7808790C1203439080BD78081209E0
:101B6C00C190030E7808120AACEEA3F074016E70EB
:101B7C0020900A437808120ACA90030A7808120ABD
:101B8C000D900A437808120ACA90030E7808120ABC
:101B9C000D022BDBE4F0A3F0A3F02212234995E015
:101BAC00F50AF50BEF780822A3121BA0A3F022C0B4
:101BBC0082C083900AF174B5F0A37414F09003CC36
:101BCC007437F0A37419F01214CD9003B1E04408EB
:101BDC00023C7774F0120433900A437808120ACA54
:101BEC00E5084509450A450B600A900A43780C1232
:101BFC000ACA8015750C30750D00750E00750F0036
:101C0C00900A42E0780C1208029080D9780C1209E4
:101C1C00C19080E1122003780C7908120999900385
:101C2C0034780C120AAC022BDB74EB12043374F70D
:101C3C00120918EAFEEBFF1213E9E9F5146003022E
:101C4C001D008E828F83A3A3A3A3A3A3A3A3A3A3EB
:101C5C00E0FC12235A1256E0EAC333FAEB33FB8E44
:101C6C00828F83A3A3780C120ACA9080CD780812B5
:101C7C000ACA780C79081203C3740F6C7003021D26
:101C8C001B900315E064026003021D1BEE240C1272
:101C9C003B9470757510307511007512007513003A
:101CAC00EE240B123B9478101208028A088B09F56B
:101CBC000AF50B781079081209D47810790C120AED
:101CCC008C402E750830750900EC78081208028AD1
:101CDC00108B11F512F51378087910120999780CFC
:101CEC007908120A8C400A900A43780C120AAC80CC
:101CFC001E7514FD8E828F83A3E51412446E12148C
:101D0C00C174091208B302522C900A43121BB5EE8F
:101D1C00240E123B9460DD123351120B3DEA4B60E2
:101D2C00D37408120B0912335C1206FE7508FF758A
:101D3C0009FF78081208858E828F83A3A3A3A3A31F
:101D4C00A3A3A3E0F97404120B09AC82AD831214A3
:101D5C003D74041208B380A9C082C083900312742E
:101D6C00FFF012149D900A5DE0F8900A42E0686062
:101D7C000312127B7908120C45023C78C082C08396
:101D8C00900338124880602B12487D701F900338E6
:101D9C001256159003811243C0900338E4F0A3F05F
:101DAC0079021212A5790212126F80077A387B031E
:101DBC00120C819003D4E0601A900A42E0640F6028
:101DCC0012121F1E1206F67A227B03120D83740464
:101DDC001208B3023C7874F41204339003D4E0601C
:101DEC005D90031F74DFF0A37414F0900334780833
:101DFC00120ACA90808D78081209C1780812087DE1
:101E0C007A197B03120D8374041208B3120C57E970
:101E1C00701F1235331214318A088B09A808A909CE
:101E2C009003381243C0E8496014123DDFD2E680BB
:101E3C000C900A47E004F0900338E4F0A3F0022879
:101E4C00B274F7120433E9FE1256DD1213E3794033
:101E5C00120C45EEF91214D91214F19003D5E0606E
:101E6C0008900A42E0F9120DA702447B74F41204A4
:101E7C0033EAFEEBFF900A42E0F5088E828F83A3D3
:101E8C00E070719003D4E06019740F65086013E57D
:101E9C00A8F8C2AF90032874D3F0A37414123AEDCF
:101EAC00805E121F0F640F90035F60421256E012A7
:101EBC0013E31214F1740F6508701F121F0FF990C1
:101ECC0003347808120ACA9080AD78081209C1AAA6
:101EDC0008AB09AC0AAD0B120D9B121F1E1206F6B5
:101EEC007A227B03120D8374041208B380061256F7
:101EFC00E01213E38E828F83742C12446E120C5DED
:101F0C000228B290035F12564F2408F582E8122D76
:101F1C00F62290032874D9F0A37414F090033422A1
:101F2C00C082C0837902121275023C7874F41204D8
:101F3C0033E9900A426003021FE1E0640F70030270
:101F4C001FE6900313740F123F91FC7D00900A5D05
:101F5C00E0FA79011214FD900A3DE0603A900A5AB9
:101F6C00E0603490033174BBF0A37414F0900A3E1B
:101F7C0012200375830375820A78081209C19080B8
:101F8C009D78081209C1780812087D7A2B7B031200
:101F9C000D8374041208B3900A5DE0640F7005128F
:101FAC00127B801C90030774E5F0A37414F090036B
:101FBC000E1206F67A017B03120D8374041208B319
:101FCC00900381123DB11230D9A2E450031214AF28
:101FDC001214A38018E0640F7013900A5AE0600585
:101FEC0079021212691214A97908120C457A817BB4
:101FFC0003120C810228B212200722E0F508E4F546
:10200C0009F50AF50B2274F51204337508007509ED
:10201C0000A2AFE433F50AC2AF90037880078E08B4
:10202C008F09122FC012328F601C123B91A2E55007
:10203C00ED7808120885EEFCEFFD7A787B03120E22
:10204C004374021208B3E50AA2E092AFEE4F60119E
:10205C00122DECD2E4F0EEFCEFFD7A787B03120E3D
:10206C003D0236B1C082C083A2AFE433FAC2AF9056
:10207C000378800D1221C3A2E550031220C3122055
:10208C00F212488070EEEAA2E092AF023C78C08275
:10209C00C083A2AFE433FAC2AF9003788012123C33
:1020AC0056E9122EB25006C2E7F01220C31220F2EB
:1020BC0012488070E980CF123DA8E9122DF6D2E4C7
:1020CC00F022C082C083A2AFE433FAC2AF9003788F
:1020DC00800D1221D0A2E75003C2E4F01220F212BC
:1020EC00488070EE80A0E824FBF582E934FFF5838C
:1020FC0022C082C0837910021F32C082C083900A32
:10210C005AE06005790212126F79201212757A4327
:10211C007B03120D957A3A7B03120D95023C78C025
:10212C0082C08374EF1209189003D4E4F090031565
:10213C00F090031204F0900317E4F0A2AF33FAC24C
:10214C00AF90037880101221D0A2E15006D2E0F0BB
:10215C001221C31220F212488070EBEAA2E092AF77
:10216C007910120C457908120C45900316E06004A6
:10217C00E4F080408518828519837409F07401128B
:10218C000B0974E0F0900A571256157402120B09E1
:10219C001243C0900A6AE0C0E07404120B09D0E04C
:1021AC00F07405120B09E4F0740E120B09E41236EC
:1021BC00DC120DD702379FE82410F582E9122DF6B8
:1021CC00C2E1F022123DA8E9122DF62274F4120499
:1021DC0033900317E0704112487D700B9003177415
:1021EC0001F07920121269750830750900750A0022
:1021FC00750B00900A42E078081208029080C178B2
:10220C00081209C1780812087D7A437B03120D89E4
:10221C0074041208B30228B2900355E004F064046D
:10222C0070C5792012127512148B80E974F01204A7
:10223C0033900A42E0FE900317E4F0900355E0045B
:10224C00F06404700912149112148B0222DC7920B0
:10225C00121275900A75E0640F6019900A421225EB
:10226C00415011900A75E0FE900318E0F9900A4273
:10227C00F0120DAD750C30750D00750E00750F005C
:10228C00900A42E0780C120802EE1260E1900355BD
:10229C00E02401F50AE43400F50BE508850AF0A406
:1022AC00C508A8F0850BF0A428F8850AF0E509A468
:1022BC0028F509E4F50AF50B780C790812099978D8
:1022CC000C12087D7A3A7B03120D8374041208B346
:1022DC00022BDB74F412043390031712236B70057A
:1022EC0012149180557920121269900349747FF071
:1022FC00A37414F0900A42122354F8A3E0F990034B
:10230C0055122349E88508F0A4C8AAF08509F0A461
:10231C002AFA8508F0E9A42AF9E8C333F8E933F975
:10232C0088088909E4F50AF50B780812087D7A43C8
:10233C007B03120D8374041208B30228B2E024014B
:10234C00F508E43400F50922E012235AE022C333E5
:10235C00F8E433F974CB28F582740A39F5832274C6
:10236C0001F0900A42E0640F22C082C08374FD1217
:10237C00091890031274FFF0900315E06401701FAC
:10238C00E4F090037FE060261223BF120B09E4F007
:10239C007402120B0974FF1236DC120D17800F90A9
:1023AC000A5DE0F8900A42E068600312127B740345
:1023BC000237A1900A6A124CB074012274F0120414
:1023CC0033EAFEEBFF900317E0700302253EEE2488
:1023DC002B12585C7003A3E069600302253E123691
:1023EC00B6120C9FE9700302253E900317E4F0909F
:1023FC000A5AE06005790212126F9003ABE0600597
:10240C00790112126F8E828F83A3A3A3A3A3A3A31C
:10241C00E0A2E4500A791012126F7980120C4579FF
:10242C00201212757A437B03120D958E828F83A333
:10243C00A3124D78121A0A2400E439FB540F9003AE
:10244C0013F08A088B09740C7808120ABBE508543F
:10245C0001A3F0EA540F900318F0EAC4540F900A49
:10246C005DF0900A75E0640F601712254150128ED2
:10247C00828F83A3A3123DB5A3E07005900A7580EB
:10248C0003900318E0900A42F0900355E412236D78
:10249C007003022530E0F9EEFAEFFB120DA1900368
:1024AC0015E06402703E7A3A7B03120D95900A4255
:1024BC00E0F9750C30750D00750E00750F00780C79
:1024CC00120802E91260E1E4F50AF50B780C7908C0
:1024DC00120999780C12087D7A3A7B03120D8374D9
:1024EC00041208B38E828F83A3A3A3A3E0FC7D0008
:1024FC00900A5DE0FA79021214FD7A017B03120D49
:10250C00959003077473F0A37414F090030E1206E5
:10251C00F67A017B03120D8374041208B37910123E
:10252C000C45800E900315E0640270061214911293
:10253C00148B022BDBE0F8900318E0C39822C082C6
:10254C00C0839003407479F0A37414F09003497421
:10255C007FF0A37414F09003527497F0A37414F0EA
:10256C00900AEF746DF0A37414F09003D27423F0FE
:10257C00A37419F01214CD9003B1E04410023C770F
:10258C0074F212043374F71209189003ABE0600371
:10259C00022667900A3CE070030226678A828B83CE
:1025AC00A3A3A3A3A3A31263098A828B83A3A3A3CC
:1025BC00A3A3E0F8740758FCE8C4540F5407F509BA
:1025CC008008EE2402FEEF3400FF8C0874FF25080F
:1025DC001C046027900A5BC0828E828F83121A0FB4
:1025EC00F875830AD082E0687003A3E06970D37E2B
:1025FC00028024EE2408FEEF3400FF85090A74FFE4
:10260C00250AF509046054EEFCEFFD7A6B7B0A1287
:10261C001305E960DE7E039003ABE0D2E21236DCF8
:10262C00120C87790112126F750CA0750D03780CC2
:10263C00120885750C01750D00780C120885900A2E
:10264C00571206FE7406120B09AC82AD83EEFA79B2
:10265C0005120CB174061208B38051900A42E06462
:10266C000F6049E0F8900A5DE0686040900A5AE01B
:10267C00703A120C51E96034A2AFE433FEC2AF9051
:10268C000315E064027020900312E0F46019124804
:10269C007D7014900378124880700C7A017B0312C1
:1026AC000D957900121473EEA2E092AF7409022A10
:1026BC00BC74F0120433EAFEEBFF7508008E828FB7
:1026CC00831227D740030227D4900A42E0640F708C
:1026DC00030227D4900A57E0F47003A3E0F47003CC
:1026EC000227D4900A51E0F47003A3E0F4700302C3
:1026FC0027D48E828F83A3A3A3A3E06401700575F6
:10270C00090280258E828F83A3A3A3A3E070057595
:10271C0009018015F460030227D4900315E06003CF
:10272C000227D47509017508017A437B03120D95B4
:10273C007A3A7B03120D957A017B03120D95A2AFA9
:10274C00E433F50AC2AFE509900315F090030EE4EB
:10275C001227E012487D900317700474018001E485
:10276C00F0E508900316F0A2E090035550047403B2
:10277C008001E4F0E50AA2E092AF122A8CFB79E129
:10278C0012117F900317E064017005792012126911
:10279C009003497485F0A37414F0750C30750D001A
:1027AC00750E00750F00900A42E0780C120802902A
:1027BC0080C1780C1209C1780C12087D7A437B0316
:1027CC00120D8974041208B3022BDBA3A3E024F5C9
:1027DC00C3941222121BA1A3F0A374FFF02274F075
:1027EC001204331228A41202EA88088909E4F50AB3
:1027FC00F50B900A42E0640F604812107D8A0C8B36
:10280C000D8C0E8D0F90030E780C79081209D4786C
:10281C000C120840502C750C30750D00750E00759F
:10282C000F00900A42E0780C1208027808790C121A
:10283C0009D49080C178081209C190030E7808124F
:10284C0009007A8E7B03120D95780812087D7A8E1A
:10285C007B03022BD374F4120433900A42E0640F0E
:10286C00602F900A5DE0602E7A4C7B03120D95125E
:10287C0028A41202EA88088909E4F50AF50B7808FD
:10288C0012087D7A4C7B03120D8974041208B380F4
:10289C00057910121275800E900A621256197A146C
:1028AC007B00221208B37F0402066DC082C08390A5
:1028BC00035F12488060061256DD120E9D90035C79
:1028CC0012419D7408F0A3E4F0A3F09003D4F090AF
:1028DC000361F07C0BFDF97A627B03120E0D7C0B0D
:1028EC007D0079007A6D7B03120E0D023C7874F733
:1028FC0012043374F7120918EAFEEBFF1236C8748F
:10290C00051229AE74031253201243B3EE2430FC8B
:10291C00EF3400FD8C828D83125330122999600B99
:10292C00EE242E1236CB74FFF0A3F0EE242EEF34EF
:10293C00001C1CFD8C828D83A3E0C0E08A828B83FB
:10294C00123DB1D0E0122999888289831247D22492
:10295C00031253FC12130B7408120B097403F0903E
:10296C000A571206FE7402120B09AC82AD8379036E
:10297C00EEFAEFFB120CAB74021208B3E9F5087017
:10298C0007EEFAEFFB120B91A90802373C125668BE
:10299C00122AA98A828B83E8F0A3E9F08C828D83BA
:1029AC00E022F0A3E4F0EE240D12515C2274F2123A
:1029BC000433EAFEEBFF8C088D09890A122A8C126B
:1029CC002AA0740E120B09122AAEE824FF18E9345F
:1029DC00FFF988828983E50A12532C900A5C125302
:1029EC0029900A5B1253297410120B09122AAEEEAD
:1029FC002404FCEF3400FD880B8A828B83E0F50CF9
:102A0C008C828D83E0250CC3950B12533FE8F0A309
:102A1C00E9123F84A3A3A3A3A3A3A3A3E06403701D
:102A2C0008122A94F0A3E4800AEE240EF582EF1229
:102A3C005856A31229B17409F0750C0B750D00785A
:102A4C000C1208857C627D03125231120E0774023F
:102A5C001208B3750CFF750DFF780C120885AC08C5
:102A6C00AD097903EEFAEFFB120CAB74021208B34A
:102A7C00E9F5087007EEFAEFFB120B91A908803309
:102A8C00EE2402FAEF340022EE240EF582EF1251FE
:102A9C005F740122FB8A828B83122AA9221243C6FD
:102AAC00F922E0F50CA312533012536CE50CF02212
:102ABC001208B37F0602066D74F0120433EAFEEBC3
:102ACC00FF890B8C0E8D0F750A00A2AFE433F50C49
:102ADC00C2AF900378803F122BA85037122BB564ED
:102AEC00037030EE24F9FEEF34FFFF850882850970
:102AFC0083A3A3E02405FCA3E03400FDEEFAEFFB76
:102B0C0012130BEE24FF1EEF34FFFF7410250AF591
:102B1C000A150B123F341260F1E50B6006E508450F
:102B2C000970B4E50CA2E092AFA2AFE433F50CC28D
:102B3C00AF90037880232402FAE5093400FB8A82E3
:102B4C008B83123A84122BC48A828B83123A6C12B6
:102B5C002BC4050A150B123F34123F496027122B68
:102B6C00B5640270F1122BA8E50840CA123C57E577
:102B7C0009123B97A2E550DE850E82850F83740106
:102B8C00F0E50B70D1E50CA2E092AF8E828F83E55D
:102B9C000AF0EE24FFFAEF34FFFB8033E508123D18
:102BAC00A9E509122DF6A2E622850882850983A3E0
:102BBC00A3123DC8124E8E22E08E828F83F0EE243B
:102BCC00FF1EEF34FFFF22120D8974041208B37F2D
:102BDC000802066D74EC12043374F612091889118C
:102BEC008A0F8B0E851882851983E4F090037EE0A2
:102BFC00C3940840057510078003E0F510E5103309
:102C0C00333354F8F8900A41E0282437F50CFA7B5A
:102C1C0000120E138A088B09EA45097003022D7DF8
:102C2C00EA2402F50AEB3400F50BEA250CF8EB3438
:102C3C0000F9850A82850B831243C0EA2404F50C43
:102C4C00EB3400F50D850C82F583E4F0900A41E03D
:102C5C00F512F8C3E498F895E0F9850A82850B83A0
:102C6C00E028FEA3E039FF75130078121208859056
:102C7C000A3F12531AEEFAEFFB120E0774021208F7
:102C8C00B3851882851983AC82AD83A910EE24FF1D
:102C9C00FAEF34FFFB1214378A128B13AE12AF13F8
:102CAC008E828F83E4122BC9E50EC454F0F9900385
:102CBC00D5E0C4333354C0F8900A3BE0A2E0E433CF
:102CCC0013134849440F122BC5E50FC454F045119A
:102CDC008E828F83F0EEF8850A82850B83E0FA856D
:102CEC000C82850D83E02AC398F0850A82850B83BC
:102CFC00EEF0A3EFF0E508240E125852A3F0E5080D
:102D0C00240D1258527409120B09E4F0750A0BF5D4
:102D1C000B780A1208857C6D7D03E508241BFAE507
:102D2C00093400FB120E0774021208B38518828551
:102D3C001983E0600EE508240EF582E509123B9735
:102D4C004408F0E4F50A780A1208857403120B099A
:102D5C00AE82AF83120C8DEEFCEFFDAA08AB09120C
:102D6C000CAB74021208B3E9AA08AB096007120E87
:102D7C00197A007B00740A1208B37F0C02066D747A
:102D8C00F31204338A0A8B0BA2AFE433F50CC2AFF7
:102D9C00750800750900900378802C122FCB5024F5
:102DAC00850A82850B83A3A312531A8E828F83A369
:102DBC00A31256E0120C93E9600A122DECC2E6F055
:102DCC008E088F09122FC012328F70CFE50845097B
:102DDC006006122EB8D2E6F0E50CA2E092AF80129B
:102DEC00122DF022EE2411F582EF123F71E0221227
:102DFC0008B37F0502066D74F0120433EAFEEBFF94
:102E0C008C0C8D0D750E00A2AFE433F50FC2AF75AF
:102E1C0008007509009003788025850A08850B0940
:102E2C00122EB8D2E4F0E508123C57E509123B9794
:102E3C00D2E7F0E50A24FBF582E50B34FFF583E0DD
:102E4C00F50AA3E0F50BE50A450B6043E50A123DD4
:102E5C00A9E50B122EB250DB850A82850B83A3A346
:102E6C001206FEAC0CAD0DEEFAEFFB120C997402CF
:102E7C001208B3E960BDE5084509609EE508240D1C
:102E8C00F582E50912328170061230D3D2E4F0E5F6
:102E9C000FA2E092AFE50845096006120B8B750E88
:102EAC0001A90E022BDB122DF6A2E722E508123D3A
:102EBC00A9E509122DF62274F212043374FE1209DC
:102ECC0018750C00750D00851882851983E4F0A324
:102EDC00F0A2AF33F50AC2AF900378126309803BBE
:102EEC00EE24FBF582EF34FF1260EF780C120885AC
:102EFC00EEFCEFFD7A787B03120E4374021208B3DA
:102F0C00EEFCEFFD851882851983AA82AB83120E25
:102F1C0031AE08AF0990037EE014F0EE4F6027123B
:102F2C002FCB5019EE240BF8EF123A7B24FFF0A3B1
:102F3C00E034FFF08882898312488060A38E0C8F66
:102F4C000D122FC08095E50AA2E092AF90037EE0AF
:102F5C006031900A42E0640F60069003D4E0702365
:102F6C007A567B03120D959080C11206F67A567B29
:102F7C0003120D8974041208B3800874F012446EA5
:102F8C00120B7F851882851983AA82AB83120E37A8
:102F9C008A0A8B0BAE0AAF0BEE4F601312142B1276
:102FAC002DECA2E28E828F83A350D074E980CE7474
:102FBC0002022ABCEE24FBF582EF34FFF5832212C9
:102FCC002DF0A2E72274F7120433EAFEEBFF121481
:102FDC002B123DAE120619E96401900A5E700AE0EC
:102FEC002401F8A3E034008003124D78F9EE240B91
:102FFC001236CB1243C090037EE07021900A42E05F
:10300C00640F70197A567B03120D959080C11206CD
:10301C00F67A567B03120D8974041208B3E5A8F8EE
:10302C00C2AF90037EE004F0E8024D3774F712044F
:10303C0033EAFEEBFF12306EF012142BEEFCEFFDB8
:10304C007A787B03120E3DE5A8F8C2AF90037E128E
:10305C003AEB900A42E0640F70057908120C4502B5
:10306C00447B122DF0C2E42274F712043374EA127A
:10307C000918EAFEEBFF900A3BE060468518828552
:10308C0019837401F0120B09E412315D120B09AAB9
:10309C0082AB8312130B8E828F831230D9C0E074F3
:1030AC000A120B09D0E01247C4740B120B09AA8246
:1030BC00AB83120CC9851882851983AA82AB831243
:1030CC000DD7741602373E850882850983A3A31297
:1030DC003DC8E02274F7120433EAFEEBFF121443EE
:1030EC0074DC69601E74DD69601974E469601474C1
:1030FC00F369600F74DE69600A74DF69600574DB64
:10310C00697007EEFAEFFB120C4B02447B74F7125A
:10311C00043374EB120918EAFEEBFF85188285194B
:10312C0083740612315D120B09AA82AB8312130B46
:10313C001236BF740A120B09AA82AB83120CC98512
:10314C001882851983AA82AB83120DD774150237A6
:10315C003EF0EE2413FCEF3400FD74022274F712DF
:10316C00043374F7120918EAFEEBFFEE2430123B1D
:10317C00946070123B88851882851983AA82AB8370
:10318C0012130B7408120B097403F0900A571206F1
:10319C00FEEE242E1236CB1206FE900A6AE0F9746B
:1031AC0004120B09AC82AD83EEFAEFFB12143D74E2
:1031BC00041208B374DC69602374DD69601E74E466
:1031CC0069601974F369601474DE69600F74DF69E7
:1031DC00600A74E869600574DB697007EEFAEFFB4E
:1031EC00120C4B02373C74F21204338A088B0975AB
:1031FC000A00750B00750CE7A2AFE433F50DC2AFF6
:10320C0090037880078E0A8F0B122FC012328F60BA
:10321C0035122FCB50EF12327B70EAEE2432123281
:10322C00878A828B83A3A3E06870DA780A120885F8
:10323C00EEFCEFFD7A787B03120E4374021208B396
:10324C0090037EE014F0E50DA2E092AFEE4F601318
:10325C00EEFAEFFB12142B79F0EEFAEFFB120C4B9B
:10326C00750C00A90CAA08AB09120C4B022ABFEE74
:10327C00240DF582EF122DF6640122F582EF122D4A
:10328C00F6F822E0FEA3E0FFEE4F2274F4120433B2
:10329C0074F7120918EAFEEBFF8E828F83A3E064A9
:1032AC00F370030233458E828F83A3E064DF7003D7
:1032BC000233458E828F83A3E064E8607C8E828F1C
:1032CC0083A3E064DB60721213E9E9F5087062EE27
:1032DC00240E123B94605A123351120B3DEA4B6090
:1032EC00507408120B0912335C1206FE7508FF7538
:1032FC0009FF78081208858E828F83A3A3A3A3A34A
:10330C00A3A3A3E0F97404120B09AC82AD831214CD
:10331C003D74041208B3E9F50874F365086012747F
:10332C00DF6508600C74E86508600674DB6508707E
:10333C000F8E828F83A3E508F0EEFAEFFB1213DDFC
:10334C0074090228AFEE240FFAEF3400FB7909223E
:10335C007402124CBE74FFF0A3125CE3A32274F44B
:10336C00120433EAFEEBFF7508008E828F83A3A351
:10337C00A3A3A3A31227D740037508E88E828F83DB
:10338C00A3A3A3A3A3A3A3A3A3A3E0C39410400547
:10339C007508E880138E828F83A3A3A3A3A3A3A392
:1033AC00A3A3A3E0640F600B9003B1E05408700377
:1033BC007508E8EE240B1232878E828F83A3A3A3A9
:1033CC00A3A3A3A3A3A3A3E0C398500DEE240B12B5
:1033DC003B94640F60037508E8900A5BE0F470039B
:1033EC00A3E0F470037508EC7A237B00120E97901F
:1033FC00035F12563390035F1248806020750A23D6
:10340C00750B00780A120885EE2402FCEF3400FDDF
:10341C001256DD120E0774021208B3800375081AD7
:10342C00A9080228B274F6120433EAFEEBFF8E826E
:10343C008F83A3A3A3A3A3A3A3A3E0900A42125C2C
:10344C00FE900A5D125CF6900A3D125D039003D566
:10345C00F0F91211979003D5E0601AEE2404FAEFFC
:10346C003400FB795012117FEE2406FAEF3400FB86
:10347C0079E112117F9003D412236B6004740180E4
:10348C0001E49003611241FC120885EE240DFCEF5F
:10349C003400FD7A627B03120E0774021208B378B3
:1034AC0008120885EE2418FCEF3400FD7A6D7B03BE
:1034BC0002541074F7120433EAFEEBFF8E828F83F2
:1034CC00A3E070061256DD1213E38E828F83742CE8
:1034DC0012446E120C5D02447B74F7120433EAFE44
:1034EC00EBFF90035F124880600D1256DD90035F76
:1034FC00E4F0A3F0120E9D8E828F83740812446E3A
:10350C00120DD702447B74F61204339003D4E0609E
:10351C0013900361E0700D123533121431EA4B60D5
:10352C0003120B91025418900A3DE0FB900A5DE0E7
:10353C00FA900A42E0F92274F6120433EAFEEBFF29
:10354C00750800121191E975F064A4F8A9F07AFFDE
:10355C007B001202E2E8FA8E828F83A3A3123A71E7
:10356C00FBA3A882A983A2E05006900A3BE060036B
:10357C00750801EBA2E15021E508A2E0501B8882FE
:10358C008983E0FCA308A983EE242F12413B9C40C5
:10359C00057508018003750800EBA2E25011E508DF
:1035AC00A2E0500B88828983E0C39A40218006E513
:1035BC0008A2E050199003D4E06013900361E0700E
:1035CC000D123533121431EA4B6003120B91025475
:1035DC001874F512043374E7120918EAFEEBFF7540
:1035EC000A018E828F83A3A3A3A3A3A3A3E0A2E2C9
:1035FC00507EEE242BF582EF34001253181236B69F
:10360C00121425E9706A908070E06401700DEE244C
:10361C001B1243A37005750A00805575080B7509BC
:10362C000078081208851236BF7410120B09AA8292
:10363C00AB83120E0774021208B3120C8DE9FA74E4
:10364C000E120B0985820885830978081208857586
:10365C0008307509007808120885EE242B1236CB39
:10366C001206FE1256057901120CB174061208B33B
:10367C00851882851983741012315D120B09AA8288
:10368C00AB831212FFEE242B12560E740B120B0985
:10369C001243C0740D120B09E50A1236DC120DD759
:1036AC0074191208B37F0302066DEE2413FAEF347B
:1036BC0000FB22EE2408FCEF3400FD22EE240EF574
:1036CC0082EF12515F22851882851983EAF0A3EBF1
:1036DC001236E022124CBEAA82AB8322C082C08377
:1036EC009003D5E06003120D0B023C78C082C083BE
:1036FC009003CC7433F0A37419F0A3749AF0A374F0
:10370C0018F0A3742BF0A37419125B3BF0900AEB26
:10371C007419F0A37414F0900AED7413F0A37414DC
:10372C00023C70C082C083EAFCEBFD7903024822A4
:10373C0074091208B302447BC082C0837908025A10
:10374C00F1C082C08374FE120918800D7A787B0355
:10375C00120E371236D2120C8190037812488070F8
:10376C00EB90037A124880600F7A7A7B03120E3743
:10377C001236D2120C8180E9900378E4F0A3F09019
:10378C00037E121BA190038B74B5F0A3740BF07421
:10379C0002800274111208B3023C7874F6120433DE
:1037AC00E9FF8F0874CD2508F5827418124A72FE51
:1037BC008E08FA7B00120E13EA4B600BEA250812F6
:1037CC004B4FA3E4F080297A027B00120E13EA4BD4
:1037DC00601A8F0874B52508F5827418123C5CF0D9
:1037EC00A3741AF09003ACE0F9120E1F7A007B0060
:1037FC00025418E9FD74062DFCEAA2E0501EEC758B
:10380C00F00A84A8F0E86014740A2CC398FCE8C38E
:10381C0094054004740A2CFC740B2CFCEDC394131B
:10382C004004781480027806E82C2409F8E434006B
:10383C00F97A0A7B001202E2E8F9020865C082C03C
:10384C00839003B1E05402600A120DDDE960047943
:10385C000180027900023C78C082C0839003B1E001
:10386C005402601690037EE0700C12487D600B12BF
:10387C003D9EA2E75004790180027900023C78C099
:10388C0082C08390806EE0F8900380E0C39850056E
:10389C00120E1380047A007B00023C78C082C08335
:1038AC00120C817900023C7874F712043374FE1206
:1038BC000918851882851983EAF0A3EB123AC860BF
:1038CC001114606C24FE606F24F870030239F60248
:1038DC003A51900A42E0640F6018120C57E97012CA
:1038EC008518828519831256E0900AEF123DB112A9
:1038FC000619900A6AE0C0E0851882851983124780
:10390C00A2D0E0123ABDF58388827414F085188237
:10391C0085198312531A7A7A7B03120E31E5A8F8B3
:10392C00C2AF900380123AEB7920120C450242256B
:10393C00123AB0741580D5123A61A3A3E070030259
:10394C003A51851882851983123A71FAA3E0FB8AE1
:10395C00828B83E0C0E0851882851983E0FCA3E0AC
:10396C00CC2406F582EC1236CED0E012565C88825E
:10397C008983EAF0A3EB123ABDC8123C57E8123B1C
:10398C00978518828519836008123A92403F023A53
:10399C0051123A925022123A9BFA85188285198359
:1039AC00A3E0C82406F582E812328A741928F5823D
:1039BC007419124A726A6015851882851983123A35
:1039CC0084E06408707F123A9B64087078123A9B0A
:1039DC0014123AD6240AC0E0851882851983123D48
:1039EC00B1D0E0123AD604023918123A61125615C7
:1039FC0088828983E0541F6403703AE0C41354072F
:103A0C00F8E58228F8E5833400F9E82402F582E928
:103A1C00123B97641F701EA3A3A3E0C0E08518821D
:103A2C00851983123A6CD0E0123AC86407700612FA
:103A3C003AB07431F08518828519831230DB643109
:103A4C007003023919851882851983AA82AB8312F7
:103A5C000C81023939851882851983A31247E52216
:103A6C00123AA6A322E02402F8A3E0123A7B2234F5
:103A7C0000F988828983E022123A8822123FA6C874
:103A8C002406123F6E22123A88E014C39409228550
:103A9C001882851983123AA6E022E0F8123AB6A3EE
:103AAC00A3A3A322851882851983A3E0F5838882BA
:103ABC0022123AC122124CBE123FA622123AC1F572
:103ACC00838882A3A3A3A3A3E022123AC1C824062D
:103ADC00F582E8122DF622E5A8F8C2AF90037FE03C
:103AEC0004F0E8A2E7A2E792AF22C082C083900361
:103AFC00831248806008123AB712061980027900C6
:103B0C00023C7874F7120433EAFEEBFFEE240D123C
:103B1C002A97124140F8A3E0F91236C81243C0EEBE
:103B2C002435123B94C0E0EE24131236CBD0E0F0D7
:103B3C00EE2436123B94C0E0EE24141236CBD0E0C7
:103B4C00F0EE2438123B94C0E0EE24181236CBD0A1
:103B5C00E01256391206FE123B88EE2431F582EF44
:103B6C00123F44120CAB74021208B3E9F50870074B
:103B7C00EEFAEFFB120B91A90802447BEE2426FC13
:103B8C00EF3400FD22EE2410F582EF122DF622C048
:103B9C0082C083120C57E9600479208002790102FB
:103BAC003C78C082C083EA123DA9EB123B97D2E06D
:103BBC00023C77C082C083123C4F123281701112CA
:103BCC003C64400C8A828B83A3E0F9120C4B80710D
:103BDC00EA123C57EB123B97A2E650128A828B8377
:103BEC00A3E0F9900AF1123DB11206198053123C70
:103BFC004F123281700D123C6450088A828B837490
:103C0C003080358A828B83A3E0641B8A828B83701D
:103C1C000474228023A3E0700F123C4F12328A747A
:103C2C00D928F5827418800D123C4F12328A74B563
:103C3C0028F5827418123C5CF09003ACE0F9120E7B
:103C4C001F8029EA240DF582EB22E82410F582224C
:103C5C00124A768A828B8322EA2410F582EB122D8B
:103C6C00F6A2E322F09003B1E04402F0D083D082BC
:103C7C0002086574F7120433E9FE12487D700302E2
:103C8C003D9BEE6010741B6E701212561EE06405A4
:103C9C007003023D69125A1BE4023D6D74E96E70AB
:103CAC005B123DD1700B120DE3E96005123DEA6029
:103CBC005B900381123DCE9003816039123DED90F3
:103CCC000381700B123DCE14F01212BD023D9B12FB
:103CDC003DDCC2E7123F8C240DF582E81260DB70EC
:103CEC000C900381E0F8A3123D9ED2E2F0123DB994
:103CFC001206198076125A1E74E9806574E16E7092
:103D0C003F120DE3E96056123DEA7051900A64E0EF
:103D1C00C0E0124D75C82412F582E81236CED0E000
:103D2C00F0900A53E0C0E0900381123DB5123DB50E
:103D3C00D0E0F0900A53E004F079011212A5804F04
:103D4C00741C6E70189003811256E0900AF7123DA5
:103D5C00B1120619900381E4F0A3F08032125A1BC1
:103D6C00EEF09003811256E0120B7F123F5DE0548F
:103D7C00806010900A6AE0F91211BB900A69E0F9B0
:103D8C001211AF900381E4F0A3F07910120C4502EC
:103D9C00447BE0C8123DA9E8122DF622E82411F567
:103DAC008222900AF5123DC8221247E2229003812A
:103DBC00E0FAA3E0FB900AED123DC822E0F8123ABB
:103DCC00B622E0F8A3E0C82412F582E8122DF62200
:103DDC00E0F8A3E0C82410F582E8122DF622900337
:103DEC0081123F64E054042274F4120433750A0007
:103DFC00750B00A2AFE433FFC2AF12487D60030223
:103E0C003EEC123DAE120619E94410F8900378808E
:103E1C000985080A85090B123F34123F49700302C9
:103E2C003EEC122EB8586870E8780A120885AC0877
:103E3C00AD097A787B03120E4374021208B3900317
:103E4C0081E508F0A3E509123F8C123DA9E8122E7A
:103E5C00B25003023EF390037FE014F0EFA2E09225
:103E6C00AF900381E0240EF8A3E03400F9880889B0
:103E7C00098882F5831256E0900381123AA1F91257
:103E8C000B43E990037CF0123F82E05480601812DF
:103E9C004D75C82413123F411211BB124D75C82425
:103EAC0014123F411211AF123F5DA3E05401606642
:103EBC0090037C1248806049123F766044123F7632
:103ECC00F8790090037C1256E01202EAE8C0E01286
:103EDC003F51D0E0123F91C3941340117402800EF5
:103EEC00EFA2E092AF803E90037E023E65E4C0E01C
:103EFC00900382E0C8241AF582E81236CED0E08016
:103F0C0010123F517401123F8C241AF582E8122AC8
:103F1C009AF07903800C900381123DDCA2E1B3E4AA
:103F2C0033F91212A50228B2E50824FBF582E50943
:103F3C0034FFF58322F582E8122DF6F9221260F592
:103F4C00E50845092212564C2419F582E812515FF6
:103F5C0022900381123F6422123FA6C8240E123F06
:103F6C006E22F582E83400F5832212564C2418F5A3
:103F7C0082E8122DF622A3E4F085088285098322BB
:103F8C00123F9EC822123F9EF5838882A3A3A3A34F
:103F9C00E022F0900381123FA622E0F8A3E0227405
:103FAC00F7120433EAFEEBFF120C7BEE123C57EFD8
:103FBC00123C6A400A12327B700590806C80039030
:103FCC00806DE0F9EEFCEFFD7A787B03120E49E987
:103FDC006034EEFAEFFB900AF3123DB1120619EEC3
:103FEC00240E1240227010123AE3EE240E124133CA
:103FFC007021120B8B801CEEFAEFFB900AEB123D3A
:10400C00B1120619800D8E828F83A374F112446E47
:10401C00120B7F02447BF582EF122DF6540422C062
:10402C0082C083120B8B023C7874F7120433EAFEC5
:10403C00EBFF79009003B1E05402700AEE243312C6
:10404C004022600279E89003B1E05460700CEE24D9
:10405C0033123B945402600279E88E828F83A3A3BF
:10406C00A3A3E0C39475400279E8EE2431123B948B
:10407C00700CEE242E123B94700479F58009E970D3
:10408C0003120B6DE96007EEFAEFFB120C4B0244C6
:10409C007BC082C0838A828B83740DF0120DD70291
:1040AC003C7874F4120433EAFEEBFF8E828F83E4C7
:1040BC00F0A3124140540490806C7012E0F890030D
:1040CC007FE0C398401279F1120C4B0228B2E0F851
:1040DC0090037EE0C39850EEEE24331241336035EA
:1040EC00EE243712413B94054039EE2433123B94B5
:1040FC005405702F7A857B03120D95EE24371236FA
:10410C00CB122003780812087D7A857B03120D8967
:10411C0074041208B3EEFAEFFB9003ACE0F9120E44
:10412C001F80A879E880A112515CA3E054012212EF
:10413C002DF3C322F0EE2433122DF32274F6120465
:10414C0033E9FE2451FAE43400FB120E13EA4B60FF
:10415C0015EE8A828B83A3A3A3A3F0EA2451124BFE
:10416C005A1243C080047A007B0002541802402B80
:10417C00C082C0839003A8E4F09003ABF09003944A
:10418C0012419D7402F090039D12419D7401023CFA
:10419C00777445F0A3740CF0A32274F612043374F4
:1041AC00F11209188518828519837402F0740112B2
:1041BC000B09E9F060047AFF7BFF7402120B09EA29
:1041CC00F0A3EB1241FC1208857CA07D037406124F
:1041DC000B09AA82AB83120E0774021208B385185E
:1041EC0082851983AA82AB83120DD7740F025415E2
:1041FC00F075080B75090078082274F712043374F3
:10420C00FE120918851882851983740AF07401123C
:10421C000B09E91236DC120DD7740202373E74F02A
:10422C00120433125F1B120ACA7808790C1203436A
:10423C00780812087D7A977B03022BD374F412044E
:10424C003374C6120918900A42E0640F6010851886
:10425C0082851983742E124CC6120C5D80277A8EBF
:10426C007B03120D951228A41202EA88088909E42E
:10427C00F50AF50B780812087D7A8E7B03120D89EE
:10428C0074041208B3743A0228AF74F6120433742F
:10429C00F7120918EAFEEBFF8E828F83A3E0F50874
:1042AC00600302438C1243A06008E0640360037552
:1042BC0008E8EE24261236CB1227D95034E50860D4
:1042CC000302438CEE2426FAEF3400FB79E1121141
:1042DC007FEE2431FAEF3400FB795012117F124338
:1042EC00A07014EE242812560E900A511243C0806E
:1042FC00187508E8024390900A5174FEF0A304125A
:10430C0043A97A487B0A12130B75080B75090078C0
:10431C0008120885EE241BFCEF3400FD7AA07B0309
:10432C00120E0774021208B3122A941229AE7402E8
:10433C001243A9851882851983AA82AB831212FFB6
:10434C00EE24311253DA122AA08A828B83E8F0A36E
:10435C00E91241401253F01208857402120B09AC99
:10436C0082AD8379831A1AEFFB120CAB740212081C
:10437C00B3E9F5097007EEFAEFFB120B918509080A
:10438C00E508600B1264A6741712446E120C5D746F
:10439C0009025415EE2430122DF3640222F0EE249F
:1043AC0028FCEF3400FD22FB8A828B831243C6F972
:1043BC008A828B83E8F0A3E9F022E024FFF8A3E0E3
:1043CC0034FF2274F612043374F71209189003ABFD
:1043DC00E070457401F0F912126F8518828519830B
:1043EC00AA82AB83120C877508A075090378081292
:1043FC0008857508017509007808120885900A5718
:10440C001206FE7406120B09AC82AD837A03790591
:10441C00120CB174061208B302439B74F7120433E6
:10442C00EAFEEBFF79011212758E828F83E0642015
:10443C007004A374EBF09003ABE0A2E25003C2E271
:10444C00F0E0A2E15008124677120BC7800C8E8266
:10445C008F83742A12446E120C5D80138E828F83AC
:10446C007429F0EEFAEFFB22EEFAEFFB120CFF7F51
:10447C000102066D74F412043374FE120918EAFE7C
:10448C00EBFF79011212757A8E7B03120D957A97D8
:10449C007B03120D951247AE85188285198312473E
:1044AC00DBE0F5087015851882851983AA82AB8329
:1044BC00795312117F1260CD12117F750A0B750B97
:1044CC0000780A1208851236BF7AA07B03120E07F9
:1044DC0074021208B38518828519831256E0A90854
:1044EC00120BC19003ABE0A2E1500A8E828F83A322
:1044FC00E0F9120BC79003ABE4F074020228AF741E
:10450C00F7120433EAFEEBFF8E828F83A374EBF079
:10451C009003ABE0A2E1500579EB120BC7EEFAEF7A
:10452C00FB120BF702447B74F7120433EAFEEBFF29
:10453C0079011212757A8E7B03120D957A977B0393
:10454C00120D959003A8E4F09003ABF07AFF7BFF7B
:10455C008E828F83A3E0F9120BC102447B74F71295
:10456C000433EAFEEBFF120BF102447474F71204ED
:10457C0033EAFEEBFF79011212758E828F83A3A3AF
:10458C00A3A3E06003E4800274EB1245C95003C29C
:10459C00E2F0E0A2E15008124677120BC78014A299
:1045AC00E050108E828F83742AF0A374EB12446E49
:1045BC00120C5DEEFAEFFB120BA302447B8E828F82
:1045CC0083A3F09003ABE0A2E22274F6120433EA68
:1045DC00FEEBFF9003ABE0D2E1F0790112126F8E8B
:1045EC00828F83A3E07041120C8DE9FAEE240DF555
:1045FC0008EF3400F509780812088575080175096B
:10460C00007808120885EE240B1236CB1206FEEE4B
:10461C002402FCEF3400FD7905120CB1740612086B
:10462C00B3E98E828F83A3F08E828F83A3E0600424
:10463C00F9120BC702541874F7120433EAFEEBFF9D
:10464C0079011212758E828F83E064207004A3743A
:10465C00EBF09003ABE0A2E25003C2E2F0E0A2E187
:10466C005006124677120BC702447BC2E11264B1AA
:10467C00A3E0F92274F7120433EAFEEBFF7901127E
:10468C0012757A8E7B03120D958E828F83A3A3A352
:10469C00A3E06003E4800274EB1245C95003C2E24C
:1046AC00F0E0A2E15006124677120BC70245BF7428
:1046BC00F7120433EAFEEBFF79011212758E828F2A
:1046CC0083A374EB1245CE5003C2E2F0E0A2E1509A
:1046DC0006124677120BC702447B74F7120433EAB6
:1046EC00FEEBFF7A8E7B03120D95EEFAEFFB120CAC
:1046FC001B02447474F7120433EAFEEBFF7A8E7BD0
:10470C0003120D95EEFAEFFB120C1B02447B74F7AF
:10471C0012043374EF120918EAFEEBFF1256057AF5
:10472C00487B0A1212F9E96068851882851983742E
:10473C0009F07401120B0974EFF01247AEF8740211
:10474C00120B09E81247DBA3A3E0C0E07404120BC0
:10475C0009D0E01247D2640870158E828F83A3A310
:10476C001247A2E0C0E07405120B09D0E080067479
:10477C0005120B09E41247C47406120B09AA82AB8A
:10478C0083120CC9851882851983AA82AB83120DFA
:10479C00D7741102373E12564F2407F582E8125196
:1047AC005F221253E4FB8A828B831256198882890A
:1047BC0083E0FCA3E0F9EC221247C822F0EE2408B7
:1047CC00FCEF3400FD221247D622125CECE02212E0
:1047DC0056651247E222E0F8A3123AB7A3A322C00F
:1047EC0082C083120D0B023C78C082C0839003C838
:1047FC00745FF0A37418F0A37406F0A37419F0900E
:10480C000AFB7424F0A37416F0A3748CF0A3741632
:10481C00125B29023C77120C69023C7874F6120484
:10482C003374FE1209189003AD12488060077AADFC
:10483C007B03120C819003B3E4F0900A9D12488024
:10484C00602C800D851882851983AA82AB83120C8B
:10485C00819003ACE0F9120E2B8A088B09A808A9E9
:10486C00098518828519831243C0E84970D6025411
:10487C0013900381125619E8492274F6120433E995
:10488C00FA7B009003ACE0F9120E4F02541874F747
:10489C0012043374F0120918EAFEEBFF89088E82B9
:1048AC008F83E0F874E528F5827418124A72C0E020
:1048BC007401120B09D0E0F0640B700D8E828F83A3
:1048CC00A3E9F0120CED02499EE0700302499E64CC
:1048DC000C600302498A741A6508700B7404120B7D
:1048EC0009E4F0A30249897404120B09EEF0A3EF5A
:1048FC00125654C0E07403120B09D0E0125CDF12A4
:10490C000AE67406120B09120AF28E828F83A3A395
:10491C00A3A3A3A3A3A3A3125615740A120B0912E3
:10492C005343E054106009851882851983E4801282
:10493C00EE2412123287900A64E0C398851882859F
:10494C001983F0E0C0E0740C120B09D0E0F0EE24F7
:10495C0015123B94C0E0740D120B09D0E0F0EE245C
:10496C0016123B94C0E0740E120B09D0E0F0EE244A
:10497C0017123B94C0E0740F120B09D0E0F07402D4
:10498C00120B09E508F07401120B09AA82AB831211
:10499C000DD7741002373EC082C0839003B3E07011
:1049AC0004790180027900023C78C082C0839003B4
:1049BC00B3E064037004790180027900023C7874DE
:1049CC00F61204339003B3E0C333F8E433F974F90B
:1049DC0028F582740A39F583124ED0C2E7F0C3333E
:1049EC00FCE82CF582E91236CEA3E493FEC333FC2B
:1049FC00E433FD74F92CF582740A3D125318EC4D16
:104A0C006005EE9003B3F08A828B83E0C333FCE441
:104A1C0033FDE82CF582E93DF583E493F508C454A5
:104A2C000FC333F874C228F58274031236CE1248C1
:104A3C00807005120CDB801BE508540FC333FCE8B7
:104A4C002CF582E9124A72C0E0740193F583D0828E
:104A5C00120619025418890CEAFEEBFF890874FB44
:104A6C002508F5827418124A7622123F71E49322BB
:104A7C0074F312043374FE120918124A62FA7B00A2
:104A8C00120E138A088B09EA4509602F8A828B83E0
:104A9C00E50CF0124B66120885EEFCEFFDEA2402E1
:104AAC00FAEB3400FB120E0774021208B3AA08AB1F
:104ABC00099003ACE0F9120E1F801285188285193B
:104ACC0083E50CF0791AAA82AB83120C4B740202A8
:104ADC002DFB74F012043374FE120918124A62F59D
:104AEC000AFA7B00120E138A088B09EA4509603A10
:104AFC008A828B83E50CF0A3E4F0EA250A124B4F73
:104B0C00124B66120885EEFCEFFDEA241BFAEB341F
:104B1C0000FB120E0774021208B3AA08AB0990032B
:104B2C00ACE0F9120E1F7900801485188285198368
:104B3C00E50CF0791AAA82AB83120C4B791A740229
:104B4C00022BD8124B5AE8125665A3A3A322F8EBFA
:104B5C003400F98A828B83A3A322A3E4F0850C0A88
:104B6C0074F0250AF5827418124A76F50A750B0052
:104B7C00780A22C082C083E99003AC023C7774F6B9
:104B8C0012043374FE120918EAFEEBFFEE54207087
:104B9C002E8037E5A8F8C2AF900380E014123AEDEE
:104BAC008A828B83124CB0125630120C5D8518829F
:104BBC00851983E0641560077AAF7B03120C817A48
:104BCC007A7B03120E37EA4B70C9EF5480700F805A
:104BDC0019125630120C5D7AAF7B03120C819003C4
:104BEC00ACE0F9120E2BEA4B70E7EE5410600E8518
:104BFC001882851983742D124CC6120C5DEEA2E03E
:104C0C00500E8518828519837424124CC6120C5DC3
:104C1C00EE5402600E8518828519837425124CC6D9
:104C2C00120C5DEE5404600E85188285198374266F
:104C3C00124CC6120C5DEE5408600E851882851954
:104C4C00837428124CC6120C5DEE54406010740133
:104C5C00120B09124CB9742C124CC6120C5DEE548A
:104C6C008060107401120B09124CB9742F124CC6CF
:104C7C00120C5D9003AD1248806022E5A8F8C2AF1B
:104C8C009003AD1256E09003ADE4F0A3123AEDA3FD
:104C9C00125633120C5D7AAF7B03120C817A007BB7
:104CAC0000025413E0851882851983F022E4124C1B
:104CBC00BE22F085188285198322F0AA82AB83224A
:104CCC00C082C0839003AF125615EA687002EB697C
:104CDC0070079003AFE4F0A3F0023C7874F7120471
:104CEC0033EAFEEBFFEE4F7003120FA5A2AFE433D5
:104CFC00F508C2AF8E828F831248806028E824FBAF
:104D0C00FAE934FFFB9003AF12531AE86C7002E916
:104D1C006D70079003AFE4F0A3F08E828F83E4F004
:104D2C00A3F0120E9DE508A2E08004A2E7A2E79290
:104D3C00AF02447BC082C083900A51E064FE7003D2
:104D4C00A3E0F470097C487D0A1212FF80188A8255
:104D5C008B83A3A3A3A3A3A3A3A37402F0900A51D0
:104D6C00124D781243BB023C78900381123FA6226D
:104D7C00C082C083900A5BC3E094FEA3E094FF4022
:104D8C0004790380027902023C78C082C083124FFE
:104D9C00368C828D83124E8E68703B740268701C48
:104DAC008A828B83124DE7E068702B8A828B83A3F7
:104DBC00124DE7A3E068701E7901801C74036870C3
:104DCC0015EC2405FCED3400FDEA2405FAEB340067
:104DDC00FB12130580027900023C78A3A3A3A3A3C2
:104DEC00E0F88C828D83A3A3A3A3A32274F61204F0
:104DFC00337E00740A120B09E0124E82FF8A828BFA
:104E0C0083A3A3A3A3A3A3A3A3E06F706474026FF3
:104E1C00704D8A828B83C082C08388828983A3A3CE
:104E2C00A3A3A3E0F50888828983A3A3A3A3A3A3C8
:104E3C00E0FBAA08D083D082E06A7003A3E06B7019
:104E4C003088828983A3A3A3E0FA88828983A3A3F1
:104E5C00A3A3E0F9EA6C7002E96D70150E80127470
:104E6C00036F700DE82405FCE93400FD121305E90D
:104E7C00FEEEF9025418F8A3E0F988828983124EE9
:104E8C008E22A3E01313543F540322C082C0838AA2
:104E9C00828B83A3A3A3A3A3A3A3A3E06402701692
:104EAC00900A51124ED0687003A3E0697004790126
:104EBC00800F7900800BEAFCEBFD7A487B0A12121A
:104ECC00F9023C781256198A828B83E022C082C088
:104EDC0083124F36603A740268703D900A51C3E0F9
:104EEC0094FEA3E094FF50308A828B83A3A3A3A3E8
:104EFC00A3E0FC8A828B83A3A3A3A3A3A3E0F9EC76
:104F0C00F875830A758251E0687003A3E069700438
:104F1C00790180137900800FEA2405FCEB3400FD45
:104F2C007A487B0A121305023C788A828B83124ED4
:104F3C008EF82274EC120433EAFEEBFF8C128D1304
:104F4C00750A00750B008C828D83A3A3A3A3A3A366
:104F5C00A3A3E0F510E9A2E75008750CFF750DFF4F
:104F6C00800A900A57E0F50CA3E0F50DE9C2E7F5CD
:104F7C0011EE240E123B945420600AEE24101236CB
:104F8C00CB74088006EE241012514D12516C54044F
:104F9C0060071251557480800512515574101251CE
:104FAC006C54106008EE241212514D800E900A645D
:104FBC00E0C0E0EE24121236CBD0E012516CA2E02D
:104FCC005003750A20540860067410450AF50A8EC1
:104FDC00828F83A3A3E024FFF508A3E0125148EECF
:104FEC00240D12413B9402E04010640B6007E01466
:104FFC001251728003750B227403450AF50A851150
:10500C000E750F00740E780E120A33E50F450BF572
:10501C000B7414120B0912523A74026511700E9033
:10502C000A5C125171900A5B125163801374036510
:10503C001170161251407C6B7D0AAA08FB12130BDF
:10504C00E50824FF1251448004E5116028E5106046
:10505C0014E50E650C7004E50F650D700874404581
:10506C000AF50A8010850882850983E50D12518A9C
:10507C00E50C12517885100C750D00740A780C1221
:10508C000A33E50D450BF50B74026510701585128E
:10509C0082851383A3125171851282851383125159
:1050AC00638013740365107016125140AC12AD136B
:1050BC00AA08FB12130BE50824FF1251448004E5E7
:1050CC00106010850882850983E50F12518AE50E60
:1050DC00125178A808A909E824FFF508E9125148EB
:1050EC00EE240D123B947005900A478003900A53EE
:1050FC00E0FA04F0EA88828983123F84E50B1251AE
:10510C008AE50AF0EE2404F8EF3400F9122A8CFB3D
:10511C00AC088A828B83E0F50A88828983E0250AB1
:10512C00C39C12533FECF0A3E5091264ADA3E4F069
:10513C00F9022D86E50824F9F508E50934FFF5098F
:10514C0022F582EF12515FE422EE241112515C22FF
:10515C00F582EF123F7122E0850882850983F022E7
:10516C0012534BE022E085088285098312517C2280
:10517C00F0E50824FFF508E50934FFF50922125182
:10518C007C850882F5832274EB120433890D8A0C1A
:10519C008C108D117415120B09E0F50AA3E0F50BB8
:1051AC007417120B0912523A75141A7419120B094E
:1051BC001260F1AA08FB120B3D8A128B13AE12AFD0
:1051CC0013EE4F60591236C8E50EF0A3E50F122905
:1051DC00B1E50DF0750E0B750F00780E120885AC4D
:1051EC0008AD09125231120E0774021208B3780A74
:1051FC00120885AC10AD11A90CEEFAEFFB120CAB3A
:10520C0074021208B3E9F5147014E50D24F9600367
:10521C00147004125312F0EEFAEFFB120B91A91456
:10522C007F0D02066DEE241BFAEF3400FB22E0F535
:10523C000EA3E0F50F2274F2120433EAFEEBFF8C9E
:10524C00088D09890A740E120B0912531A7A008EF2
:10525C00828F83A3A3122AA5888289837407125391
:10526C005688828983E412532C88828983741F1296
:10527C00532C7411120B09E0600312533674101284
:10528C000B09E0600312533688828983E50A1253B6
:10529C005674012AC43354E0440388828983125320
:1052AC0020FB880B8A828B83E0C3950B8E828F83C5
:1052BC00A3A3A3A312533F125343E4F0A31229B1A7
:1052CC00740BF0F50C750D00780C12088512523128
:1052DC00120E0774021208B3750CFF750DFF780CD3
:1052EC00120885AC08AD097902EEFAEFFB120CAB93
:1052FC0074021208B3E9F508700912531212446EC5
:10530C00120B91022A88122DF0D2E522F583E0FCD3
:10531C00A3E0FD22F0EE2402FAEF34002212533007
:10532C0012535E22E08882898322888289831253F9
:10533C005E0A2212566822E8F0A3E912534B22F0BF
:10534C00EE240EF582EF123F712212536CE41253CD
:10535C005E2212536222F0E824FF18E934FFF9228E
:10536C00125362888289832274F612043374F71202
:10537C000918EAFEEBFF7801EE2432123B9460022E
:10538C0078051236C8E81229AE74041253FC1212B6
:10539C00FFEE242F1253DA1243B3EE2431123B9456
:1053AC001253F01208857402120B09AC82AD83798A
:1053BC00031A1AEFFB120CAB74021208B3E9F508CE
:1053CC007007EEFAEFFB120B91A90802439B1251E6
:1053DC005C1260F51253E422EE2402F8EF3400F96B
:1053EC00E8FAE922888289831247D604F0780822E9
:1053FC00F0EE2426FCEF3400FD851882851983AA73
:10540C0082AB8322120E0774021208B37F020206CB
:10541C006D74F31204338A088B09ECFEEDFF8A825B
:10542C008B8374051256548A828B83A3A3F0EA24CF
:10543C0003F50AEB3400F50B850A82125613EE24A1
:10544C00251236CB120AE6123DA8E91236CE120A04
:10545C00F2125605E8FAE9FB1212FF850A82850B57
:10546C0083125A23FAA3E0FB88828983A3A3A3A304
:10547C00A3A3A3A3A3EAF0A3EB125639E0C0E01256
:10548C003C56E91236CED0E01256412415F582E88E
:10549C00125150125641240EF582E8125150124707
:1054AC00C4850A82850B83E02416FAA3E03400FB42
:1054BC00120CC98E828F83A3A3A3A3A3A3A3E0C0C2
:1054CC00E0850A82850B83E0F8A312561ED0E01209
:1054DC005629FAA3E0FB850A82850B83125615E840
:1054EC00240BFCE93400FD8A828B83E08C828D8353
:1054FC00F0A3E412565CE0F50B8C828D83A3E0459F
:10550C000B12533FA3E0FCA30A0AAB83A2E7E433DC
:10551C00C0E0E8240FF582E91236CED0E0F0740733
:10552C005C600478018002780075F00374075CA459
:10553C0028F8EA28FAEB3400FBE5082405F8E5091D
:10554C003400F98A828B8312533012565C850882A0
:10555C00850983A3A3A3A3A3A312563388828983AB
:10556C00E0F85407C333FCE8C4540F5407F50A752C
:10557C000B007403780A120A33EC250AF8EA28F8AF
:10558C00EB3400F9850882850983A3A3A3A3A3A305
:10559C00A3A3A3E8F0A3E91247D2FA8E828F83A3C8
:1055AC00A3E02AFAA3E03400FBC3EA98EB9940305D
:1055BC008E828F83A3A3E0F8850882850983A3A339
:1055CC00A3A3A3A3A3A3A3E0FA8E828F83A3A3A375
:1055DC00A3E0C39A28850882850983A3A3A380101E
:1055EC00850882850983A3A3A3A3A3A3A3123F8247
:1055FC00A3A3A3A3A3F0022DFEEE2413FCEF34000F
:10560C00FD22F582EF3400F58312561922123FA6C3
:10561C00F922E0C8240DF582E812515F221264B120
:10562C00A3A3E0229003AFEAF0A3EBF022F0EE2468
:10563C002F12515C22F0850A82850B8312564F2261
:10564C00900381123FA6C822F0EE2432122DF322D1
:10565C00125668A3AA82AB8322F0A3E9F08A828B4C
:10566C00832274F612043375080B7509007808123E
:10567C000885025410020865C082C0837918120C88
:10568C004B023C78C082C0838A828B83E0C3940B2C
:10569C005003120CD5023C78C082C083791980DE8D
:1056AC0074F7120433EAFEEBFF9003AD12488060EE
:1056BC00109003AD1256E0120CE17AAD7B03120C84
:1056CC0081EEFAEFFB120C7B9003ADEEF0A3EF80B2
:1056DC000B90035FE0FAA3E0FB22F0A3F002447B03
:1056EC0074F712043374DE120918EAFEEBFF8E8293
:1056FC008F83E024FD601124FE601524ED600924E5
:10570C00FA600D14600A803D7416120B09E48007D0
:10571C007416120B097401F0123B88740B120B09EE
:10572C00AA82AB8312130B7413120B091257C712F4
:10573C000B091243C0740A120B091257D3120B092E
:10574C001243C080417416120B097402F0125605F4
:10575C00740B120B09AA82AB8312130B7413120B6A
:10576C00091257C7120B091243C0740A120B091203
:10577C0057D3120B09E8F0A3E91257DF120B09AA51
:10578C0082AB83120CC9851882851983740B126441
:10579C00ADA3E0C0E07401120B09D0E01257DF1288
:1057AC000B09AA82AB83120CC9851882851983AAAE
:1057BC0082AB83120DD7742202373E7403F0900A29
:1057CC005B1256197402227402F0900A5712561981
:1057DC007414221247C874172274F7120433EAFEA9
:1057EC00EBFF8E828F83A3E0F5087035EE242F1229
:1057FC00585C7003A3E06960037508E8EE2426FA90
:10580C00EF3400FB120C9FE96029EE2432F582EF95
:10581C00125856E508700AEEFAEFFB120CBDE9F5CA
:10582C0008E508600B1264A6741912446E120C5D24
:10583C0002447BEE2432123B9460D89003D4E07087
:10584C00D27508E880DFF582E50912515FE4F02299
:10585C0012515C125619900A57E06822C082C0831C
:10586C0074F11209187402120B09740412533FA339
:10587C00E0C0E07403120B09D0E0F0EA242FF582AB
:10588C00EB125611740D120B091243C0EA2426FCBC
:10589C00EB3400FD7404120B09AA82AB831212FFC5
:1058AC007404120B09AA82AB83120C9FE9600E12CE
:1058BC0058DA12117F900A5174FFF0A3F07402129F
:1058CC000B09AA82AB83120DD7740F0237A185186E
:1058DC008285198374FFF0A31236E079532274F693
:1058EC0012043374E81209188A088B097402120B1B
:1058FC00097403F0EA2413FEEB3400FFEEFCEFFD19
:10590C007404120B09AA82AB8312130B1230D3C08E
:10591C00E0740C120B09D0E0F0E5082408FCE50952
:10592C003400FD740D120B09AA82AB83120CC9EE64
:10593C00FAEFFB120C9FE9600E1258DA12117F90ED
:10594C000A5174FFF0A3F07402120B09AA82AB8304
:10595C00120DD7741802541574F612043374D41241
:10596C000918EAFEEBFF8E828F83A3A3125A1EE066
:10597C00A2E65017900A57125A23687003A3E069E5
:10598C0070099003D5E06046120D0B740B120B09D5
:10599C00A882A9837403120B0912603C120CC385F4
:1059AC001882851983742B124CC6120C5D900A3C1C
:1059BC00E060087408120B09E0600E8518828519E6
:1059CC00837405124CC6120DD7742C025415900A10
:1059DC0060E060B71236B6120C9FE970AEEE240888
:1059EC00F508EF3400F5097808120885750801757B
:1059FC0009007808120885900A571206FE7C487D2B
:105A0C000A7A037906120CB174061208B380BA90A4
:105A1C000381123DC8A322125619EE242B122DF32A
:105A2C0022C082C08374EF120918851882851983ED
:105A3C007409F07401120B0974EE1236DC120DD7D6
:105A4C0002379F74F7120433E9FFA2AFE433F50871
:105A5C00C2AFEF600312116D121107900A6AE0F9E0
:105A6C001211BB900A69E0F91211AF9003D5E0F95D
:105A7C00121197900A571256E012119D900A5B1260
:105A8C0056E01211A37A6B7B0A1211A97E00125AEE
:105A9C00D91248806009125AD9123DB11206190E5A
:105AAC00EEC3940740E8120D5F120C3F9003D6E44E
:105ABC00F0120B379003D5E4F07A5A7B0A79521224
:105ACC00117FE508A2E092AF790002447BEEC3336C
:105ADC00F8E433F974B428F582740339F58322C0E1
:105AEC0082C0837909120C63023C78C082C0839017
:105AFC0003C2748CF0A37418F0A37410F0A374197F
:105B0C00F0A374C1F0A37418125B20121101023CB3
:105B1C0078020865F09003B1E4F0A3F022F0900352
