:020000040000FA
:06000000020B010201B435
:03002B0002082F99
:030033000202A620
:030053000200E2C6
:03006B000201D6B9
:03007B0002076B0E
:100083000201450103000300030003000300030012
:1000930003000300030005000A00140028004F00BA
:1000A3009E000000810D810D810D810D190C130C33
:1000B300810DDC1F00000000442000000000FF0051
:1000C3000000FF000E1420FFFFFFFF0120140403B4
:1000D3000008000001FF0E0E0EC80020FD0002C044
:1000E300E074F11205BFA2AFE433FED2AFE5A7FF80
:1000F300E5A1F5085FF50974105509600612137B35
:1001030075A1EF74085509600812138175A1F78072
:1001130024E508A2E092F0EFA2E082F0501790618C
:1001230098E0F8900650E0C398A2D265D03350020D
:10013300E8F075A1FE751A00EEA2E092AF7F02020D
:10014300067BC0E074F21205BFA2AFE433FED2AF68
:100153009061A4E0F8759B00E59158540860087518
:1001630091F71213D58023E59158541060087591C7
:10017300EF1213DB8014E591A2E092F0E8A2E08293
:10018300F05007E0C2E0F012152B9061A3E0F8E510
:10019300E9585404600E12150175E9FB906193E070
:1001A300A2E640F2751A00EEA2E092AF7F010206CA
:1001B3007BC0E074F21205BFA2AFE433FED2AF906E
:1001C30061A5E0F8E5BF585404600675BFFB12153E
:1001D3004380D1C0E074F21205BFE589A2E1400F6C
:1001E300E589A2E24009E589A2E340030202749093
:1001F3000593E0A2E15009E589A2E3400F02029CC6
:100203007A207B0090057AE0F91210DB900593E0E9
:10021300D2E0F0900715E07035900593E0A2E1502D
:10022300117A007B1090057AE0F91210DB90824876
:10023300802B90824C1207AE7A007B1090057AE0F7
:10024300F91211E9740412094E908240800F7A006A
:100253007B1090057AE0F91210DB90827C1207AED6
:100263007A087B0090057AE0F91211E97404120907
:100273004EE589A2E65022E5AB540E640E600343BB
:10028300AB0E90823C1207AE7A007B0490057AE0B5
:10029300F91211E9740412094E758900C2C57F0170
:1002A30002067BC0E074F11205BFE59DA2E650FA99
:1002B300906206E0FAA2E25035A82AE890620BF0B9
:1002C300F508852B0974047808120B64E50890621D
:1002D30007F0852A08852B0974097808120B64E551
:1002E30008543E906209F0906201E0D2E0F0782772
:1002F300EA46F6906202E0F508750900740478088E
:10030300120ADB7827E50846F608E50946F6906207
:1003130004E0F50875090074097808120ADB7828E7
:10032300E50946F6EAA2E0500375290174065A600E
:1003330003752900E58BA2E55006758BDF7529004F
:10034300121609758B00C2E87F0202067BC3E4988C
:10035300F8E499F91203918026C3E49AFAE49BFB2B
:10036300E920E7E9120391E498F8E499F922C3E458
:1003730098F8E499F9120391E498F8E499F9C3E43D
:100383009AFAE49BFB22EB20E7CFE920E7E0B900F0
:1003930010BB0008E88AF084F8AAF022E4FBC8FA4C
:1003A30022EB70227B10C833C8C933C9335007C34B
:1003B3009AC3DBF280069A50012ADBEAC833F4C8F9
:1003C300C933F4C9FA2275F008E4C833C8C933C97C
:1003D30033C99AC99B5004C92AC93BD5F0ECFBC861
:1003E30033F4C8E4C9FA22080808EAC0E0EBC0E025
:1003F30086F0E7A4FA180986F0E7A42AFA18098612
:10040300F0E7A42AFA180986F0E7A42AFA1986F075
:10041300E7A4FBE5F02AFA190886F0E7A42BFBE52D
:10042300F03AFA190886F0E7A42BFBE5F03AFA183C
:10043300180986F0E7A4C5F02BFBE43AFA1908E79C
:10044300C5F0C6A426F6E5F03BFBE43AFA1886F0BD
:10045300E7A4F6E5F00826F6E43B08F6E43A08F6E6
:10046300D0E0FBD0E0FA22120BB6B900030204CDB0
:10047300E47921780BB800028004F709D8FCE490F2
:10048300030178C579048002F0A3D8FCD9FA781A5D
:100493009000867A01BA00028007E493A3F608DA93
:1004A300F99006C5AA82AB83900087785C790180B6
:1004B30015E493A3AC82AD838A828B83F0A3AA82D3
:1004C300AB838C828D83D8E9D9E77582C075839518
:1004D3007402120915758265758317740012091564
:1004E300E4CFC0E0E4CEC0E0E4CDC0E0E4CCC0E0C3
:1004F30075F020C3E633F608E633F608E633F6086C
:10050300E633F6181818EC33FCED33FDEE33FEEF4B
:1005130033FFC3EC9709ED9709EE9709EF97191984
:1005230019400FFFEC97FC09ED97FD09EE97FE19B3
:100533001906D5F0BEECF709EDF709EEF709EFF769
:10054300191919D0E0FCD0E0FDD0E0FED0E0FF2285
:100553002518C582C0E0E51934FFC583C0E0E5185E
:10056300C3958224F810AF08858319858218800803
:10057300858319858218D2AFCEF0A3E520F0A37846
:1005830008E608F0A3DEFAEFF0A3E58124FAF8E623
:1005930008F0A3E608F0A3E608F0A30808E608F0CD
:1005A300A3E608F0A315811581D0E0FED0E0F8158D
:1005B3008115811581E8C0E0EEC0E022C0D0251886
:1005C300C582C0E0E51934FFC583C0E0E518C395D3
:1005D3008224F310AF0885831985821880088583E8
:1005E30019858218D2AFC8F0A3E9F0A3EAF0A3EB10
:1005F300F0A37908E709F0A3D8FAECF0A3EDF0A390
:10060300EEF0A3EFF0A3D0E0F0A3D0E0F0A3D0E0AE
:10061300F0A3E520F0A3E5F0F0A32212010002020B
:100623000000205104A81609000102030109024336
:100633000002010080190904000001020201000503
:1006430024001001042402020524060001052401EC
:1006530000010705820340004009040100020A006B
:100663000000070584024000000705040240000063
:10067300390600005C060000851983851882E0C0F6
:10068300E0A3E0F9A3E0FAA3E0FBA37808E0F6080F
:10069300A3DFFAE0FCA3E0FDA3E0FEA3E0FFA3E0F9
:1006A300C0E0A3E0C0E0A3E0F5D0A3E0F520A3E021
:1006B300A3F5F010AF088583198582188008858318
:1006C30019858218D2AFD082D083D0E0F8D0E0323F
:1006D40075F0108E218F22858226858325851882C8
:1006E400851983E0CEA3E0CF852682852583EBC9D7
:1006F400EAC8EDCBECCAC3E833C8E933C9EA33CA64
:10070400EB33CBC3EA9EF524EB9FF523B35004AB44
:1007140023AA24EC33CCED33CDD5F0DAAE21AF22CD
:1007240022851983851882E0A3FEE0A3F5207808CA
:10073400E0A3F608DFFAE0A3FFE0A3C0E0E0A3C073
:10074400E0E0A3C0E0E0A3C0E0E0A3C0E010AF0895
:100754008582188583198008858218858319D2AF0C
:10076400D083D08202091BC0E074F21205BFA2AF8D
:10077400E433FED2AFE58AA2E25007900643E0D20A
:10078400E0F0E58AA2E35007900643E0D2E1F07579
:100794008A00C2EB7A107B0090063FE0F91210DB6E
:1007A400EEA2E092AF7F0102067B7404800474021F
:1007B4008000CCC0E0EDC0E0E518C39CCCAD19507E
:1007C400011D10AF068C188D1980068C188D19D256
:1007D400AF120897D0E0FDD0E0FC22D083D082CCC9
:1007E400C0E0E493A360061208F61470FAE493A33D
:1007F40060061209B01470FAD0E0FCE493A3C0E0E0
:10080400E493C0E022C008C3E096F50808A3E0968C
:10081400420808A3E096420808A3E0964208A2D240
:1008240065D033E5087001D3D00822C0E0C0D0E819
:10083400C0E0E9C0E0E5A8D2AFC2C7751A00A2E7DC
:10084400A2E792AFD0E0F9D0E0F8D0D0D0E032CA3D
:10085400C0E0E493A3C582CCC582C583CDC583F033
:10086400A3C582CCC582C583CDC583DAE5D0E0CAF1
:1008740022A2E792D65002F40430F70663F0FF0593
:10088400F0B3400384800384F40430D60563F0FF9E
:1008940005F022CAC0E0E0A3C582CCC582C583CDE1
:1008A400C583F0A3C582CCC582C583CDC583DAE6F2
:1008B400D0E0CA227009080808226016181818C661
:1008C400C333C608C633C608C633C608C633C6D53E
:1008D400E0EA22C008C3E096F50808A3E0964208BF
:1008E40008A3E096420808A3E09645087001D3D017
:1008F4000822C0E0E493A3D39C5010E493A3C39CC8
:10090400400AD0E0D0E0D0E00207FCA3A3A3D0E0EB
:1009140022C09FF59FE473D09F22D083D082C09FD2
:10092400E493C0E0740193C0E0740293F59F222520
:1009340018F58210AF08F518400215198008F5184B
:1009440040021519D2AF85198322C0D0251810AFE3
:1009540008F518500205198008F51850020519D237
:10096400AFD0D0226016080808C6C313C618C61331
:10097400C618C613C618C613C6D5E0EA22C3E0C615
:1009840096F608A3E0C696F608A3E0C696F608A372
:10099400E0C696F62274048006740280027401C0D4
:1009A400E0F404120933D0E0120B9122C0E0E49386
:1009B400A36C7009D0E0D0E0D0E00207FCA3A3D080
:1009C400E022251810AF08F518400215198008F523
:1009D4001840021519D2AF22E76670100809E766BD
:1009E400700A0809E76670040809E76622E0667081
:1009F4001008A3E066700A08A3E066700408A3E088
:100A04006622C3E09608A3E09608A3E09608A3E054
:100A140096A2D265D03322C3E096F008A3E096F004
:100A240008A3E096F008A3E096F022C3E697F60840
:100A340009E697F60809E697F60809E697F622E02C
:100A440056F608A3E056F608A3E056F608A3E056C7
:100A5400F622E046F008A3E046F008A3E046F008DA
:100A6400A3E046F022E046F608A3E046F608A3E039
:100A740046F608A3E046F622E647F60809E647F6F6
:100A84000809E647F60809E647F622E026F008A337
:100A9400E036F008A3E036F008A3E036F022E026C2
:100AA400F608A3E036F608A3E036F608A3E036F627
:100AB40022E627F60809E637F60809E637F60809B4
:100AC400E637F622E493F608740193F60874029369
:100AD400F608740393F622700422600D18C6C3331B
:100AE400C608C633C6D5E0F41822E056F008A3E0E1
:100AF40056F008A3E056F008A3E056F02275D000A3
:100B040075813F751801751903759F0002046AE425
:100B1400C396F608E496F608E496F608E496F622F8
:100B2400C6F4C608C6F4C608C6F4C608C6F4C62287
:100B3400C3E7960809E7960809E7960809E79622A5
:100B4400C3E09608A3E09608A3E09608A3E09622E3
:100B5400600D08C6A2E713C618C613C6D5E0F32273
:100B6400600C08C6C313C618C613C6D5E0F422E643
:100B7400F008A3E6F008A3E6F008A3E6F022E0F606
:100B840008A3E0F608A3E0F608A3E0F622CAC0E052
:100B9400E6F0A308DAFAD0E0FA22E0FAA3E0FBA335
:100BA400E0FCA3E0FD22EAF0A3EBF0A3ECF0A3ED5C
:100BB400F022E5C754F84401F5C77901222518F558
:100BC40082E43519F5832212091ED9400012091E48
:100BD400E9400012091E28410012091E8241001238
:100BE400091EDA410012091E24420012091E3F4266
:100BF4000012091E66420012091E83420012091ED9
:100C04008F420012091ED1440012091EEA44001248
:100C1400091E76450012091E89450012091E9A45CF
:100C24000012091E5A460012091ECF470012091E5F
:100C340086490012091E064A0012091E104A0012B3
:100C4400091E784A0012091E894A0012091E234B04
:100C54000012091E544B0012091E574B0012091EA4
:100C6400814B0012091EE14B0012091E054C0012B3
:100C7400091E234C0012091E714C0012091EAA4DB4
:100C84000012091E024E0012091E5B4E0012091EBC
:100C9400E64E0012091E0E4F0012091E444F0012A8
:100CA400091E534F0012091EB14F0012091E1E5097
:100CB4000012091E5B500012091E96500012091EF4
:100CC400C1500012091EDB500012091EF55000121B
:100CD400091EC6510012091ED0510012091EFD51F1
:100CE4000012091E0D520012091E16520012091E8E
:100CF40074520012091E88520012091E91530012E8
:100D0400091EA4530012091EBB530012091ED0531E
:100D14000012091E81540012091EE3540012091E18
:100D240084550012091E8F550012091ED156001257
:100D3400091EED560012091E45570012091E81575F
:100D44000012091E9B570012091EFD570012091EAE
:100D54009C580012091EDE580012091E4459001244
:100D6400091E985B0012091E475C0012091E795D7A
:100D74000012091E225E0012091E73600012091E71
:100D840086600012091E89600012091E9560001217
:100D9400091EA9600012091EB1600012091EF1604B
:100DA4000012091EEA610012091E6D620012091E7A
:100DB400EF620012091E69630012091E32640012F8
:100DC400091E54640012091EF0640012091EFC641A
:100DD4000012091E22650012091E25650012091E53
:100DE40052650012091E97650012091E066600125C
:100DF400091E58670012091EE3680012091E6E6975
:100E04000012091E976A0012091E776B0012091E50
:100E1400A86B0012091ED46B0012091EDD6B0012B0
:100E2400091E0C6C0012091EBC6C0012091E706DA8
:100E34000012091EE46D0012091E806E0012091EC4
:100E4400FE6E0012091E466F0012091E7C6F00120E
:100E5400091EB96F0012091EEE6F0012091E4570BB
:100E64000012091EBE700012091EE0700012091E55
:100E740038710012091EA0710012091EF9710012C6
:100E8400091E11720012091E6D720012091E9F7252
:100E94000012091EEE730012091E177A0012091EB1
:100EA4001EBA0112091E1CBC0112091E8AC60112B7
:100EB400091EB2C60112091E4BC70112091EE7C75B
:100EC4000112091E87C80112091E06C90112091E52
:100ED400A1C90112091E1FCB0112091E24CB011244
:100EE400091E41CB0112091EB5CB0112091EE6CC25
:100EF4000112091E2BCD0112091EA3CD0112091ED8
:100F0400D0CD0112091E0FCE0112091E0B7E001254
:100F1400091E177E0012091E4F7E0012091E7E7ED6
:100F24000012091E947E0012091E9F7E0012091EE3
:100F3400AB7E0012091EB67E0012091ED47E00127A
:100F4400091EE07E0012091EEC7E0012091EF87EC6
:100F54000012091E037F0012091E0F7F0012091ED2
:100F64001B7F0012091E277F0012091E327F001208
:100F7400091E3D7F0012091E497F0012091E5B7F76
:100F84000012091E677F0012091ECE7F0012091E7F
:100F94003B830112091E6F830112091E9B830112F8
:100FA400091EDB830112091E06840112091E4784EF
:100FB4000112091E6F850112091E26860112091EDF
:100FC40018870112091E3A880112091E2589011287
:100FD400091E54890112091E64890112091ED5894A
:100FE4000112091E048A0112091E158B0112091E21
:100FF400818C0112091EBF8D0112091EB78F0112C7
:10100400091E41900112091EEF900112091E0B9254
:101014000112091E4C920112091EBA920112091EF4
:10102400AC940112091ED2940112091EDC9401121F
:10103400091E18950112091E45950112091EE39611
:101044000112091E9A970112091E39980112091EEC
:101054008B990112091EC69A0112091E669B011280
:10106400091E669C0112091E8F9D0112091E16A4F9
:101074000112091EE1A40112091E74A50112091E20
:10108400F4FF0112091EF9FF0112091EFEFF0112ED
:10109400091EAFEC0112091EF6EC0112091E17ED30
:1010A4000112091E64ED0112091E8DED0112091EC3
:1010B40097ED0112091E03EE0112091E95EE0112AD
:1010C400091ED0EE0112091E2CEF0112091E62EF57
:1010D4000112091EE1EF0112091E2BF00112091E73
:1010E4006CF00112091E343F0012091EB5F0011202
:1010F400091EC7F00112091EE6F00112091EEFF0E5
:101104000112091E96F90112091ED9FA0112091ECB
:10111400FFFA0112091E10FB0112091E2FFD011214
:10112400091EC7880212091EFD880212091E488979
:101134000212091E938A0212091E0FA60112091E29
:1011440043A70112091E7FA70112091E37A9011224
:10115400091E71A90112091EEAAB0112091E2AAC6B
:101164000112091EBEAD0112091E5EAE0112091E56
:10117400C0AE0112091E4DAF0112091E85AF011246
:10118400091EC5AF0112091E56B10112091EFEB295
:101194000112091E5BB50112091E89B50112091E4F
:1011A400B5B50112091EBEB50112091E3CB60112E5
:1011B400091E99B90112091E72960212091E889617
:1011C4000212091E92960212091EDC960212091ED0
:1011D400BCF10112091ED1F10112091E81F20112A2
:1011E400091EC1F20112091EDAF20112091E15F3D9
:1011F4000112091E4EF30112091E4FF50112091EB8
:1012040000800212091EF0800212091EF5810212EA
:10121400091E97820212091E50900212091E6B9039
:101224000212091E92900212091E12CE0112091E08
:1012340053CE0112091E8FCE0112091EAFCE011228
:10124400091EC7CE0112091ED1CF0112091EA9D051
:101254000112091EC1D00112091ED9D00112091EA2
:1012640099D10112091E90D20112091E8DD30112C7
:10127400091EC4D40112091E7FD50112091E58D6B5
:101284000112091E6AD70112091E95D80112091EFE
:10129400F7D90112091EEADA0112091EABDB0112A9
:1012A400091E40DC0112091E6D930212091E70937F
:1012B4000212091EDAFF0112091E24990212091EE4
:1012C40002990212091E52940212091E6294021219
:1012D400091E6E940212091EFF940212091E7191D6
:1012E4000212091EF6910212091E5C920212091ED4
:1012F40037980212091E2E990212091E3199021200
:10130400091E34990212091EF87F0012091E118D5C
:101314000212091E498D0212091E918E0212091E23
:10132400158F0212091E37990212091E3A990212E8
:10133400091E77980212091E8B980212091E4EFD8F
:101344000112091E72FD0112091E8BFD0112091EF4
:10135400CAFD0112091E18FE0112091E4BFE0112DC
:10136400091E7BFE0112091E85FE0112091EEDFEF7
:101374000112091EF0FE0112091EB9FF0112091E15
:10138400C3FF0112091ED0FF0112091EE6850212D5
:10139400091E0E860212091E4F860212091E6D8650
:1013A4000212091E88860212091EF0860212091E04
:1013B400FC860212091E5B870212091E878702122D
:1013C400091E96870212091EBA870212091E7B881B
:1013D4000212091E88880212091E99880212091E27
:1013E400F9970212091E11980212091EC3E701128D
:1013F400091E2CE90112091E3EE90112091E56E9D3
:101404000112091E77E90112091E8DE90112091E54
:10141400A1E90112091E20EA0112091E85EA01123E
:10142400091E0DEB0112091E86EB0112091E5FEC69
:101434000112091E6FEC0112091E7EEC0112091E35
:1014440011970212091E35970212091E5D970212A6
:10145400091EFA8A0212091E218B0212091E3F8BF1
:101464000212091EA78B0212091EF0820212091E23
:1014740009830212091E20830212091E2983021203
:10148400091E47830212091E51830212091E5B833F
:101494000212091E6E830212091EFA830212091E29
:1014A4006F840212091E9D840212091EEE84021228
:1014B400091E3F850212091E5A850212091E6485FF
:1014C4000212091E8B850212091ED1850212091E01
:1014D4008A970212091EED970212091E139902122D
:1014E400091ED5DD0112091E01DE0112091E1FDECF
:1014F4000112091E32DE0112091E4DDE0112091EFF
:10150400ACDE0112091EDFDE0112091EFBE201122C
:10151400091E51E40112091E83E40112091EEFE4BD
:101524000112091E68E60112091E90E60112091E45
:10153400A5E60112091EB5E60112091EF5E601121F
:10154400091E41E70112091E51E70112091E188FF5
:101554000212091E288F0212091E468F0212091E4A
:10156400618F0212091E888F0212091EA98F0212AE
:10157400091EC38F0212091EFB8F0212091E1E9040
:101584000212091E0C950212091E52950212091E1E
:10159400C1F50112091EC8F50112091E1EF7011238
:1015A400091E4EF70112091E7EF70112091EB1F73A
:1015B4000112091EC3F70112091EFFF70112091EC9
:1015C40065F80112091EA1F80112091EE8F80112BA
:1015D400091E15F90112091E41F90112091E4B9643
:1015E4000212091E5F960212091EA4980212091E15
:1015F40075920212091ED4920212091E129302124B
:10160400091E53930212091EF37F0012091ED69875
:101614000212091E033F0012091ED63E0012091EC3
:10162400B03E0012091E223E0012091E5B3D00124C
:10163400091E883C0012091EE33B0012091E5A3B96
:101644000012091E0A3B0012091ED13A0012091E9B
:10165400653A0012091E293A0012091EC239001205
:10166400091EB4380012091EF4370012091E7C3713
:101674000012091ED1350012091EB5340012091ECC
:10168400AA330012091EEB320012091EA8320012FE
:10169400091E52320012091EDB310012091EAE303F
:1016A4000012091E7D2F0012091E3B2F0012091E75
:1016B400B92D0012091E662D0012091ED02C00122D
:1016C400091E292C0012091EC92B0012091E1C2BED
:1016D4000012091EF72A0012091EEE2A0012091E22
:1016E400BF2A0012091E8B2A0012091E612A001249
:1016F400091E032A0012091E29290012091E1D2988
:101704000012091E69280012091ECE3F0012091E8C
:1017140036230012091E3E280012091ED327001288
:10172400091E79270012091E55270012091E2626B4
:101734000012091ED0250012091EAC250012091E34
:10174400F8240012091E51240012091E64230012F9
:10175400091E29240012091E07240012091EA3F0E1
:101764000100000080FBE4730000000000000000A2
:101774000000000000000000000000F8000000006D
:10178400000000333000000000100C06100C0600AE
:10179400000000000000000040C07840C078400015
:1017A400043F04043F040400007088FC0830000077
:1017B400001820FF211E0000F008F000E0180000CF
:1017C40000211C031E211E0000F008887000000088
:1017D4001E2123241927211010160E0000000000DA
:1017E4000000000000000000000000E018040200F7
:1017F400000000071820400000020418E000000068
:101804000040201807000000404080F08040400065
:101814000202010F01020200000000F000000000BB
:101824000101011F0101010000000000000000008F
:1018340080B0700000000000000000000000000004
:10184400000101010101010100000000000000008D
:101854000030300000000000000000008060180428
:10186400006018060100000000E010080810E00005
:10187400000F102020100F00001010F800000000CE
:101884000020203F20200000007008080888700015
:101894000030282422213000003008888848300095
:1018A4000018202020110E000000C02010F80000B5
:1018B40000070424243F240000F80888880808004E
:1018C4000019212020110E0000E010888818000063
:1018D400000F112020110E0000380808C838080035
:1018E4000000003F000000000070880808887000B5
:1018F400001C222121221C0000E010080810E00036
:101904000000312222110F00000000C0C0000000BE
:1019140000000030300000000000008000000000E3
:1019240000008060000000000000804020100800DB
:1019340000010204081020004040404040404000A4
:10194400040404040404040000081020408000007F
:101954000020100804020100007048080808F00084
:101964000000003036010000C030C828E810E00054
:101974000718272423140B000000C038E0000000DF
:10198400203C23020227382008F888888870000049
:10199400203F202020110E00C0300808080838001D
:1019A400071820202010080008F808080810E00094
:1019B400203F202020100F0008F88888E808100035
:1019C400203F20202320180008F88888E808100009
:1019D400203F200003000000C03008080838000041
:1019E40007182020221E020008F808000008F80842
:1019F400203F210101213F20000808F808080000C9
:101A04000020203F2020000000000808F8080800FB
:101A1400C08080807F00000008F888C02818080073
:101A2400203F20012638200008F8080000000000AC
:101A3400203F20202020300008F8F800F8F80800A3
:101A4400203F003F003F200008F830C00008F8089D
:101A5400203F200007183F00E01008080810E000AD
:101A64000F10202020100F0008F808080808F000C4
:101A7400203F210101010000E01008080810E000E7
:101A84000F18242438504F0008F88888888870007C
:101A9400203F2000030C302000708808080838001C
:101AA4000038202121221C00180808F80808180012
:101AB4000000203F2000000008F808000008F80893
:101AC400001F202020201F000878880000C8380844
:101AD400000007380E010000F80800F80008F800BC
:101AE400033C0700073C0300081868808068180856
:101AF40020302C03032C30200838C800C8380800D4
:101B04000000203F2000000010080808C838080022
:101B14002038262120201800000000FE02020200C6
:101B24000000007F40404000000C30C00000000076
:101B3400000000010638C00000020202FE0000009E
:101B4400004040407F000000000004020202040044
:101B54000000000000000000000000000000000081
:101B64008080808080808080000202040000000069
:101B74000000000000000000000080808080000061
:101B84000019242222223F2008F80080800000004F
:101B9400003F112020110E00000000808080000012
:101BA400000E112020201100000000808088F80021
:101BB400000E112020103F20000080808080000053
:101BC400001F222222221300008080F088888818B7
:101BD4000020203F202000000000808080808000C2
:101BE400006B94949493600008F800808080000057
:101BF400203F210000203F20008098980000000032
:101C04000020203F20200000000000809898000061
:101C140000C08080807F000008F800008080800081
:101C2400203F24022D302000000808F800000000A6
:101C34000020203F20200000808080808080800061
:101C4400203F20003F20003F8080008080800000F3
:101C5400203F210000203F20000080808080000081
:101C6400001F202020201F008080008080000000B2
:101C740080FFA12020110E000000008080808000E1
:101C8400000E112020A0FF808080800080808000D2
:101C940020203F21200001000000808080808000FF
:101CA4000033242424241900008080E08080000074
:101CB4000000001F202000008080000000808000C1
:101CC400001F202020103F20808080000080808022
:101CD40000010E30080601008080008000808080B2
:101CE4000F300C030C300F000080800080808000D7
:101CF4000020312E0E312000808080000080808002
:101D040080818E70180601000080808080808000B1
:101D14000021302C2221300000000000807C0202CF
:101D240000000000003F404000000000FF000000F1
:101D340000000000FF0000000002027C80000000A0
:101D44000040403F000000000006010102020404BC
:101D5400000000000000000000000000000000007F
:101D6400000000000000000000FFFFFF01FFFFFF74
:101D7400FFFFFFFF04FF3D120102FFFF000501FF0B
:101D8400FFFFFF0304FF4312020102020001FFFFF1
:101D9400FFFFFFFFFFFF49120301010100FFFF01E5
:101DA400FFFFFFFF04FF4F1204010101FFFFFFFFCC
:101DB400FFFFFFFF01FF55120505050106FFFFFFA9
:101DC400FF0AFFFFFF055B12060606070601FFFF79
:101DD400FF09FFFFFF066112070707080701FFFF5E
:101DE400FF09FFFFFF076712080808060801FFFF45
:101DF400FF09FFFFFF086D12090909060A0909FF17
:101E0400FFFFFFFFFF0973120A0A0A0B0AFFFFFF15
:101E1400FF06FFFFFF0A79120B0B0B0C0BFFFFFFF2
:101E2400FF06FFFFFF0B7F120C0C0C0D0CFFFFFFD6
:101E3400FF06FFFFFF0C85120D0D0D0E0DFFFFFFBA
:101E4400FF06FFFFFF0D8B120E0E0E0F0EFFFFFF9E
:101E5400FF0601FFFF0E91120F0F0F100FFFFFFF80
:101E6400FF0601FFFF0F97121010100A10FFFFFF6B
:101E7400FF06FFFFFF109D1200013636010100012D
:101E8400020100010301000104010606050200002D
:101E9400070100340801000F090401010D0100FFCE
:101EA4000E08000017020000190100FF1A010001CA
:101EB4001B0100FE1C0100081D0200001F0100019F
:101EC40020010001210200002301000F2402000070
:101ED4002601000127010008280200FF2A0100074B
:101EE4002B0102402C0100002D0100012E010001F4
:101EF4002F0100FF30010B1C310800003A010008DB
:101F04003B01000F3C0100010101710101010101CC
:101F1400110101013101010101018001100161017F
:101F24003B0014006301730172016201430100016B
:101F3400130106013D0135000401120100010001F5
:101F44000001000104010401330133013C01440197
:101F540032013600000100016501000135008101F4
:101F640000010501820183010001660100010001F5
:101F740003047104020460041104700402040204E2
:101F840001040204100461040004140463047304CF
:101F940072046204430400041304060400040004ED
:101FA4000404120400040004000400045104640046
:101FB40000040004000444040004000400040004B9
:101FC40065040004350481046400050400048304EA
:101FD4000004660400040004030071003001600082
:101FE40011007000310220035004800010006100D1
:101FF40000001400630073007200620043000000DC
:10200400130006000000000004001200000000009D
:102014000000000004000400370037003C024400C4
:102024000000000000000000650000003500810091
:1020340000000500000083000000660000000000AE
:1020440001037103010301030103010301032203DB
:102054000203010310030003000300030003000351
:1020640000030003420300032403060300030003E8
:102074000403120325032303250323030403040396
:1020840000030003000344030003000323030003CD
:1020940065032100350381030003050300030003E6
:1020A40000030003250323030302710230016002CD
:1020B4001102700201020202020280021002610295
:1020C4003A00410063027302720262024302000298
:1020D400130238000002000204021202000200028D
:1020E4000002000204020402370037003C024402EA
:1020F400000239000002000265020002350281027A
:10210400000205028202830200026602000200024B
:10211400000000000000000000000000006000005B
:1021240000000000000000000060007000000000DB
:102134000000000000600070007800000000000053
:10214400006000700078007C0000000000600070F7
:102154000078007C007E0000006000700078007C45
:10216400007E007F005020500000000000000000AE
:102174003000000060000000C0000000800100008A
:102184000003000000060000000C0000001800001E
:10219400003000000060000000C00000008001006A
:1021A400000003000000060000000C0000000C000A
:1021B40036000100060000000F00000000000000CF
:1021C40000000000000003FFFF00000403FFFF0005
:1021D40000FFFF0FF4010005C404032000010013F5
:1021E4000B000000000000000003010F00000000CD
:1021F400000000FE83838383FEFEC3C3C3C3FEFECD
:10220400E3E3E3E3FEFEF3F3F3F3FEFEFBFBFBFB8E
:10221400FEFEFFFFFFFFFE07ECFDFDFDECDCDCCC6A
:10222400BCACAC9C9C8C7C7C6C6C5C5C5C4C4C3C1A
:102234003C2C2C1C1C790CA90C7F0C850CA30C9732
:102244000C910CAF0CB50CBB0CC70C8B0C730C6D48
:102254000C00160F160D0B150B021102220F33037F
:10226400020E303132333435363738394142434443
:102274004546004B16511615160B171B166316E729
:1022840010810D930D990D3D0C9F0D370C430C14CB
:102294000AE5D5C5B5A5A59585857565003C40427B
:1022A4003A3F3F392F473066ED0D0B0E110EF30DFB
:1022B400FF0DF90D303017181921301B1D1F303355
:1022C400303016181920231A1C1E3032000119163A
:1022D4001816161823030000034D4C4651181A25EE
:1022E40005020C0E020B040B0A0708000FD50DA5FE
:1022F4000DAB0DB70DB10D9D0CC10C050ECD0CD35E
:102304000C0204020101010109023F1639164516A7
:10231400CB0B9F16A516991693160003057F05038C
:102324002F1705173316211600BE040AFA061B22BE
:102334009322C082C0839006ED744DF0A37417F00D
:102344009006EF7459F0A37417F09003837447F068
:10235400A37417F09006F17453F0A3741702465255
:1023640074F712055374FD1209C6EAFEEBFF9006DA
:1023740068E0640F60071237DDA2E550051223F50B
:10238400806912456CD2E1F09003D4E0600F8E8234
:102394008F83A3A31260E5120D57E960231237DD82
:1023A4004403F0900315E07043122DB0120BC1E406
:1023B400F07402120BC174FF1240CD120DC9802CAF
:1023C4001223F512602E1258876402701FE8240548
:1023D400F8E934001223FBF874FF68700374FF6992
:1023E400700A12456CD2E5F0123A5FF074030241B0
:1023F400221237E1D2E022F988828983E0FAA3E04D
:10240400F9EA22C082C083120D09E96004792080B0
:1024140011900668E0640F7004790180059003123E
:10242400E0F9024653C082C083EA240EF582EB121F
:102434004A007010EAFCEBFD7A787B031210C91293
:1024440044BE800612479412176A02465374F0126F
:102454000553900312E0F470030224E1900314E0A6
:10246400602E900312E0640270261213578A088BC0
:10247400098C0A8D0B90030A780812098175F014EF
:10248400900664E084F50CE4F50DF50EF50F803C40
:102494001213578A0C8B0D8C0E8D0F90030E780837
:1024A400120B827808790C120A2F90037CE0F50C49
:1024B400A3E0F50DE4F50EF50F7808790C120A2F58
:1024C400900683122D45F50CA3E0F50D7808790CE0
:1024D400120A2F9083247808120809400479008096
:1024E4001090826878081208094004A908800279CB
:1024F400FF0235CC74F0120553E9FEEAFF7A007B43
:1025040000ECF9120BE3E990030AF0A3122591748D
:102514000F6F70051225A58049900668E06F90033F
:1025240013701A1225981208B89082C0780C120BF6
:10253400827808790C1203EA9082BC8018122598DC
:102544001208B89082C0780C120B827808790C12A9
:1025540003EA90832C7808120AA290030E780812DA
:102564000B73EEA3F074016E702090066978081264
:102574000B8290030A7808120A8F90066978081271
:102584000B8290030E7808120A8F0235CCE4F0A374
:10259400F0A3F022122D3A95E0F50AF50BEF780836
:1025A40022A3122591A3F022C082C0839006EB746B
:1025B400F9F0A37416F09003CC7424F0A37423F000
:1025C4001217119003B1E0440802465274F0120548
:1025D400539006697808120B82E5084509450A45B7
:1025E4000B600A900669780C120B828015750C300A
:1025F400750D00750E00750F00900668E0780C12DA
:1026040008B89082B8780C120AA290833A1229F47E
:10261400780C7908120A2F900334780C120B730289
:1026240035CC74EB12055374F71209C6EAFEEBFFBE
:1026340012162DE9F51460030226F18E828F83A30E
:10264400A3A3A3A3A3A3A3A3A3E0FC122D4B1260F3
:10265400E5EAC333FAEB33FB8E828F83A3A3780CB2
:10266400120B829082B47808120B82780C790812CB
:1026740004E3740F6C700302270C900315E06402EA
:10268400600302270CEE240C12456F707575103030
:10269400751100751200751300EE240B12456F7846
:1026A400101208B88A088B09F50AF50B7810790816
:1026B400120AB57810790C120B34402E7508307557
:1026C4000900EC78081208B88A108B11F512F5137A
:1026D40078087910120A2F780C7908120B34400A02
:1026E400900669780C120B73801E7514FD8E828F10
:1026F40083A3E514124E49121705740912094E02F8
:102704005C319006691225A6EE240E12456F60DD39
:10271400123D42120BDDEA4B60D37408120BC11256
:102724003D4D1207B27508FF7509FF780812099D1F
:102734008E828F83A3A3A3A3A3A3A3A3E0F974040A
:10274400120BC1AC82AD83121681740412094E803F
:10275400A9C082C08390031274FFF01216E19006A0
:1027640083E0F8900668E068600312156779081240
:102774000CF1024653C082C08390033812526E603B
:102784002B12526B701F90033812601A900381123F
:102794004D9B900338E4F0A3F07902121597790267
:1027A40012155B80077A387B03120D339003D4E053
:1027B400601A900668E0640F601212290F1207AEC7
:1027C4007A227B03120E41740412094E024653749A
:1027D400F41205539003D4E0605D90031F7423F05A
:1027E400A37417F09003347808120B829082C47893
:1027F40008120AA278081209997A197B03120E4169
:10280400740412094E120D09E9701F123F241216A6
:10281400758A088B09A808A909900338124D9BE80A
:102824004960141247BAD2E6800C90066DE004F0B9
:10283400900338E4F0A3F00232A374F7120553E9CD
:10284400FE1260E21216277940120CF1EEF912170B
:102854001D1217359003D5E06008900668E0F91260
:102864000E65024E5674F4120553EAFEEBFF900611
:1028740068E0F5088E828F83A3E070719003D4E042
:102884006019740F65086013E5A8F8C2AF900328B7
:102894007417F0A374171244C8805E122900640FE1
:1028A40090035F60421260E5121627121735740F09
:1028B4006508701F122900F99003347808120B82FE
:1028C4009083087808120AA2AA08AB09AC0AAD0BD7
:1028D400120E5912290F1207AE7A227B03120E41EF
:1028E400740412094E80061260E51216278E828F38
:1028F40083742C124E49120D0F0232A390035F12FF
:1029040060542408F582E81237E722900328741DE6
:10291400F0A37417F090033422C082C083790212AA
:10292400156102465374F4120553E9900668600376
:102934000229D2E0640F70030229D7900313740FA5
:1029440012496CFC7D00900683E0FA79011217416C
:10295400900663E0603A900680E06034900331743E
:10296400FFF0A37416F09006641229F475830375BE
:10297400820A7808120AA29082B07808120AA27811
:10298400081209997A2B7B03120E41740412094E22
:10299400900683E0640F7005121567801C9003078E
:1029A4007429F0A37417F090030E1207AE7A017B1A
:1029B40003120E41740412094E90038112478C12C3
:1029C4003ACAA2E450031216F31216E78018E06420
:1029D4000F7013900680E0600579021215551216E7
:1029E400ED7908120CF17A817B03120D330232A3C4
:1029F4001229F822E0F508E4F509F50AF50B22742A
:102A0400F5120553750800750900A2AFE433F50A01
:102A1400C2AF90037880078E088F091239B1123C37
:102A240080601C12456CA2E550ED780812099DEEF9
:102A3400FCEFFD7A787B031210CF740212094EE585
:102A44000AA2E092AFEE4F60111237DDD2E4F0EE4D
:102A5400FCEFFD7A787B031210C90240A2C082C049
:102A640083A2AFE433FAC2AF900378800D122BB483
:102A7400A2E55003122AB4122AE312526E70EEEA4F
:102A8400A2E092AF024653C082C083A2AFE433FAFD
:102A9400C2AF9003788012124631E91238A350066F
:102AA400C2E7F0122AB4122AE312526E70E980CF00
:102AB400124783E91237E7D2E4F022C082C083A22E
:102AC400AFE433FAC2AF900378800D122BC1A2E7B2
:102AD4005003C2E4F0122AE312526E70EE80A0E8B2
:102AE40024FBF582E934FFF58322C082C083791088
:102AF400022923C082C083900680E0600579021217
:102B0400155B79201215617A437B03120E537A3ACE
:102B14007B03120E53024653C082C08374EF120922
:102B2400C69003D4E4F0900315F090031204F090DF
:102B34000317E4F0A2AF33FAC2AF90037880101207
:102B44002BC1A2E15006D2E0F0122BB4122AE312F8
:102B5400526E70EBEAA2E092AF7910120CF1790890
:102B6400120CF1900316E06004E4F08040851882B2
:102B74008519837409F07401120BC174E0F0900696
:102B84007D12601A7402120BC1124D9B900690E0E4
:102B9400C0E07404120BC1D0E0F07405120BC1E460
:102BA400F0740E120BC1E41240CD120ED102417A20
:102BB400E82410F582E91237E7C2E1F022124783D4
:102BC400E91237E72274F4120553900317E07041B9
:102BD40012526B700B9003177401F0792012155583
:102BE400750830750900750A00750B00900668E0D9
:102BF40078081208B89082AC7808120AA2780812F1
:102C040009997A437B03120E47740412094E023267
:102C1400A3900355E004F0640470C5792012156193
:102C24001216CF80E974F0120553900668E0FE9006
:102C34000317E4F0900355E004F0640470091216DD
:102C4400D51216CF022CCD792012156190069BE087
:102C5400640F6019900668122F32501190069BE0A1
:102C6400FE900318E0F9900668F0120E6B750C30B4
:102C7400750D00750E00750F00900668E0780C1253
:102C840008B8EE126B28900355E02401F50AE434E9
:102C940000F50BE508850AF0A4C508A8F0850BF03B
:102CA400A428F8850AF0E509A428F509E4F50AF54D
:102CB4000B780C7908120A2F780C1209997A3A7B4E
:102CC40003120E41740412094E0235CC74F4120539
:102CD40053900317122D5C70051216D58055792078
:102CE40012155590034974C3F0A37416F090066846
:102CF400122D45F8A3E0F9900355122D3AE8850802
:102D0400F0A4C8AAF08509F0A42AFA8508F0E9A479
:102D14002AF9E8C333F8E933F988088909E4F50A9C
:102D2400F50B78081209997A437B03120E41740457
:102D340012094E0232A3E02401F508E43400F50937
:102D440022E0122D4BE022C333F8E433F974C52892
:102D5400F582740639F583227401F0900668E06404
:102D64000F22C082C08374FD1209C690031274FF3F
:102D7400F0900315E06401701FE4F090037FE060BD
:102D840026122DB0120BC1E4F07402120BC174FFB1
:102D94001240CD120DC9800F900683E0F8900668AA
:102DA400E0686003121567740302417C9006901278
:102DB40056B574012274F0120553EAFEEBFF90033A
:102DC40017E07003022F2FEE242B1262617003A30D
:102DD400E0696003022F2F1240A7120D51E970031E
:102DE400022F2F900317E4F0900680E0600579022B
:102DF40012155B9003ABE06005790112155B8E82BE
:102E04008F83A3A3A3A3A3A3A3E0A2E4500A7910EE
:102E140012155B7980120CF179201215617A437BCB
:102E240003120E538E828F83A3A312577D1223FBAA
:102E34002400E439FB540F900313F08A088B0974BF
:102E44000C7808120B64E5085401A3F0EA540F90BF
:102E54000318F0EAC4540F900683F090069BE064D4
:102E64000F6017122F3250128E828F83A3A3124742
:102E740090A3E0700590069B8003900318E09006F1
:102E840068F0900355E4122D5E7003022F21E0F9DF
:102E9400EEFAEFFB120E5F900315E06402703E7AC7
:102EA4003A7B03120E53900668E0F9750C30750DE9
:102EB40000750E00750F00780C1208B8E9126B2823
:102EC400E4F50AF50B780C7908120A2F780C12092C
:102ED400997A3A7B03120E41740412094E8E828F42
:102EE40083A3A3A3A3E0FC7D00900683E0FA790208
:102EF4001217417A017B03120E5390030774B7F043
:102F0400A37416F090030E1207AE7A017B03120E1F
:102F140041740412094E7910120CF1800E900315BD
:102F2400E0640270061216D51216CF0235CCE0F812
:102F3400900318E0C39822C082C08390034074BDFC
:102F4400F0A37416F090034974C3F0A37416F090C0
:102F5400035274DBF0A37416F09006E974B1F0A385
:102F64007416F09003D27416F0A37423F0121711A0
:102F74009003B1E0441002465274F212055374F700
:102F84001209C69003ABE06003023058900662E079
:102F940070030230588A828B83A3A3A3A3A3A31232
:102FA4006D508A828B83A3A3A3A3A3E0F87407586C
:102FB400FCE8C4540F5407F5098008EE2402FEEF20
:102FC4003400FF8C0874FF25081C046027900681D8
:102FD400C0828E828F83122400F8758306D082E02B
:102FE400687003A3E06970D37E028024EE2408FE97
:102FF400EF3400FF85090A74FF250AF509046054BB
:10300400EEFCEFFD7A917B061215FDE960DE7E038E
:103014009003ABE0D2E21240CD120D3979011215C2
:103024005B750CA0750D03780C12099D750C017568
:103034000D00780C12099D90067D1207B2740612D9
:103044000BC1AC82AD83EEFA7905120D63740612DE
:10305400094E8051900668E0640F6049E0F89006DC
:1030640083E0686040900680E0703A120CFDE960ED
:1030740034A2AFE433FEC2AF900315E064027020C3
:10308400900312E0F4601912526B701490037812DA
:10309400526E700C7A017B03120E5379001216B72C
:1030A400EEA2E092AF74090234AD74F0120553EA53
:1030B400FEEBFF7508008E828F831231C840030235
:1030C40031C5900668E0640F70030231C590067D37
:1030D400E0F47003A3E0F470030231C5900677E0D6
:1030E400F47003A3E0F470030231C58E828F83A3CE
:1030F400A3A3A3E06401700575090280258E828F65
:1031040083A3A3A3A3E070057509018015F46003EC
:103114000231C5900315E060030231C575090175DC
:1031240008017A437B03120E537A3A7B03120E533F
:103134007A017B03120E53A2AFE433F50AC2AFE562
:1031440009900315F090030EE41231D112526B90E2
:103154000317700474018001E4F0E508900316F08D
:10316400A2E0900355500474038001E4F0E50AA240
:10317400E092AF12347DFB79E1121465900317E0FD
:1031840064017005792012155590034974C9F0A3A0
:103194007416F0750C30750D00750E00750F0090E7
:1031A4000668E0780C1208B89082AC780C120AA277
:1031B400780C1209997A437B03120E47740412099E
:1031C4004E0235CCA3A3E024F5C394122212259217
:1031D400A3F0A374FFF02274F01205531232951277
:1031E400039188088909E4F50AF50B900668E06400
:1031F4000F60481213578A0C8B0D8C0E8D0F9003A1
:103204000E780C7908120AB5780C1208D7502C7570
:103214000C30750D00750E00750F00900668E0788F
:103224000C1208B87808790C120AB59082AC7808A8
:10323400120AA290030E78081209817A8E7B031277
:103244000E5378081209997A8E7B030235C474F4FC
:10325400120553900668E0640F602F900683E060C7
:103264002E7A4C7B03120E53123295120391880866
:103274008909E4F50AF50B78081209997A4C7B035D
:10328400120E47740412094E8005791012156180DC
:103294000E90068812601E7A147B002212094E7F5B
:1032A40004020725C082C08390035F12526E600639
:1032B4001260E212113590035C124B787408F0A38B
:1032C400E4F0A3F09003D4F0900361F07C0BFDF9DB
:1032D4007A627B031210997C0B7D0079007A6D7BF6
:1032E4000312109902465374F712055374F7120926
:1032F400C6EAFEEBFF1240B9740512339F74031241
:103304005D25124D8EEE2430FCEF3400FD8C828D51
:1033140083125D3512338A600BEE242E1240BC7486
:10332400FFF0A3F0EE242EEF34001C1CFD8C828DE4
:1033340083A3E0C0E08A828B8312478CD0E01233EF
:103344008A888289831251AD2403125E0112160306
:103354007408120BC17403F090067D1207B2740254
:10336400120BC1AC82AD837903EEFAEFFB120D5D53
:10337400740212094EE9F5087007EEFAEFFB120C1D
:1033840031A90802412012606D12349A8A828B831B
:10339400E8F0A3E9F08C828D83E022F0A3E4F0EE60
:1033A400240D125B612274F2120553EAFEEBFF8CCA
:1033B400088D09890A12347D123491740E120BC1DE
:1033C40012349FE824FF18E934FFF988828983E5E1
:1033D4000A125D31900682125D2E900681125D2ED6
:1033E4007410120BC112349FEE2404FCEF3400FD60
:1033F400880B8A828B83E0F50C8C828D83E0250C0C
:10340400C3950B125D44E8F0A3E912495FA3A3A39B
:10341400A3A3A3A3A3E064037008123485F0A3E478
:10342400800AEE240EF582EF12625BA31233A274BB
:1034340009F0750C0B750D00780C12099D7C627DEA
:1034440003125C36121093740212094E750CFF7548
:103454000DFF780C12099DAC08AD097903EEFAEF63
:10346400FB120D5D740212094EE9F5087007EEFABD
:10347400EFFB120C31A9088033EE2402FAEF34007A
:1034840022EE240EF582EF125B64740122FB8A8221
:103494008B8312349A22124DA1F922E0F50CA31267
:1034A4005D35125D71E50CF02212094E7F060207AC
:1034B4002574F0120553EAFEEBFF890B8C0E8D0F79
:1034C400750A00A2AFE433F50CC2AF900378803FD5
:1034D40012359950371235A664037030EE24F9FE84
:1034E400EF34FFFF850882850983A3A3E02405FC4C
:1034F400A3E03400FDEEFAEFFB121603EE24FF1EE8
:10350400EF34FFFF7410250AF50A150B12490F1248
:103514006B38E50B6006E508450970B4E50CA2E0DC
:1035240092AFA2AFE433F50CC2AF900378802324AA
:1035340002FAE5093400FB8A828B8312445F123558
:10354400B58A828B831244471235B5050A150B12CE
:10355400490F12492460271235A6640270F112350E
:1035640099E50840CA124632E509124572A2E550AF
:10357400DE850E82850F837401F0E50B70D1E50CB6
:10358400A2E092AF8E828F83E50AF0EE24FFFAEF79
:1035940034FFFB8033E508124784E5091237E7A2BC
:1035A400E622850882850983A3A31247A3125893B0
:1035B40022E08E828F83F0EE24FF1EEF34FFFF2281
:1035C400120E47740412094E7F0802072574EC1288
:1035D400055374F61209C689118A0F8B0E85188259
:1035E400851983E4F090037EE0C3940840057510C8
:1035F400078003E0F510E51033333354F8F89006F0
:1036040067E0282437F50CFA7B0012109F8A088B98
:1036140009EA4509700302376EEA2402F50AEB341D
:1036240000F50BEA250CF8EB3400F9850A82850BCA
:1036340083124D9BEA2404F50CEB3400F50D850C44
:1036440082F583E4F0900667E0F512F8C3E498F895
:1036540095E0F9850A82850B83E028FEA3E039FF13
:10366400751300781212099D900665125D1FEEFA1B
:10367400EFFB121093740212094E85188285198388
:10368400AC82AD83A910EE24FFFAEF34FFFB1216CF
:103694007B8A128B13AE12AF138E828F83E41235A2
:1036A400BAE50EC454F0F99003D5E0C4333354C0E2
:1036B400F8900661E0A2E0E43313134849440F1282
:1036C40035B6E50FC454F045118E828F83F0EEF8C1
:1036D400850A82850B83E0FA850C82850D83E02AB6
:1036E400C398F0850A82850B83EEF0A3EFF0E5081A
:1036F400240E126257A3F0E508240D1262577409D0
:10370400120BC1E4F0750A0BF50B780A12099D7CC3
:103714006D7D03E508241BFAE5093400FB121093C0
:10372400740212094E851882851983E0600EE5083B
:10373400240EF582E5091245724408F0E4F50A788E
:103744000A12099D7403120BC1AE82AF83120D3F9E
:10375400EEFCEFFDAA08AB09120D5D740212094ECE
:10376400E9AA08AB0960071210A57A007B00740A65
:1037740012094E7F0C02072574F31205538A0A8B33
:103784000BA2AFE433F50CC2AF75080075090090C5
:103794000378802C1239BC5024850A82850B83A3BC
:1037A400A3125D1F8E828F83A3A31260E5120D45C1
:1037B400E9600A1237DDC2E6F08E088F091239B1CA
:1037C400123C8070CFE508450960061238A9D2E69C
:1037D400F0E50CA2E092AF80121237E122EE241140
:1037E400F582EF12494CE02212094E7F05020725AB
:1037F40074F0120553EAFEEBFF8C0C8D0D750E0070
:10380400A2AFE433F50FC2AF750800750900900349
:10381400788025850A08850B091238A9D2E4F0E5D9
:1038240008124632E509124572D2E7F0E50A24FB94
:10383400F582E50B34FFF583E0F50AA3E0F50BE52B
:103844000A450B6043E50A124784E50B1238A3507E
:10385400DB850A82850B83A3A31207B2AC0CAD0DE2
:10386400EEFAEFFB120D4B740212094EE960BDE54E
:10387400084509609EE508240DF582E509123C72AD
:103884007006123AC4D2E4F0E50FA2E092AFE50864
:1038940045096006120C2B750E01A90E0235CC12D7
:1038A40037E7A2E722E508124784E5091237E72241
:1038B40074F212055374FE1209C6750C00750D00DE
:1038C400851882851983E4F0A3F0A2AF33F50AC208
:1038D400AF900378126D50803BEE24FBF582EF34F9
:1038E400FF126B36780C12099DEEFCEFFD7A787BA3
:1038F400031210CF740212094EEEFCEFFD851882FC
:10390400851983AA82AB831210BDAE08AF09900358
:103914007EE014F0EE4F60271239BC5019EE240BF0
:10392400F8EF12445624FFF0A3E034FFF0888289B4
:103934008312526E60A38E0C8F0D1239B18095E5FF
:103944000AA2E092AF90037EE06031900668E064E2
:103954000F60069003D4E070237A567B03120E5353
:103964009082AC1207AE7A567B03120E477404128F
:10397400094E800874F0124E49120C1F8518828576
:103984001983AA82AB831210C38A0A8B0BAE0AAFC7
:103994000BEE4F601312166F1237DDA2E28E828F88
:1039A40083A350D074E980CE74020234ADEE24FBBC
:1039B400F582EF34FFF583221237E1A2E72274F790
:1039C400120553EAFEEBFF12166F12478912176AAB
:1039D400E96401900684700AE02401F8A3E034004D
:1039E400800312577DF9EE240B1240BC124D9B90BC
:1039F400037EE07021900668E0640F70197A567BAC
:103A040003120E539082AC1207AE7A567B03120E49
:103A140047740412094EE5A8F8C2AF90037EE0048F
:103A2400F0E802573C74F7120553EAFEEBFF123A32
:103A34005FF012166FEEFCEFFD7A787B031210C96B
:103A4400E5A8F8C2AF90037E1244C6900668E0640D
:103A54000F70057908120CF1024E561237E1C2E4D8
:103A64002274F712055374EA1209C6EAFEEBFF90BA
:103A74000661E060468518828519837401F0120B93
:103A8400C1E4123B4E120BC1AA82AB831216038E01
:103A9400828F83123ACAC0E0740A120BC1D0E012BA
:103AA400519F740B120BC1AA82AB83120D7B851834
:103AB40082851983AA82AB83120ED1741602412225
:103AC400850882850983A3A31247A3E02274F71211
:103AD4000553EAFEEBFF12168774DC69601E74DD81
:103AE40069601974E469601474F369600F74DE69C1
:103AF400600A74DF69600574DB697007EEFAEFFB36
:103B0400120CF7024E5674F712055374EB1209C6E1
:103B1400EAFEEBFF8518828519837406123B4E1268
:103B24000BC1AA82AB831216031240B0740A120BA3
:103B3400C1AA82AB83120D7B851882851983AA8260
:103B4400AB83120ED17415024122F0EE2413FCEF64
:103B54003400FD74022274F712055374F71209C677
:103B6400EAFEEBFFEE243012456F60701245638568
:103B74001882851983AA82AB831216037408120B68
:103B8400C17403F090067D1207B2EE242E1240BCDD
:103B94001207B2900690E0F97404120BC1AC82AD26
:103BA40083EEFAEFFB121681740412094E74DC6979
:103BB400602374DD69601E74E469601974F36960DC
:103BC4001474DE69600F74DF69600A74E869600563
:103BD40074DB697007EEFAEFFB120CF702412074F4
:103BE400F21205538A088B09750A00750B00750CCF
:103BF400E7A2AFE433F50DC2AF90037880078E0AD5
:103C04008F0B1239B1123C8060351239BC50EF125F
:103C14003C6C70EAEE2432123C788A828B83A3A334
:103C2400E06870DA780A12099DEEFCEFFD7A787B81
:103C3400031210CF740212094E90037EE014F0E5D3
:103C44000DA2E092AFEE4F6013EEFAEFFB12166F87
:103C540079F0EEFAEFFB120CF7750C00A90CAA0828
:103C6400AB09120CF70234B0EE240DF582EF1237D3
:103C7400E7640122F582EF1237E7F822E0FEA3E0C1
:103C8400FFEE4F2274F412055374F71209C6EAFECC
:103C9400EBFF8E828F83A3E064F37003023D368EC4
:103CA400828F83A3E064DF7003023D368E828F83AC
:103CB400A3E064E8607C8E828F83A3E064DB60729F
:103CC40012162DE9F5087062EE240E12456F605A43
:103CD400123D42120BDDEA4B60507408120BC11204
:103CE4003D4D1207B27508FF7509FF780812099D4A
:103CF4008E828F83A3A3A3A3A3A3A3A3E0F9740435
:103D0400120BC1AC82AD83121681740412094EE900
:103D1400F50874F36508601274DF6508600C74E8D4
:103D24006508600674DB6508700F8E828F83A3E5D7
:103D340008F0EEFAEFFB12162174090232A0EE2409
:103D44000FFAEF3400FB79092274021256C374FF90
:103D5400F0A312672AA32274F4120553EAFEEBFFC0
:103D64007508008E828F83A3A3A3A3A3A31231C8D3
:103D740040037508E88E828F83A3A3A3A3A3A3A300
:103D8400A3A3A3E0C3941040057508E880138E82B2
:103D94008F83A3A3A3A3A3A3A3A3A3A3E0640F60FC
:103DA4000B9003B1E0540870037508E8EE240B127D
:103DB4003C788E828F83A3A3A3A3A3A3A3A3A3A3CB
:103DC400E0C398500DEE240B12456F640F60037529
:103DD40008E8900681E0F47003A3E0F4700375082A
:103DE400EC7A237B0012112F90035F12603890034A
:103DF4005F12526E6020750A23750B00780A12094F
:103E04009DEE2402FCEF3400FD1260E21210937464
:103E14000212094E800375081AA9080232A374F627
:103E2400120553EAFEEBFF8E828F83A3A3A3A3A301
:103E3400A3A3A3E090066812674590068312673D2A
:103E440090066312674A9003D5F0F912147D90032B
:103E5400D5E0601AEE2404FAEF3400FB7950121412
:103E640065EE2406FAEF3400FB79E1121465900341
:103E7400D4122D5C600474018001E4900361124B40
:103E8400D712099DEE240DFCEF3400FD7A627B030A
:103E9400121093740212094E780812099DEE241828
:103EA400FCEF3400FD7A6D7B03025E1574F7120596
:103EB40053EAFEEBFF8E828F83A3E070061260E26A
:103EC4001216278E828F83742C124E49120D0F0204
:103ED4004E5674F7120553EAFEEBFF90035F12523D
:103EE4006E600D1260E290035FE4F0A3F0121135EE
:103EF4008E828F837408124E49120ED1024E56746C
:103F0400F61205539003D4E06013900361E0700D42
:103F1400123F24121675EA4B6003120C31025E1D27
:103F2400900663E0FB900683E0FA900668E0F922CD
:103F340074F6120553EAFEEBFF750800121477E9D4
:103F440075F064A4F8A9F07AFF7B00120389E8FAFB
:103F54008E828F83A3A312444CFBA3A882A983A2BD
:103F6400E05006900661E06003750801EBA2E150A1
:103F740021E508A2E0501B88828983E0FCA308A9FC
:103F840083EE242F124B169C40057508018003759F
:103F94000800EBA2E25011E508A2E0500B888289E8
:103FA40083E0C39A40218006E508A2E050199003FB
:103FB400D4E06013900361E0700D123F2412167573
:103FC400EA4B6003120C31025E1D74F51205537442
:103FD400E71209C6EAFEEBFF750A018E828F83A3FE
:103FE400A3A3A3A3A3A3E0A2E2507EEE242BF58215
:103FF400EF3400125D1D1240A7121669E9706A9031
:104004008236E06401700DEE241B124D7E7005753E
:104014000A00805575080B750900780812099D126D
:1040240040B07410120BC1AA82AB831210937402B5
:1040340012094E120D3FE9FA740E120BC185820863
:10404400858309780812099D750830750900780878
:1040540012099DEE242B1240BC1207B212600A7999
:1040640001120D63740612094E8518828519837432
:1040740010123B4E120BC1AA82AB831215F7EE2429
:104084002B126013740B120BC1124D9B740D120B87
:10409400C1E50A1240CD120ED1741912094E7F03E4
:1040A400020725EE2413FAEF3400FB22EE2408FC69
:1040B400EF3400FD22EE240EF582EF125B642285BC
:1040C4001882851983EAF0A3EB1240D1221256C359
:1040D400AA82AB8322C082C0839003D5E06003121E
:1040E4000DBD024653C082C0839003CC7428F0A354
:1040F4007423F0A37477F0A37422F0A3740EF0A3D6
:104104007423126582F09006E5745DF0A37416F0D2
:104114009006E77457F0A3741602464B740912090B
:104124004E024E56C082C08374FE1209C6800D7AB8
:10413400787B031210C31240C3120D33900378121C
:10414400526E70EB90037A12526E600F7A7A7B0390
:104154001210C31240C3120D3380E9900378E4F0C7
:10416400A3F090037E12259290038B7455F0A374F0
:104174000CF074028002741112094E02465374F654
:10418400120553E9FF8F0874A02508F582742212E2
:104194005477FE8E08FA7B0012109FEA4B600BEAFC
:1041A4002508125554A3E4F080297A027B001210EA
:1041B4009FEA4B601A8F0874B82508F5827422129E
:1041C4004637F0A3741AF09003ACE0F91210AB7AFE
:1041D400007B00025E1DE9FD74062DFCEAA2E0509E
:1041E4001EEC75F00A84A8F0E86014740A2CC398D5
:1041F400FCE8C394054004740A2CFC740B2CFCEDFD
:10420400C394134004781480027806E82C2409F837
:10421400E43400F97A0A7B00120389E8F902091BE5
:10422400C082C0839003B1E05402600A120ED7E941
:104234006004790180027900024653C082C08390F1
:1042440003B1E05402601690037EE0700C12526BCE
:10425400600B124779A2E7500479018002790002C9
:104264004653C082C083908234E0F8900380E0C358
:1042740098500512109F80047A007B00024653C0B8
:1042840082C083120D33790002465374F71205532A
:1042940074FE1209C6851882851983EAF0A3EB120D
:1042A40044A3601114606C24FE606F24F870030250
:1042B40043D102442C900668E0640F6018120D0983
:1042C400E970128518828519831260E59006E91257
:1042D400478C12176A900690E0C0E0851882851911
:1042E4008312517DD0E0124498F58388827414F0CF
:1042F400851882851983125D1F7A7A7B031210BD9B
:10430400E5A8F8C2AF9003801244C67920120CF1DC
:10431400024C0012448B741580D512443CA3A3E0D4
:10432400700302442C85188285198312444CFAA325
:10433400E0FB8A828B83E0C0E0851882851983E0E4
:10434400FCA3E0CC2406F582EC1240BFD0E012605E
:104354006188828983EAF0A3EB124498C81246323A
:10436400E8124572851882851983600812446D40ED
:104374003F02442C12446D5022124476FA8518826E
:10438400851983A3E0C82406F582E8123C7B7404F3
:1043940028F58274231254776A601585188285196A
:1043A4008312445FE06408707F1244766408707876
:1043B400124476141244B1240AC0E0851882851987
:1043C4008312478CD0E01244B1040242F312443CFD
:1043D40012601A88828983E0541F6403703AE0C42F
:1043E400135407F8E58228F8E5833400F9E8240239
:1043F400F582E9124572641F701EA3A3A3E0C0E016
:10440400851882851983124447D0E01244A36407B7
:10441400700612448B7431F0851882851983123A20
:10442400CC643170030242F4851882851983AA8210
:10443400AB83120D33024314851882851983A312AA
:1044440051C022124481A322E02402F8A3E01244C2
:1044540056223400F988828983E0221244632212AE
:104464004981C8240612494922124463E014C394C2
:104474000922851882851983124481E022E0F8120A
:104484004491A3A3A3A322851882851983A3E0F5ED
:104494008388822212449C221256C312498122121A
:1044A400449CF5838882A3A3A3A3A3E02212449C83
:1044B400C82406F582E81237E722E5A8F8C2AF90CF
:1044C400037FE004F0E8A2E7A2E792AF22C082C033
:1044D4008390038312526E600812449212176A800A
:1044E40002790002465374F7120553EAFEEBFFEE1D
:1044F400240D123488124B1BF8A3E0F91240B912B0
:104504004D9BEE243512456FC0E0EE24131240BCDF
:10451400D0E0F0EE243612456FC0E0EE24141240D1
:10452400BCD0E0F0EE243812456FC0E0EE2418123F
:1045340040BCD0E012603E1207B2124563EE243153
:10454400F582EF12491F120D5D740212094EE9F54E
:10455400087007EEFAEFFB120C31A908024E56EE72
:104564002426FCEF3400FD22EE2410F582EF1237EE
:10457400E722C082C083120D09E960047920800219
:104584007901024653C082C083EA124784EB124584
:1045940072D2E0024652C082C08312462A123C7292
:1045A400701112463F400C8A828B83A3E0F9120CEF
:1045B400F78071EA124632EB124572A2E650128A73
:1045C400828B83A3E0F99006EB12478C12176A8062
:1045D4005312462A123C72700D12463F50088A82CA
:1045E4008B83743080358A828B83A3E0641B8A8238
:1045F4008B83700474228023A3E0700F12462A1266
:104604003C7B74C428F5827422800D12462A123C25
:104614007B74B828F5827422124637F09003ACE01C
:10462400F91210AB8029EA240DF582EB22E824105C
:10463400F5822212547B8A828B8322EA2410F5822B
:10464400EB1237E7A2E322F09003B1E04402F0D08A
:1046540083D08202091B74F7120553E9FE12526BD0
:104664007003024776EE6010741B6E7012126023A2
:10467400E064057003024744126420E4024748746E
:10468400E96E705B1247AC700B120EDDE960051227
:1046940047C5605B9003811247A99003816039127A
:1046A40047C8900381700B1247A914F01215AF028A
:1046B40047761247B7C2E7124967240DF582E8121C
:1046C4006B22700C900381E0F8A3124779D2E2F0D8
:1046D40012479412176A807612642374E980657411
:1046E400E16E703F120EDDE960561247C5705190BD
:1046F400068AE0C0E012577AC82412F582E8124014
:10470400BFD0E0F0900679E0C0E0900381124790BA
:10471400124790D0E0F0900679E004F07901121588
:1047240097804F741C6E70189003811260E5900698
:10473400F112478C12176A900381E4F0A3F08032DF
:10474400126420EEF09003811260E5120C1F1249EE
:1047540038E054806010900690E0F91214A190069D
:104764008FE0F9121495900381E4F0A3F07910120C
:104774000CF1024E56E0C8124784E81237E722E8EB
:104784002411F582229006EF1247A3221251BD2272
:10479400900381E0FAA3E0FB9006E71247A322E02E
:1047A400F812449122E0F8A3E0C82412F582E8123A
:1047B40037E722E0F8A3E0C82410F582E81237E7CF
:1047C4002290038112493FE054042274F4120553E9
:1047D400750A00750B00A2AFE433FFC2AF12526B2F
:1047E40060030248C712478912176AE94410F89017
:1047F4000378800985080A85090B12490F12492498
:1048040070030248C71238A9586870E8780A120978
:104814009DAC08AD097A787B031210CF740212099B
:104824004E900381E508F0A3E50912496712478415
:10483400E81238A350030248CE90037FE014F0EF4F
:10484400A2E092AF900381E0240EF8A3E03400F9D3
:10485400880889098882F5831260E59003811244EF
:104864007CF9120BE3E990037CF012495DE054807B
:10487400601812577AC8241312491C1214A1125733
:104884007AC8241412491C121495124938A3E0540E
:1048940001606690037C12526E6049124951604473
:1048A400124951F8790090037C1260E5120391E8F3
:1048B400C0E012492CD0E012496CC3941340117427
:1048C40002800EEFA2E092AF803E90037E02484049
:1048D400E4C0E0900382E0C8241AF582E81240BFE5
:1048E400D0E0801012492C7401124967241AF58211
:1048F400E812348BF07903800C9003811247B7A23D
:10490400E1B3E433F91215970232A3E50824FBF569
:1049140082E50934FFF58322F582E81237E7F922AC
:10492400126B3CE5084509221260512419F582E80E
:10493400125B642290038112493F22124981C824E8
:104944000E12494922F582E83400F583221260519F
:104954002418F582E81237E722A3E4F0850882855B
:10496400098322124979C822124979F5838882A3DE
:10497400A3A3A3E022F090038112498122E0F8A3CB
:10498400E02274F7120553EAFEEBFF120D2DEE122E
:104994004632EF124645400A123C6C700590823252
:1049A4008003908233E0F9EEFCEFFD7A787B03120A
:1049B40010D5E96034EEFAEFFB9006ED12478C1245
:1049C400176AEE240E1249FD70101244BEEE240E36
:1049D400124B0E7021120C2B801CEEFAEFFB90068A
:1049E400E512478C12176A800D8E828F83A374F1AF
:1049F400124E49120C1F024E56F582EF1237E7543D
:104A04000422C082C083120C2B02465374F7120591
:104A140053EAFEEBFF79009003B1E05402700AEE12
:104A240024331249FD600279E89003B1E0546070C8
:104A34000CEE243312456F5402600279E88E828FA3
:104A440083A3A3A3A3E0C39475400279E8EE2431C1
:104A540012456F700CEE242E12456F700479F580A8
:104A640009E97003120C0DE96007EEFAEFFB120C72
:104A7400F7024E56C082C0838A828B83740DF01273
:104A84000ED102465374F4120553EAFEEBFF8E82F4
:104A94008F83E4F0A3124B1B54049082327012E013
:104AA400F890037FE0C398401279F1120CF70232B8
:104AB400A3E0F890037EE0C39850EEEE2433124B4B
:104AC4000E6035EE2437124B1694054039EE24332C
:104AD40012456F5405702F7A857B03120E53EE2412
:104AE400371240BC1229F478081209997A857B039D
:104AF400120E47740412094EEEFAEFFB9003ACE079
:104B0400F91210AB80A879E880A1125B61A3E0548C
:104B140001221237E4C322F0EE24331237E4227464
:104B2400F6120553E9FE2451FAE43400FB12109FF7
:104B3400EA4B6015EE8A828B83A3A3A3A3F0EA2435
:104B44005112555F124D9B80047A007B00025E1D5A
:104B5400024A06C082C0839003A8E4F09003ABF03D
:104B6400900394124B787402F090039D124B787466
:104B74000102465274F1F0A3740CF0A32274F612ED
:104B8400055374F11209C68518828519837402F0DD
:104B94007401120BC1E9F060047AFF7BFF74021206
:104BA4000BC1EAF0A3EB124BD712099D7CA07D0345
:104BB4007406120BC1AA82AB8312109374021209F9
:104BC4004E851882851983AA82AB83120ED1740F85
:104BD400025E1AF075080B75090078082274F71242
:104BE400055374FE1209C6851882851983740AF068
:104BF4007401120BC1E91240CD120ED174020241AC
:104C04002274F0120553126962120B827808790C2F
:104C14001203EA78081209997A977B030235C4745F
:104C2400F412055374C61209C6900668E0640F6056
:104C340010851882851983742E1256CB120D0F809D
:104C4400277A8E7B03120E53123295120391880831
:104C54008909E4F50AF50B78081209997A8E7B0321
:104C6400120E47740412094E743A0232A074F612FA
:104C7400055374F71209C6EAFEEBFF8E828F83A3F5
:104C8400E0F5086003024D67124D7B6008E06403A1
:104C940060037508E8EE24261240BC1231CA503471
:104CA400E5086003024D67EE2426FAEF3400FB7931
:104CB400E1121465EE2431FAEF3400FB795012143A
:104CC40065124D7B7014EE2428126013900677123F
:104CD4004D9B80187508E8024D6B90067774FEF0C2
:104CE400A304124D847A6E7B0612160375080B75A5
:104CF4000900780812099DEE241BFCEF3400FD7AAC
:104D0400A07B03121093740212094E1234851233DD
:104D14009F7402124D84851882851983AA82AB83FD
:104D24001215F7EE2431125DDF1234918A828B83DF
:104D3400E8F0A3E9124B1B125DF512099D740212EF
:104D44000BC1AC82AD8379831A1AEFFB120D5D742B
:104D54000212094EE9F5097007EEFAEFFB120C3165
:104D6400850908E508600B126EED7417124E49129E
:104D74000D0F7409025E1AEE24301237E464022225
:104D8400F0EE2428FCEF3400FD22FB8A828B831290
:104D94004DA1F98A828B83E8F0A3E9F022E024FF95
:104DA400F8A3E034FF2274F612055374F71209C60F
:104DB4009003ABE070457401F0F912155B8518821D
:104DC400851983AA82AB83120D397508A07509036E
:104DD400780812099D750801750900780812099D63
:104DE40090067D1207B27406120BC1AC82AD837AB1
:104DF400037905120D63740612094E024D7674F799
:104E0400120553EAFEEBFF79011215618E828F833E
:104E1400E064207004A374EBF09003ABE0A2E250D2
:104E240003C2E2F0E0A2E15008125052120C678073
:104E34000C8E828F83742A124E49120D0F80138EAA
:104E4400828F837429F0EEFAEFFB22EEFAEFFB1265
:104E54000DB17F0102072574F412055374FE120983
:104E6400C6EAFEEBFF79011215617A8E7B03120EFE
:104E7400537A977B03120E53125189851882851930
:104E8400831251B6E0F5087015851882851983AA36
:104E940082AB837953121465126B14121465750A6C
:104EA4000B750B00780A12099D1240B07AA07B039F
:104EB400121093740212094E8518828519831260A8
:104EC400E5A908120C619003ABE0A2E1500A8E82BE
:104ED4008F83A3E0F9120C679003ABE4F074020231
:104EE40032A074F7120553EAFEEBFF8E828F83A380
:104EF40074EBF09003ABE0A2E1500579EB120C6780
:104F0400EEFAEFFB120C97024E5674F7120553EAB1
:104F1400FEEBFF79011215617A8E7B03120E537A30
:104F2400977B03120E539003A8E4F09003ABF07A3E
:104F3400FF7BFF8E828F83A3E0F9120C61024E5631
:104F440074F7120553EAFEEBFF120C91024E4F74F4
:104F5400F7120553EAFEEBFF79011215618E828F79
:104F640083A3A3A3A3E06003E4800274EB124FA421
:104F74005003C2E2F0E0A2E15008125052120C6752
:104F84008014A2E050108E828F83742AF0A374EBF5
:104F9400124E49120D0FEEFAEFFB120C43024E565D
:104FA4008E828F83A3F09003ABE0A2E22274F61208
:104FB4000553EAFEEBFF9003ABE0D2E1F079011276
:104FC400155B8E828F83A3E07041120D3FE9FAEEE8
:104FD400240DF508EF3400F509780812099D7508C9
:104FE40001750900780812099DEE240B1240BC12C9
:104FF40007B2EE2402FCEF3400FD7905120D637450
:105004000612094EE98E828F83A3F08E828F83A3CA
:10501400E06004F9120C67025E1D74F7120553EA8E
:10502400FEEBFF79011215618E828F83E06420709C
:1050340004A374EBF09003ABE0A2E25003C2E2F0ED
:10504400E0A2E15006125052120C67024E56C2E121
:10505400126EF8A3E0F92274F7120553EAFEEBFF8F
:1050640079011215617A8E7B03120E538E828F831F
:10507400A3A3A3A3E06003E4800274EB124FA45043
:1050840003C2E2F0E0A2E15006125052120C670291
:105094004F9A74F7120553EAFEEBFF79011215617A
:1050A4008E828F83A374EB124FA95003C2E2F0E007
:1050B400A2E15006125052120C67024E5674F712B7
:1050C4000553EAFEEBFF7A8E7B03120E53EEFAEFE2
:1050D400FB120CBB024E4F74F7120553EAFEEBFFB2
:1050E4007A8E7B03120E53EEFAEFFB120CBB024EC8
:1050F4005674F712055374EF1209C6EAFEEBFF1259
:10510400600A7A6E7B061215F1E96068851882855B
:1051140019837409F07401120BC174EFF0125189F0
:10512400F87402120BC1E81251B6A3A3E0C0E074F4
:1051340004120BC1D0E01251AD640870158E828F39
:1051440083A3A312517DE0C0E07405120BC1D0E02B
:1051540080067405120BC1E412519F7406120BC130
:10516400AA82AB83120D7B851882851983AA82AB30
:1051740083120ED174110241221260542407F58265
:10518400E8125B6422125DE9FB8A828B8312601E43
:1051940088828983E0FCA3E0F9EC221251A322F077
:1051A400EE2408FCEF3400FD221251B122126733C1
:1051B400E02212606A1251BD22E0F8A3124492A3C5
:1051C400A322C082C083120DBD024653C082C08395
:1051D4009003C87439F0A37422F0A374FBF0A37491
:1051E40022F09006F5740CF0A3741FF0A374ACF0D5
:1051F400A37420126570024652C082C083EAFCEB9D
:10520400FD7902120D1B024653C082C08379060247
:1052140064F674F612055374FE1209C69003AD12B7
:10522400526E60077AAD7B03120D339003B3E4F042
:105234009006C312526E602C800D851882851983E6
:10524400AA82AB83120D339003ACE0F91210B78A33
:10525400088B09A808A909851882851983124D9B12
:10526400E84970D6025E1890038112601EE8492254
:1052740074F6120553E9FA7B009003ACE0F91210BE
:10528400DB025E1D74F712055374F01209C6EAFEC0
:10529400EBFF89088E828F83E0F874E628F5827428
:1052A40022125477C0E07401120BC1D0E0F0640BF9
:1052B400700D8E828F83A3E9F0120D9F02538CE050
:1052C400700302538C640C6003025378741A6508EB
:1052D400700B7404120BC1E4F0A30253777404122C
:1052E4000BC1EEF0A3EF126059C0E07403120BC1BE
:1052F400D0E0126726120B9E7406120BC1120BAA81
:105304008E828F83A3A3A3A3A3A3A3A3A312601A30
:10531400740A120BC1125D48E054106009851882AA
:10532400851983E48012EE2412123C7890068AE0F8
:10533400C398851882851983F0E0C0E0740C120BC1
:10534400C1D0E0F0EE241512456FC0E0740D120BCD
:10535400C1D0E0F0EE241612456FC0E0740E120BBB
:10536400C1D0E0F0EE241712456FC0E0740F120BA9
:10537400C1D0E0F07402120BC1E508F07401120B05
:10538400C1AA82AB83120ED17410024122C082C022
:10539400839003B3E07004790180027900024653DC
:1053A400C082C0839003B3E0600464027004790196
:1053B40080027900024653C082C0839003B3E06444
:1053C40003700479018002790002465374F61205D1
:1053D400539003B3E0C333F8E433F974F328F5824C
:1053E400740639F5831258D5C2E7F0C333FCE82CB0
:1053F400F582E91240BFA3E493FEC333FCE433FD1A
:1054040074F32CF58274063D125D1DEC4D6005EEBF
:105414009003B3F08A828B83E0C333FCE433FDE86A
:105424002CF582E93DF583E493F508C4540FC333A6
:10543400F874C228F58274031240BF12526E7005CC
:10544400120D8D801BE508540FC333FCE82CF58244
:10545400E9125477C0E0740193F583D08212176A7D
:10546400025E1D890CEAFEEBFF890874DB2508F552
:1054740082742212547B2212494CE4932274F31254
:10548400055374FE1209C6125467FA7B0012109F6A
:105494008A088B09EA4509602F8A828B83E50CF020
:1054A40012556B12099DEEFCEFFDEA2402FAEB346F
:1054B40000FB121093740212094EAA08AB09900360
:1054C400ACE0F91210AB8012851882851983E50CC3
:1054D400F0791AAA82AB83120CF774020237EC74C7
:1054E400F012055374FE1209C6125467F50AFA7BCA
:1054F4000012109F8A088B09EA4509603A8A828B58
:1055040083E50CF0A3E4F0EA250A12555412556B16
:1055140012099DEEFCEFFDEA241BFAEB3400FB12AA
:105524001093740212094EAA08AB099003ACE0F977
:105534001210AB79008014851882851983E50CF06C
:10554400791AAA82AB83120CF7791A74020235C94C
:1055540012555FE812606AA3A3A322F8EB3400F9A2
:105564008A828B83A3A322A3E4F0850C0A74D0253A
:105574000AF582742212547BF50A750B00780A220C
:10558400C082C083E99003AC02465274F6120553FC
:1055940074FE1209C6EAFEEBFFEE5420702E80372B
:1055A400E5A8F8C2AF900380E0141244C88A828B45
:1055B400831256B5126035120D0F85188285198332
:1055C400E0641560077AAF7B03120D337A7A7B03AC
:1055D4001210C3EA4B70C9EF5480700F8019126027
:1055E40035120D0F7AAF7B03120D339003ACE0F943
:1055F4001210B7EA4B70E7EE5410600E85188285DE
:105604001983742D1256CB120D0FEEA2E0500E85A5
:10561400188285198374241256CB120D0FEE54028E
:10562400600E85188285198374251256CB120D0FCE
:10563400EE5404600E85188285198374261256CBA5
:10564400120D0FEE5408600E851882851983742894
:105654001256CB120D0FEE544060107401120BC1A0
:105664001256BE742C1256CB120D0FEE54806010DD
:105674007401120BC11256BE742F1256CB120D0FA9
:105684009003AD12526E6022E5A8F8C2AF9003AD4C
:105694001260E59003ADE4F0A31244C8A31260388D
:1056A400120D0F7AAF7B03120D337A007B00025E7A
:1056B40018E0851882851983F022E41256C322F07B
:1056C40085188285198322F0AA82AB8322C082C006
:1056D400839003AF12601AEA687002EB6970079056
:1056E40003AFE4F0A3F002465374F7120553EAFE45
:1056F400EBFFEE4F70031212BBA2AFE433F508C206
:10570400AF8E828F8312526E6028E824FBFAE9344C
:10571400FFFB9003AF125D1FE86C7002E96D700728
:105724009003AFE4F0A3F08E828F83E4F0A3F01231
:105734001135E508A2E08004A2E7A2E792AF024E89
:1057440056C082C083900677E064FE7003A3E0F441
:1057540070097C6E7D061215F780188A828B83A3EC
:10576400A3A3A3A3A3A3A37402F090067712577D67
:10577400124D9602465390038112498122C082C081
:1057840083900681C3E094FEA3E094FF4004790370
:1057940080027902024653C082C08312593B8C8234
:1057A4008D8312589368703B740268701C8A828BD4
:1057B400831257ECE068702B8A828B83A31257EC18
:1057C400A3E068701E7901801C7403687015EC24D2
:1057D40005FCED3400FDEA2405FAEB3400FB121558
:1057E400FD80027900024653A3A3A3A3A3E0F88C8F
:1057F400828D83A3A3A3A3A32274F61205537E0070
:10580400740A120BC1E0125887FF8A828B83A3A308
:10581400A3A3A3A3A3A3E06F706474026F704D8A63
:10582400828B83C082C08388828983A3A3A3A3A31A
:10583400E0F50888828983A3A3A3A3A3A3E0FBAA1A
:1058440008D083D082E06A7003A3E06B7030888252
:105854008983A3A3A3E0FA88828983A3A3A3A3E0F3
:10586400F9EA6C7002E96D70150E801274036F70A2
:105874000DE82405FCE93400FD1215FDE9FEEEF9FE
:10588400025E1DF8A3E0F98882898312589322A34B
:10589400E01313543F540322C082C0838A828B8353
:1058A400A3A3A3A3A3A3A3A3E06402701690067703
:1058B4001258D5687003A3E06970047901800F79E8
:1058C40000800BEAFCEBFD7A6E7B061215F10246B2
:1058D4005312601E8A828B83E022C082C0831259D5
:1058E4003B603A740268703D900677C3E094FEA36F
:1058F400E094FF50308A828B83A3A3A3A3A3E0FC8C
:105904008A828B83A3A3A3A3A3A3E0F9ECF87583F2
:1059140006758277E0687003A3E0697004790180FA
:10592400137900800FEA2405FCEB3400FD7A6E7BCA
:10593400061215FD0246538A828B83125893F8226D
:1059440074EC120553EAFEEBFF8C128D13750A00FA
:10595400750B008C828D83A3A3A3A3A3A3A3A3E0AD
:10596400F510E9A2E75008750CFF750DFF800A9049
:10597400067DE0F50CA3E0F50DE9C2E7F511EE2490
:105984000E12456F5420600AEE24101240BC7408B5
:105994008006EE2410125B52125B715404600712ED
:1059A4005B5A74808005125B5A7410125B71541038
:1059B4006008EE2412125B52800E90068AE0C0E06A
:1059C400EE24121240BCD0E0125B71A2E0500375C9
:1059D4000A20540860067410450AF50A8E828F83E3
:1059E400A3A3E024FFF508A3E0125B4DEE240D12FF
:1059F4004B169402E04010640B6007E014125B77CE
:105A04008003750B227403450AF50A85110E750F80
:105A140000740E780E120ADBE50F450BF50B7414B7
:105A2400120BC1125C3F74026511700E9006821253
:105A34005B76900681125B6880137403651170169F
:105A4400125B457C917D06AA08FB121603E5082427
:105A5400FF125B498004E5116028E5106014E50E2F
:105A6400650C7004E50F650D70087440450AF50A6D
:105A74008010850882850983E50D125B8FE50C1281
:105A84005B7D85100C750D00740A780C120ADBE539
:105A94000D450BF50B740265107015851282851384
:105AA40083A3125B76851282851383125B6880134D
:105AB400740365107016125B45AC12AD13AA08FB93
:105AC400121603E50824FF125B498004E5106010F8
:105AD400850882850983E50F125B8FE50E125B7DD5
:105AE400A808A909E824FFF508E9125B4DEE240D86
:105AF40012456F700590066D8003900679E0FA04F4
:105B0400F0EA8882898312495FE50B125B8FE50A0C
:105B1400F0EE2404F8EF3400F912347DFBAC088A6B
:105B2400828B83E0F50A88828983E0250AC39C126C
