:020000040000FA
:060000000209F10201AF4C
:03002B0002078940
:030033000201D1F6
:030053000200DDCB
:03006B000205A6E5
:03007B000206EF8B
:100083000201400103000300030003000300030017
:1000930003000300030005000A00140028004F00BA
:1000A3009E000000850C850C850C850C230B1D0B15
:1000B300850C7E1600000000DE1400000000FF0027
:1000C3000000FF001420FFFFFFFF0120140403784A
:1000D300FFFF0101FF0020FD0002C0E074F11204E4
:1000E300EAA2AFE433FED2AFE5A7FFE5A1F5085FCF
:1000F300F50974105509600612108175A1EF740893
:100103005509600812108775A1F78024E508A2E05D
:1001130092F0EFA2E082F05017906198E0F8900619
:1001230011E0C398A2D265D0335002E8F075A1FE66
:10013300751A00EEA2E092AF7F020205FFC0E074E1
:10014300F21204EAA2AFE433FED2AF9061A4E0F866
:10015300759B00E59158540860087591F71210DB00
:100163008023E59158541060087591EF1210E180D7
:1001730014E591A2E092F0E8A2E082F05007E0C219
:10018300E0F012122B9061A3E0F8E5E95854046003
:100193000E12120175E9FB906193E0A2E640F2753D
:1001A3001A00EEA2E092AF7F010205FFC0E074F2F5
:1001B3001204EAA2AFE433FED2AF9061A5E0F8E502
:1001C300BF585404600675BFFB12124380D1C0E0D0
:1001D30074F11204EAE59DA2E650FA906206E0FA91
:1001E300A2E25035A82AE890620BF0F508852B09A6
:1001F30074047808120A53E508906207F0852A0808
:10020300852B0974097808120A53E508543E906255
:1002130009F0906201E0D2E0F07827EA46F69062B6
:1002230002E0F508750900740478081209CB7827F1
:10023300E50846F608E50946F6906204E0F5087518
:100243000900740978081209CB7828E50946F6EA0B
:10025300A2E0500375290174065A6003752900E56D
:100263008BA2E55006758BDF752900121309758B78
:1002730000C2E87F020205FFC3E498F8E499F9128B
:1002830002BC8026C3E49AFAE49BFBE920E7E91267
:1002930002BCE498F8E499F922C3E498F8E499F9E4
:1002A3001202BCE498F8E499F9C3E49AFAE49BFBDC
:1002B30022EB20E7CFE920E7E0B90010BB0008E814
:1002C3008AF084F8AAF022E4FBC8FA22EB70227BBE
:1002D30010C833C8C933C9335007C39AC3DBF2808C
:1002E300069A50012ADBEAC833F4C8C933F4C9FAC1
:1002F3002275F008E4C833C8C933C933C99AC99B06
:100303005004C92AC93BD5F0ECFBC833F4C8E4C98F
:10031300FA22080808EAC0E0EBC0E086F0E7A4FA96
:10032300180986F0E7A42AFA180986F0E7A42AFA3E
:10033300180986F0E7A42AFA1986F0E7A4FBE5F08A
:100343002AFA190886F0E7A42BFBE5F03AFA190814
:1003530086F0E7A42BFBE5F03AFA18180986F0E7D4
:10036300A4C5F02BFBE43AFA1908E7C5F0C6A426A6
:10037300F6E5F03BFBE43AFA1886F0E7A4F6E5F07D
:100383000826F6E43B08F6E43A08F6D0E0FBD0E0B2
:10039300FA22120AA2B900030203F8E47921780BC6
:1003A300B800028004F709D8FCE490030178867949
:1003B300048002F0A3D8FCD9FA781A9000867A0157
:1003C300BA00028007E493A3F608DAF9900686AA36
:1003D30082AB83900087785779018015E493A3ACAF
:1003E30082AD838A828B83F0A3AA82AB838C828DB6
:1003F30083D8E9D9E77582887583C2740112082E00
:10040300758247758314740012082EE4CFC0E0E4AC
:10041300CEC0E0E4CDC0E0E4CCC0E075F020C3E69C
:1004230033F608E633F608E633F608E633F618182B
:1004330018EC33FCED33FDEE33FEEF33FFC3EC97E3
:1004430009ED9709EE9709EF97191919400FFFEC7A
:1004530097FC09ED97FD09EE97FE191906D5F0BE35
:10046300ECF709EDF709EEF709EFF7191919D0E0E1
:10047300FCD0E0FDD0E0FED0E0FF222518C582C00D
:10048300E0E51934FFC583C0E0E518C3958224F87D
:1004930010AF0885831985821880088583198582A2
:1004A30018D2AFCEF0A3E520F0A37808E608F0A3B6
:1004B300DEFAEFF0A3E58124FAF8E608F0A3E608F4
:1004C300F0A3E608F0A30808E608F0A3E608F0A303
:1004D30015811581D0E0FED0E0F8158115811581D5
:1004E300E8C0E0EEC0E022C0D02518C582C0E0E538
:1004F3001934FFC583C0E0E518C3958224F310AF18
:10050300088583198582188008858319858218D206
:10051300AFC8F0A3E9F0A3EAF0A3EBF0A37908E7EF
:1005230009F0A3D8FAECF0A3EDF0A3EEF0A3EFF0FB
:10053300A3D0E0F0A3D0E0F0A3D0E0F0A3E520F057
:10054300A3E5F0F0A32212010002020000205104EF
:10055300A8160900010203010902430002010080F9
:10056300190904000001020201000524001001041E
:100573002402020524060001052401000107058267
:100583000340004009040100020A0000000705843B
:1005930002400000070504024000006405000087D4
:1005A300050000C0E074F21204EA900584E0704292
:1005B3007401F0A285402C900589E090057C7009B8
:1005C3007401F0A3E4F0A380097401F0A37480F034
:1005D300A3E4F0A3F07A087B0090057AE0F9120E09
:1005E3008F800F90057CE4F0A3F0A3F0A3F09005B7
:1005F30084F0758900C2C57F010205FF85198385D3
:100603001882E0C0E0A3E0F9A3E0FAA3E0FBA3783B
:1006130008E0F608A3DFFAE0FCA3E0FDA3E0FEA3F5
:10062300E0FFA3E0C0E0A3E0C0E0A3E0F5D0A3E0D7
:10063300F520A3E0A3F5F010AF0885831985821890
:100643008008858319858218D2AFD082D083D0E009
:04065300F8D0E032C9
:1006580075F0108E218F2285822685832585188244
:10066800851983E0CEA3E0CF852682852583EBC953
:10067800EAC8EDCBECCAC3E833C8E933C9EA33CAE0
:10068800EB33CBC3EA9EF524EB9FF523B35004ABC1
:1006980023AA24EC33CCED33CDD5F0DAAE21AF224A
:1006A80022851983851882E0A3FEE0A3F520780847
:1006B800E0A3F608DFFAE0A3FFE0A3C0E0E0A3C0F0
:1006C800E0E0A3C0E0E0A3C0E0E0A3C0E010AF0812
:1006D8008582188583198008858218858319D2AF89
:1006E800D083D082020834C0E074F21204EAA2AFC8
:1006F800E433FED2AFE58AA2E25007900604E0D2C6
:10070800E0F0E58AA2E35007900604E0D2E1F07534
:100718008A00C2EB7A107B00900600E0F9120E8F77
:10072800EEA2E092AF7F010205FF74048004740218
:100738008000CCC0E0EDC0E0E518C39CCCAD1950FA
:10074800011D10AF068C188D1980068C188D19D2D2
:10075800AF1207CFD0E0FDD0E0FC22C008C3E0967E
:10076800F50808A3E096420808A3E096420808A303
:10077800E0964208A2D265D033E5087001D3D008CC
:1007880022C0E0C0D0E8C0E0E9C0E0E5A8D2AFC22E
:10079800C7751A00A2E7A2E792AFD0E0F9D0E0F857
:1007A800D0D0D0E032CAC0E0E493A3C582CCC582E1
:1007B800C583CDC583F0A3C582CCC582C583CDC50D
:1007C80083DAE5D0E0CA22CAC0E0E0A3C582CCC57E
:1007D80082C583CDC583F0A3C582CCC582C583CD30
:1007E800C583DAE6D0E0CA22C008C3E096F5080857
:1007F800A3E096420808A3E096420808A3E09645BD
:10080800087001D3D0082270090808082260161859
:100818001818C6C333C608C633C608C633C608C6C2
:1008280033C6D5E0EA22C09FF59FE473D09F22D05B
:1008380083D082C09FE493C0E0740193C0E0740247
:1008480093F59F222518F58210AF08F51840021578
:10085800198008F51840021519D2AF85198322C0EE
:10086800D0251810AF08F518500205198008F5189A
:1008780050020519D2AFD0D0226016080808C6C3A6
:1008880013C618C613C618C613C618C613C6D5E0AD
:10089800EA22C3E0C696F608A3E0C696F608A3E0E7
:1008A800C696F608A3E0C696F6227404800674027B
:1008B80080027401C0E0F40412084CD0E0120A71FE
:1008C80022251810AF08F518400215198008F518E8
:1008D80040021519D2AF22E066701008A3E06670D6
:1008E8000A08A3E066700408A3E06622C3E096083D
:1008F800A3E09608A3E09608A3E096A2D265D033B9
:1009080022E76670100809E766700A0809E766704A
:10091800040809E76622C3E096F008A3E096F00809
:10092800A3E096F008A3E096F022C3E697F608093C
:10093800E697F60809E697F60809E697F622E056DC
:10094800F608A3E056F608A3E056F608A3E056F624
:1009580022E046F008A3E046F008A3E046F008A32A
:10096800E046F022E493F608740193F608740293C3
:10097800F608740393F622E647F60809E647F608F0
:1009880009E647F60809E647F622E026F008A3E05C
:1009980036F008A3E036F008A3E036F022E026F6A9
:1009A80008A3E036F608A3E036F608A3E036F622F8
:1009B800E627F60809E637F60809E637F60809E6ED
:1009C80037F622700422600D18C6C333C608C63332
:1009D800C6D5E0F41822E056F008A3E056F008A3C4
:1009E800E056F008A3E056F02275D00075813F75F7
:1009F8001801751903759F00020395E4C396F6085C
:100A0800E496F608E496F608E496F622C3E7960814
:100A180009E7960809E7960809E79622C6F4C60882
:100A2800C6F4C608C6F4C608C6F4C622C3E09608CB
:100A3800A3E09608A3E09608A3E09622E0F608A3B0
:100A4800E0F608A3E0F608A3E0F622600C08C6C3A7
:100A580013C618C613C6D5E0F422E6F008A3E6F0DC
:100A680008A3E6F008A3E6F022CAC0E0E6F0A3086F
:100A7800DAFAD0E0FA22C0E0E58B758B00C2E8D044
:100A8800E032EAF0A3EBF0A3ECF0A3EDF022E0FAF9
:100A9800A3E0FBA3E0FCA3E0FD22E5C754F8440172
:100AA800F5C77901222518F582E43519F583221254
:100AB8000837E13300120837073400120837343496
:100AC80000120837653400120837FF34001208375F
:100AD8000A36001208371A3600120837593600123B
:100AE8000837B336001208370B3700120837553766
:100AF8000012083770370012083797370012083786
:100B0800B43700120837C03700120837023A00120B
:100B180008371B3A00120837A73A00120837BA3AC2
:100B280000120837CB3A001208378B3B00120837FF
:100B3800003D00120837B73E00120837373F001251
:100B48000837413F00120837A93F00120837BA3F5B
:100B58000012083754400012083785400012083741
:100B6800884000120837B2400012083712410012BC
:100B78000837364100120837544100120837A2419D
:100B880000120837DB4200120837334300120837D7
:100B98008C43001208371744001208373F440012EC
:100BA8000837754400120837844400120837E244B5
:100BB800001208374F45001208378C4500120837D5
:100BC800C74500120837F245001208370C460012D4
:100BD8000837264600120837F7460012083701473B
:100BE800001208372E47001208373E470012083710
:100BF8009C4700120837B04700120837B94800125E
:100C08000837CC4800120837E34800120837F8487C
:100C180000120837A949001208370B4A0012083792
:100C2800AC4A00120837B74A00120837F94B0012CD
:100C38000837154C001208376D4C00120837A94CBC
:100C480000120837C34C00120837254D0012083728
:100C5800C44D00120837064E001208376C4E0012B9
:100C68000837C050001208376F5100120837A152D8
:100C7800001208374A53001208379B5500120837EC
:100C8800AE5500120837B15500120837BD5500128D
:100C98000837D15500120837D955001208371956A8
:100CA80000120837125700120837955700120837F4
:100CB8001758001208379158001208375A5900126D
:100CC80008377C5900120837185A00120837245A76
:100CD800001208374A5A001208374D5A00120837CE
:100CE8007A5A00120837BF5A001208372E5B0012D2
:100CF8000837805C001208370B5E00120837965ED2
:100D080000120837BF5F001208379F6000120837CB
:100D1800D06000120837FC60001208370561001225
:100D28000837346100120837E46100120837986206
:100D3800001208370C6300120837A863001208373E
:100D48002664001208376E6400120837A464001283
:100D58000837E164001208371665001208376D6518
:100D680000120837E66500120837086600120837CF
:100D7800606600120837BC8001120837FC80011237
:100D880008374381011208377E8101120837B9817B
:100D980001120837148201120837438201120837FA
:100DA8006E82011208377483011208370D8601120A
:100DB8000837758E01120837DB8F01120837E08F6C
:100DC80001120837E88F011208375C9001120837C2
:100DD8008391011208370F92011208374C920112C1
:100DE80008378B92011208378E920112083799A1A1
:100DF80001120837C6A101120837EDA10112083700
:100E08002BA20112083740A20112083759A2011279
:100E180008377CA201120837BFA201120837D6A2F0
:100E280001120837F1A2011208377FA3011208370F
:100E38006CA4011208377DA4011208378FA401128F
:100E48000837D77A001208371E7B001208373F7B15
:100E5800001208378C7B00120837B57B0012083760
:100E6800BF7B001208372B7C00120837BD7C0012AC
:100E78000837F87C00120837547D001208378A7D3D
:100E880000120837097E00120837537E001208370F
:100E9800947E00120837CB7E00120837DD7E0012E0
:100EA8000837EF7E001208370E7F00120837177FC9
:100EB8000012083711BE011208377FB60112083731
:100EC800B5B60112083700B7011208374BB801123E
:100ED8000837C866001208378C320012083738689D
:100EE80000120837F069001208372A6A001208371A
:100EF800A36C00120837E36C00120837776E0012F3
:100F08000837176F00120837796F00120837067014
:100F1800001208373E70001208377E70001208373A
:100F28000F7200120837B7730012083714760012D0
:100F380008374276001208376E760012083777763F
:100F480000120837F57600120837527A001208376F
:100F5800A0C501120837B6C501120837C0C501126D
:100F680008370AC60112083742A60112083757A6E1
:100F78000112083707A70112083747A701120837D7
:100F880060A7011208379BA701120837D4A70112DE
:100F98000837D5A90112083761C30112083785C37C
:100FA80001120837A7C301120837EBC3011208372B
:100FB80030C8011208376DBC011208377BBC01121A
:100FC8000837E47F0012083732C40112083742C4D8
:100FD800011208374EC401120837DFC4011208375E
:100FE8008CC00112083711C10112083777C10112EC
:100FF800083765C7011208375BC8011208375EC891
:101008000112083761C801120837F87F0012083743
:10101800B2B801120837EAB80112083732BA011219
:101028000837B6BA0112083764C80112083767C80A
:1010380001120837A5C701120837B9C701120837C6
:10104800F3B30112083717B40112083730B401128C
:1010580008376FB401120837BDB401120837F0B46D
:101068000112083720B5011208372AB501120837CE
:1010780092B50112083795B5011208375EB601120C
:10108800083768B60112083775B60112083712B169
:10109800011208373AB1011208377BB1011208373B
:1010A80099B101120837B4B1011208371CB2011204
:1010B800083728B20112083787B201120837B3B2CD
:1010C80001120837C2B201120837E6B20112083716
:1010D800A7B301120837B4B301120837C5B3011218
:1010E800083727C7011208373FC701120837AD9CD8
:1010F80001120837169E01120837289E0112083778
:10110800409E01120837619E01120837779E01122E
:1011180008378B9E011208370A9F011208376F9F04
:1011280001120837F79F0112083770A0011208371B
:1011380049A10112083759A10112083768A1011203
:1011480008373FC60112083763C6011208378BC635
:1011580001120837B9BA01120837E0BA0112083784
:1011680003BB011208371CAE0112083735AE011255
:1011780008374CAE0112083755AE0112083773AE66
:10118800011208377DAE0112083787AE0112083701
:101198009AAE0112083726AF011208379BAF011229
:1011A8000837C9AF011208371AB0011208376BB0F7
:1011B8000112083786B00112083790B001120837BB
:1011C800B7B001120837FDB001120837B8C60112CE
:1011D80008371BC7011208374AC801120837BF92DF
:1011E80001120837EB9201120837099301120837E8
:1011F8001C9301120837379301120837969301128E
:101208000837C99301120837E597011208373B9947
:10121800011208376D9901120837D9990112083758
:10122800529B011208377A9B011208378F9B0112D3
:1012380008379F9B01120837DF9B011208372B9C48
:10124800011208373B9C0112083754BF01120837B6
:1012580064BF0112083782BF011208379DBF01120F
:101268000837C4BF01120837E5BF01120837FFBFAE
:101278000112083737C0011208375AC0011208375F
:10128800ECC40112083732C50112083747AA011207
:1012980008374EAA01120837A4AB01120837D4AB9D
:1012A8000112083704AC0112083737AC01120837AD
:1012B80049AC0112083785AC01120837EBAC0112B2
:1012C800083727AD011208376EAD011208379BADFC
:1012D80001120837C7AD011208373AC3011208379F
:1012E8004EC301120837D2C70112083790C1011244
:1012F8000837EFC1011208372DC2011208376EC234
:1013080001120837F57F0012083704C801120837A0
:10131800B931001208371431001208378B30001227
:1013280008373B3000120837023000120837962F72
:10133800001208375A2F00120837F32E0012083708
:10134800E52D00120837252D00120837AD2C0012A4
:101358000837022B00120837E62900120837DB2865
:10136800001208371C2800120837D927001208373E
:101378008327001208370C2700120837DF250012D0
:101388000837AE24001208376C2400120837EA2206
:101398000012083797220012083701220012083776
:1013A8005A2100120837FA20001208374D2000127F
:1013B80008372820001208371F2000120837F01FAE
:1013C80000120837BC1F00120837921F0012083796
:1013D800341F001208375A1E001208374E1E00121A
:1013E80008379A1D001208376F1D00120837041DB0
:1013F80000120837533300120837671800120837ED
:10140800AA1C00120837861C00120837571B001246
:101418000837011B00120837DD1A00120837291A8D
:101428000012083795180012083782190012083779
:101438005A1900120837381900120837FC670000DB
:10144800000080FBE473000136360101000102014F
:10145800000103010001040106060502000007015E
:1014680000340801000F090401010D0100FF0E08F6
:10147800000017020000190100FF1A0100011B01FA
:1014880000FE1C0100081D0200001F0100012001D0
:101498000001210200002301000F240200002601A0
:1014A800000127010008280200FF2A0100072B017C
:1014B80002402C0100002D0100012E0100012F0126
:1014C80000FF30010B1C310800003A0100083B0105
:1014D800000F3C0100010103710301030103010333
:1014E80001030103220302030103100300030003A5
:1014F8000003000300030003000342030003240366
:101508000603000300030403120325032303250332
:10151800230304030403000300030003440300033C
:10152800000323030003650321003503810300033F
:10153800050300030003000300032503230301013F
:1015480071010101010111010101310101010101D3
:101558008001100161013B001400630173017201F5
:10156800620143010001130106013D013500040138
:10157800120100010001000100010401040133010E
:1015880033013C01440132013600000100016501CC
:10159800000135008101000105018201830100017C
:1015A80066010001000103027102300160021102AC
:1015B80070020102020202028002100261023A0075
:1015C80041006302730272026202430200021302C4
:1015D80038000002000204021202000200020002A7
:1015E800000204020402370037003C0244020002F1
:1015F8003900000200026502000235028102000281
:10160800050282028302000266020002000203044D
:101618007104020460041104700402040204010449
:1016280002041004610400041404630473047204C3
:1016380062044304000413040604000400040404C0
:1016480012040004000400040004510464000004AF
:1016580000040004440400040004000400046504B9
:1016680000043504810464000504000483040004B4
:1016780066040004000403007100300160001100DA
:101688007000310220035004800010006100000047
:10169800140063007300720062004300000013002E
:1016A8000600000000000400120000000000000016
:1016B800000004000400370037003C02440000002A
:1016C80000000000000065000000350081000000F7
:1016D80005000000830000006600000000003000E4
:1016E800000060000000C00000008001000000034E
:1016F800000000060000000C000000180000003088
:1017080000000060000000C0000000800100000030
:1017180003000000060000000C0000000C0036006A
:101728000100060000000F0000000000000000009B
:101738000000000003FFFF00000403FFFF0000FF9C
:10174800FF0FF4010005C4040320000100130B007F
:101758000000000000000003010F0007ECFDFDFD84
:10176800ECDCDCCCBCACAC9C9C8C7C7C6C6C5C5CA1
:101778005C4C4C3C3C2C2C1C1C830BB30B890B8FF6
:101788000BAD0BA10B9B0BB90BBF0BC50BD10B956D
:101798000B7D0B770B00160F160D0B150B021102A4
:1017A800220F3303020E850C970C9D0C470BA30CDC
:1017B800410B4D0B2D133313C30ACF0ABD0A451332
:1017C800C90A140AE5D5C5B5A5A5958585756530F9
:1017D8003017181921301B1D1F3033F10C0F0D1550
:1017E8000DF70C030DFD0C003C40423A3F3F392FEA
:1017F800473066303016181920231A1C1E30320C58
:101808000E020B040B0A0708000F00011916181620
:10181800161823030000034D4C4651181A250502DB
:10182800A70BCB0B090DD70BDD0BD90CA90CAF0CF3
:10183800BB0CB50C020402010101010902811387E6
:10184800137B13751321131B132713D50A1513B70D
:101858000A1114E71300BE040AFA066317CA17C070
:1018680082C0839006AE7429F0A37414F09006B079
:10187800743BF0A37414F0900383742FF0A37414D2
:10188800F09006B27435F0A37414023B8374F71217
:10189800047E74FD1208C9EAFEEBFF900629E06495
:1018A8000F6007122D0EA2E5500512192680691245
:1018B8003A9DD2E1F09003D4E0600F8E828F83A32B
:1018C800A312560D120C5BE96023122D0E4403F08F
:1018D800900315E070431222E1120AADE4F074029D
:1018E800120AAD74FF1235FE120CCD802C12192687
:1018F800125556124DAF6402701FE82405F8E934FA
:101908000012192CF874FF68700374FF69700A12CA
:101918003A9DD2E5F0122F90F07403023653122D3F
:1019280012D2E022F988828983E0FAA3E0F9EA2258
:10193800C082C083120C0DE96004792080119006E2
:1019480029E0640F700479018005900312E0F90220
:101958003B84C082C083EA240EF582EB123F3170CB
:1019680010EAFCEBFD7A787B03120E7D1239EF80CA
:1019780006123CC512144C023B8474F012047E908B
:101988000312E0F47003021A12900314E0602E9020
:101998000312E06402702612105D8A088B098C0A13
:1019A8008D0B90030A780812089A75F01490062592
:1019B800E084F50CE4F50DF50EF50F803C12105D92
:1019C8008A0C8B0D8C0E8D0F90030E7808120A442A
:1019D8007808790C12093290037CE0F50CA3E0F545
:1019E8000DE4F50EF50F7808790C120932900644CB
:1019F800122276F50CA3E0F50D7808790C1209325D
:101A0800908036780812076340047900801090802F
:101A1800B678081207634004A908800279FF022AF1
:101A2800FD74F012047EE9FEEAFF7A007B00ECF90F
:101A3800120AEDE990030AF0A3121AC2740F6F702C
:101A480005121AD68049900629E06F900313701A80
:101A5800121AC912080F90804A780C120A447808A2
:101A6800790C12031590807A8018121AC912080F7F
:101A780090804A780C120A447808790C1203159061
:101A880080AA78081209A590030E7808120A62EE57
:101A9800A3F074016E702090062A7808120A449008
:101AA800030A780812099290062A7808120A4490C4
:101AB800030E7808120992022AFDE4F0A3F0A3F0BD
:101AC8002212226B95E0F50AF50BEF780822A31293
:101AD8001AC2A3F022C082C0839006AC74DBF0A3C4
:101AE8007413F09003CC7459F0A37418F01213FF18
:101AF8009003B1E04408023B8374F012047E900620
:101B08002A7808120A44E5084509450A450B600A7F
:101B180090062A780C120A448015750C30750D0051
:101B2800750E00750F00900629E0780C12080F90CA
:101B3800805A780C1209A59080BB121F25780C7961
:101B480008120932900334780C120A62022AFD74D2
:101B5800EB12047E74F71208C9EAFEEBFF120EDDE1
:101B6800E9F5146003021C228E828F83A3A3A3A32A
:101B7800A3A3A3A3A3A3E0FC12227C12560DEAC3DD
:101B880033FAEB33FB8E828F83A3A3780C120A44BB
:101B980090801E7808120A44780C790812040E7492
:101BA8000F6C7003021C3D900315E0640260030291
:101BB8001C3DEE240C123AA070757510307511009A
:101BC800751200751300EE240B123AA07810120853
:101BD8000F8A088B09F50AF50B781079081209B8ED
:101BE8007810790C120A14402E750830750900EC2B
:101BF800780812080F8A108B11F512F513780879F6
:101C080010120932780C7908120A14400A90062A30
:101C1800780C120A62801E7514FD8E828F83A3E5EC
:101C28001412437A1213E774091208670251599083
:101C3800062A121AD7EE240E123AA060DD12327369
:101C4800120AE7EA4B60D37408120AAD12327E1208
:101C580007367508FF7509FF78081208B68E828F57
:101C680083A3A3A3A3A3A3A3A3E0F97404120AADB7
:101C7800AC82AD83121363740412086780A9C08212
:101C8800C08390031274FFF01213C3900644E0F867
:101C9800900629E06860031212677908120BF502B2
:101CA8003B84C082C083900338124796602B12474A
:101CB80093701F9003381255429003811242CC90C2
:101CC8000338E4F0A3F07902121297790212125B3A
:101CD80080077A387B03120C379003D4E0601A909F
:101CE8000629E0640F6012121E401207327A227B26
:101CF80003120D457404120867023B8474F412043D
:101D08007E9003D4E0605D90031F7405F0A3741403
:101D1800F09003347808120A449080427808120937
:101D2800A578081208B27A197B03120D45740412BB
:101D38000867120C0DE9701F1234551213578A08E0
:101D48008B09A808A9099003381242CCE849601405
:101D5800123CEBD2E6800C90062EE004F09003389B
:101D6800E4F0A3F00227D474F712047EE9FE1256B9
:101D78000A1213F97940120BF5EEF91213F3121443
:101D8800179003D5E06008900629E0F9120D690262
:101D9800438774F412047EEAFEEBFF900629E0F50F
:101DA800088E828F83A3E070719003D4E060197469
:101DB8000F65086013E5A8F8C2AF90032874EDF02A
:101DC800A374131239F9805E121E31640F90035FF9
:101DD800604212560D1213F9121417740F65087029
:101DE8001F121E31F99003347808120A4490808A31
:101DF80078081209A5AA08AB09AC0AAD0B120D5D4B
:101E0800121E401207327A227B03120D4574041207
:101E18000867800612560D1213F98E828F83742C70
:101E280012437A120C130227D490035F12557C24B4
:101E380008F582E8122D182290032874F3F0A37491
:101E480013F090033422C082C08379021212610217
:101E58003B8474F412047EE99006296003021F0390
:101E6800E0640F7003021F08900313740F123E9D65
:101E7800FC7D00900644E0FA7901121423900624B0
:101E8800E0603A900641E0603490033174E1F0A3D9
:101E98007413F0900625121F2575830375820A783E
:101EA800081209A590801678081209A57808120862
:101EB800B27A2B7B03120D4574041208679006440E
:101EC800E0640F7005121267801C900307740BF012
:101ED800A37414F090030E1207327A017B03120DDB
:101EE800457404120867900381123CBD122FFBA2AF
:101EF800E450031213D51213C98018E0640F70134D
:101F0800900641E0600579021212551213CF790844
:101F1800120BF57A817B03120C370227D4121F2982
:101F280022E0F508E4F509F50AF50B2274F5120428
:101F38007E750800750900A2AFE433F50AC2AF90B8
:101F4800037880078E088F09122EE21231B1601CC7
:101F5800123A9DA2E550ED78081208B6EEFCEFFDA6
:101F68007A787B03120E837402120867E50AA2E0EE
:101F780092AFEE4F6011122D0ED2E4F0EEFCEFFDA1
:101F88007A787B03120E7D0235D3C082C083A2AF5C
:101F9800E433FAC2AF900378800D1220E5A2E55031
:101FA80003121FE512201412479670EEEAA2E0927F
:101FB800AF023B84C082C083A2AFE433FAC2AF90C1
:101FC80003788012123B62E9122DD45006C2E7F062
:101FD800121FE512201412479670E980CF123CB404
:101FE800E9122D18D2E4F022C082C083A2AFE433F4
:101FF800FAC2AF900378800D1220F2A2E75003C214
:10200800E4F012201412479670EE80A0E824FBF545
:1020180082E934FFF58322C082C0837910021E54FE
:10202800C082C083900641E06005790212125B7994
:10203800201212617A437B03120D577A3A7B0312FE
:102048000D57023B84C082C08374EF1208C9900305
:10205800D4E4F0900315F090031204F0900317E411
:10206800F0A2AF33FAC2AF90037880101220F2A228
:10207800E15006D2E0F01220E512201412479670C3
:10208800EBEAA2E092AF7910120BF57908120BF582
:10209800900316E06004E4F0804085188285198377
:1020A8007409F07401120AAD74E0F090063E1255FE
:1020B800427402120AAD1242CC900651E0C0E0749C
:1020C80004120AADD0E0F07405120AADE4F0740E03
:1020D800120AADE41235FE120DB70236ABE8241031
:1020E800F582E9122D18C2E1F022123CB4E9122D52
:1020F800182274F412047E900317E070411247937B
:10210800700B9003177401F079201212557508307E
:10211800750900750A00750B00900629E078081209
:10212800080F90801A78081209A578081208B27A60
:10213800437B03120D4B74041208670227D49003E3
:1021480055E004F0640470C579201212611213B1CD
:1021580080E974F012047E900629E0FE900317E4EB
:10216800F0900355E004F0640470091213B71213D9
:10217800B10221FE792012126190065CE0640F60C2
:1021880019900629122463501190065CE0FE900312
:1021980018E0F9900629F0120D6F750C30750D00D6
:1021A800750E00750F00900629E0780C12080FEEE6
:1021B800126050900355E02401F50AE43400F50B51
:1021C800E508850AF0A4C508A8F0850BF0A428F84E
:1021D800850AF0E509A428F509E4F50AF50B780C59
:1021E8007908120932780C1208B27A3A7B03120D78
:1021F800457404120867022AFD74F412047E9003E1
:102208001712228D70051213B780557920121255B6
:1022180090034974A5F0A37413F09006291222764E
:10222800F8A3E0F990035512226BE88508F0A4C8DA
:10223800AAF08509F0A42AFA8508F0E9A42AF9E8A1
:10224800C333F8E933F988088909E4F50AF50B7806
:10225800081208B27A437B03120D4574041208670A
:102268000227D4E02401F508E43400F50922E0123D
:10227800227CE022C333F8E433F9748628F58274AB
:102288000639F583227401F0900629E0640F22C014
:1022980082C08374FD1208C990031274FFF0900382
:1022A80015E06401701FE4F090037FE060261222BD
:1022B800E1120AADE4F07402120AAD74FF1235FEA1
:1022C800120CCD800F900644E0F8900629E0686073
:1022D8000312126774030236AD900651124BDD7477
:1022E800012274F012047EEAFEEBFF900317E070FF
:1022F80003022460EE242B1257897003A3E069605F
:10230800030224601235D8120C55E97003022460C8
:10231800900317E4F0900641E06005790212125B21
:102328009003ABE06005790112125B8E828F83A364
:10233800A3A3A3A3A3A3E0A2E4500A791012125BFB
:102348007980120BF579201212617A437B03120D02
:10235800578E828F83A3A3124CA512192C2400E454
:1023680039FB540F900313F08A088B09740C780812
:10237800120A53E5085401A3F0EA540F900318F029
:10238800EAC4540F900644F090065CE0640F6017AE
:1023980012246350128E828F83A3A3123CC1A3E040
:1023A800700590065C8003900318E0900629F09071
:1023B8000355E412228F7003022452E0F9EEFAEF7B
:1023C800FB120D63900315E06402703E7A3A7B03BA
:1023D800120D57900629E0F9750C30750D00750E31
:1023E80000750F00780C12080FE9126050E4F50A26
:1023F800F50B780C7908120932780C1208B27A3A7F
:102408007B03120D4574041208678E828F83A3A381
:10241800A3A3E0FC7D00900644E0FA79021214239D
:102428007A017B03120D579003077499F0A3741374
:10243800F090030E1207327A017B03120D457404E3
:102448001208677910120BF5800E900315E06402EC
:1024580070061213B71213B1022AFDE0F8900318A0
:10246800E0C39822C082C083900340749FF0A37495
:1024780013F090034974A5F0A37413F090035274F9
:10248800BDF0A37413F09006AA7493F0A37413F02C
:102498009003D27445F0A37418F01213FF9003B19F
:1024A800E04410023B8374F212047E74F71208C9E8
:1024B8009003ABE06003022589900623E0700302D5
:1024C80025898A828B83A3A3A3A3A3A31262788AF4
:1024D800828B83A3A3A3A3A3E0F8740758FCE8C4E2
:1024E800540F5407F5098008EE2402FEEF3400FF6C
:1024F8008C0874FF25081C046027900642C0828E51
:10250800828F83121931F8758306D082E0687003D0
:10251800A3E06970D37E028024EE2408FEEF340025
:10252800FF85090A74FF250AF509046054EEFCEFDB
:10253800FD7A527B061212FDE960DE7E039003AB42
:10254800E0D2E21235FE120C3D790112125B750CD5
:10255800A0750D03780C1208B6750C01750D00787E
:102568000C1208B690063E1207367406120AADAC75
:1025780082AD83EEFA7905120C677406120867803B
:1025880051900629E0640F6049E0F8900644E0683D
:102598006040900641E0703A120C01E96034A2AF45
:1025A800E433FEC2AF900315E0640270209003127A
:1025B800E0F46019124793701490037812479670EC
:1025C8000C7A017B03120D577900121399EEA2E0E1
:1025D80092AF74090229DE74F012047EEAFEEBFF62
:1025E8007508008E828F831226F940030226F69022
:1025F8000629E0640F70030226F690063EE0F470A8
:1026080003A3E0F470030226F6900638E0F47003A2
:10261800A3E0F470030226F68E828F83A3A3A3A3FC
:10262800E06401700575090280258E828F83A3A35B
:10263800A3A3E070057509018015F460030226F66E
:10264800900315E060030226F67509017508017A02
:10265800437B03120D577A3A7B03120D577A017B9D
:1026680003120D57A2AFE433F50AC2AFE509900390
:1026780015F090030EE41227021247939003177087
:102688000474018001E4F0E508900316F0A2E090DC
:102698000355500474038001E4F0E50AA2E092AF08
:1026A8001229AEFB79E1121165900317E0640170FD
:1026B80005792012125590034974ABF0A37413F0F6
:1026C800750C30750D00750E00750F00900629E029
:1026D800780C12080F90801A780C1209A5780C1241
:1026E80008B27A437B03120D4B7404120867022A5E
:1026F800FDA3A3E024F5C3941222121AC3A3F0A3E6
:1027080074FFF02274F012047E1227C61202BC88ED
:10271800088909E4F50AF50B900629E0640F60487A
:1027280012105D8A0C8B0D8C0E8D0F90030E780C99
:1027380079081209B8780C1207F0502C750C30750E
:102748000D00750E00750F00900629E0780C120830
:102758000F7808790C1209B890801A78081209A520
:1027680090030E780812089A7A8E7B03120D577818
:10277800081208B27A8E7B03022AF574F412047EDA
:10278800900629E0640F602F900644E0602E7A4C92
:102798007B03120D571227C61202BC88088909E468
:1027A800F50AF50B78081208B27A4C7B03120D4B28
:1027B800740412086780057910121261800E900661
:1027C800491255467A147B00221208677F040206D4
:1027D800A9C082C08390035F124796600612560A0A
:1027E800120ED190035C1240A97408F0A3E4F0A380
:1027F800F09003D4F0900361F07C0BFDF97A627BD2
:1028080003120E4D7C0B7D0079007A6D7B03120E4E
:102818004D023B8474F712047E74F71208C9EAFE6D
:10282800EBFF1235EA74051228D0740312524D12C8
:1028380042BFEE2430FCEF3400FD8C828D831252AF
:102848005D1228BB600BEE242E1235ED74FFF0A349
:10285800F0EE242EEF34001C1CFD8C828D83A3E047
:10286800C0E08A828B83123CBDD0E01228BB8882EC
:1028780089831246DE2403125329121303740812A3
:102888000AAD7403F090063E1207367402120AADC0
:10289800AC82AD837903EEFAEFFB120C617402127D
:1028A8000867E9F5087007EEFAEFFB120B3BA90879
:1028B8000236511255951229CB8A828B83E8F0A3F0
:1028C800E9F08C828D83E022F0A3E4F0EE240D126F
:1028D80050892274F212047EEAFEEBFF8C088D09FF
:1028E800890A1229AE1229C2740E120AAD1229D011
:1028F800E824FF18E934FFF988828983E50A12522F
:1029080059900643125256900642125256741012AB
:102918000AAD1229D0EE2404FCEF3400FD880B8A9E
:10292800828B83E0F50C8C828D83E0250CC3950B9C
:1029380012526CE8F0A3E9123E90A3A3A3A3A3A3A9
:10294800A3A3E0640370081229B6F0A3E4800AEE9A
:10295800240EF582EF125783A31228D37409F07559
:102968000C0B750D00780C1208B67C627D031251B1
:102978005E120E477402120867750CFF750DFF781A
:102988000C1208B6AC08AD097903EEFAEFFB120C8D
:10299800617402120867E9F5087007EEFAEFFB1296
:1029A8000B3BA9088033EE2402FAEF340022EE2410
:1029B8000EF582EF12508C740122FB8A828B8312EF
:1029C80029CB221242D2F922E0F50CA312525D1251
:1029D8005299E50CF0221208677F060206A974F0E6
:1029E80012047EEAFEEBFF890B8C0E8D0F750A0030
:1029F800A2AFE433F50CC2AF900378803F122ACA25
:102A08005037122AD764037030EE24F9FEEF34FFF2
:102A1800FF850882850983A3A3E02405FCA3E0348D
:102A280000FDEEFAEFFB121303EE24FF1EEF34FF56
:102A3800FF7410250AF50A150B123E40126060E576
:102A48000B6006E508450970B4E50CA2E092AFA258
:102A5800AFE433F50CC2AF90037880232402FAE583
:102A6800093400FB8A828B83123990122AE68A8203
:102A78008B83123978122AE6050A150B123E40128A
:102A88003E556027122AD7640270F1122ACAE50857
:102A980040CA123B63E509123AA3A2E550DE850E4F
:102AA80082850F837401F0E50B70D1E50CA2E092EA
:102AB800AF8E828F83E50AF0EE24FFFAEF34FFFB36
:102AC8008033E508123CB5E509122D18A2E62285E7
:102AD8000882850983A3A3123CD4124DBB22E08E41
:102AE800828F83F0EE24FF1EEF34FFFF22120D4B7E
:102AF80074041208677F080206A974EC12047E7435
:102B0800F61208C989118A0F8B0E851882851983D8
:102B1800E4F090037EE0C394084005751007800335
:102B2800E0F510E51033333354F8F8900628E02820
:102B38002437F50CFA7B00120E538A088B09EA45F4
:102B4800097003022C9FEA2402F50AEB3400F50B06
:102B5800EA250CF8EB3400F9850A82850B831242CA
:102B6800CCEA2404F50CEB3400F50D850C82F583D2
:102B7800E4F0900628E0F512F8C3E498F895E0F937
:102B8800850A82850B83E028FEA3E039FF751300D0
:102B980078121208B6900626125247EEFAEFFB1288
:102BA8000E477402120867851882851983AC82ADB6
:102BB80083A910EE24FFFAEF34FFFB12135D8A128B
:102BC8008B13AE12AF138E828F83E4122AEBE50EBD
:102BD800C454F0F99003D5E0C4333354C0F89006D8
:102BE80022E0A2E0E43313134849440F122AE7E530
:102BF8000FC454F045118E828F83F0EEF8850A8257
:102C0800850B83E0FA850C82850D83E02AC398F052
:102C1800850A82850B83EEF0A3EFF0E508240E12F7
:102C2800577FA3F0E508240D12577F7409120AADE7
:102C3800E4F0750A0BF50B780A1208B67C6D7D0373
:102C4800E508241BFAE5093400FB120E477402124A
:102C58000867851882851983E0600EE508240EF55B
:102C680082E509123AA34408F0E4F50A780A120842
:102C7800B67403120AADAE82AF83120C43EEFCEFBA
:102C8800FDAA08AB09120C617402120867E9AA08C8
:102C9800AB096007120E597A007B00740A120867A4
:102CA8007F0C0206A974F312047E8A0A8B0BA2AF6A
:102CB800E433F50CC2AF75080075090090037880FD
:102CC8002C122EED5024850A82850B83A3A3125261
:102CD800478E828F83A3A312560D120C49E9600A0E
:102CE800122D0EC2E6F08E088F09122EE21231B1B3
:102CF80070CFE50845096006122DDAD2E6F0E50C3A
:102D0800A2E092AF8012122D1222EE2411F582EF6A
:102D1800123E7DE0221208677F050206A974F012B0
:102D2800047EEAFEEBFF8C0C8D0D750E00A2AFE45D
:102D380033F50FC2AF750800750900900378802538
:102D4800850A08850B09122DDAD2E4F0E508123B52
:102D580063E509123AA3D2E7F0E50A24FBF582E518
:102D68000B34FFF583E0F50AA3E0F50BE50A450B04
:102D78006043E50A123CB5E50B122DD450DB850AF9
:102D880082850B83A3A3120736AC0CAD0DEEFAEFC8
:102D9800FB120C4F7402120867E960BDE50845098B
:102DA800609EE508240DF582E5091231A37006122C
:102DB8002FF5D2E4F0E50FA2E092AFE508450960EF
:102DC80006120B35750E01A90E022AFD122D18A246
:102DD800E722E508123CB5E509122D182274F21213
:102DE800047E74FE1208C9750C00750D00851882E2
:102DF800851983E4F0A3F0A2AF33F50AC2AF9003BC
:102E080078126278803BEE24FBF582EF34FF126083
:102E18005E780C1208B6EEFCEFFD7A787B03120E92
:102E2800837402120867EEFCEFFD8518828519830A
:102E3800AA82AB83120E71AE08AF0990037EE0142C
:102E4800F0EE4F6027122EED5019EE240BF8EF121A
:102E5800398724FFF0A3E034FFF088828983124782
:102E68009660A38E0C8F0D122EE28095E50AA2E0E3
:102E780092AF90037EE06031900629E0640F60060F
:102E88009003D4E070237A567B03120D5790801A72
:102E98001207327A567B03120D4B740412086780AE
:102EA8000874F012437A120B29851882851983AAAF
:102EB80082AB83120E778A0A8B0BAE0AAF0BEE4FEA
:102EC8006013121351122D0EA2E28E828F83A3502B
:102ED800D074E980CE74020229DEEE24FBF582EF7D
:102EE80034FFF58322122D12A2E72274F712047E12
:102EF800EAFEEBFF121351123CBA12144CE96401BA
:102F0800900645700AE02401F8A3E034008003121B
:102F18004CA5F9EE240B1235ED1242CC90037EE05D
:102F28007021900629E0640F70197A567B03120D00
:102F38005790801A1207327A567B03120D4B74048D
:102F4800120867E5A8F8C2AF90037EE004F0E80233
:102F58004C6474F712047EEAFEEBFF122F90F01215
:102F68001351EEFCEFFD7A787B03120E7DE5A8F88D
:102F7800C2AF90037E1239F7900629E0640F7005FE
:102F88007908120BF5024387122D12C2E42274F756
:102F980012047E74EA1208C9EAFEEBFF900622E0EA
:102FA80060468518828519837401F0120AADE4120F
:102FB800307F120AADAA82AB831213038E828F83ED
:102FC800122FFBC0E0740A120AADD0E01246D0748A
:102FD8000B120AADAA82AB83120C7F851882851961
:102FE80083AA82AB83120DB7741602365385088202
:102FF800850983A3A3123CD4E02274F712047EEA65
:10300800FEEBFF12136974DC69601E74DD696019D8
:1030180074E469601474F369600F74DE69600A749B
:10302800DF69600574DB697007EEFAEFFB120BFBD2
:1030380002438774F712047E74EB1208C9EAFEEBA8
:10304800FF851882851983740612307F120AADAA8B
:1030580082AB831213031235E1740A120AADAA82F5
:10306800AB83120C7F851882851983AA82AB8312E1
:103078000DB77415023653F0EE2413FCEF3400FD3F
:1030880074022274F712047E74F71208C9EAFEEB80
:10309800FFEE2430123AA06070123A9485188285A7
:1030A8001983AA82AB831213037408120AAD74033E
:1030B800F090063E120736EE242E1235ED12073632
:1030C800900651E0F97404120AADAC82AD83EEFAB1
:1030D800EFFB121363740412086774DC69602374CD
:1030E800DD69601E74E469601974F369601474DE44
:1030F80069600F74DF69600A74E869600574DB69E8
:103108007007EEFAEFFB120BFB02365174F2120451
:103118007E8A088B09750A00750B00750CE7A2AF4B
:10312800E433F50DC2AF90037880078E0A8F0B1237
:103138002EE21231B16035122EED50EF12319D7032
:10314800EAEE24321231A98A828B83A3A3E0687045
:10315800DA780A1208B6EEFCEFFD7A787B03120ED5
:1031680083740212086790037EE014F0E50DA2E074
:1031780092AFEE4F6013EEFAEFFB12135179F0EEB7
:10318800FAEFFB120BFB750C00A90CAA08AB09128D
:103198000BFB0229E1EE240DF582EF122D186401D4
:1031A80022F582EF122D18F822E0FEA3E0FFEE4F81
:1031B8002274F412047E74F71208C9EAFEEBFF8E3B
:1031C800828F83A3E064F370030232678E828F8359
:1031D800A3E064DF70030232678E828F83A3E0640A
:1031E800E8607C8E828F83A3E064DB6072120EDD60
:1031F800E9F5087062EE240E123AA0605A12327392
:10320800120AE7EA4B60507408120AAD12327E12B5
:1032180007367508FF7509FF78081208B68E828F81
:1032280083A3A3A3A3A3A3A3A3E0F97404120AADE1
:10323800AC82AD831213637404120867E9F508744D
:10324800F36508601274DF6508600C74E86508604F
:103258000674DB6508700F8E828F83A3E508F0EE95
:10326800FAEFFB120AB774090227D1EE240FFAEF1E
:103278003400FB7909227402124BEB74FFF0A3129D
:103288005C52A32274F412047EEAFEEBFF75080078
:103298008E828F83A3A3A3A3A3A31226F940037549
:1032A80008E88E828F83A3A3A3A3A3A3A3A3A3A3A6
:1032B800E0C3941040057508E880138E828F83A3BD
:1032C800A3A3A3A3A3A3A3A3A3E0640F600B9003EA
:1032D800B1E0540870037508E8EE240B1231A98E8A
:1032E800828F83A3A3A3A3A3A3A3A3A3A3E0C398A9
:1032F800500DEE240B123AA0640F60037508E89095
:103308000642E0F47003A3E0F470037508EC7A2336
:103318007B00120ECB90035F12556090035F12473B
:10332800966020750A23750B00780A1208B6EE24F9
:1033380002FCEF3400FD12560A120E4774021208FE
:1033480067800375081AA9080227D474F612047E48
:10335800EAFEEBFF8E828F83A3A3A3A3A3A3A3A359
:10336800E0900629125C6D900644125C6590062474
:10337800125C729003D5F0F912117D9003D5E060CC
:103388001AEE2404FAEF3400FB7950121165EE248A
:1033980006FAEF3400FB79E11211659003D412228A
:1033A8008D600474018001E49003611241081208E1
:1033B800B6EE240DFCEF3400FD7A627B03120E4753
:1033C800740212086778081208B6EE2418FCEF3465
:1033D80000FD7A6D7B0302533D74F712047EEAFE0A
:1033E800EBFF8E828F83A3E0700612560A1213F940
:1033F8008E828F83742C12437A120C1302438774C3
:10340800F712047EEAFEEBFF90035F124796600D09
:1034180012560A90035FE4F0A3F0120ED18E828F49
:1034280083740812437A120DB702438774F61204A4
:103438007E9003D4E06013900361E0700D12345560
:10344800121357EA4B6003120B3B025345900624B4
:10345800E0FB900644E0FA900629E0F92274F6129F
:10346800047EEAFEEBFF750800121177E975F06437
:10347800A4F8A9F07AFF7B001202B4E8FA8E828FD2
:1034880083A3A312397DFBA3A882A983A2E05006D7
:10349800900622E06003750801EBA2E15021E508DF
:1034A800A2E0501B88828983E0FCA308A983EE244C
:1034B8002F1240479C40057508018003750800EBF2
:1034C800A2E25011E508A2E0500B88828983E0C38C
:1034D8009A40218006E508A2E050199003D4E060E4
:1034E80013900361E0700D123455121357EA4B60C4
:1034F80003120B3B02534574F512047E74E712085D
:10350800C9EAFEEBFF750A018E828F83A3A3A3A3EA
:10351800A3A3A3E0A2E2507EEE242BF582EF3400B1
:103528001252451235D812134BE9706A908010E098
:103538006401700DEE241B1242AF7005750A0080FD
:103548005575080B75090078081208B61235E1742C
:1035580010120AADAA82AB83120E477402120867D2
:10356800120C43E9FA740E120AAD858208858309A4
:1035780078081208B675083075090078081208B678
:10358800EE242B1235ED1207361255327901120C42
:1035980067740612086785188285198374101230BB
:1035A8007F120AADAA82AB831212F7EE242B1255B2
:1035B8003B740B120AAD1242CC740D120AADE50A27
:1035C8001235FE120DB774191208677F030206A997
:1035D800EE2413FAEF3400FB22EE2408FCEF34004B
:1035E800FD22EE240EF582EF12508C22851882857A
:1035F8001983EAF0A3EB12360222124BEBAA82AB34
:103608008322C082C0839003D5E06003120CC102FC
:103618003B84C082C0839003CC7455F0A37418F027
:10362800A374BCF0A37417F0A3744DF0A37418121C
:103638005AAAF09006A6743FF0A37413F09006A857
:103648007439F0A37413023B7C74091208670243AF
:1036580087C082C08374FE1208C9800D7A787B0304
:10366800120E771235F4120C3790037812479670C1
:10367800EB90037A124796600F7A7A7B03120E77E3
:103688001235F4120C3780E9900378E4F0A3F09037
:10369800037E121AC390038B745FF0A3740BF0744B
:1036A8000280027411120867023B8474F612047EC9
:1036B800E9FF8F0874EF2508F582741712499FFEF9
:1036C8008E08FA7B00120E53EA4B600BEA250812AB
:1036D8004A7CA3E4F080297A027B00120E53EA4B5D
:1036E800601A8F0874D72508F5827417123B68F0A2
:1036F800A3741AF09003ACE0F9120E5F7A007B0015
:10370800025345E9FD74062DFCEAA2E0501EEC7553
:10371800F00A84A8F0E86014740A2CC398FCE8C383
:1037280094054004740A2CFC740B2CFCEDC3941310
:103738004004781480027806E82C2409F8E4340060
:10374800F97A0A7B001202B4E8F9020834C082C090
:10375800839003B1E05402600A120DBDE960047958
:103768000180027900023B84C082C0839003B1E0EB
:103778005402601690037EE0700C124793600B129F
:103788003CAAA2E75004790180027900023B84C078
:1037980082C08390800EE0F8900380E0C3985005C3
:1037A800120E5380047A007B00023B84C082C083DF
:1037B800120C377900023B8474F712047E74FE12EF
:1037C80008C9851882851983EAF0A3EB1239D460F9
:1037D8001114606C24FE606F24F870030239020231
:1037E800395D900629E0640F6018120C0DE970121B
:1037F80085188285198312560D9006AA123CBD12AF
:10380800144C900651E0C0E0851882851983124651
:10381800AED0E01239C9F58388827414F085188215
:103828008519831252477A7A7B03120E71E5A8F83C
:10383800C2AF9003801239F77920120BF50241319B
:103848001239BC741580D512396DA3A3E070030238
:10385800395D85188285198312397DFAA3E0FB8AC0
:10386800828B83E0C0E0851882851983E0FCA3E0A1
:10387800CC2406F582EC1235F0D0E0125589888206
:103888008983EAF0A3EB1239C9C8123B63E8123AFC
:10389800A3851882851983600812399E403F023932
:1038A8005D12399E50221239A7FA8518828519832C
:1038B800A3E0C82406F582E81231AC743B28F582EF
:1038C800741812499F6A6015851882851983123900
:1038D80090E06408707F1239A7640870781239A7DD
:1038E800141239E2240AC0E0851882851983123C33
:1038F800BDD0E01239E20402382412396D12554263
:1039080088828983E0541F6403703AE0C413540723
:10391800F8E58228F8E5833400F9E82402F582E91D
:10392800123AA3641F701EA3A3A3E0C0E085188207
:10393800851983123978D0E01239D46407700612D9
:1039480039BC7431F0851882851983122FFD6431D2
:103958007003023825851882851983AA82AB8312E1
:103968000C37023845851882851983A31246F1223F
:103978001239B2A322E02402F8A3E01239872234D4
:1039880000F988828983E02212399422123EB2C853
:103998002406123E7A22123994E014C3940922852F
:1039A80018828519831239B2E022E0F81239C2A3CD
:1039B800A3A3A322851882851983A3E0F5838882AF
:1039C800221239CD22124BEB123EB2221239CDF51A
:1039D800838882A3A3A3A3A3E0221239CDC8240617
:1039E800F582E8122D1822E5A8F8C2AF90037FE00F
:1039F80004F0E8A2E7A2E792AF22C082C083900356
:103A08008312479660081239C312144C8002790059
:103A1800023B8474F712047EEAFEEBFFEE240D12DB
:103A280029B912404CF8A3E0F91235EA1242CCEE5B
:103A38002435123AA0C0E0EE24131235EDD0E0F0A0
:103A4800EE2436123AA0C0E0EE24141235EDD0E090
:103A5800F0EE2438123AA0C0E0EE24181235EDD06A
:103A6800E0125566120736123A94EE2431F582EFC9
:103A7800123E50120C617402120867E9F5087007CB
:103A8800EEFAEFFB120B3BA908024387EE2426FC53
:103A9800EF3400FD22EE2410F582EF122D1822C01B
:103AA80082C083120C0DE96004792080027901023A
:103AB8003B84C082C083EA123CB5EB123AA3D2E041
:103AC800023B83C082C083123B5B1231A370111288
:103AD8003B70400C8A828B83A3E0F9120BFB807148
:103AE800EA123B63EB123AA3A2E650128A828B8356
:103AF800A3E0F99006AC123CBD12144C8053123B63
:103B08005B1231A3700D123B7050088A828B83744C
:103B18003080358A828B83A3E0641B8A828B837012
:103B28000474228023A3E0700F123B5B1231AC7443
:103B3800FB28F5827417800D123B5B1231AC74D7E9
:103B480028F5827417123B68F09003ACE0F9120E66
:103B58005F8029EA240DF582EB22E82410F5822201
:103B68001249A38A828B8322EA2410F582EB122D54
:103B780018A2E322F09003B1E04402F0D083D0828F
:103B880002083474F712047EE9FE124793700302A8
:103B98003CA7EE6010741B6E701212554BE0640562
:103BA8007003023C75125948E4023C7974E96E705E
:103BB8005B123CDD700B120DC3E96005123CF66028
:103BC8005B900381123CDA9003816039123CF990D2
:103BD8000381700B123CDA14F01212AF023CA712E8
:103BE8003CE8C2E7123E98240DF582E812604A705C
:103BF8000C900381E0F8A3123CAAD2E2F0123CC573
:103C080012144C807612594B74E9806574E16E7019
:103C18003F120DC3E96056123CF6705190064BE016
:103C2800C0E0124CA2C82412F582E81235F0D0E0A8
:103C3800F090063AE0C0E0900381123CC1123CC10A
:103C4800D0E0F090063AE004F07901121297804F24
:103C5800741C6E701890038112560D9006B2123CB7
:103C6800BD12144C900381E4F0A3F080321259483D
:103C7800EEF090038112560D120B29123E69E054A2
:103C8800806010900651E0F91211A1900650E0F9F9
:103C9800121195900381E4F0A3F07910120BF5024C
:103CA8004387E0C8123CB5E8122D1822E82411F524
:103CB80082229006B0123CD4221246EE2290038152
:103CC800E0FAA3E0FB9006A8123CD422E0F81239EF
:103CD800C222E0F8A3E0C82412F582E8122D1822C7
:103CE800E0F8A3E0C82410F582E8122D182290030A
:103CF80081123E70E054042274F412047E750A00A6
:103D0800750B00A2AFE433FFC2AF12479360030202
:103D18003DF8123CBA12144CE94410F8900378802C
:103D28000985080A85090B123E40123E55700302A8
:103D38003DF8122DDA586870E8780A1208B6AC080F
:103D4800AD097A787B03120E837402120867900318
:103D580081E508F0A3E509123E98123CB5E8122D5A
:103D6800D45003023DFF90037FE014F0EFA2E092ED
:103D7800AF900381E0240EF8A3E03400F9880889A5
:103D8800098882F58312560D9003811239ADF91214
:103D98000AEDE990037CF0123E8EE0548060181220
:103DA8004CA2C82413123E4D1211A1124CA2C824D1
:103DB80014123E4D121195123E69A3E0540160663B
:103DC80090037C1247966049123E826044123E82FC
:103DD800F8790090037C12560D1202BCE8C0E0127C
:103DE8003E5DD0E0123E9DC3941340117402800ED4
:103DF800EFA2E092AF803E90037E023D71E4C0E006
:103E0800900382E0C8241AF582E81235F0D0E080E9
:103E180010123E5D7401123E98241AF582E81229A8
:103E2800BCF07903800C900381123CE8A2E1B3E472
:103E380033F91212970227D4E50824FBF582E50925
:103E480034FFF58322F582E8122D18F922126064F6
:103E5800E5084509221255792419F582E812508C93
:103E680022900381123E7022123EB2C8240E123EE6
:103E78007A22F582E83400F583221255792418F560
:103E880082E8122D1822A3E4F0850882850983228E
:103E9800123EAAC822123EAAF5838882A3A3A3A32E
:103EA800E022F0900381123EB222E0F8A3E02274EF
:103EB800F712047EEAFEEBFF120C31EE123B63EFC1
:103EC800123B76400A12319D700590800C80039059
:103ED800800DE0F9EEFCEFFD7A787B03120E89E99C
:103EE8006034EEFAEFFB9006AE123CBD12144CEEB5
:103EF800240E123F2E70101239EFEE240E12403F9E
:103F08007021120B35801CEEFAEFFB9006A6123CCE
:103F1800BD12144C800D8E828F83A374F112437AE4
:103F2800120B29024387F582EF122D18540422C080
:103F380082C083120B35023B8474F712047EEAFEBA
:103F4800EBFF79009003B1E05402700AEE243312BB
:103F58003F2E600279E89003B1E05460700CEE24C3
:103F680033123AA05402600279E88E828F83A3A3A9
:103F7800A3A3E0C39475400279E8EE2431123AA075
:103F8800700CEE242E123AA0700479F58009E970BD
:103F980003120B17E96007EEFAEFFB120BFB024363
:103FA80087C082C0838A828B83740DF0120DB7029A
:103FB8003B8474F412047EEAFEEBFF8E828F83E466
:103FC800F0A312404C540490800C7012E0F8900357
:103FD8007FE0C398401279F1120BFB0227D4E0F876
:103FE80090037EE0C39850EEEE243312403F6035D4
:103FF800EE243712404794054039EE2433123AA094
:104008005405702F7A857B03120D57EE243712352D
:10401800ED121F2578081208B27A857B03120D4B22
:104028007404120867EEFAEFFB9003ACE0F9120E85
:104038005F80A879E880A1125089A3E05401221278
:104048002D15C322F0EE2433122D152274F6120416
:104058007EE9FE2451FAE43400FB120E53EA4B6069
:1040680015EE8A828B83A3A3A3A3F0EA2451124AF4
:10407800871242CC80047A007B00025345023F3706
:10408800C082C0839003A8E4F09003ABF09003943F
:104098001240A97402F090039D1240A97401023BDA
:1040A8008374F5F0A3740BF0A32274F612047E74E3
:1040B800F11208C98518828519837402F0740112F7
:1040C8000AADE9F060047AFF7BFF7402120AADEAD8
:1040D800F0A3EB1241081208B67CA07D0374061207
:1040E8000AADAA82AB83120E4774021208678518BC
:1040F80082851983AA82AB83120DB7740F025342CB
:10410800F075080B75090078082274F712047E749C
:10411800FE1208C9851882851983740AF074011281
:104128000AADE91235FE120DB7740202365374F067
:1041380012047E125E8A120A447808790C1203155A
:1041480078081208B27A977B03022AF574F41204ED
:104158007E74C61208C9900629E0640F601085189D
:1041680082851983742E124BF3120C1380277A8ED2
:104178007B03120D571227C61202BC88088909E46E
:10418800F50AF50B78081208B27A8E7B03120D4BEC
:104198007404120867743A0227D174F612047E7404
:1041A800F71208C9EAFEEBFF8E828F83A3E0F508B9
:1041B80060030242981242AC6008E0640360037531
:1041C80008E8EE24261235ED1226FB5034E5086087
:1041D80003024298EE2426FAEF3400FB79E112112B
:1041E80065EE2431FAEF3400FB7950121165124262
:1041F800AC7014EE242812553B9006381242CC803D
:10420800187508E802429C90063874FEF0A3041260
:1042180042B57A2F7B0612130375080B75090078CF
:10422800081208B6EE241BFCEF3400FD7AA07B03CD
:10423800120E4774021208671229B61228D07402A7
:104248001242B5851882851983AA82AB831212F7A8
:10425800EE24311253071229C28A828B83E8F0A315
:10426800E912404C12531D1208B67402120AADAC82
:1042780082AD8379831A1AEFFB120C61740212085B
:1042880067E9F5097007EEFAEFFB120B3B850908A1
:10429800E508600B126415741712437A120C137434
:1042A80009025342EE2430122D15640222F0EE2446
:1042B80028FCEF3400FD22FB8A828B831242D2F95C
:1042C8008A828B83E8F0A3E9F022E024FFF8A3E0D8
:1042D80034FF2274F612047E74F71208C99003ABF7
:1042E800E070457401F0F912125B85188285198314
:1042F800AA82AB83120C3D7508A0750903780812D1
:1043080008B675080175090078081208B690063EC7
:104318001207367406120AADAC82AD837A037905AA
:10432800120C6774061208670242A774F712047E1B
:10433800EAFEEBFF79011212618E828F83E064201E
:104348007004A374EBF09003ABE0A2E25003C2E266
:10435800F0E0A2E15008124583120B71800C8E82A6
:104368008F83742A12437A120C1380138E828F83E0
:104378007429F0EEFAEFFB22EEFAEFFB120CB57F90
:10438800010206A974F412047E74FE1208C9EAFE3A
:10439800EBFF79011212617A8E7B03120D577A971F
:1043A8007B03120D571246BA851882851983124667
:1043B800E7E0F5087015851882851983AA82AB8312
:1043C800795312116512603C121165750A0B750B51
:1043D80000780A1208B61235E17AA07B03120E475C
:1043E800740212086785188285198312560DA90868
:1043F800120B6B9003ABE0A2E1500A8E828F83A36D
:10440800E0F9120B719003ABE4F074020227D17447
:10441800F712047EEAFEEBFF8E828F83A374EBF023
:104428009003ABE0A2E1500579EB120B71EEFAEFC5
:10443800FB120BA102438774F712047EEAFEEBFF1E
:1044480079011212617A8E7B03120D577A977B03DA
:10445800120D579003A8E4F09003ABF07AFF7BFFAE
:104468008E828F83A3E0F9120B6B02438774F712D5
:10447800047EEAFEEBFF120B9B02438074F71204E2
:104488007EEAFEEBFF79011212618E828F83A3A36D
:10449800A3A3E06003E4800274EB1244D55003C286
:1044A800E2F0E0A2E15008124583120B718014A2D9
:1044B800E050108E828F83742AF0A374EB12437A33
:1044C800120C13EEFAEFFB120B4D0243878E828F0C
:1044D80083A3F09003ABE0A2E22274F612047EEA12
:1044E800FEEBFF9003ABE0D2E1F0790112125B8E94
:1044F800828F83A3E07041120C43E9FAEE240DF594
:1045080008EF3400F50978081208B675080175092E
:104518000078081208B6EE240B1235ED120736EEB5
:104528002402FCEF3400FD7905120C6774061208AA
:1045380067E98E828F83A3F08E828F83A3E0600465
:10454800F9120B7102534574F712047EEAFEEBFF71
:1045580079011212618E828F83E064207004A37443
:10456800EBF09003ABE0A2E25003C2E2F0E0A2E17C
:104578005006124583120B71024387C2E112642070
:10458800A3E0F92274F712047EEAFEEBFF79011228
:1045980012617A8E7B03120D578E828F83A3A3A399
:1045A800A3E06003E4800274EB1244D55003C2E236
:1045B800F0E0A2E15006124583120B710244CB745D
:1045C800F712047EEAFEEBFF79011212618E828FE8
:1045D80083A374EB1244DA5003C2E2F0E0A2E15084
:1045E80006124583120B7102438774F712047EEAA0
:1045F800FEEBFF7A8E7B03120D57EEFAEFFB120BE0
:10460800C502438074F712047EEAFEEBFF7A8E7BC4
:1046180003120D57EEFAEFFB120BC502438774F72E
:1046280012047E74EF1208C9EAFEEBFF1255327AC3
:104638002F7B061212F1E960688518828519837448
:1046480009F07401120AAD74EFF01246BAF8740258
:10465800120AADE81246E7A3A3E0C0E07404120A08
:10466800ADD0E01246DE640870158E828F83A3A356
:104678001246AEE0C0E07405120AADD0E0800674C0
:1046880005120AADE41246D07406120AADAA82AB2E
:1046980083120C7F851882851983AA82AB83120D39
:1046A800B7741102365312557C2407F582E812506C
:1046B8008C22125311FB8A828B8312554688828979
:1046C80083E0FCA3E0F9EC221246D422F0EE2408A1
:1046D800FCEF3400FD221246E222125C5BE022125B
:1046E80055921246EE22E0F8A31239C3A3A322C0C2
:1046F80082C083120CC1023B84C082C0839003C86D
:104708007481F0A37417F0A37428F0A37418F090C0
:1047180006B67446F0A37415F0A374AEF0A374152E
:10472800125A98023B83C082C083EAFCEBFD7902EF
:10473800120C1F023B8474F612047E74FE1208C920
:104748009003AD12479660077AAD7B03120C379041
:1047580003B3E4F0900684124796602C800D851808
:1047680082851983AA82AB83120C379003ACE0F9D7
:10477800120E6B8A088B09A808A909851882851961
:10478800831242CCE84970D60253409003811255F7
:1047980046E8492274F612047EE9FA7B009003ACDD
:1047A800E0F9120E8F02534574F712047E74F0126A
:1047B80008C9EAFEEBFF89088E828F83E0F8740748
:1047C80028F582741812499FC0E07401120AADD00E
:1047D800E0F0640B700D8E828F83A3E9F0120CA3B6
:1047E8000248B4E070030248B4640C60030248A0B5
:1047F800741A6508700B7404120AADE4F0A3024839
:104808009F7404120AADEEF0A3EF125581C0E07454
:1048180003120AADD0E0125C4E120A967406120A10
:10482800AD120A8A8E828F83A3A3A3A3A3A3A3A3F3
:10483800A3125542740A120AAD125270E054106065
:1048480009851882851983E48012EE24121231A991
:1048580090064BE0C398851882851983F0E0C0E084
:10486800740C120AADD0E0F0EE2415123AA0C0E0A4
:10487800740D120AADD0E0F0EE2416123AA0C0E092
:10488800740E120AADD0E0F0EE2417123AA0C0E080
:10489800740F120AADD0E0F07402120AADE508F008
:1048A8007401120AADAA82AB83120DB774100236D6
:1048B80053C082C0839003B3E07004790180027909
:1048C80000023B84C082C0839003B3E060046402AA
:1048D8007004790180027900023B84C082C0839011
:1048E80003B3E064037004790180027900023B8419
:1048F80074F612047E9003B3E0C333F8E433F9741A
:10490800B428F582740639F583124DFDC2E7F0C369
:1049180033FCE82CF582E91235F0A3E493FEC333A7
:10492800FCE433FD74B42CF58274063D125245EC58
:104938004D6005EE9003B3F08A828B83E0C333FCAD
:10494800E433FDE82CF582E93DF583E493F508C4EA
:10495800540FC333F874C228F58274031235F01269
:1049680047967005120C91801BE508540FC333FC61
:10497800E82CF582E912499FC0E0740193F583D0D1
:104988008212144C025345890CEAFEEBFF89087425
:104998001D2508F58274181249A322123E7DE4935E
:1049A8002274F312047E74FE1208C912498FFA7B2E
:1049B80000120E538A088B09EA4509602F8A828BF8
:1049C80083E50CF0124A931208B6EEFCEFFDEA24D8
:1049D80002FAEB3400FB120E477402120867AA08A9
:1049E800AB099003ACE0F9120E5F8012851882853E
:1049F8001983E50CF0791AAA82AB83120BFB7402B7
:104A0800022D1D74F012047E74FE1208C912498F1B
:104A1800F50AFA7B00120E538A088B09EA450960E9
:104A28003A8A828B83E50CF0A3E4F0EA250A124A5D
:104A38007C124A931208B6EEFCEFFDEA241BFAEB4F
:104A48003400FB120E477402120867AA08AB0990DB
:104A580003ACE0F9120E5F7900801485188285197D
:104A680083E50CF0791AAA82AB83120BFB791A74CE
:104A780002022AFA124A87E8125592A3A3A322F83F
:104A8800EB3400F98A828B83A3A322A3E4F0850C7C
:104A98000A7412250AF58274181249A3F50A750BCF
:104AA80000780A22C082C083E99003AC023B837479
:104AB800F612047E74FE1208C9EAFEEBFFEE5420DB
:104AC800702E8037E5A8F8C2AF900380E014123941
:104AD800F98A828B83124BDD12555D120C138518EF
:104AE80082851983E0641560077AAF7B03120C375F
:104AF8007A7A7B03120E77EA4B70C9EF5480700FF5
:104B0800801912555D120C137AAF7B03120C379083
:104B180003ACE0F9120E6BEA4B70E7EE5410600E2E
:104B2800851882851983742D124BF3120C13EEA28B
:104B3800E0500E8518828519837424124BF3120CE9
:104B480013EE5402600E8518828519837425124B62
:104B5800F3120C13EE5404600E85188285198374C1
:104B680026124BF3120C13EE5408600E851882853A
:104B780019837428124BF3120C13EE54406010740E
:104B880001120AAD124BE6742C124BF3120C13EE01
:104B9800548060107401120AAD124BE6742F124B48
:104BA800F3120C139003AD1247966022E5A8F8C2E1
:104BB800AF9003AD12560D9003ADE4F0A31239F98E
:104BC800A3125560120C137AAF7B03120C377A00CC
:104BD8007B00025340E0851882851983F022E41295
:104BE8004BEB22F085188285198322F0AA82AB83C9
:104BF80022C082C0839003AF125542EA687002EB6C
:104C08006970079003AFE4F0A3F0023B8474F712D5
:104C1800047EEAFEEBFFEE4F7003120FBBA2AFE477
:104C280033F508C2AF8E828F831247966028E82436
:104C3800FBFAE934FFFB9003AF125247E86C7002AD
:104C4800E96D70079003AFE4F0A3F08E828F83E4E0
:104C5800F0A3F0120ED1E508A2E08004A2E7A2E7D3
:104C680092AF024387C082C083900638E064FE702A
:104C780003A3E0F470097C2F7D061212F780188ACE
:104C8800828B83A3A3A3A3A3A3A3A37402F0900678
:104C980038124CA51242C7023B84900381123EB2DF
:104CA80022C082C083900642C3E094FEA3E094FF32
:104CB8004004790380027902023B84C082C08312D7
:104CC8004E638C828D83124DBB68703B7402687092
:104CD8001C8A828B83124D14E068702B8A828B8326
:104CE800A3124D14A3E068701E7901801C74036838
:104CF8007015EC2405FCED3400FDEA2405FAEB34CC
:104D080000FB1212FD80027900023B84A3A3A3A337
:104D1800A3E0F88C828D83A3A3A3A3A32274F61225
:104D2800047E7E00740A120AADE0124DAFFF8A823B
:104D38008B83A3A3A3A3A3A3A3A3E06F70647402AC
:104D48006F704D8A828B83C082C08388828983A3D7
:104D5800A3A3A3A3E0F50888828983A3A3A3A3A39D
:104D6800A3E0FBAA08D083D082E06A7003A3E06BBB
:104D7800703088828983A3A3A3E0FA88828983A3F9
:104D8800A3A3A3E0F9EA6C7002E96D70150E801216
:104D980074036F700DE82405FCE93400FD1212FD60
:104DA800E9FEEEF9025345F8A3E0F98882898312F7
:104DB8004DBB22A3E01313543F540322C082C08387
:104DC8008A828B83A3A3A3A3A3A3A3A3E0640270F3
:104DD80016900638124DFD687003A3E069700479D7
:104DE80001800F7900800BEAFCEBFD7A2F7B06121D
:104DF80012F1023B841255468A828B83E022C082DC
:104E0800C083124E63603A740268703D900638C3DE
:104E1800E094FEA3E094FF50308A828B83A3A3A37F
:104E2800A3A3E0FC8A828B83A3A3A3A3A3A3E0F993
:104E3800ECF8758306758238E0687003A3E0697042
:104E480004790180137900800FEA2405FCEB340013
:104E5800FD7A2F7B061212FD023B848A828B831215
:104E68004DBBF82274EC12047EEAFEEBFF8C128D27
:104E780013750A00750B008C828D83A3A3A3A3A3CB
:104E8800A3A3A3E0F510E9A2E75008750CFF750D80
:104E9800FF800A90063EE0F50CA3E0F50DE9C2E7B5
:104EA800F511EE240E123AA05420600AEE241012D6
:104EB80035ED74088006EE241012507A1250995479
:104EC8000460071250827480800512508274101298
:104ED800509954106008EE241212507A800E9006F1
:104EE8004BE0C0E0EE24121235EDD0E0125099A24A
:104EF800E05003750A20540860067410450AF50A44
:104F08008E828F83A3A3E024FFF508A3E0125075D7
:104F1800EE240D1240479402E04010640B6007E055
:104F28001412509F8003750B227403450AF50A85F5
:104F3800110E750F00740E780E1209CBE50F450B94
:104F4800F50B7414120AAD12516774026511700ED4
:104F580090064312509E900642125090801374039C
:104F68006511701612506D7C527D06AA08FB12134B
:104F780003E50824FF1250718004E5116028E5104C
:104F88006014E50E650C7004E50F650D700874403B
:104F9800450AF50A8010850882850983E50D1250B7
:104FA800B7E50C1250A585100C750D00740A780C25
:104FB8001209CBE50D450BF50B74026510701585CC
:104FC8001282851383A312509E8512828513831241
:104FD8005090801374036510701612506DAC12ADAA
:104FE80013AA08FB121303E50824FF12507180046A
:104FF800E5106010850882850983E50F1250B7E532
:105008000E1250A5A808A909E824FFF508E91250CE
:1050180075EE240D123AA0700590062E80039006B6
:105028003AE0FA04F0EA88828983123E90E50B128E
:1050380050B7E50AF0EE2404F8EF3400F91229AE6F
:10504800FBAC088A828B83E0F50A88828983E02595
:105058000AC39C12526CECF0A3E50912641CA3E489
:10506800F0F9022CA8E50824F9F508E50934FFF55C
:105078000922F582EF12508CE422EE241112508995
:1050880022F582EF123E7D22E0850882850983F0B1
:1050980022125278E022E08508828509831250A9FD
:1050A80022F0E50824FFF508E50934FFF509221286
:1050B80050A9850882F5832274EB12047E890D8A33
:1050C8000C8C108D117415120AADE0F50AA3E0F5E9
:1050D8000B7417120AAD12516775141A7419120A53
:1050E800AD126060AA08FB120AE78A128B13AE128F
:1050F800AF13EE4F60591235EAE50EF0A3E50F1233
:1051080028D3E50DF0750E0B750F00780E1208B652
:10511800AC08AD0912515E120E4774021208677886
:105128000A1208B6AC10AD11A90CEEFAEFFB120C7E
:10513800617402120867E9F5147014E50D24F9602A
:105148000314700412523FF0EEFAEFFB120B3BA966
:10515800147F0D0206A9EE241BFAEF3400FB22E0AF
:10516800F50EA3E0F50F2274F212047EEAFEEBFFBF
:105178008C088D09890A740E120AAD1252477A00FA
:105188008E828F83A3A31229C7888289837407120A
:10519800528388828983E412525988828983741FD2
:1051A8001252597411120AADE0600312526374105E
:1051B800120AADE0600312526388828983E50A12FD
:1051C800528374012AC43354E044038882898312C9
:1051D800524DFB880B8A828B83E0C3950B8E828F9E
:1051E80083A3A3A3A312526C125270E4F0A3122853
:1051F800D3740BF0F50C750D00780C1208B612512B
:105208005E120E477402120867750CFF750DFF7861
:105218000C1208B6AC08AD097902EEFAEFFB120CD5
:10522800617402120867E9F508700912523F1243C7
:105238007A120B3B0229AA122D12D2E522F583E03D
:10524800FCA3E0FD22F0EE2402FAEF340022125211
:105258005D12528B22E08882898322888289831298
:10526800528B0A2212559522E8F0A3E912527822AD
:10527800F0EE240EF582EF123E7D22125299E412CE
:10528800528B2212528F22F0E824FF18E934FFF9DA
:105298002212528F888289832274F612047E74F750
:1052A8001208C9EAFEEBFF7801EE2432123AA06038
:1052B8000278051235EAE81228D07404125329122C
:1052C80012F7EE242F1253071242BFEE2431123A7E
:1052D800A012531D1208B67402120AADAC82AD8337
:1052E80079031A1AEFFB120C617402120867E9F5C8
:1052F800087007EEFAEFFB120B3BA9080242A7124F
:10530800508912606412531122EE2402F8EF34001F
:10531800F9E8FAE922888289831246E204F07808DB
:1053280022F0EE2426FCEF3400FD851882851983CF
:10533800AA82AB8322120E4774021208677F020208
:1053480006A974F312047E8A088B09ECFEEDFF8A25
:10535800828B8374051255818A828B83A3A3F0EA1A
:105368002403F50AEB3400F50B850A82125540EE4A
:1053780024251235ED120A96123CB4E91235F012C2
:105388000A8A125532E8FAE9FB1212F7850A828571
:105398000B83125950FAA3E0FB88828983A3A3A345
:1053A800A3A3A3A3A3A3EAF0A3EB125566E0C0E06E
:1053B800123B62E91235F0D0E012556E2415F582E1
:1053C800E812507D12556E240EF582E812507D12B7
:1053D80046D0850A82850B83E02416FAA3E03400C0
:1053E800FB120C7F8E828F83A3A3A3A3A3A3A3E0A6
:1053F800C0E0850A82850B83E0F8A312554BD0E004
:10540800125556FAA3E0FB850A82850B8312554292
:10541800E8240BFCE93400FD8A828B83E08C828DC2
:1054280083F0A3E4125589E0F50B8C828D83A3E009
:10543800450B12526CA3E0FCA30A0AAB83A2E7E473
:1054480033C0E0E8240FF582E91235F0D0E0F074BB
:10545800075C600478018002780075F00374075CCB
:10546800A428F8EA28FAEB3400FBE5082405F8E557
:10547800093400F98A828B8312525D125589850896
:1054880082850983A3A3A3A3A3A312556088828955
:1054980083E0F85407C333FCE8C4540F5407F50AF3
:1054A800750B007403780A1209CBEC250AF8EA2870
:1054B800F8EB3400F9850882850983A3A3A3A3A385
:1054C800A3A3A3A3E8F0A3E91246DEFA8E828F8392
:1054D800A3A3E02AFAA3E03400FBC3EA98EB9940BF
:1054E800308E828F83A3A3E0F8850882850983A381
:1054F800A3A3A3A3A3A3A3A3E0FA8E828F83A3A34A
:10550800A3A3E0C39A28850882850983A3A3A3805F
:1055180010850882850983A3A3A3A3A3A3A3123E8E
:105528008EA3A3A3A3A3F0022D20EE2413FCEF3433
:1055380000FD22F582EF3400F58312554622123E13
:10554800B2F922E0C8240DF582E812508C221264C8
:1055580020A3A3E0229003AFEAF0A3EBF022F0EE41
:10556800242F12508922F0850A82850B8312557CDC
:1055780022900381123EB2C822F0EE2432122D1579
:1055880022125595A3AA82AB8322F0A3E9F08A825E
:105598008B832274F612047E75080B75090078084F
:1055A8001208B602533D020834C082C0837918122B
:1055B8000BFB023B84C082C0838A828B83E0C39446
:1055C8000B5003120C8B023B84C082C08379198074
:1055D800DE74F712047EEAFEEBFF9003AD124796E5
:1055E80060109003AD12560D120C977AAD7B031222
:1055F8000C37EEFAEFFB120C319003ADEEF0A3EF8F
:10560800800B90035FE0FAA3E0FB22F0A3F00243D3
:105618008774F712047E74DE1208C9EAFEEBFF8E67
:10562800828F83E024FD601124FE601524ED60095B
:1056380024FA600D14600A803D7416120AADE480E5
:10564800077416120AAD7401F0123A94740B120A18
:10565800ADAA82AB831213037413120AAD1256F467
:10566800120AAD1242CC740A120AAD125700120A7D
:10567800AD1242CC80417416120AAD7402F0125574
:1056880032740B120AADAA82AB831213037413127D
:105698000AAD1256F4120AAD1242CC740A120AADBF
:1056A800125700120AADE8F0A3E912570C120AAD1E
:1056B800AA82AB83120C7F851882851983740B121A
:1056C800641CA3E0C0E07401120AADD0E012570CCC
:1056D800120AADAA82AB83120C7F851882851983C2
:1056E800AA82AB83120DB774220236537403F0906A
:1056F80006421255467402227402F090063E125574
:10570800467414221246D474172274F712047EEADF
:10571800FEEBFF8E828F83A3E0F5087035EE242F11
:105728001257897003A3E06960037508E8EE242620
:10573800FAEF3400FB120C55E96029EE2432F582A9
:10574800EF125783E508700AEEFAEFFB120C73E9C3
:10575800F508E508600B126415741912437A120CE7
:1057680013024387EE2432123AA060D89003D4E0A3
:1057780070D27508E880DFF582E50912508CE4F0F4
:105788002212508912554690063EE06822C082C017
:105798008374F11208C97402120AAD740412526CAF
:1057A800A3E0C0E07403120AADD0E0F0EA242FF5BC
:1057B80082EB12553E740D120AAD1242CCEA242631
:1057C800FCEB3400FD7404120AADAA82AB831212FA
:1057D800F77404120AADAA82AB83120C55E9600E65
:1057E80012580712116590063874FFF0A3F074027E
:1057F800120AADAA82AB83120DB7740F0236AD85BB
:10580800188285198374FFF0A31236027953227423
:10581800F612047E74E81208C98A088B0974021209
:105828000AAD7403F0EA2413FEEB3400FFEEFCEF3C
:10583800FD7404120AADAA82AB83121303122FF56A
:10584800C0E0740C120AADD0E0F0E5082408FCE5CD
:10585800093400FD740D120AADAA82AB83120C7FC5
:10586800EEFAEFFB120C55E9600E1258071211659B
:1058780090063874FFF0A3F07402120AADAA82AB46
:1058880083120DB7741802534274F612047E74D44E
:105898001208C9EAFEEBFF8E828F83A3A312594B2D
:1058A800E0A2E6501790063E125950687003A3E034
:1058B8006970099003D5E06046120CC1740B120A96
:1058C800ADA882A9837403120AAD125FAB120C79DA
:1058D800851882851983742B124BF3120C139006CA
:1058E80023E060087408120AADE0600E851882850E
:1058F80019837405124BF3120DB7742C025342909E
:105908000647E060B71235D8120C55E970AEEE24A0
:1059180008F508EF3400F50978081208B67508018B
:1059280075090078081208B690063E1207367C2FD3
:105938007D067A037906120C67740612086780BA26
:10594800900381123CD4A322125546EE242B122D2B
:105958001522C082C08374EF1208C9851882851980
:10596800837409F07401120AAD74EE1235FE120D3B
:10597800B70236AB74F712047EE9FFA2AFE433F541
:1059880008C2AFEF60031211591210ED900651E0F2
:10599800F91211A1900650E0F91211959003D5E083
:1059A800F912117D90063E12560D1211839006428F
:1059B80012560D1211897A527B0612118F7E00122F
:1059C8005A061247966009125A06123CBD12144C28
:1059D8000EEEC3940740E8120D21120BEF9003D688
:1059E800E4F0120AE19003D5E4F07A417B0679529B
:1059F800121165E508A2E092AF7900024387EEC371
:105A080033F8E433F974B428F582740339F5832242
:105A1800C082C0837909120C19023B84C082C083FA
:105A28009003C274AEF0A37417F0A37432F0A37499
:105A380018F0A374E3F0A37417125A8F1210E70238
:105A48003B8402083474F712047EE9FE9003D6E022
:105A58006E6016E07017120C07E96011EEF9121269
:105A68008BE96009EE9003D6F07900800279E202B2
:105A78004387C082C0839003D6E0600812128590E5
:105A880003D6E4F0023B84F09003B1E4F0A3F022E3
:105A9800F09003B47465F0A3740BF09003B1E04484
:105AA8000122F09006BC7416F0A37416F09003B6A9
:105AB800746FF0A374132274F712047EEAFEEBFFEE
:105AC800ECF8EDF98E828F837407125B22E08E82E8
:105AD8008F83A3A3125B22A3A3E08E828F83A3A349
:105AE800A3F088828983A3A3120A968E828F83A348
:105AF800A3A3A3120A8A8E828F83A3A3A3A3A3A31B
:105B0800A3A3E4F0E82418F582E91231AC12627E0E
:105B1800A3A3A3E8F0A3E9025615F088828983A31A
:105B2800A3A3A3A3A32274F412047EEAFEEBFF90BE
