:020000040000FA
:06000000020B010201B435
:03002B0002082F99
:030033000202A620
:030053000200E2C6
:03006B000201D6B9
:03007B0002076B0E
:100083000201450103000300030003000300030012
:1000930003000300030005000A00140028004F00BA
:1000A3009E000000810D810D810D810D190C130C33
:1000B300810DA61F000000000E2000000000FF00BD
:1000C3000000FF000E1420FFFFFFFF0120140403B4
:1000D3000008000001FF0E0E0EC80020FD0002C044
:1000E300E074F11205BFA2AFE433FED2AFE5A7FF80
:1000F300E5A1F5085FF5097410550960061213456B
:1001030075A1EF74085509600812134B75A1F780A8
:1001130024E508A2E092F0EFA2E082F0501790618C
:1001230098E0F8900650E0C398A2D265D03350020D
:10013300E8F075A1FE751A00EEA2E092AF7F02020D
:10014300067BC0E074F21205BFA2AFE433FED2AF68
:100153009061A4E0F8759B00E59158540860087518
:1001630091F712139F8023E59158541060087591FD
:10017300EF1213A58014E591A2E092F0E8A2E082C9
:10018300F05007E0C2E0F01214F59061A3E0F8E547
:10019300E9585404600E1214CB75E9FB906193E0A7
:1001A300A2E640F2751A00EEA2E092AF7F010206CA
:1001B3007BC0E074F21205BFA2AFE433FED2AF906E
:1001C30061A5E0F8E5BF585404600675BFFB12153E
:1001D3000D80D1C0E074F21205BFE589A2E1400FA2
:1001E300E589A2E24009E589A2E340030202749093
:1001F3000593E0A2E15009E589A2E3400F02029CC6
:100203007A207B0090057AE0F912108D900593E037
:10021300D2E0F0900715E07035900593E0A2E1502D
:10022300117A007B1090057AE0F912108D9082A666
:10023300802B9082AA1207AE7A007B1090057AE099
:10024300F912119B740412094E9082A2800F7A0056
:100253007B1090057AE0F912108D90825A1207AE46
:100263007A087B0090057AE0F912119B7404120955
:100273004EE589A2E65022E5AB540E640E600343BB
:10028300AB0E9082961207AE7A007B0490057AE05B
:10029300F912119B740412094E758900C2C57F01BE
:1002A30002067BC0E074F11205BFE59DA2E650FA99
:1002B300906206E0FAA2E25035A82AE890620BF0B9
:1002C300F508852B0974047808120B64E50890621D
:1002D30007F0852A08852B0974097808120B64E551
:1002E30008543E906209F0906201E0D2E0F0782772
:1002F300EA46F6906202E0F508750900740478088E
:10030300120ADB7827E50846F608E50946F6906207
:1003130004E0F50875090074097808120ADB7828E7
:10032300E50946F6EAA2E0500375290174065A600E
:1003330003752900E58BA2E55006758BDF7529004F
:100343001215D3758B00C2E87F0202067BC3E498C3
:10035300F8E499F91203918026C3E49AFAE49BFB2B
:10036300E920E7E9120391E498F8E499F922C3E458
:1003730098F8E499F9120391E498F8E499F9C3E43D
:100383009AFAE49BFB22EB20E7CFE920E7E0B900F0
:1003930010BB0008E88AF084F8AAF022E4FBC8FA4C
:1003A30022EB70227B10C833C8C933C9335007C34B
:1003B3009AC3DBF280069A50012ADBEAC833F4C8F9
:1003C300C933F4C9FA2275F008E4C833C8C933C97C
:1003D30033C99AC99B5004C92AC93BD5F0ECFBC861
:1003E30033F4C8E4C9FA22080808EAC0E0EBC0E025
:1003F30086F0E7A4FA180986F0E7A42AFA18098612
:10040300F0E7A42AFA180986F0E7A42AFA1986F075
:10041300E7A4FBE5F02AFA190886F0E7A42BFBE52D
:10042300F03AFA190886F0E7A42BFBE5F03AFA183C
:10043300180986F0E7A4C5F02BFBE43AFA1908E79C
:10044300C5F0C6A426F6E5F03BFBE43AFA1886F0BD
:10045300E7A4F6E5F00826F6E43B08F6E43A08F6E6
:10046300D0E0FBD0E0FA22120BB6B900030204CDB0
:10047300E47921780BB800028004F709D8FCE490F2
:10048300030178C579048002F0A3D8FCD9FA781A5D
:100493009000867A01BA00028007E493A3F608DA93
:1004A300F99006C5AA82AB83900087785C790180B6
:1004B30015E493A3AC82AD838A828B83F0A3AA82D3
:1004C300AB838C828D83D8E9D9E775822975839DA7
:1004D300740212091575822F75831774001209159A
:1004E300E4CFC0E0E4CEC0E0E4CDC0E0E4CCC0E0C3
:1004F30075F020C3E633F608E633F608E633F6086C
:10050300E633F6181818EC33FCED33FDEE33FEEF4B
:1005130033FFC3EC9709ED9709EE9709EF97191984
:1005230019400FFFEC97FC09ED97FD09EE97FE19B3
:100533001906D5F0BEECF709EDF709EEF709EFF769
:10054300191919D0E0FCD0E0FDD0E0FED0E0FF2285
:100553002518C582C0E0E51934FFC583C0E0E5185E
:10056300C3958224F810AF08858319858218800803
:10057300858319858218D2AFCEF0A3E520F0A37846
:1005830008E608F0A3DEFAEFF0A3E58124FAF8E623
:1005930008F0A3E608F0A3E608F0A30808E608F0CD
:1005A300A3E608F0A315811581D0E0FED0E0F8158D
:1005B3008115811581E8C0E0EEC0E022C0D0251886
:1005C300C582C0E0E51934FFC583C0E0E518C395D3
:1005D3008224F310AF0885831985821880088583E8
:1005E30019858218D2AFC8F0A3E9F0A3EAF0A3EB10
:1005F300F0A37908E709F0A3D8FAECF0A3EDF0A390
:10060300EEF0A3EFF0A3D0E0F0A3D0E0F0A3D0E0AE
:10061300F0A3E520F0A3E5F0F0A32212010002020B
:100623000000205104A81609000102030109024336
:100633000002010080190904000001020201000503
:1006430024001001042402020524060001052401EC
:1006530000010705820340004009040100020A006B
:100663000000070584024000000705040240000063
:10067300390600005C060000851983851882E0C0F6
:10068300E0A3E0F9A3E0FAA3E0FBA37808E0F6080F
:10069300A3DFFAE0FCA3E0FDA3E0FEA3E0FFA3E0F9
:1006A300C0E0A3E0C0E0A3E0F5D0A3E0F520A3E021
:1006B300A3F5F010AF088583198582188008858318
:1006C30019858218D2AFD082D083D0E0F8D0E0323F
:1006D40075F0108E218F22858226858325851882C8
:1006E400851983E0CEA3E0CF852682852583EBC9D7
:1006F400EAC8EDCBECCAC3E833C8E933C9EA33CA64
:10070400EB33CBC3EA9EF524EB9FF523B35004AB44
:1007140023AA24EC33CCED33CDD5F0DAAE21AF22CD
:1007240022851983851882E0A3FEE0A3F5207808CA
:10073400E0A3F608DFFAE0A3FFE0A3C0E0E0A3C073
:10074400E0E0A3C0E0E0A3C0E0E0A3C0E010AF0895
:100754008582188583198008858218858319D2AF0C
:10076400D083D08202091BC0E074F21205BFA2AF8D
:10077400E433FED2AFE58AA2E25007900643E0D20A
:10078400E0F0E58AA2E35007900643E0D2E1F07579
:100794008A00C2EB7A107B0090063FE0F912108DBC
:1007A400EEA2E092AF7F0102067B7404800474021F
:1007B4008000CCC0E0EDC0E0E518C39CCCAD19507E
:1007C400011D10AF068C188D1980068C188D19D256
:1007D400AF120897D0E0FDD0E0FC22D083D082CCC9
:1007E400C0E0E493A360061208F61470FAE493A33D
:1007F40060061209B01470FAD0E0FCE493A3C0E0E0
:10080400E493C0E022C008C3E096F50808A3E0968C
:10081400420808A3E096420808A3E0964208A2D240
:1008240065D033E5087001D3D00822C0E0C0D0E819
:10083400C0E0E9C0E0E5A8D2AFC2C7751A00A2E7DC
:10084400A2E792AFD0E0F9D0E0F8D0D0D0E032CA3D
:10085400C0E0E493A3C582CCC582C583CDC583F033
:10086400A3C582CCC582C583CDC583DAE5D0E0CAF1
:1008740022A2E792D65002F40430F70663F0FF0593
:10088400F0B3400384800384F40430D60563F0FF9E
:1008940005F022CAC0E0E0A3C582CCC582C583CDE1
:1008A400C583F0A3C582CCC582C583CDC583DAE6F2
:1008B400D0E0CA227009080808226016181818C661
:1008C400C333C608C633C608C633C608C633C6D53E
:1008D400E0EA22C008C3E096F50808A3E0964208BF
:1008E40008A3E096420808A3E09645087001D3D017
:1008F4000822C0E0E493A3D39C5010E493A3C39CC8
:10090400400AD0E0D0E0D0E00207FCA3A3A3D0E0EB
:1009140022C09FF59FE473D09F22D083D082C09FD2
:10092400E493C0E0740193C0E0740293F59F222520
:1009340018F58210AF08F518400215198008F5184B
:1009440040021519D2AF85198322C0D0251810AFE3
:1009540008F518500205198008F51850020519D237
:10096400AFD0D0226016080808C6C313C618C61331
:10097400C618C613C618C613C6D5E0EA22C3E0C615
:1009840096F608A3E0C696F608A3E0C696F608A372
:10099400E0C696F62274048006740280027401C0D4
:1009A400E0F404120933D0E0120B9122C0E0E49386
:1009B400A36C7009D0E0D0E0D0E00207FCA3A3D080
:1009C400E022251810AF08F518400215198008F523
:1009D4001840021519D2AF22E76670100809E766BD
:1009E400700A0809E76670040809E76622E0667081
:1009F4001008A3E066700A08A3E066700408A3E088
:100A04006622C3E09608A3E09608A3E09608A3E054
:100A140096A2D265D03322C3E096F008A3E096F004
:100A240008A3E096F008A3E096F022C3E697F60840
:100A340009E697F60809E697F60809E697F622E02C
:100A440056F608A3E056F608A3E056F608A3E056C7
:100A5400F622E046F008A3E046F008A3E046F008DA
:100A6400A3E046F022E046F608A3E046F608A3E039
:100A740046F608A3E046F622E647F60809E647F6F6
:100A84000809E647F60809E647F622E026F008A337
:100A9400E036F008A3E036F008A3E036F022E026C2
:100AA400F608A3E036F608A3E036F608A3E036F627
:100AB40022E627F60809E637F60809E637F60809B4
:100AC400E637F622E493F608740193F60874029369
:100AD400F608740393F622700422600D18C6C3331B
:100AE400C608C633C6D5E0F41822E056F008A3E0E1
:100AF40056F008A3E056F008A3E056F02275D000A3
:100B040075813F751801751903759F0002046AE425
:100B1400C396F608E496F608E496F608E496F622F8
:100B2400C6F4C608C6F4C608C6F4C608C6F4C62287
:100B3400C3E7960809E7960809E7960809E79622A5
:100B4400C3E09608A3E09608A3E09608A3E09622E3
:100B5400600D08C6A2E713C618C613C6D5E0F32273
:100B6400600C08C6C313C618C613C6D5E0F422E643
:100B7400F008A3E6F008A3E6F008A3E6F022E0F606
:100B840008A3E0F608A3E0F608A3E0F622CAC0E052
:100B9400E6F0A308DAFAD0E0FA22E0FAA3E0FBA335
:100BA400E0FCA3E0FD22EAF0A3EBF0A3ECF0A3ED5C
:100BB400F022E5C754F84401F5C77901222518F558
:100BC40082E43519F5832212091EC3400012091E5E
:100BD400D3400012091E12410012091E6C4100127A
:100BE400091EC4410012091E0E420012091E2942A8
:100BF4000012091E50420012091E6D420012091E05
:100C040079420012091EBB440012091ED44400128A
:100C1400091E60450012091E73450012091E844511
:100C24000012091E44460012091EB9470012091E8B
:100C340070490012091EF0490012091EFA490012F7
:100C4400091E624A0012091E734A0012091E0D4B46
:100C54000012091E3E4B0012091E414B0012091ED0
:100C64006B4B0012091ECB4B0012091EEF4B0012F6
:100C7400091E0D4C0012091E5B4C0012091E944DF6
:100C84000012091EEC4D0012091E454E0012091EE9
:100C9400D04E0012091EF84E0012091E2E4F0012EB
:100CA400091E3D4F0012091E9B4F0012091E0850D9
:100CB4000012091E45500012091E80500012091E20
:100CC400AB500012091EC5500012091EDF5000125D
:100CD400091EB0510012091EBA510012091EE75133
:100CE4000012091EF7510012091E00520012091EBB
:100CF4005E520012091E72520012091E7B5300122A
:100D0400091E8E530012091EA5530012091EBA5360
:100D14000012091E6B540012091ECD540012091E44
:100D24006E550012091E79550012091EBB56001299
:100D3400091ED7560012091E2F570012091E6B57A1
:100D44000012091E85570012091EE7570012091EDA
:100D540086580012091EC8580012091E2E59001286
:100D6400091E825B0012091E315C0012091E635DBC
:100D74000012091E0C5E0012091E5D600012091E9D
:100D840070600012091E73600012091E7F60001259
:100D9400091E93600012091E9B600012091EDB608D
:100DA4000012091ED4610012091E57620012091EA6
:100DB400D9620012091E53630012091E1C6400123A
:100DC400091E3E640012091EDA640012091EE6645C
:100DD4000012091E0C650012091E0F650012091E7F
:100DE4003C650012091E81650012091EF06500129F
:100DF400091E42670012091ECD680012091E5869B7
:100E04000012091E816A0012091E616B0012091E7C
:100E1400926B0012091EBE6B0012091EC76B0012F2
:100E2400091EF66B0012091EA66C0012091E5A6DEB
:100E34000012091ECE6D0012091E6A6E0012091EF0
:100E4400E86E0012091E306F0012091E666F001250
:100E5400091EA36F0012091ED86F0012091E2F70FD
:100E64000012091EA8700012091ECA700012091E81
:100E740022710012091E8A710012091EE371001208
:100E8400091E34720012091E52720012091E9F7349
:100E94000012091EC1790012091EB9C00112091EEF
:100EA400B7C20112091E25CD0112091E4DCD011232
:100EB400091EE6CD0112091E82CE0112091E22CF9F
:100EC4000112091EA1CF0112091E3CD00112091EF4
:100ED400BAD10112091EBFD10112091EDCD10112BF
:100EE400091E50D20112091E81D30112091EC6D354
:100EF4000112091E3ED40112091E6BD40112091EEF
:100F0400AAD40112091EDA830212091E0F840212E6
:100F1400091E21840212091E37840212091E488404
:100F24000212091E61840212091E84840212091E1F
:100F3400A7840212091E56850212091E4F87021247
:100F4400091E42830112091EA7830112091EFF8391
:100F54000112091E70840112091EF0840112091E77
:100F64009F850112091E31870112091E058801128D
:100F7400091E03890112091E2A8A0112091E178BF0
:100F84000112091E3D8B0112091E4D8B0112091E0F
:100F9400C08B0112091EEE8B0112091EFF8C011277
:100FA400091E988F0112091E46920112091E06930A
:100FB4000112091E90930112091E32940112091E96
:100FC4004E950112091EAD950112091E1B960112C0
:100FD400091E69980112091EA8980112091EB298E7
:100FE4000112091E07990112091E4D990112091EC9
:100FF400419B0112091E3A9C0112091E059D011212
:10100400091E899E0112091EF39F0112091ECFA019
:101014000112091E07A20112091E49A30112091E89
:1010240032AA0112091E26AB0112091EE3AB0112FA
:10103400091E4DA20212091E52A20212091E57A233
:101044000212091E50F30112091E97F30112091E20
:10105400B8F30112091E05F40112091E2EF401123F
:10106400091E38F40112091EA4F40112091E36F5F2
:101074000112091E71F50112091ECDF50112091E96
:1010840003F60112091E82F60112091ECCF60112A2
:10109400091E0DF70112091E44F70112091E56F725
:1010A4000112091E68F70112091E87F70112091EB1
:1010B40090F70112091E9A870212091EDD88021296
:1010C400091E03890212091E14890212091E1E3FF9
:1010D4000012091EB5930212091EEB930212091E97
:1010E40036940212091E81950212091EAAAC01123D
:1010F400091EDEAD0112091E1AAE0112091ED2AF7D
:101104000112091E0CB00112091E85B20112091E3A
:10111400C5B20112091E59B40112091EF9B4011213
:10112400091E5BB50112091EE8B50112091E20B69D
:101134000112091E60B60112091EF1B70112091E3F
:1011440099B90112091EF6BB0112091E24BC011231
:10115400091E50BC0112091E59BC0112091ED7BC3C
:101164000112091E34C00112091E52FF0112091E88
:1011740068FF0112091E72FF0112091EBCFF011251
:10118400091E5DF80112091E72F80112091E22F9E6
:101194000112091E62F90112091E7BF90112091ECE
:1011A400B6F90112091EEFF90112091EF0FB011232
:1011B400091E059E0212091E299E0212091E4B9E3B
:1011C4000212091E8F9E0212091E62FC0112091EE0
:1011D40052FD0112091E57FE0112091EF9FE0112E9
:1011E400091E27990212091E42990212091E6999C1
:1011F4000212091EADD40112091EF4D40112091EF3
:1012040030D50112091E50D50112091E68D50112EC
:10121400091E72D60112091E4AD70112091E62D78D
:101224000112091E7AD70112091E3AD80112091EA9
:1012340031D90112091E2EDA0112091E65DB0112D1
:10124400091E20DC0112091EF9DC0112091E0BDE45
:101254000112091E36DF0112091E98E00112091E4F
:101264008BE10112091E4CE20112091EE1E2011296
:10127400091E449C0212091E479C0212091EDE7FAD
:101284000012091E59A20212091E3CA20212091ED2
:10129400D69E0212091EE69E0212091EF29E021238
:1012A400091E839F0212091E489A0212091ECD9A32
:1012B4000212091E339B0212091E71A10212091E99
:1012C40063A20212091E66A20212091E69A2021278
:1012D400091EF87F0012091EE8950212091E2096C5
:1012E4000212091E68970212091EEC970212091EC7
:1012F4006CA20212091E6FA20212091EB1A10212EF
:10130400091EC5A10212091E29910212091E4D913E
:101314000212091E66910212091EA5910212091EEB
:10132400F3910212091E26920212091E569202120B
:10133400091E60920212091EC8920212091ECB9263
:101344000212091E94930212091E9E930212091E90
:10135400AB930212091E488E0212091E708E0212ED
:10136400091EB18E0212091ECF8E0212091EEA8EC8
:101374000212091E528F0212091E5E8F0212091EEA
:10138400BD8F0212091EE98F0212091EF88F021284
:10139400091E1C900212091EDD900212091EEA9019
:1013A4000212091EFB900212091E33A10212091E29
:1013B4004BA10212091E64EE0112091ECDEF0112A7
:1013C400091EDFEF0112091EF7EF0112091E18F0C2
:1013D4000112091E2EF00112091E42F00112091E0B
:1013E400C1F00112091E26F10112091EAEF101120B
:1013F400091E27F20112091E00F30112091E10F33F
:101404000112091E1FF30112091E4BA00212091E2C
:101414006FA00212091E97A00212091EC77D0012B6
:10142400091EEE7D0012091E0C7E0012091E747E38
:101434000012091E528B0212091E6B8B0212091E26
:10144400828B0212091E8B8B0212091EA98B0212B7
:10145400091EB38B0212091EBD8B0212091ED08B0A
:101464000212091E5C8C0212091ED18C0212091E82
:10147400FF8C0212091E508D0212091EA18D021248
:10148400091EBC8D0212091EC68D0212091EED8DA5
:101494000212091E338E0212091EC4A00212091E72
:1014A40027A10212091EEAFF0112091E76E40112A5
:1014B400091EA2E40112091EC0E40112091ED3E4AC
:1014C4000112091EEEE40112091E4DE50112091E66
:1014D40080E50112091E9CE90112091EF2EA0112BB
:1014E400091E24EB0112091E90EB0112091E09EDDD
:1014F4000112091E31ED0112091E46ED0112091EE9
:1015040056ED0112091E96ED0112091EE2ED0112BB
:10151400091EF2ED0112091EEF970212091EFF9730
:101524000212091E1D980212091E38980212091E81
:101534005F980212091E80980212091E9A980212DC
:10154400091ED2980212091EF5980212091E909FD4
:101554000212091ED69F0212091E00800212091EE1
:1015640007800212091E5D810212091E8D8102127A
:10157400091EBD810212091EF0810212091E028297
:101584000212091E3E820212091EA4820212091EC0
:10159400E0820212091E27830212091E54830212DA
:1015A400091E80830212091EDE9D0212091EF29D8D
:1015B4000212091EDEA10212091E4C9B0212091E10
:1015C400AB9B0212091EE99B0212091E2A9C0212FD
:1015D400091EFBFF0112091E10A20212091EED3E94
:1015E4000012091EC03E0012091E9A3E0012091E76
:1015F4000C3E0012091E453D0012091E723C0012E9
:10160400091ECD3B0012091E443B0012091EF43A88
:101614000012091EBB3A0012091E4F3A0012091E9D
:10162400133A0012091EAC390012091E9E3800122A
:10163400091EDE370012091E66370012091EBB356B
:101644000012091E9F340012091E94330012091E51
:10165400D5320012091E92320012091E3C320012C9
:10166400091EC5310012091E98300012091E672F89
:101674000012091E252F0012091EA32D0012091E97
:10168400502D0012091EBA2C0012091E132C001230
:10169400091EB32B0012091E062B0012091EE12A93
:1016A4000012091ED82A0012091EA92A0012091EB6
:1016B400752A0012091E4B2A0012091EED29001278
:1016C400091E13290012091E07290012091E532896
:1016D4000012091EB83F0012091E20230012091E21
:1016E40028280012091EBD270012091E63270012B4
:1016F400091E3F270012091E10260012091EBA25D2
:101704000012091E96250012091EE2240012091E69
:101714003B240012091E4E230012091E132400123A
:10172400091EF1230012091E338B0200000080FB06
:10173400E47300000000000000000000000000004E
:101744000000000000F8000000000000003330003A
:10175400000000100C06100C060000000000000041
:10176400000040C07840C0784000043F04043F04B7
:101774000400007088FC08300000001820FF211EBF
:101784000000F008F000E018000000211C031E21F6
:101794001E0000F00888700000001E212324192771
:1017A400211010160E0000000000000000000000D0
:1017B4000000000000E018040200000000071820E8
:1017C400400000020418E000000000402018070058
:1017D4000000404080F0804040000202010F0102FE
:1017E4000200000000F0000000000101011F0101DF
:1017F4000100000000000000000080B07000000044
:1018040000000000000000000000000101010101CF
:101814000101000000000000000000303000000062
:101824000000000000008060180400601806010039
:10183400000000E010080810E000000F1020201045
:101844000F00001010F8000000000020203F2020AE
:101854000000007008080888700000302824222145
:1018640030000030088888483000001820202011FB
:101874000E000000C02010F8000000070424243FDC
:10188400240000F808888808080000192120201185
:101894000E0000E0108888180000000F11202011AD
:1018A4000E0000380808C83808000000003F000097
:1018B40000000070880808887000001C2221212282
:1018C4001C0000E010080810E00000003122221182
:1018D4000F00000000C0C000000000000030300015
:1018E4000000000000800000000000008060000094
:1018F40000000000804020100800000102040810CD
:1019040020004040404040404000040404040404DB
:101914000400000810204080000000201008040289
:101924000100007048080808F0000000003036018B
:101934000000C030C828E810E0000718272423144A
:101944000B000000C038E0000000203C2302022706
:10195400382008F8888888700000203F2020201153
:101964000E00C0300808080838000718202020108E
:10197400080008F808080810E000203F2020201084
:101984000F0008F88888E8081000203F2020232052
:10199400180008F88888E8081000203F2000030099
:1019A4000000C03008080838000007182020221E54
:1019B400020008F808000008F808203F210101216E
:1019C4003F20000808F8080800000020203F2020DD
:1019D400000000000808F8080800C08080807F002C
:1019E400000008F888C028180800203F2001263885
:1019F400200008F8080000000000203F20202020DC
:101A0400300008F8F800F8F80800203F003F003FD5
:101A1400200008F830C00008F808203F200007180C
:101A24003F00E01008080810E0000F1020202010EC
:101A34000F0008F808080808F000203F2101010100
:101A44000000E01008080810E0000F1824243850A3
:101A54004F0008F8888888887000203F2000030C15
:101A6400302000708808080838000038202121221E
:101A74001C00180808F8080818000000203F20007F
:101A8400000008F808000008F808001F20202020A3
:101A94001F000878880000C83808000007380E01C5
:101AA4000000F80800F80008F800033C0700073CB1
:101AB4000300081868808068180820302C03032C61
:101AC40030200838C800C83808000000203F200033
:101AD400000010080808C8380800203826212020F3
:101AE4001800000000FE020202000000007F4040D7
:101AF4004000000C30C00000000000000001063867
:101B0400C00000020202FE000000004040407F00CE
:101B140000000000040202020400000000000000B3
:101B240000000000000000000000808080808080B1
:101B34008080000202040000000000000000000099
:101B440000000000808080800000001924222222EE
:101B54003F2008F8008080000000003F1120201181
:101B64000E000000008080800000000E1120202064
:101B74001100000000808088F800000E1120201061
:101B84003F200000808080800000001F222222224B
:101B94001300008080F0888888180020203F2020CF
:101BA40000000000808080808000006B94949493F7
:101BB400600008F8008080800000203F21000020A1
:101BC4003F2000809898000000000020203F202043
:101BD4000000000000809898000000C08080807F92
:101BE400000008F8000080808000203F24022D308F
:101BF4002000000808F8000000000020203F2020FA
:101C040000008080808080808000203F20003F2072
:101C1400003F8080008080800000203F2100002061
:101C24003F200000808080800000001F20202020B2
:101C34001F00808000808000000080FFA120201110
:101C44000E000000008080808000000E112020A083
:101C5400FF80808080008080800020203F21200041
:101C6400010000008080808080000033242424242C
:101C74001900008080E0808000000000001F202008
:101C840000008080000000808000001F20202010C1
:101C94003F20808080000080808000010E30080694
:101CA400010080800080008080800F300C030C30A5
:101CB4000F0000808000808080000020312E0E31D3
:101CC4002000808080000080808080818E701806D3
:101CD400010000808080808080000021302C22213F
:101CE400300000000000807C020200000000003F81
:101CF400404000000000FF00000000000000FF0062
:101D040000000002027C800000000040403F000010
:101D140000000006010102020404000000000000AB
:101D240000000000000000000000000000000000AF
:101D3400000000FFFFFF01FFFFFFFFFFFFFF04FFA5
:101D440007120102FFFF000501FFFFFFFF0304FF6D
:101D54000D12020102020001FFFFFFFFFFFFFFFF60
:101D640013120301010100FFFF01FFFFFFFF04FF46
:101D7400191204010101FFFFFFFFFFFFFFFF01FF35
:101D84001F120505050106FFFFFFFF0AFFFFFF0500
:101D94002512060606070601FFFFFF09FFFFFF06DF
:101DA4002B12070707080701FFFFFF09FFFFFF07C3
:101DB4003112080808060801FFFFFF09FFFFFF08AA
:101DC4003712090909060A0909FFFFFFFFFFFF0986
:101DD4003D120A0A0A0B0AFFFFFFFF06FFFFFF0A74
:101DE40043120B0B0B0C0BFFFFFFFF06FFFFFF0B58
:101DF40049120C0C0C0D0CFFFFFFFF06FFFFFF0C3C
:101E04004F120D0D0D0E0DFFFFFFFF06FFFFFF0D1F
:101E140055120E0E0E0F0EFFFFFFFF0601FFFF0E01
:101E24005B120F0F0F100FFFFFFFFF0601FFFF0FE5
:101E340061121010100A10FFFFFFFF06FFFFFF10D2
:101E4400671200013636010100010201000103019D
:101E54000001040106060502000007010034080120
:101E6400000F090401010D0100FF0E080000170214
:101E74000000190100FF1A0100011B0100FE1C01F2
:101E840000081D0200001F010001200100012102C1
:101E940000002301000F2402000026010001270195
:101EA4000008280200FF2A0100072B0102402C0130
:101EB40000002D0100012E0100012F0100FF30015F
:101EC4000B1C310800003A0100083B01000F3C01E3
:101ED400000101017101010101011101010131013F
:101EE400010101018001100161013B001400630143
:101EF40073017201620143010001130106013D01F6
:101F04003500040112010001000100010001040177
:101F14000401330133013C01440132013600000164
:101F24000001650100013500810100010501820104
:101F34008301000166010001000103027102300106
:101F44006002110270020102020202028002100207
:101F540061023A00410063027302720262024302A8
:101F640000021302380000020002040212020002FE
:101F740000020002000204020402370037003C029F
:101F84004402000239000002000265020002350228
:101F9400810200020502820283020002660200023C
:101FA4000002030071003001600011007000310272
:101FB400200350048000100061000000140063003E
:101FC400730072006200430000001300060000006A
:101FD40000000400120000000000000000000400E3
:101FE4000400370037003C024400000000000000F9
:101FF40000006500000035008100000005000000BD
:102004008300000066000000000001037103010367
:10201400010301030103010322030203010310036B
:102024000003000300030003000300030003420352
:10203400000324030603000300030403120325031F
:102044002303250323030403040300030003000301
:102054004403000300032303000365032100350345
:1020640081030003050300030003000300032503A9
:1020740023030304710402046004110470040204C1
:10208400020401040204100461040004140463043F
:102094007304720462044304000413040604000479
:1020A40000040404120400040004000400045104A5
:1020B4006400000400040004440400040004000458
:1020C400000465040004350481046400050400046C
:1020D40083040004660400040004000000000000FF
:1020E400000000000000006000000000000000008C
:1020F40000000060007000000000000000000060AC
:10210400007000780000000000000060007000789B
:10211400007C00000000006000700078007C007EFD
:102124000000006000700078007C007E007F00509A
:10213400205000000000000000003000000060009B
:102144000000C00000008001000000030000000641
:102154000000000C000000180000003000000060C7
:10216400000000C000000080010000000300000027
:10217400060000000C0000000C0036000100060000
:1021840000000F000000000000000000000000003C
:1021940003FFFF00000403FFFF0000FFFF0FF40133
:1021A4000005C4040320000100130B00000000001C
:1021B40000000003010F00000000000000FE838304
:1021C4008383FEFEC3C3C3C3FEFEE3E3E3E3FEFE79
:1021D400F3F3F3F3FEFEFBFBFBFBFEFEFFFFFFFF4F
:1021E400FE00C0C0C0C0C0C0C0FCF8F0E0C08000A9
:1021F4000000030303030303033F1F0F070301004E
:102204000007ECFDFDFDECDCDCCCBCACAC9C9C8C98
:102214007C7C6C6C5C5C5C4C4C3C3C2C2C1C1C79BD
:102224000CA90C7F0C850CA30C970C910CAF0CB56E
:102234000CBB0CC70C8B0C730C6D0C30313233346B
:1022440035363738394142434445460000160F16A7
:102254000D0B150B021102220F3303020E810D9395
:102264000D990D3D0C9F0D370C430C15161B16DFF5
:1022740015D516E5152D16CF10140AE5D5C5B5A547
:10228400A59585857565ED0D0B0E110EF30DFF0DEE
:10229400F90D303017181921301B1D1F3033003C45
:1022A40040423A3F3F392F473066303016181920E4
:1022B400231A1C1E303200034D4C4651181A2505B2
:1022C400020C0E020B040B0A0708000F000119167A
:1022D400181616182303009D0CC10C050ECD0CD343
:1022E4000CD50DA50DAB0DB70DB10D020402010106
:1022F40001010902091603160F16CB0B69166F1696
:1023040063165D160003057F0503F916CF16FD1548
:10231400EB1500BE040AFA0605227D22C082C083A2
:102324009006ED7417F0A37417F09006EF7423F081
:10233400A37417F09003837411F0A37417F090063C
:10234400F1741DF0A3741702463C74F7120553741C
:10235400FD1209C6EAFEEBFF900668E0640F600711
:102364001237C7A2E550051223DF8069124556D201
:10237400E1F09003D4E0600F8E828F83A3A31260F8
:10238400CF120D57E960231237C74403F0900315A9
:10239400E07043122D9A120BC1E4F07402120BC1C7
:1023A40074FF1240B7120DC9802C1223DF1260187B
:1023B4001258716402701FE82405F8E934001223EE
:1023C400E5F874FF68700374FF69700A124556D209
:1023D400E5F0123A49F0740302410C1237CBD2E013
:1023E40022F988828983E0FAA3E0F9EA22C082C054
:1023F40083120D09E9600479208011900668E06475
:102404000F700479018005900312E0F902463DC083
:1024140082C083EA240EF582EB1249EA7010EAFCCA
:10242400EBFD7A787B0312107B1244A880061247D6
:102434007E12173402463D74F0120553900312E0E5
:10244400F470030224CB900314E0602E900312E096
:10245400640270261213218A088B098C0A8D0B9052
:10246400030A780812098175F014900664E084F573
:102474000CE4F50DF50EF50F803C1213218A0C8B3C
:102484000D8C0E8D0F90030E7808120B827808794C
:102494000C120A2F90037CE0F50CA3E0F50DE4F593
:1024A4000EF50F7808790C120A2F900683122D2F3F
:1024B400F50CA3E0F50D7808790C120A2F90832A05
:1024C400780812080940047900801090826E780818
:1024D4001208094004A908800279FF0235B674F095
:1024E400120553E9FEEAFF7A007B00ECF9120BE3D4
:1024F400E990030AF0A312257B740F6F700512256F
:102504008F8049900668E06F900313701A12258239
:102514001208B89082C6780C120B827808790C12D3
:1025240003EA9082C280181225821208B89082C6EB
:10253400780C120B827808790C1203EA90833278B3
:1025440008120AA290030E7808120B73EEA3F0741B
:10255400016E70209006697808120B8290030A7845
:1025640008120A8F9006697808120B8290030E787D
:1025740008120A8F0235B6E4F0A3F0A3F022122D5C
:102584002495E0F50AF50BEF780822A312257BA326
:10259400F022C082C0839006EB74C3F0A37416F0DB
:1025A4009003CC740EF0A37423F01216DB9003B1E5
:1025B400E0440802463C74F012055390066978081A
:1025C400120B82E5084509450A450B600A90066925
:1025D400780C120B828015750C30750D00750E0089
:1025E400750F00900668E0780C1208B89082BE78E7
:1025F4000C120AA29083411229DE780C7908120A7F
:102604002F900334780C120B730235B674EB120559
:102614005374F71209C6EAFEEBFF1215F7E9F51435
:1026240060030226DB8E828F83A3A3A3A3A3A3A3A9
:10263400A3A3A3E0FC122D351260CFEAC333FAEB57
:1026440033FB8E828F83A3A3780C120B829082BA01
:102654007808120B82780C79081204E3740F6C70FA
:10266400030226F6900315E0640260030226F6EEE8
:10267400240C1245597075751030751100751200CF
:10268400751300EE240B12455978101208B88A0805
:102694008B09F50AF50B78107908120AB5781079C8
:1026A4000C120B34402E750830750900EC780812B2
:1026B40008B88A108B11F512F51378087910120AEC
:1026C4002F780C7908120B34400A900669780C12A2
:1026D4000B73801E7514FD8E828F83A3E514124E36
:1026E400331216CF740912094E025C1B900669124C
:1026F4002590EE240E12455960DD123D2C120BDD9F
:10270400EA4B60D37408120BC1123D371207B2753D
:1027140008FF7509FF780812099D8E828F83A3A391
:10272400A3A3A3A3A3A3E0F97404120BC1AC82ADC9
:102734008312164B740412094E80A9C082C0839080
:10274400031274FFF01216AB900683E0F89006684B
:10275400E06860031215317908120CF102463DC09D
:1027640082C083900338125258602B125255701F46
:10277400900338126004900381124D85900338E46D
:10278400F0A3F07902121561790212152580077AF7
:10279400387B03120D339003D4E0601A900668E08E
:1027A400640F60121228F91207AE7A227B03120E0C
:1027B40041740412094E02463D74F4120553900309
:1027C400D4E0605D90031F74EDF0A37416F09003E1
:1027D400347808120B829082CA7808120AA2780808
:1027E4001209997A197B03120E41740412094E12CC
:1027F4000D09E9701F123F0E12163F8A088B09A8B3
:1028040008A909900338124D85E84960141247A4B9
:10281400D2E6800C90066DE004F0900338E4F0A357
:10282400F002328D74F7120553E9FE1260CC1215D2
:10283400F17940120CF1EEF91216E71216FF90032B
:10284400D5E06008900668E0F9120E65024E407407
:10285400F4120553EAFEEBFF900668E0F5088E8259
:102864008F83A3E070719003D4E06019740F65083E
:102874006013E5A8F8C2AF90032874E1F0A37416BE
:102884001244B2805E1228EA640F90035F60421221
:1028940060CF1215F11216FF740F6508701F12280D
:1028A400EAF99003347808120B8290830E780812A8
:1028B4000AA2AA08AB09AC0AAD0B120E591228F9E8
:1028C4001207AE7A227B03120E41740412094E8061
:1028D400061260CF1215F18E828F83742C124E3340
:1028E400120D0F02328D90035F12603E2408F582B0
:1028F400E81237D12290032874E7F0A37416F090FD
:10290400033422C082C083790212152B02463D741F
:10291400F4120553E990066860030229BCE0640FD1
:1029240070030229C1900313740F124956FC7D00F1
:10293400900683E0FA790112170B900663E0603A7F
:10294400900680E0603490033174C9F0A37416F0EB
:102954009006641229DE75830375820A7808120AC8
:10296400A29082B67808120AA278081209997A2BE2
:102974007B03120E41740412094E900683E0640F27
:102984007005121531801C90030774F3F0A37416BC
:10299400F090030E1207AE7A017B03120E41740409
:1029A40012094E900381124776123AB4A2E45003FE
:1029B4001216BD1216B18018E0640F7013900680D1
:1029C400E06005790212151F1216B77908120CF18E
:1029D4007A817B03120D3302328D1229E222E0F553
:1029E40008E4F509F50AF50B2274F5120553750888
:1029F40000750900A2AFE433F50AC2AF90037880F2
:102A0400078E088F0912399B123C6A601C124556C6
:102A1400A2E550ED780812099DEEFCEFFD7A787B73
:102A240003121081740212094EE50AA2E092AFEE7D
:102A34004F60111237C7D2E4F0EEFCEFFD7A787BD9
:102A44000312107B02408CC082C083A2AFE433FA2D
:102A5400C2AF900378800D122B9EA2E55003122A78
:102A64009E122ACD12525870EEEAA2E092AF0246AC
:102A74003DC082C083A2AFE433FAC2AF9003788032
:102A84001212461BE912388D5006C2E7F0122A9E34
:102A9400122ACD12525870E980CF12476DE91237CD
:102AA400D1D2E4F022C082C083A2AFE433FAC2AF31
:102AB400900378800D122BABA2E75003C2E4F0120E
:102AC4002ACD12525870EE80A0E824FBF582E93436
:102AD400FFF58322C082C083791002290DC082C011
:102AE40083900680E060057902121525792012157D
:102AF4002B7A437B03120E537A3A7B03120E530252
:102B0400463DC082C08374EF1209C69003D4E4F03A
:102B1400900315F090031204F0900317E4F0A2AFB1
:102B240033FAC2AF9003788010122BABA2E15006A7
:102B3400D2E0F0122B9E122ACD12525870EBEAA268
:102B4400E092AF7910120CF17908120CF19003168F
:102B5400E06004E4F080408518828519837409F0EC
:102B64007401120BC174E0F090067D1260047402CB
:102B7400120BC1124D85900690E0C0E07404120B54
:102B8400C1D0E0F07405120BC1E4F0740E120BC155
:102B9400E41240B7120ECB024164E82410F582E936
:102BA4001237D1C2E1F02212476DE91237D12274F3
:102BB400F4120553900317E07041125255700B90B4
:102BC40003177401F0792012151F75083075090078
:102BD400750A00750B00900668E078081208B89032
:102BE40082AE7808120AA278081209997A437B0304
:102BF400120E47740412094E02328D900355E004FC
:102C0400F0640470C5792012152B12169980E974AA
:102C1400F0120553900668E0FE900317E4F0900369
:102C240055E004F06404700912169F121699022CE0
:102C3400B7792012152B90069BE0640F601990065B
:102C440068122F1C501190069BE0FE900318E0F9C7
:102C5400900668F0120E6B750C30750D00750E0041
:102C6400750F00900668E0780C1208B8EE126B122B
:102C7400900355E02401F50AE43400F50BE50885DA
:102C84000AF0A4C508A8F0850BF0A428F8850AF07A
:102C9400E509A428F509E4F50AF50B780C7908127E
:102CA4000A2F780C1209997A3A7B03120E417404A4
:102CB40012094E0235B674F4120553900317122DFF
:102CC40046700512169F8055792012151F900349EE
:102CD400748DF0A37416F0900668122D2FF8A3E0FB
:102CE400F9900355122D24E88508F0A4C8AAF085AC
:102CF40009F0A42AFA8508F0E9A42AF9E8C333F80C
:102D0400E933F988088909E4F50AF50B780812090A
:102D1400997A437B03120E41740412094E02328DD8
:102D2400E02401F508E43400F50922E0122D35E031
:102D340022C333F8E433F974C528F582740639F5EF
:102D440083227401F0900668E0640F22C082C0837D
:102D540074FD1209C690031274FFF0900315E06429
:102D640001701FE4F090037FE06026122D9A120B8D
:102D7400C1E4F07402120BC174FF1240B7120DC902
:102D8400800F900683E0F8900668E06860031215EF
:102D940031740302416690069012569F74012274A6
:102DA400F0120553EAFEEBFF900317E07003022FC5
:102DB40019EE242B12624B7003A3E0696003022F07
:102DC40019124091120D51E97003022F1990031743
:102DD400E4F0900680E0600579021215259003ABBB
:102DE400E0600579011215258E828F83A3A3A3A326
:102DF400A3A3A3E0A2E4500A791012152579801246
:102E04000CF1792012152B7A437B03120E538E8218
:102E14008F83A3A31257671223E52400E439FB54DC
:102E24000F900313F08A088B09740C7808120B6452
:102E3400E5085401A3F0EA540F900318F0EAC454CF
:102E44000F900683F090069BE0640F6017122F1C0E
:102E540050128E828F83A3A312477AA3E070059049
:102E6400069B8003900318E0900668F0900355E4F5
:102E7400122D487003022F0BE0F9EEFAEFFB120E4D
:102E84005F900315E06402703E7A3A7B03120E539E
:102E9400900668E0F9750C30750D00750E00750F1D
:102EA40000780C1208B8E9126B12E4F50AF50B78F5
:102EB4000C7908120A2F780C1209997A3A7B0312BA
:102EC4000E41740412094E8E828F83A3A3A3A3E040
:102ED400FC7D00900683E0FA790212170B7A017BDD
:102EE40003120E539003077481F0A37416F0900339
:102EF4000E1207AE7A017B03120E41740412094EBE
:102F04007910120CF1800E900315E0640270061221
:102F1400169F1216990235B6E0F8900318E0C3988C
:102F240022C082C0839003407487F0A37416F0908B
:102F34000349748DF0A37416F090035274A5F0A3A2
:102F44007416F09006E9747BF0A37416F09003D223
:102F54007400F0A37423F01216DB9003B1E0441064
:102F640002463C74F212055374F71209C69003AB7F
:102F7400E06003023042900662E070030230428A4D
:102F8400828B83A3A3A3A3A3A3126D3A8A828B8308
:102F9400A3A3A3A3A3E0F8740758FCE8C4540F54F4
:102FA40007F5098008EE2402FEEF3400FF8C087454
:102FB400FF25081C046027900681C0828E828F83BF
:102FC4001223EAF8758306D082E0687003A3E069EF
:102FD40070D37E028024EE2408FEEF3400FF8509BE
:102FE4000A74FF250AF509046054EEFCEFFD7A919A
:102FF4007B061215C7E960DE7E039003ABE0D2E2E4
:103004001240B7120D397901121525750CA0750DF2
:1030140003780C12099D750C01750D00780C1209CA
:103024009D90067D1207B27406120BC1AC82AD836B
:10303400EEFA7905120D63740612094E805190065A
:1030440068E0640F6049E0F8900683E068604090AF
:103054000680E0703A120CFDE96034A2AFE433FE5E
:10306400C2AF900315E064027020900312E0F46094
:10307400191252557014900378125258700C7A0138
:103084007B03120E537900121681EEA2E092AF7404
:103094000902349774F0120553EAFEEBFF75080039
:1030A4008E828F831231B240030231AF900668E002
:1030B400640F70030231AF90067DE0F47003A3E067
:1030C400F470030231AF900677E0F47003A3E0F4E8
:1030D40070030231AF8E828F83A3A3A3A3E06401A4
:1030E400700575090280258E828F83A3A3A3A3E0B4
:1030F40070057509018015F460030231AF90031562
:10310400E060030231AF7509017508017A437B035E
:10311400120E537A3A7B03120E537A017B03120E7A
:1031240053A2AFE433F50AC2AFE509900315F0905A
:10313400030EE41231BB125255900317700474014C
:103144008001E4F0E508900316F0A2E090035550E6
:103154000474038001E4F0E50AA2E092AF1234673C
:10316400FB79E112142F900317E0640170057920B4
:1031740012151F9003497493F0A37416F0750C3064
:10318400750D00750E00750F00900668E0780C123E
:1031940008B89082AE780C120AA2780C1209997AB7
:1031A400437B03120E47740412094E0235B6A3A3DF
:1031B400E024F5C394122212257CA3F0A374FFF03B
:1031C4002274F012055312327F1203918808890980
:1031D400E4F50AF50B900668E0640F6048121321C9
:1031E4008A0C8B0D8C0E8D0F90030E780C790812BF
:1031F4000AB5780C1208D7502C750C30750D007573
:103204000E00750F00900668E0780C1208B8780874
:10321400790C120AB59082AE7808120AA290030EB5
:1032240078081209817A8E7B03120E5378081209EA
:10323400997A8E7B030235AE74F4120553900668B6
:10324400E0640F602F900683E0602E7A4C7B0312BB
:103254000E5312327F12039188088909E4F50AF5A6
:103264000B78081209997A4C7B03120E47740412E6
:10327400094E8005791012152B800E900688126075
:10328400087A147B002212094E7F04020725C082AB
:10329400C08390035F12525860061260CC1210E78C
:1032A40090035C124B627408F0A3E4F0A3F0900363
:1032B400D4F0900361F07C0BFDF97A627B03121069
:1032C4004B7C0B7D0079007A6D7B0312104B024618
:1032D4003D74F712055374F71209C6EAFEEBFF12A8
:1032E40040A374051233897403125D0F124D78EEF6
:1032F4002430FCEF3400FD8C828D83125D1F123369
:1033040074600BEE242E1240A674FFF0A3F0EE249A
:103314002EEF34001C1CFD8C828D83A3E0C0E08A58
:10332400828B83124776D0E01233748882898312A9
:1033340051972403125DEB1215CD7408120BC1745E
:1033440003F090067D1207B27402120BC1AC82AD79
:10335400837903EEFAEFFB120D5D740212094EE954
:10336400F5087007EEFAEFFB120C31A90802410AC6
:103374001260571234848A828B83E8F0A3E9F08CBC
:10338400828D83E022F0A3E4F0EE240D125B4B2245
:1033940074F2120553EAFEEBFF8C088D09890A12B8
:1033A400346712347B740E120BC1123489E824FF83
:1033B40018E934FFF988828983E50A125D1B9006B7
:1033C40082125D18900681125D187410120BC112DE
:1033D4003489EE2404FCEF3400FD880B8A828B834D
:1033E400E0F50C8C828D83E0250CC3950B125D2EC9
:1033F400E8F0A3E9124949A3A3A3A3A3A3A3A3E0C9
:103404006403700812346FF0A3E4800AEE240EF50E
:1034140082EF126245A312338C7409F0750C0B759C
:103424000D00780C12099D7C627D03125C20121041
:1034340045740212094E750CFF750DFF780C1209C4
:103444009DAC08AD097903EEFAEFFB120D5D740231
:1034540012094EE9F5087007EEFAEFFB120C31A9D8
:10346400088033EE2402FAEF340022EE240EF582B3
:10347400EF125B4E740122FB8A828B831234842206
:10348400124D8BF922E0F50CA3125D1F125D5BE572
:103494000CF02212094E7F0602072574F012055320
:1034A400EAFEEBFF890B8C0E8D0F750A00A2AFE4C8
:1034B40033F50CC2AF900378803F12358350371236
:1034C400359064037030EE24F9FEEF34FFFF850875
:1034D40082850983A3A3E02405FCA3E03400FDEE68
:1034E400FAEFFB1215CDEE24FF1EEF34FFFF74102C
:1034F400250AF50A150B1248F9126B22E50B600632
:10350400E508450970B4E50CA2E092AFA2AFE4333C
:10351400F50CC2AF90037880232402FAE509340045
:10352400FB8A828B8312444912359F8A828B8312D1
:10353400443112359F050A150B1248F912490E60E1
:1035440027123590640270F1123583E50840CA12DF
:10355400461CE50912455CA2E550DE850E82850F06
:10356400837401F0E50B70D1E50CA2E092AF8E827A
:103574008F83E50AF0EE24FFFAEF34FFFB8033E596
:103584000812476EE5091237D1A2E6228508828522
:103594000983A3A312478D12587D22E08E828F8364
:1035A400F0EE24FF1EEF34FFFF22120E47740412C4
:1035B400094E7F0802072574EC12055374F61209AC
:1035C400C689118A0F8B0E851882851983E4F090C1
:1035D400037EE0C3940840057510078003E0F510EE
:1035E400E51033333354F8F8900667E0282437F5B0
:1035F4000CFA7B001210518A088B09EA4509700302
:10360400023758EA2402F50AEB3400F50BEA250CDC
:10361400F8EB3400F9850A82850B83124D85EA2480
:1036240004F50CEB3400F50D850C82F583E4F09081
:103634000667E0F512F8C3E498F895E0F9850A8284
:10364400850B83E028FEA3E039FF7513007812127E
:10365400099D900665125D09EEFAEFFB12104574A0
:103664000212094E851882851983AC82AD83A91094
:10367400EE24FFFAEF34FFFB1216458A128B13AEC9
:1036840012AF138E828F83E41235A4E50EC454F076
:10369400F99003D5E0C4333354C0F8900661E0A236
:1036A400E0E43313134849440F1235A0E50FC45422
:1036B400F045118E828F83F0EEF8850A82850B83A4
:1036C400E0FA850C82850D83E02AC398F0850A828E
:1036D400850B83EEF0A3EFF0E508240E126241A3FC
:1036E400F0E508240D1262417409120BC1E4F0756F
:1036F4000A0BF50B780A12099D7C6D7D03E50824FD
:103704001BFAE5093400FB121045740212094E85B8
:103714001882851983E0600EE508240EF582E50918
:1037240012455C4408F0E4F50A780A12099D740312
:10373400120BC1AE82AF83120D3FEEFCEFFDAA085F
:10374400AB09120D5D740212094EE9AA08AB0960B7
:10375400071210577A007B00740A12094E7F0C027C
:10376400072574F31205538A0A8B0BA2AFE433F5D1
:103774000CC2AF750800750900900378802C1239CB
:10378400A65024850A82850B83A3A3125D098E8229
:103794008F83A3A31260CF120D45E9600A1237C7C5
:1037A400C2E6F08E088F0912399B123C6A70CFE58D
:1037B4000845096006123893D2E6F0E50CA2E092BF
:1037C400AF80121237CB22EE2411F582EF12493664
:1037D400E02212094E7F0502072574F0120553EA10
:1037E400FEEBFF8C0C8D0D750E00A2AFE433F50FCC
:1037F400C2AF7508007509009003788025850A0812
:10380400850B09123893D2E4F0E50812461CE50949
:1038140012455CD2E7F0E50A24FBF582E50B34FFA0
:10382400F583E0F50AA3E0F50BE50A450B6043E5F3
:103834000A12476EE50B12388D50DB850A82850B20
:1038440083A3A31207B2AC0CAD0DEEFAEFFB120D7D
:103854004B740212094EE960BDE5084509609EE516
:1038640008240DF582E509123C5C7006123AAED2CA
:10387400E4F0E50FA2E092AFE50845096006120CFA
:103884002B750E01A90E0235B61237D1A2E722E537
:103894000812476EE5091237D12274F212055374E7
:1038A400FE1209C6750C00750D00851882851983F2
:1038B400E4F0A3F0A2AF33F50AC2AF900378126D1F
:1038C4003A803BEE24FBF582EF34FF126B20780C38
:1038D40012099DEEFCEFFD7A787B031210817402CD
:1038E40012094EEEFCEFFD851882851983AA82AB7E
:1038F4008312106FAE08AF0990037EE014F0EE4F10
:1039040060271239A65019EE240BF8EF1244402414
:10391400FFF0A3E034FFF08882898312525860A339
:103924008E0C8F0D12399B8095E50AA2E092AF9020
:10393400037EE06031900668E0640F60069003D473
:10394400E070237A567B03120E539082AE1207AEB8
:103954007A567B03120E47740412094E800874F0E1
:10396400124E33120C1F851882851983AA82AB83E9
:103974001210758A0A8B0BAE0AAF0BEE4F6013124E
:1039840016391237C7A2E28E828F83A350D074E90E
:1039940080CE7402023497EE24FBF582EF34FFF5F7
:1039A40083221237CBA2E72274F7120553EAFEEB07
:1039B400FF121639124773121734E9640190068412
:1039C400700AE02401F8A3E034008003125767F979
:1039D400EE240B1240A6124D8590037EE0702190D8
:1039E4000668E0640F70197A567B03120E539082B6
:1039F400AE1207AE7A567B03120E47740412094EB8
:103A0400E5A8F8C2AF90037EE004F0E802572674FC
:103A1400F7120553EAFEEBFF123A49F0121639EE9B
:103A2400FCEFFD7A787B0312107BE5A8F8C2AF9017
:103A3400037E1244B0900668E0640F7005790812A2
:103A44000CF1024E401237CBC2E42274F712055334
:103A540074EA1209C6EAFEEBFF900661E06046854F
:103A640018828519837401F0120BC1E4123B3812D9
:103A74000BC1AA82AB831215CD8E828F83123AB406
:103A8400C0E0740A120BC1D0E0125189740B120BFE
:103A9400C1AA82AB83120D7B851882851983AA8201
:103AA400AB83120ECB741602410C85088285098300
:103AB400A3A312478DE02274F7120553EAFEEBFF2D
:103AC40012165174DC69601E74DD69601974E4694E
:103AD400601474F369600F74DE69600A74DF6960EE
:103AE4000574DB697007EEFAEFFB120CF7024E4027
:103AF40074F712055374EB1209C6EAFEEBFF85183E
:103B0400828519837406123B38120BC1AA82AB83D7
:103B14001215CD12409A740A120BC1AA82AB8312F9
:103B24000D7B851882851983AA82AB83120ECB7410
:103B34001502410CF0EE2413FCEF3400FD74022254
:103B440074F712055374F71209C6EAFEEBFFEE246C
:103B540030124559607012454D851882851983AA23
:103B640082AB831215CD7408120BC17403F0900656
:103B74007D1207B2EE242E1240A61207B2900690D0
:103B8400E0F97404120BC1AC82AD83EEFAEFFB12C0
:103B9400164B740412094E74DC69602374DD696089
:103BA4001E74E469601974F369601474DE69600F4B
:103BB40074DF69600A74E869600574DB697007EE94
:103BC400FAEFFB120CF702410A74F21205538A0849
:103BD4008B09750A00750B00750CE7A2AFE433F589
:103BE4000DC2AF90037880078E0A8F0B12399B1297
:103BF4003C6A60351239A650EF123C5670EAEE2446
:103C040032123C628A828B83A3A3E06870DA780A5A
:103C140012099DEEFCEFFD7A787B03121081740289
:103C240012094E90037EE014F0E50DA2E092AFEE8F
:103C34004F6013EEFAEFFB12163979F0EEFAEFFB50
:103C4400120CF7750C00A90CAA08AB09120CF702A8
:103C5400349AEE240DF582EF1237D1640122F582F5
:103C6400EF1237D1F822E0FEA3E0FFEE4F2274F406
:103C740012055374F71209C6EAFEEBFF8E828F8396
:103C8400A3E064F37003023D208E828F83A3E0647B
:103C9400DF7003023D208E828F83A3E064E8607CA2
:103CA4008E828F83A3E064DB60721215F7E9F50856
:103CB4007062EE240E124559605A123D2C120BDD2F
:103CC400EA4B60507408120BC1123D371207B275EB
:103CD40008FF7509FF780812099D8E828F83A3A3BC
:103CE400A3A3A3A3A3A3E0F97404120BC1AC82ADF4
:103CF4008312164B740412094EE9F50874F365082F
:103D0400601274DF6508600C74E86508600674DB93
:103D14006508700F8E828F83A3E508F0EEFAEFFB3F
:103D24001215EB740902328AEE240FFAEF3400FB09
:103D340079092274021256AD74FFF0A3126714A31A
:103D44002274F4120553EAFEEBFF7508008E828F8D
:103D540083A3A3A3A3A3A31231B240037508E88EDF
:103D6400828F83A3A3A3A3A3A3A3A3A3A3E0C39426
:103D74001040057508E880138E828F83A3A3A3A344
:103D8400A3A3A3A3A3A3E0640F600B9003B1E05427
:103D94000870037508E8EE240B123C628E828F8350
:103DA400A3A3A3A3A3A3A3A3A3A3E0C398500DEE2B
:103DB400240B124559640F60037508E8900681E0EE
:103DC400F47003A3E0F470037508EC7A237B00120B
:103DD40010E190035F12602290035F12525860203A
:103DE400750A23750B00780A12099DEE2402FCEF74
:103DF4003400FD1260CC121045740212094E800387
:103E040075081AA90802328D74F6120553EAFEEBFE
:103E1400FF8E828F83A3A3A3A3A3A3A3A3E09006EF
:103E24006812672F9006831267279006631267341F
:103E34009003D5F0F91214479003D5E0601AEE24EC
:103E440004FAEF3400FB795012142FEE2406FAEF33
:103E54003400FB79E112142F9003D4122D46600430
:103E640074018001E4900361124BC112099DEE2498
:103E74000DFCEF3400FD7A627B03121045740212CC
:103E8400094E780812099DEE2418FCEF3400FD7ADF
:103E94006D7B03025DFF74F7120553EAFEEBFF8EA0
:103EA400828F83A3E070061260CC1215F18E828F8C
:103EB40083742C124E33120D0F024E4074F7120508
:103EC40053EAFEEBFF90035F125258600D1260CC70
:103ED40090035FE4F0A3F01210E78E828F837408DE
:103EE400124E33120ECB024E4074F6120553900359
:103EF400D4E06013900361E0700D123F0E12163F80
:103F0400EA4B6003120C31025E07900663E0FB90FB
:103F14000683E0FA900668E0F92274F6120553EA83
:103F2400FEEBFF750800121441E975F064A4F8A9CA
:103F3400F07AFF7B00120389E8FA8E828F83A3A3B1
:103F4400124436FBA3A882A983A2E050069006611E
:103F5400E06003750801EBA2E15021E508A2E050FE
:103F64001B88828983E0FCA308A983EE242F124BCB
:103F7400009C40057508018003750800EBA2E2501F
:103F840011E508A2E0500B88828983E0C39A40219E
:103F94008006E508A2E050199003D4E06013900372
:103FA40061E0700D123F0E12163FEA4B6003120CD3
:103FB40031025E0774F512055374E71209C6EAFE6E
:103FC400EBFF750A018E828F83A3A3A3A3A3A3A3EC
:103FD400E0A2E2507EEE242BF582EF3400125D075E
:103FE400124091121633E9706A908245E0640170C0
:103FF4000DEE241B124D687005750A008055750876
:104004000B750900780812099D12409A7410120B5E
:10401400C1AA82AB83121045740212094E120D3FDD
:10402400E9FA740E120BC185820885830978081297
:10403400099D750830750900780812099DEE242B36
:104044001240A61207B2125FF47901120D637406CE
:1040540012094E8518828519837410123B38120B8D
:10406400C1AA82AB831215C1EE242B125FFD740B1F
:10407400120BC1124D85740D120BC1E50A1240B723
:10408400120ECB741912094E7F03020725EE241376
:10409400FAEF3400FB22EE2408FCEF3400FD22EE9C
:1040A400240EF582EF125B4E22851882851983EA6D
:1040B400F0A3EB1240BB221256ADAA82AB8322C0FE
:1040C40082C0839003D5E06003120DBD02463DC05B
:1040D40082C0839003CC7412F0A37423F0A3746F92
:1040E400F0A37422F0A374F8F0A3742212656CF0A8
:1040F4009006E57427F0A37416F09006E77421F097
:10410400A37416024635740912094E024E40C08249
:10411400C08374FE1209C6800D7A787B0312107571
:104124001240AD120D3390037812525870EB900385
:104134007A125258600F7A7A7B031210751240ADCE
:10414400120D3380E9900378E4F0A3F090037E121B
:10415400257C90038B7455F0A3740CF074028002D8
:10416400741112094E02463D74F6120553E9FF8F8D
:104174000874A22508F5827422125461FE8E08FA8E
:104184007B00121051EA4B600BEA250812553EA33E
:10419400E4F080297A027B00121051EA4B601A8FF6
:1041A4000874962508F5827422124621F0A3741A25
:1041B400F09003ACE0F912105D7A007B00025E0718
:1041C400E9FD74062DFCEAA2E0501EEC75F00A84A9
:1041D400A8F0E86014740A2CC398FCE8C394054062
:1041E40004740A2CFC740B2CFCEDC3941340047867
:1041F4001480027806E82C2409F8E43400F97A0AD9
:104204007B00120389E8F902091BC082C083900372
:10421400B1E05402600A120ED1E96004790180020F
:10422400790002463DC082C0839003B1E05402602D
:104234001690037EE0700C125255600B124763A275
:10424400E7500479018002790002463DC082C083B0
:10425400908243E0F8900380E0C398500512105117
:1042640080047A007B0002463DC082C083120D3375
:10427400790002463D74F712055374FE1209C6858F
:104284001882851983EAF0A3EB12448D601114603F
:104294006C24FE606F24F870030243BB0244169042
:1042A4000668E0640F6018120D09E970128518821F
:1042B4008519831260CF9006E9124776121734905D
:1042C4000690E0C0E0851882851983125167D0E01A
:1042D400124482F58388827414F0851882851983C8
:1042E400125D097A7A7B0312106FE5A8F8C2AF90C9
:1042F40003801244B07920120CF1024BEA12447587
:10430400741580D5124426A3A3E0700302441685D5
:104314001882851983124436FAA3E0FB8A828B83C0
:10432400E0C0E0851882851983E0FCA3E0CC240674
:10433400F582EC1240A9D0E012604B88828983EAAE
:10434400F0A3EB124482C812461CE812455C85189F
:10435400828519836008124457403F024416124470
:10436400575022124460FA851882851983A3E0C845
:104374002406F582E8123C6574EE28F58274221254
:1043840054616A6015851882851983124449E06472
:1043940008707F12446064087078124460141244F8
:1043A4009B240AC0E0851882851983124776D0E0E1
:1043B40012449B040242DD1244261260048882895E
:1043C40083E0541F6403703AE0C4135407F8E58291
:1043D40028F8E5833400F9E82402F582E912455C03
:1043E400641F701EA3A3A3E0C0E08518828519830F
:1043F400124431D0E012448D64077006124475747F
:1044040031F0851882851983123AB664317003023B
:1044140042DE851882851983AA82AB83120D33028A
:1044240042FE851882851983A31251AA2212446B75
:10443400A322E02402F8A3E0124440223400F988C5
:10444400828983E02212444D2212496BC824061249
:1044540049332212444DE014C394092285188285FD
:10446400198312446BE022E0F812447BA3A3A3A3B4
:1044740022851882851983A3E0F583888222124459
:1044840086221256AD12496B22124486F583888225
:10449400A3A3A3A3A3E022124486C82406F582E8BA
:1044A4001237D122E5A8F8C2AF90037FE004F0E808
:1044B400A2E7A2E792AF22C082C083900383125284
:1044C40058600812447C1217348002790002463D79
:1044D40074F7120553EAFEEBFFEE240D1234721248
:1044E4004B05F8A3E0F91240A3124D85EE243512D2
:1044F4004559C0E0EE24131240A6D0E0F0EE243675
:10450400124559C0E0EE24141240A6D0E0F0EE2487
:1045140038124559C0E0EE24181240A6D0E01260CB
:10452400281207B212454DEE2431F582EF124909E3
:10453400120D5D740212094EE9F5087007EEFAEFE8
:10454400FB120C31A908024E40EE2426FCEF340085
:10455400FD22EE2410F582EF1237D122C082C083EF
:10456400120D09E9600479208002790102463DC0F8
:1045740082C083EA12476EEB12455CD2E002463CED
:10458400C082C083124614123C5C7011124629404A
:104594000C8A828B83A3E0F9120CF78071EA12462D
:1045A4001CEB12455CA2E650128A828B83A3E0F9CD
:1045B4009006EB1247761217348053124614123CBD
:1045C4005C700D12462950088A828B8374308035C2
:1045D4008A828B83A3E0641B8A828B837004742297
:1045E4008023A3E0700F124614123C6574AE28F5C4
:1045F400827422800D124614123C65749628F5824A
:104604007422124621F09003ACE0F912105D802967
:10461400EA240DF582EB22E82410F5822212546577
:104624008A828B8322EA2410F582EB1237D1A2E32B
:1046340022F09003B1E04402F0D083D08202091B3F
:1046440074F7120553E9FE1252557003024760EEE7
:104654006010741B6E701212600DE064057003022A
:10466400472E12640AE402473274E96E705B124703
:1046740096700B120ED7E960051247AF605B90038A
:104684008112479390038160391247B2900381707D
:104694000B12479314F01215790247601247A1C216
:1046A400E7124951240DF582E8126B0C700C90034B
:1046B40081E0F8A3124763D2E2F012477E12173466
:1046C400807612640D74E9806574E16E703F120E99
:1046D400D7E960561247AF705190068AE0C0E012E5
:1046E4005764C82412F582E81240A9D0E0F090067D
:1046F40079E0C0E090038112477A12477AD0E0F063
:10470400900679E004F07901121561804F741C6EF3
:1047140070189003811260CF9006F1124776121739
:1047240034900381E4F0A3F0803212640AEEF09036
:1047340003811260CF120C1F124922E054806010D2
:10474400900690E0F912146B90068FE0F912145F52
:10475400900381E4F0A3F07910120CF1024E40E0D2
:10476400C812476EE81237D122E82411F58222904C
:1047740006EF12478D221251A722900381E0FAA37B
:10478400E0FB9006E712478D22E0F812447B22E01A
:10479400F8A3E0C82412F582E81237D122E0F8A386
:1047A400E0C82410F582E81237D12290038112491F
:1047B40029E054042274F4120553750A00750B00A1
:1047C400A2AFE433FFC2AF12525560030248B112E4
:1047D4004773121734E94410F89003788009850868
:1047E4000A85090B1248F912490E70030248B112E6
:1047F4003893586870E8780A12099DAC08AD097AB4
:10480400787B03121081740212094E900381E5082B
:10481400F0A3E50912495112476EE812388D50038E
:104824000248B890037FE014F0EFA2E092AF900347
:1048340081E0240EF8A3E03400F98808890988820D
:10484400F5831260CF900381124466F9120BE3E9F9
:1048540090037CF0124947E054806018125764C8F2
:10486400241312490612146B125764C824141249F3
:104874000612145F124922A3E05401606690037C7F
:10488400125258604912493B604412493BF879007E
:1048940090037C1260CF120391E8C0E0124916D055
:1048A400E0124956C3941340117402800EEFA2E043
:1048B40092AF803E90037E02482AE4C0E0900382D7
:1048C400E0C8241AF582E81240A9D0E08010124909
:1048D400167401124951241AF582E8123475F079DC
:1048E40003800C9003811247A1A2E1B3E433F912CF
:1048F400156102328DE50824FBF582E50934FFF5E4
:104904008322F582E81237D1F922126B26E5084595
:10491400092212603B2419F582E8125B4E229003AF
:10492400811249292212496BC8240E12493322F5F7
:1049340082E83400F5832212603B2418F582E812E1
:1049440037D122A3E4F085088285098322124963C2
:10495400C822124963F5838882A3A3A3A3E022F0AB
:1049640090038112496B22E0F8A3E02274F7120548
:1049740053EAFEEBFF120D2DEE12461CEF12462FEA
:10498400400A123C5670059082418003908242E0B6
:10499400F9EEFCEFFD7A787B03121087E96034EEC0
:1049A400FAEFFB9006ED124776121734EE240E123E
:1049B40049E770101244A8EE240E124AF87021122E
:1049C4000C2B801CEEFAEFFB9006E51247761217CB
:1049D40034800D8E828F83A374F1124E33120C1F18
:1049E400024E40F582EF1237D1540422C082C083B4
:1049F400120C2B02463D74F7120553EAFEEBFF79C5
:104A0400009003B1E05402700AEE24331249E760C7
:104A14000279E89003B1E05460700CEE243312453F
:104A2400595402600279E88E828F83A3A3A3A3E082
:104A3400C39475400279E8EE2431124559700CEEA6
:104A4400242E124559700479F58009E97003120C7B
:104A54000DE96007EEFAEFFB120CF7024E40C0823C
:104A6400C0838A828B83740DF0120ECB02463D7490
:104A7400F4120553EAFEEBFF8E828F83E4F0A31257
:104A84004B0554049082417012E0F890037FE0C318
:104A940098401279F1120CF702328DE0F890037EFF
:104AA400E0C39850EEEE2433124AF86035EE243712
:104AB400124B0094054039EE2433124559540570C5
:104AC4002F7A857B03120E53EE24371240A6122947
:104AD400DE78081209997A857B03120E4774041252
:104AE400094EEEFAEFFB9003ACE0F912105D80A8DA
:104AF40079E880A1125B4BA3E05401221237CEC3A4
:104B040022F0EE24331237CE2274F6120553E9FE56
:104B14002451FAE43400FB121051EA4B6015EE8A7A
:104B2400828B83A3A3A3A3F0EA2451125549124D07
:104B34008580047A007B00025E070249F0C082C0CF
:104B4400839003A8E4F09003ABF0900394124B62BB
:104B54007402F090039D124B62740102463C74F19E
:104B6400F0A3740CF0A32274F612055374F1120925
:104B7400C68518828519837402F07401120BC1E989
:104B8400F060047AFF7BFF7402120BC1EAF0A3EB1E
:104B9400124BC112099D7CA07D037406120BC1AA9D
:104BA40082AB83121045740212094E85188285194E
:104BB40083AA82AB83120ECB740F025E04F07508D5
:104BC4000B75090078082274F712055374FE120954
:104BD400C6851882851983740AF07401120BC1E921
:104BE4001240B7120ECB740202410C74F01205533A
:104BF40012694C120B827808790C1203EA780812B5
:104C040009997A977B030235AE74F412055374C67E
:104C14001209C6900668E0640F6010851882851931
:104C240083742E1256B5120D0F80277A8E7B0312D1
:104C34000E5312327F12039188088909E4F50AF5AC
:104C44000B78081209997A8E7B03120E47740412AA
:104C5400094E743A02328A74F612055374F7120933
:104C6400C6EAFEEBFF8E828F83A3E0F508600302A1
:104C74004D51124D656008E0640360037508E8EE69
:104C840024261240A61231B45034E5086003024DC4
:104C940051EE2426FAEF3400FB79E112142FEE24AE
:104CA40031FAEF3400FB795012142F124D65701451
:104CB400EE2428125FFD900677124D858018750842
:104CC400E8024D5590067774FEF0A304124D6E7AF7
:104CD4006E7B061215CD75080B750900780812094C
:104CE4009DEE241BFCEF3400FD7AA07B03121045DB
:104CF400740212094E12346F1233897402124D6E0B
:104D0400851882851983AA82AB831215C1EE2431DA
:104D1400125DC912347B8A828B83E8F0A3E9124BBB
:104D240005125DDF12099D7402120BC1AC82AD83C2
:104D340079831A1AEFFB120D5D740212094EE9F51C
:104D4400097007EEFAEFFB120C31850908E50860DB
:104D54000B126ED77417124E33120D0F7409025EC4
:104D640004EE24301237CE640222F0EE2428FCEF45
:104D74003400FD22FB8A828B83124D8BF98A828B4D
:104D840083E8F0A3E9F022E024FFF8A3E034FF2253
:104D940074F612055374F71209C69003ABE070451C
:104DA4007401F0F9121525851882851983AA82AB3E
:104DB40083120D397508A0750903780812099D75C9
:104DC4000801750900780812099D90067D1207B242
:104DD4007406120BC1AC82AD837A037905120D639C
:104DE400740612094E024D6074F7120553EAFEEB85
:104DF400FF790112152B8E828F83E064207004A347
:104E040074EBF09003ABE0A2E25003C2E2F0E0A244
:104E1400E1500812503C120C67800C8E828F837410
:104E24002A124E33120D0F80138E828F837429F051
:104E3400EEFAEFFB22EEFAEFFB120DB17F0102074F
:104E44002574F412055374FE1209C6EAFEEBFF79C9
:104E54000112152B7A8E7B03120E537A977B031261
:104E64000E531251738518828519831251A0E0F5EF
:104E7400087015851882851983AA82AB8379531229
:104E8400142F126AFE12142F750A0B750B00780A80
:104E940012099D12409A7AA07B03121045740212E3
:104EA400094E8518828519831260CFA908120C61F6
:104EB4009003ABE0A2E1500A8E828F83A3E0F91243
:104EC4000C679003ABE4F0740202328A74F71205A3
:104ED40053EAFEEBFF8E828F83A374EBF09003AB57
:104EE400E0A2E1500579EB120C67EEFAEFFB120C2D
:104EF40097024E4074F7120553EAFEEBFF79011254
:104F0400152B7A8E7B03120E537A977B03120E5362
:104F14009003A8E4F09003ABF07AFF7BFF8E828FBE
:104F240083A3E0F9120C61024E4074F7120553EAB0
:104F3400FEEBFF120C91024E3974F7120553EAFE90
:104F4400EBFF790112152B8E828F83A3A3A3A3E019
:104F54006003E4800274EB124F8E5003C2E2F0E06F
:104F6400A2E1500812503C120C678014A2E05010C9
:104F74008E828F83742AF0A374EB124E33120D0FBA
:104F8400EEFAEFFB120C43024E408E828F83A3F0A5
:104F94009003ABE0A2E22274F6120553EAFEEBFFA3
:104FA4009003ABE0D2E1F079011215258E828F8354
:104FB400A3E07041120D3FE9FAEE240DF508EF3439
:104FC40000F509780812099D75080175090078082B
:104FD40012099DEE240B1240A61207B2EE2402FC25
:104FE400EF3400FD7905120D63740612094EE98E43
:104FF400828F83A3F08E828F83A3E06004F9120C66
:1050040067025E0774F7120553EAFEEBFF7901129B
:10501400152B8E828F83E064207004A374EBF090D0
:1050240003ABE0A2E25003C2E2F0E0A2E1500612B8
:10503400503C120C67024E40C2E1126EE2A3E0F94A
:105044002274F7120553EAFEEBFF790112152B7A4D
:105054008E7B03120E538E828F83A3A3A3A3E060DF
:1050640003E4800274EB124F8E5003C2E2F0E0A21C
:10507400E1500612503C120C67024F8474F712057B
:1050840053EAFEEBFF790112152B8E828F83A374F2
:10509400EB124F935003C2E2F0E0A2E1500612502B
:1050A4003C120C67024E4074F7120553EAFEEBFF04
:1050B4007A8E7B03120E53EEFAEFFB120CBB024EF8
:1050C4003974F7120553EAFEEBFF7A8E7B03120E56
:1050D40053EEFAEFFB120CBB024E4074F712055369
:1050E40074EF1209C6EAFEEBFF125FF47A6E7B06D8
:1050F4001215BBE960688518828519837409F074F8
:1051040001120BC174EFF0125173F87402120BC147
:10511400E81251A0A3A3E0C0E07404120BC1D0E0D4
:10512400125197640870158E828F83A3A31251675E
:10513400E0C0E07405120BC1D0E080067405120BC8
:10514400C1E41251897406120BC1AA82AB83120DF9
:105154007B851882851983AA82AB83120ECB7411C6
:1051640002410C12603E2407F582E8125B4E2212C3
:105174005DD3FB8A828B8312600888828983E0FC7A
:10518400A3E0F9EC2212518D22F0EE2408FCEF3456
:1051940000FD2212519B2212671DE022126054125C
:1051A40051A722E0F8A312447CA3A322C082C083A7
:1051B400120DBD02463DC082C0839003C87423F023
:1051C400A37422F0A374DBF0A37422F09006F574A8
:1051D400D6F0A3741EF0A3743EF0A3741F12655A94
:1051E40002463CC082C083EAFCEBFD7902120D1B2F
:1051F40002463DC082C08379060264E074F612055B
:105204005374FE1209C69003AD12525860077AAD6A
:105214007B03120D339003B3E4F09006C31252588B
:10522400602C800D851882851983AA82AB83120DA8
:10523400339003ACE0F91210698A088B09A808A915
:1052440009851882851983124D85E84970D6025E56
:1052540002900381126008E8492274F6120553E9AA
:10526400FA7B009003ACE0F912108D025E0774F72C
:1052740012055374F01209C6EAFEEBFF89088E8208
:105284008F83E0F874C528F5827422125461C0E05B
:105294007401120BC1D0E0F0640B700D8E828F8309
:1052A400A3E9F0120D9F025376E070030253766473
:1052B4000C6003025362741A6508700B7404120BB9
:1052C400C1E4F0A30253617404120BC1EEF0A3EF26
:1052D400126043C0E07403120BC1D0E012671012D5
:1052E4000B9E7406120BC1120BAA8E828F83A3A38A
:1052F400A3A3A3A3A3A3A3126004740A120BC11251
:105304005D32E054106009851882851983E48012A7
:10531400EE2412123C6290068AE0C39885188285B6
:105324001983F0E0C0E0740C120BC1D0E0F0EE245D
:1053340015124559C0E0740D120BC1D0E0F0EE24F3
:1053440016124559C0E0740E120BC1D0E0F0EE24E1
:1053540017124559C0E0740F120BC1D0E0F074026B
:10536400120BC1E508F07401120BC1AA82AB8312BF
:105374000ECB741002410CC082C0839003B3E07062
:105384000479018002790002463DC082C083900303
:10539400B3E060046402700479018002790002467B
:1053A4003DC082C0839003B3E0640370047901803C
:1053B40002790002463D74F61205539003B3E0C32C
:1053C40033F8E433F974F328F582740639F583125B
:1053D40058BFC2E7F0C333FCE82CF582E91240A9B8
:1053E400A3E493FEC333FCE433FD74F32CF582741D
:1053F400063D125D07EC4D6005EE9003B3F08A8222
:105404008B83E0C333FCE433FDE82CF582E93DF5FE
:1054140083E493F508C4540FC333F874C228F582A7
:1054240074031240A91252587005120D8D801BE5A9
:1054340008540FC333FCE82CF582E9125461C0E030
:10544400740193F583D082121734025E07890CEA43
:10545400FEEBFF890874BA2508F58274221254659C
:1054640022124936E4932274F312055374FE12098E
:10547400C6125451FA7B001210518A088B09EA456E
:1054840009602F8A828B83E50CF012555512099D11
:10549400EEFCEFFDEA2402FAEB3400FB1210457433
:1054A4000212094EAA08AB099003ACE0F912105D90
:1054B4008012851882851983E50CF0791AAA82ABCB
:1054C40083120CF774020237D674F012055374FE7B
:1054D4001209C6125451F50AFA7B001210518A08B7
:1054E4008B09EA4509603A8A828B83E50CF0A3E4D0
:1054F400F0EA250A12553E12555512099DEEFCEFAD
:10550400FDEA241BFAEB3400FB1210457402120965
:105514004EAA08AB099003ACE0F912105D79008043
:1055240014851882851983E50CF0791AAA82AB8355
:10553400120CF7791A74020235B3125549E8126055
:1055440054A3A3A322F8EB3400F98A828B83A3A388
:1055540022A3E4F0850C0A74D0250AF58274221281
:105564005465F50A750B00780A22C082C083E9905D
:1055740003AC02463C74F612055374FE1209C6EAE3
:10558400FEEBFFEE5420702E8037E5A8F8C2AF90F2
:105594000380E0141244B28A828B8312569F1260F5
:1055A4001F120D0F851882851983E0641560077A30
:1055B400AF7B03120D337A7A7B03121075EA4B70BA
:1055C400C9EF5480700F801912601F120D0F7AAF4B
:1055D4007B03120D339003ACE0F9121069EA4B70AF
:1055E400E7EE5410600E851882851983742D1256C7
:1055F400B5120D0FEEA2E0500E8518828519837442
:10560400241256B5120D0FEE5402600E85188285D1
:10561400198374251256B5120D0FEE5404600E85CD
:10562400188285198374261256B5120D0FEE54088C
:10563400600E85188285198374281256B5120D0FD1
:10564400EE544060107401120BC11256A8742C124F
:1056540056B5120D0FEE548060107401120BC11276
:1056640056A8742F1256B5120D0F9003AD1252584E
:105674006022E5A8F8C2AF9003AD1260CF9003ADED
:10568400E4F0A31244B2A3126022120D0F7AAF7B8E
:1056940003120D337A007B00025E02E085188285D6
:1056A4001983F022E41256AD22F0851882851983FD
:1056B40022F0AA82AB8322C082C0839003AF12601F
:1056C40004EA687002EB6970079003AFE4F0A3F09A
:1056D40002463D74F7120553EAFEEBFFEE4F7003EA
:1056E400121285A2AFE433F508C2AF8E828F831203
:1056F40052586028E824FBFAE934FFFB9003AF1208
:105704005D09E86C7002E96D70079003AFE4F0A3E3
:10571400F08E828F83E4F0A3F01210E7E508A2E094
:105724008004A2E7A2E792AF024E40C082C08390F9
:105734000677E064FE7003A3E0F470097C6E7D06D6
:105744001215C180188A828B83A3A3A3A3A3A3A346
:10575400A37402F0900677125767124D8002463DFB
:1057640090038112496B22C082C083900681C3E0FA
:1057740094FEA3E094FF4004790380027902024678
:105784003DC082C0831259258C828D8312587D6856
:10579400703B740268701C8A828B831257D6E0684F
:1057A400702B8A828B83A31257D6A3E068701E796C
:1057B40001801C7403687015EC2405FCED3400FDB5
:1057C400EA2405FAEB3400FB1215C78002790002C3
:1057D400463DA3A3A3A3A3E0F88C828D83A3A3A334
:1057E400A3A32274F61205537E00740A120BC1E0BF
:1057F400125871FF8A828B83A3A3A3A3A3A3A3A399
:10580400E06F706474026F704D8A828B83C082C0B3
:105814008388828983A3A3A3A3A3E0F5088882894C
:1058240083A3A3A3A3A3A3E0FBAA08D083D082E00D
:105834006A7003A3E06B703088828983A3A3A3E01A
:10584400FA88828983A3A3A3A3E0F9EA6C7002E92E
:105854006D70150E801274036F700DE82405FCE959
:105864003400FD1215C7E9FEEEF9025E07F8A3E065
:10587400F98882898312587D22A3E01313543F547C
:105884000322C082C0838A828B83A3A3A3A3A3A37E
:10589400A3A3E0640270169006771258BF687003E1
:1058A400A3E06970047901800F7900800BEAFCEBB6
:1058B400FD7A6E7B061215BB02463D1260088A8291
:1058C4008B83E022C082C083125925603A74026837
:1058D400703D900677C3E094FEA3E094FF50308AB5
:1058E400828B83A3A3A3A3A3E0FC8A828B83A3A3B9
:1058F400A3A3A3A3E0F9ECF8758306758277E068A7
:105904007003A3E0697004790180137900800FEAC1
:105914002405FCEB3400FD7A6E7B061215C70246A3
:105924003D8A828B8312587DF82274EC120553EA67
:10593400FEEBFF8C128D13750A00750B008C828DA3
:1059440083A3A3A3A3A3A3A3A3E0F510E9A2E75011
:1059540008750CFF750DFF800A90067DE0F50CA319
:10596400E0F50DE9C2E7F511EE240E124559542075
:10597400600AEE24101240A674088006EE24101269
:105984005B3C125B5B54046007125B4474808005CB
:10599400125B447410125B5B54106008EE24121204
:1059A4005B3C800E90068AE0C0E0EE24121240A612
:1059B400D0E0125B5BA2E05003750A205408600635
:1059C4007410450AF50A8E828F83A3A3E024FFF5A1
:1059D40008A3E0125B37EE240D124B009402E04062
:1059E40010640B6007E014125B618003750B227472
:1059F40003450AF50A85110E750F00740E780E1210
:105A04000ADBE50F450BF50B7414120BC1125C296C
:105A140074026511700E900682125B60900681120A
:105A24005B528013740365117016125B2F7C917D99
:105A340006AA08FB1215CDE50824FF125B33800487
:105A4400E5116028E5106014E50E650C7004E50F9F
:105A5400650D70087440450AF50A80108508828532
:105A64000983E50D125B79E50C125B6785100C75F3
:105A74000D00740A780C120ADBE50D450BF50B7466
:105A84000265107015851282851383A3125B6085ED
:105A94001282851383125B5280137403651070168F
:105AA400125B2FAC12AD13AA08FB1215CDE5082426
:105AB400FF125B338004E51060108508828509833A
:105AC400E50F125B79E50E125B67A808A909E824C3
:105AD400FFF508E9125B37EE240D12455970059065
:105AE400066D8003900679E0FA04F0EA88828983DF
:105AF400124949E50B125B79E50AF0EE2404F8EF4C
:105B04003400F9123467FBAC088A828B83E0F50A0F
:105B140088828983E0250AC39C125D2EECF0A3E5FC
:105B240009126EDEA3E4F0F9023761E50824F9F501
