:020000040000FA
:060000000209DB0201AE63
:03002B0002077356
:030033000201D0F7
:030053000200DCCC
:03006B000206DAB0
:03007B00020697E3
:1000830002013F0103000300030003000300030018
:1000930003000300030005000A00140028004F00BA
:1000A3009E000000690C690C690C690C070B010BBD
:1000B300690C241600000000841400000000FF00F7
:1000C3000000FF001420FFFFFFFF0120140403784A
:1000D3000CFFFFFF0020FD0002C0E074F11204E9F1
:1000E300A2AFE433FED2AFE5A7FFE5A1F5085FF5C4
:1000F3000974105509600612102F75A1EF74085585
:1001030009600812103575A1F78024E508A2E09272
:10011300F0EFA2E082F05017906198E0F890061992
:10012300E0C398A2D265D0335002E8F075A1FE7502
:100133001A00EEA2E092AF7F020205A5C0E074F2BE
:100143001204E9A2AFE433FED2AF9061A4E0F875E4
:100153009B00E59158540860087591F71210898047
:1001630023E59158541060087591EF12108F801495
:10017300E591A2E092F0E8A2E082F05007E0C2E04D
:10018300F01211D99061A3E0F8E5E9585404600E28
:100193001211AF75E9FB906193E0A2E640F2751A84
:1001A30000EEA2E092AF7F010205A5C0E074F21257
:1001B30004E9A2AFE433FED2AF9061A5E0F8E5BF56
:1001C300585404600675BFFB1211F180D1C0E0746E
:1001D300F11204E9E59DA2E650FA906206E0FAA264
:1001E300E25035A82AE890620BF0F508852B0974D4
:1001F300047808120A3DE508906207F0852A08850D
:100203002B0974097808120A3DE508543E906209E7
:10021300F0906201E0D2E0F07827EA46F6906202BD
:10022300E0F508750900740478081209A27827E537
:100233000846F608E50946F6906204E0F5087509F4
:1002430000740978081209A27828E50946F6EAA29B
:10025300E0500375290174065A6003752900E58B84
:10026300A2E55006758BDF7529001212B7758B0056
:10027300C2E87F020205A5C3E498F8E499F91202E3
:10028300BB8026C3E49AFAE49BFBE920E7E9120268
:10029300BBE498F8E499F922C3E498F8E499F912D5
:1002A30002BBE498F8E499F9C3E49AFAE49BFB22CD
:1002B300EB20E7CFE920E7E0B90010BB0008E88AAC
:1002C300F084F8AAF022E4FBC8FA22EB70227B1038
:1002D300C833C8C933C9335007C39AC3DBF2800696
:1002E3009A50012ADBEAC833F4C8C933F4C9FA22A5
:1002F30075F008E4C833C8C933C933C99AC99B50D8
:1003030004C92AC93BD5F0ECFBC833F4C8E4C9FAE5
:1003130022080808EAC0E0EBC0E086F0E7A4FA1878
:100323000986F0E7A42AFA180986F0E7A42AFA183E
:100333000986F0E7A42AFA1986F0E7A4FBE5F02A78
:10034300FA190886F0E7A42BFBE5F03AFA190886B8
:10035300F0E7A42BFBE5F03AFA18180986F0E7A4B6
:10036300C5F02BFBE43AFA1908E7C5F0C6A426F654
:10037300E5F03BFBE43AFA1886F0E7A4F6E5F0086B
:1003830026F6E43B08F6E43A08F6D0E0FBD0E0FAC0
:1003930022120A80B900030203F7E47921780BB82B
:1003A30000028004F709D8FCE4900301788E7904F5
:1003B3008002F0A3D8FCD9FA781A9000867A01BAA1
:1003C30000028007E493A3F608DAF990068EAA8266
:1003D300AB83900087785679018015E493A3AC82B0
:1003E300AD838A828B83F0A3AA82AB838C828D83B5
:1003F300D8E9D9E77582217583B874011208187595
:1004030082EF7583137400120818E4CFC0E0E4CEC2
:10041300C0E0E4CDC0E0E4CCC0E075F020C3E63337
:10042300F608E633F608E633F608E633F618181846
:10043300EC33FCED33FDEE33FEEF33FFC3EC9709F2
:10044300ED9709EE9709EF97191919400FFFEC97EC
:10045300FC09ED97FD09EE97FE191906D5F0BEECE0
:10046300F709EDF709EEF709EFF7191919D0E0FCD1
:10047300D0E0FDD0E0FED0E0FF222518C582C0E029
:10048300E51934FFC583C0E0E518C3958224F8104D
:10049300AF0885831985821880088583198582189A
:1004A300D2AFCEF0A3E520F0A37808E608F0A3DEF0
:1004B300FAEFF0A3E58124FAF8E608F0A3E608F0E2
:1004C300A3E608F0A30808E608F0A3E608F0A315DE
:1004D300811581D0E0FED0E0F8158115811581E802
:1004E300C0E0EEC0E022C0D02518C582C0E0E51907
:1004F30034FFC583C0E0E518C3958224F310AF0829
:100503008583198582188008858319858218D2AF5F
:10051300C8F0A3E9F0A3EAF0A3EBF0A37908E70995
:10052300F0A3D8FAECF0A3EDF0A3EEF0A3EFF0A361
:10053300D0E0F0A3D0E0F0A3D0E0F0A3E520F0A357
:10054300E5F0F0A32212010002020000205104A8EA
:100553001609000102030109024300020100801988
:100563000904000001020201000524001001042413
:100573000202052406000105240100010705820388
:1005830040004009040100020A000000070584023C
:1005930040000007050402400000630500008605D3
:1005A3000000851983851882E0C0E0A3E0F9A3E089
:1005B300FAA3E0FBA37808E0F608A3DFFAE0FCA3C4
:1005C300E0FDA3E0FEA3E0FFA3E0C0E0A3E0C0E002
:1005D300A3E0F5D0A3E0F520A3E0A3F5F010AF0866
:1005E3008583198582188008858319858218D2AF7F
:1005F300D082D083D0E0F8D0E032E4730075F010FD
:100603008E218F22858226858325851882851983ED
:10061300E0CEA3E0CF852682852583EBC9EAC8ED2A
:10062300CBECCAC3E833C8E933C9EA33CAEB33CBEB
:10063300C3EA9EF524EB9FF523B35004AB23AA240E
:10064300EC33CCED33CDD5F0DAAE21AF22228519D0
:1006530083851882E0A3FEE0A3F5207808E0A3F6E3
:1006630008DFFAE0A3FFE0A3C0E0E0A3C0E0E0A35B
:10067300C0E0E0A3C0E0E0A3C0E010AF08858218AB
:100683008583198008858218858319D2AFD083D0DA
:100693008202081EC0E074F21204E9A2AFE433FE42
:1006A300D2AFE58AA2E2500790060CE0D2E0F0E573
:1006B3008AA2E3500790060CE0D2E1F0758A00C2EB
:1006C300EB7A107B00900608E0F9120E55EEA2E0DB
:1006D30092AF7F010205A5C0E074F21204E9900510
:1006E30084E0702B7401F0A285401890057CF0A380
:1006F300E4F0A3F0A3F07A08FB90057AE0F9120E78
:1007030055800CE4F090057CF0A3F0A3F0A3F07502
:100713008900C2C57F010205A574048004740280A8
:1007230000CCC0E0EDC0E0E518C39CCCAD1950018E
:100733001D10AF068C188D1980068C188D19D2AF39
:100743001207B9D0E0FDD0E0FC22C008C3E096F563
:100753000808A3E096420808A3E096420808A3E02D
:10076300964208A2D265D033E5087001D3D008229F
:10077300C0E0C0D0E8C0E0E9C0E0E5A8D2AFC2C79E
:10078300751A00A2E7A2E792AFD0E0F9D0E0F8D063
:10079300D0D0E032CAC0E0E493A3C582CCC582C501
:1007A30083CDC583F0A3C582CCC582C583CDC58364
:1007B300DAE5D0E0CA22CAC0E0E0A3C582CCC58294
:1007C300C583CDC583F0A3C582CCC582C583CDC502
:1007D30083DAE6D0E0CA22C008C3E096F50808A38E
:1007E300E096420808A3E096420808A3E09645086D
:1007F3007001D3D00822700908080822601618185F
:1008030018C6C333C608C633C608C633C608C633BC
:10081300C6D5E0EA22C09FF59FE473D09F22D08320
:10082300D082C09FE493C0E0740193C0E07402934C
:10083300F59F222518F58210AF08F5184002151907
:100843008008F51840021519D2AF85198322C0D04C
:10085300251810AF08F518500205198008F518502F
:10086300020519D2AFD0D0226016080808C6C313F8
:10087300C618C613C618C613C618C613C6D5E0EAEB
:1008830022C3E0C696F608A3E0C696F608A3E0C620
:1008930096F608A3E0C696F62274048006740280D6
:1008A300027401C0E0F404120836D0E0120A5B229D
:1008B300251810AF08F518400215198008F51840DF
:1008C300021519D2AF22E76670100809E766700AAD
:1008D3000809E76670040809E76622E066701008F5
:1008E300A3E066700A08A3E066700408A3E066222A
:1008F300C3E09608A3E09608A3E09608A3E096A2B7
:10090300D265D03322C3E697F60809E697F60809BD
:10091300E697F60809E697F622C3E096F008A3E007
:1009230096F008A3E096F008A3E096F022E056F6CE
:1009330008A3E056F608A3E056F608A3E056F6220D
:10094300E056F008A3E056F008A3E056F008A3E051
:1009530056F022E647F60809E647F60809E647F6A1
:100963000809E647F622E026F008A3E036F008A3DC
:10097300E036F008A3E036F022E026F608A3E036DE
:10098300F608A3E036F608A3E036F622E627F608D3
:1009930009E637F60809E637F60809E637F622705E
:1009A3000422600D18C6C333C608C633C6D5E0F4A7
:1009B3001822E493F608740193F608740293F60878
:1009C300740393F622E046F008A3E046F008A3E0A0
:1009D30046F008A3E046F02275D00075813F7518F4
:1009E30001751903759F00020394E4C396F608E4A6
:1009F30096F608E496F608E496F622C6F4C608C608
:100A0300F4C608C6F4C608C6F4C622C3E7960809A6
:100A1300E7960809E7960809E79622C3E09608A334
:100A2300E09608A3E09608A3E09622E6F008A3E682
:100A3300F008A3E6F008A3E6F022600C08C6C3138F
:100A4300C618C613C6D5E0F422E0F608A3E0F608FC
:100A5300A3E0F608A3E0F622CAC0E0E6F0A308DAB2
:100A6300FAD0E0FA22EAF0A3EBF0A3ECF0A3EDF066
:100A730022E0FAA3E0FBA3E0FCA3E0FD22E5C754D8
:100A8300F84401F5C77901222518F582E43519F5F3
:100A93008322120821F93200120821873300120839
:100AA30021AD3300120821DA33001208210B340080
:100AB300120821A53400120821B03500120821C004
:100AC3003500120821FF350012082159360012089B
:100AD30021B13600120821FB360012082116370017
:100AE3001208213D37001208215A370012082166E7
:100AF3003700120821A83900120821C13900120851
:100B0300214D3A00120821603A00120821713A007F
:100B1300120821313B00120821A63C001208215D76
:100B23003E00120821DD3E00120821E73E001208B4
:100B3300214F3F00120821603F00120821FA3F00B5
:100B43001208212B40001208212E400012082158C0
:100B53004000120821B84000120821DC40001208AE
:100B630021FA400012082148410012082181420065
:100B7300120821D94200120821324300120821BD74
:100B83004300120821E543001208211B4400120808
:100B9300212A4400120821884400120821F5440048
:100BA3001208213245001208216D450012082198D0
:100BB3004500120821B24500120821CC4500120855
:100BC300219D4600120821A74600120821D44600A1
:100BD300120821E446001208214247001208215658
:100BE30047001208215F48001208217248001208CA
:100BF300218948001208219E48001208214F49000C
:100C0300120821B14900120821524A001208215D3D
:100C13004A001208219F4B00120821BB4B00120807
:100C230021134C001208214F4C00120821694C007B
:100C3300120821CB4C001208216A4D00120821AC86
:100C43004D00120821124E001208216650001208AE
:100C530021155100120821475200120821F05200B9
:100C6300120821415500120821545500120821573A
:100C73005500120821635500120821775500120808
:100C8300217F5500120821BF5500120821B85600D4
:100C93001208213B5700120821BD570012082137C3
:100CA3005800120821005900120821225900120885
:100CB30021BE5900120821CA5900120821F0590017
:100CC300120821F35900120821205A001208216545
:100CD3005A00120821D45A00120821265C00120877
:100CE30021B15D001208213C5E00120821655F00FE
:100CF300120821456000120821766000120821A223
:100D03006000120821AB6000120821DA60001208AB
:100D1300218A61001208213E6200120821B262009A
:100D23001208214E6300120821CC6300120821141B
:100D330064001208214A6400120821876400120823
:100D430021BC64001208211365001208218C650080
:100D5300120821AE65001208210666001208219FC1
:100D63008001120821DF8001120821068101120887
:100D730021658201120821DC8301120821F3890114
:100D8300120821598B011208215E8B011208216E72
:100D93008B01120821E28B01120821098D0112082F
:100DA30021958D01120821D28D01120821088E018F
:100DB3001208210B8E01120821799801120821A62D
:100DC3009801120821CD98011208210B99011208EC
:100DD300212099011208213999011208215C9901F6
:100DE3001208219B9901120821B29901120821CD01
:100DF30099011208215B9A01120821489B011208EC
:100E030021599B011208216B9B011208216C93014C
:100E1300120821B39301120821D49301120821214E
:100E230094011208214A94011208215494011208D2
:100E330021C094011208215295011208218D9501B8
:100E4300120821E995011208211F96011208219E1B
:100E53009601120821E89601120821299701120828
:100E630021609701120821729701120821849701CA
:100E7300120821A39701120821AC970112082177C8
:100E83007E001208215BAD0112082191AD01120809
:100E930021DCAD0112082127AF011208216E660083
:100EA3001208215F3100120821DE67001208219623
:100EB3006900120821D06900120821496C00120848
:100EC30021A16C00120821416D00120821A36D00BD
:100ED300120821306E00120821686E00120821A842
:100EE3006E00120821397000120821E17100120806
:100EF300213E74001208216C7400120821987400BA
:100F030012082139BB011208214FBB0112082159D4
:100F1300BB01120821A3BB011208211E9D01120867
:100F230021339D01120821E39D01120821239E0113
:100F33001208213C9E01120821779E01120821B05C
:100F43009E01120821B1A001120821FAB80112086A
:100F5300211EB90112082140B90112082184B901E7
:100F63001208218BBD0112082149B3011208215730
:100F7300B301120821A5BD01120821CBB901120842
:100F830021DBB901120821E7B90112082178BA015E
:100F930012082125B601120821AAB6011208211050
:100FA300B701120821C0BC01120821C7BD011208F4
:100FB30021CABD01120821CDBD01120821F87F000D
:100FC3001208218EAF01120821C6AF011208210EAB
:100FD300B10112082192B101120821D0BD011208FA
:100FE30021D3BD0112082100BD0112082114BD0146
:100FF300120821CFAA01120821F3AA011208210C19
:10100300AB011208214BAB0112082199AB01120865
:1010130021CCAB01120821FCAB0112082106AC0163
:101023001208216EAC0112082171AC011208213A99
:10103300AD0112082144AD0112082151AD0112087E
:1010430021EEA70112082116A80112082157A801B1
:1010530012082175A80112082190A801120821F88D
:10106300A80112082104A90112082163A901120889
:10107300218FA9011208219EA901120821C2A901E9
:1010830012082183AA0112082190AA01120821A1A2
:10109300AA01120821BA7F00120821D27F00120888
:1010A30021808E01120821E98F01120821FB8F0193
:1010B3001208211390011208213490011208214AC9
:1010C30090011208215E9001120821DD900112089F
:1010D30021429101120821CA910112082143920170
:1010E3001208211C93011208212C93011208213BA1
:1010F3009301120821D8BB01120821FCBB0112087D
:101103002124BC0112082195B101120821BCB101AF
:10111300120821DFB101120821F8A40112082111DC
:10112300A50112082128A50112082131A5011208E1
:10113300214FA50112082159A50112082163A50118
:1011430012082176A50112082102A60112082177AF
:10115300A601120821A5A601120821F6A60112086C
:101163002147A70112082162A7011208216CA701D8
:1011730012082193A701120821D9A70112082151AE
:10118300BC01120821B4BC01120821B6BD0112082A
:1011930021CD7400120821F974001208211775007B
:1011A3001208212A7500120821457500120821A48E
:1011B3007500120821D77500120821F3790012086F
:1011C30021497B001208217B7B00120821E77B0069
:1011D300120821607D00120821887D001208219DDC
:1011E3007D00120821AD7D00120821ED7D0012085B
:1011F30021397E00120821497E00120821EDB40135
:10120300120821FDB4011208211BB5011208213671
:10121300B5011208215DB5011208217EB50112083E
:101223002198B501120821D0B501120821F3B501A7
:1012330012082185BA01120821CBBA011208212311
:10124300A1011208212AA10112082180A20112087A
:1012530021B0A201120821E0A20112082113A30167
:1012630012082125A30112082161A301120821C735
:10127300A30112082103A4011208214AA4011208A0
:101283002177A401120821A3A401120821D3B801D4
:10129300120821E7B8011208212DBD0112082129E6
:1012A300B70112082188B701120821C6B701120835
:1012B3002107B801120821D6BD011208215FBD0123
:1012C300120821BA3000120821313000120821E13E
:1012D3002F00120821A82F001208213C2F0012080A
:1012E30021002F00120821992E001208218B2D00B6
:1012F300120821CB2C00120821532C00120821A81C
:101303002A001208218C29001208218128001208C2
:1013130021C227001208217F270012082129270054
:10132300120821B226001208218525001208215433
:10133300240012082112240012082190220012080E
:10134300213D2200120821A72100120821002100BB
:10135300120821A02000120821F31F00120821CE39
:101363001F00120821C51F00120821961F00120832
:1013730021621F00120821381F00120821DA1E0003
:10138300120821001E00120821F41D00120821403A
:101393001D00120821151D00120821AA1C001208A5
:1013A30021501C001208213232001208210D1800AE
:1013B3001208212C1C00120821FD1A00120821A773
:1013C3001A00120821831A00120821CF19001208EB
:1013D300212819001208213B1800120821001900C6
:1013E300120821DE1800120821A267000000008005
:1013F300FB00013636010100010201000103010077
:10140300010401060605020000070100340801007B
:101413000F090401010D0100FF0E0800001702006F
:1014230000190100FF1A0100011B0100FE1C01004D
:10143300081D0200001F010001200100012102001C
:10144300002301000F2402000026010001270100F0
:1014530008280200FF2A0100072B0102402C01008B
:10146300002D0100012E0100012F0100FF30010BAF
:101473001C310800003A0100083B01000F3C010049
:1014830001010371030103010301030103010322AA
:10149300030203010310030003000300030003001E
:1014A30003000300034203000324030603000300B5
:1014B3000304031203250323032503230304030463
:1014C300030003000300034403000300032303009A
:1014D30003650321003503810300030503000300B3
:1014E300030003000325032303010171010101012B
:1014F30001110101013101010101018001100161AB
:10150300013B001400630173017201620143010096
:1015130001130106013D0135000401120100010020
:10152300010001000104010401330133013C0144C2
:10153300013201360000010001650100013500811F
:101543000100010501820183010001660100010020
:1015530001030271023001600211027002010202F2
:101563000202028002100261023A00410063027328
:1015730002720262024302000213023800000200F8
:10158300020402120200020002000200020402042A
:1015930002370037003C0244020002390000020017
:1015A3000265020002350281020002050282028303
:1015B30002000266020002000203047104020460D6
:1015C30004110470040204020401040204100461FF
:1015D30004000414046304730472046204430400E7
:1015E30004130406040004000404041204000400A9
:1015F30004000400045104640000040004000444D3
:10160300040004000400040004650400043504819C
:101613000464000504000483040004660400040059
:1016230004030071003001600011007000310220DA
:101633000350048000100061000000140063007375
:101643000072006200430000001300060000000067
:101653000004001200000000000000000004000469
:1016630000370037003C0244000000000000000087
:1016730000650000003500810000000500000083C4
:101683000000006600000000003000000060000061
:1016930000C00000008001000000030000000600FD
:1016A30000000C0000001800000030000000600083
:1016B3000000C000000080010000000300000006DD
:1016C3000000000C0000000C0036000100060000C2
:1016D300000F0000000000000000000000000003F5
:1016E300FFFF00000403FFFF0000FFFF0FF40100F2
:1016F30005C4040320000100130B000000000000D8
:10170300000003010F0007ECFDFDFDECDCDCCCBCAD
:10171300ACAC9C9C8C7C7C6C6C5C5C5C4C4C3C3CB6
:101723002C2C1C1C670B970B6D0B730B910B850BF0
:101733007F0B9D0BA30BA90BB50B790B610B5B0BFC
:1017430000160F160D0B150B021102220F330302A5
:101753000E690C7B0C810C2B0B870C250B310BD5E5
:1017630012DB12A70AB30AA10AED12AD0A140AE5A5
:10177300D5C5B5A5A595858575653030171819218B
:10178300301B1D1F3033D50CF30CF90CDB0CE70CAD
:10179300E10C003C40423A3F3F392F47306630303E
:1017A30016181920231A1C1E30320C0E020B040BC0
:1017B3000A0708000F00011916181616182303004C
:1017C30000034D4C4651181A2505028B0BAF0BED48
:1017D3000CBB0BC10BBD0C8D0C930C9F0C990C0215
:1017E300040201010101090229132F1323131D13FD
:1017F300C912C312CF12B90AA30E9B0AB9138F13CE
:1018030000BE040AFA0609177017C082C083900647
:10181300B674D7F0A37413F09006B874E3F0A3740E
:1018230013F090038374D1F0A37413F09006BA7489
:10183300DDF0A37413023B2974F712047D74FD12C7
:1018430008B3EAFEEBFF900631E0640F6007122C49
:10185300B4A2E550051218CC8069123A43D2E1F0E4
:101863009003D4E0600F8E828F83A3A31255B3122B
:101873000C3FE96023122CB44403F0900315E0708D
:1018830043122287120A8BE4F07402120A8B74FF4C
:101893001235A4120CB1802C1218CC1254FC124D28
:1018A300556402701FE82405F8E934001218D2F8D1
:1018B30074FF68700374FF69700A123A43D2E5F04B
:1018C300122F36F074030235F9122CB8D2E022F944
:1018D30088828983E0FAA3E0F9EA22C082C08312F6
:1018E3000BF1E9600479208011900631E0640F70F8
:1018F3000479018005900312E0F9023B2AC082C0FB
:1019030083EA240EF582EB123ED77010EAFCEBFD5E
:101913007A787B03120E431239958006123C6B12C0
:1019230005FD023B2A74F012047D900312E0F4706B
:10193300030219B8900314E0602E900312E06402CE
:10194300702612100B8A088B098C0A8D0B90030AE0
:10195300780812088475F01490062DE084F50CE4E1
:10196300F50DF50EF50F803C12100B8A0C8B0D8CC8
:101973000E8D0F90030E7808120A4C7808790C121A
:10198300090890037CE0F50CA3E0F50DE4F50EF5F2
:101993000F7808790C12090890064C12221CF50CDA
:1019A300A3E0F50D7808790C1209089080397808BE
:1019B30012074D400479008010908099780812072F
:1019C3004D4004A908800279FF022AA374F012048F
:1019D3007DE9FEEAFF7A007B00ECF9120AD1E99077
:1019E300030AF0A3121A68740F6F7005121A7C8031
:1019F30049900631E06F900313701A121A6F1207A1
:101A0300F9908061780C120A4C7808790C1203144F
:101A130090804D8018121A6F1207F9908061780C2C
:101A2300120A4C7808790C12031490808D780812EE
:101A3300097C90030E7808120A2EEEA3F074016E4F
:101A430070209006327808120A4C90030A78081224
:101A530009699006327808120A4C90030E7808122E
:101A63000969022AA3E4F0A3F0A3F022122211953C
:101A7300E0F50AF50BEF780822A3121A68A3F02207
:101A8300C082C0839006B47483F0A37413F09003F0
:101A9300CC74FFF0A37417F01213AD9003B1E044BC
:101AA30008023B2974F012047D9006327808120A6A
:101AB3004CE5084509450A450B600A900632780C47
:101AC300120A4C8015750C30750D00750E00750FDC
:101AD30000900631E0780C1207F9908011780C120F
:101AE300097C90809E121ECB780C7908120908900D
:101AF3000334780C120A2E022AA374EB12047D74A9
:101B0300F71208B3EAFEEBFF1213A7E9F51460031B
:101B1300021BC88E828F83A3A3A3A3A3A3A3A3A300
:101B2300A3E0FC1222221255B3EAC333FAEB33FBD0
:101B33008E828F83A3A3780C120A4C9080157808A9
:101B4300120A4C780C790812040D740F6C7003029E
:101B53001BE3900315E064026003021BE3EE240C15
:101B6300123A4670757510307511007512007513B1
:101B730000EE240B123A4678101207F98A088B09F3
:101B8300F50AF50B7810790812098F7810790C1281
:101B93000A0E402E750830750900EC78081207F913
:101BA3008A108B11F512F513780879101209087849
:101BB3000C7908120A0E400A900632780C120A2E8B
:101BC300801E7514FD8E828F83A3E51412432012A9
:101BD300138F74091208510250FF900632121A7DB6
:101BE300EE240E123A4660DD123219120ACBEA4B8A
:101BF30060D37408120A8B1232241207207508FF6F
:101C03007509FF78081208A08E828F83A3A3A3A36C
:101C1300A3A3A3A3E0F97404120A8BAC82AD8312CD
:101C2300130B740412085180A9C082C0839003125D
:101C330074FFF012136B90064CE0F8900631E068E5
:101C430060031212157908120BD9023B2AC082C015
:101C53008390033812473C602B124739701F90035F
:101C6300381254E8900381124272900338E4F0A3CF
:101C7300F07902121245790212120980077A387B31
:101C830003120C1B9003D4E0601A900631E0640F3A
:101C93006012121DE612071C7A227B03120D2974AF
:101CA30004120851023B2A74F412047D9003D4E019
:101CB300605D90031F74A1F0A37413F09003347854
:101CC30008120A4C908091780812097C780812084F
:101CD3009C7A197B03120D297404120851120BF11B
:101CE300E9701F1233FB1212FF8A088B09A808A997
:101CF30009900338124272E8496014123C91D2E60B
:101D0300800C900636E004F0900338E4F0A3F00270
:101D1300277A74F712047DE9FE1255B0120A9579F9
:101D230040120BD9EEF912139B1213BF9003D5E0A7
:101D33006008900631E0F9120D4D02432D74F41240
:101D4300047DEAFEEBFF900631E0F5088E828F8377
:101D5300A3E070719003D4E06019740F65086013F9
:101D6300E5A8F8C2AF9003287495F0A37413123951
:101D73009F805E121DD7640F90035F60421255B3BC
:101D8300120A951213BF740F6508701F121DD7F93D
:101D93009003347808120A4C90806D780812097CFD
:101DA300AA08AB09AC0AAD0B120D41121DE61207CE
:101DB3001C7A227B03120D29740412085180061227
:101DC30055B3120A958E828F83742C124320120B03
:101DD300F702277A90035F1255222408F582E8124E
:101DE3002CBE22900328749BF0A37413F090033449
:101DF30022C082C083790212120F023B2A74F412AA
:101E0300047DE99006316003021EA9E0640F7003AC
:101E1300021EAE900313740F123E43FC7D00900626
:101E23004CE0FA79011213CB90062CE0603A90064D
:101E330049E060349003317489F0A37413F0900681
:101E43002D121ECB75830375820A780812097C90C4
:101E53008019780812097C780812089C7A2B7B0376
:101E6300120D29740412085190064CE0640F70059A
:101E7300121215801C90030774B3F0A37413F0902F
:101E8300030E12071C7A017B03120D297404120836
:101E930051900381123C63122FA1A2E45003121349
:101EA3007D1213718018E0640F7013900649E0608F
:101EB3000579021212031213777908120BD97A816A
:101EC3007B03120C1B02277A121ECF22E0F508E4D3
:101ED300F509F50AF50B2274F512047D75080075F2
:101EE3000900A2AFE433F50AC2AF90037880078EEE
:101EF300088F09122E88123157601C123A43A2E54B
:101F030050ED78081208A0EEFCEFFD7A787B0312FF
:101F13000E497402120851E50AA2E092AFEE4F6037
:101F230011122CB4D2E4F0EEFCEFFD7A787B0312AD
:101F33000E43023579C082C083A2AFE433FAC2AF45
:101F4300900378800D12208BA2E55003121F8B1291
:101F53001FBA12473C70EEEAA2E092AF023B2AC0DE
:101F630082C083A2AFE433FAC2AF90037880121227
:101F73003B08E9122D7A5006C2E7F0121F8B121F9D
:101F8300BA12473C70E980CF123C5AE9122CBED2F8
:101F9300E4F022C082C083A2AFE433FAC2AF90035D
:101FA30078800D122098A2E75003C2E4F0121FBA02
:101FB30012473C70EE80A0E824FBF582E934FFF57C
:101FC3008322C082C0837910021DFAC082C083902D
:101FD3000649E060057902121209792012120F7A7C
:101FE300437B03120D3B7A3A7B03120D3B023B2AE0
:101FF300C082C08374EF1208B39003D4E4F090035B
:1020030015F090031204F0900317E4F0A2AF33FA33
:10201300C2AF9003788010122098A2E15006D2E05C
:10202300F012208B121FBA12473C70EBEAA2E09227
:10203300AF7910120BD97908120BD9900316E0600F
:1020430004E4F080408518828519837409F07401D3
:10205300120A8B74E0F09006461254E87402120AD6
:102063008B124272900659E0C0E07404120A8BD0BE
:10207300E0F07405120A8BE4F0740E120A8BE4127A
:1020830035A4120D7D023651E82410F582E9122C95
:10209300BEC2E1F022123C5AE9122CBE2274F412A1
:1020A300047D900317E07041124739700B900317BA
:1020B3007401F07920121203750830750900750A4E
:1020C30000750B00900631E078081207F990801D27
:1020D300780812097C780812089C7A437B03120D56
:1020E3002F740412085102277A900355E004F06418
:1020F3000470C5792012120F12135980E974F0127B
:10210300047D900631E0FE900317E4F0900355E060
:1021130004F06404700912135F1213590221A479A5
:102123002012120F900664E0640F601990063112BA
:1021330024095011900664E0FE900318E0F990061C
:1021430031F0120D53750C30750D00750E00750FBF
:1021530000900631E0780C1207F9EE125FF6900357
:1021630055E02401F50AE43400F50BE508850AF08F
:10217300A4C508A8F0850BF0A428F8850AF0E509A2
:10218300A428F509E4F50AF50B780C790812090877
:10219300780C12089C7A3A7B03120D2974041208F6
:1021A30051022AA374F412047D9003171222337090
:1021B3000512135F80557920121203900349744D61
:1021C300F0A37413F090063112221CF8A3E0F990E7
:1021D3000355122211E88508F0A4C8AAF08509F076
:1021E300A42AFA8508F0E9A42AF9E8C333F8E93305
:1021F300F988088909E4F50AF50B780812089C7A2E
:10220300437B03120D29740412085102277AE02438
:1022130001F508E43400F50922E0122222E022C38A
:1022230033F8E433F9748E28F582740639F5832282
:102233007401F0900631E0640F22C082C08374FD04
:102243001208B390031274FFF0900315E064017059
:102253001FE4F090037FE06026122287120A8BE4CA
:10226300F07402120A8B74FF1235A4120CB1800FA2
:1022730090064CE0F8900631E06860031212157482
:1022830003023653900659124B8374012274F012E1
:10229300047DEAFEEBFF900317E07003022406EED1
:1022A300242B12572F7003A3E06960030224061244
:1022B300357E120C39E97003022406900317E4F00B
:1022C300900649E0600579021212099003ABE060C1
:1022D3000579011212098E828F83A3A3A3A3A3A35B
:1022E300A3E0A2E4500A79101212097980120BD9E3
:1022F300792012120F7A437B03120D3B8E828F8358
:10230300A3A3124C4B1218D22400E439FB540F90B0
:102313000313F08A088B09740C7808120A3DE50848
:102323005401A3F0EA540F900318F0EAC4540F9039
:10233300064CF0900664E0640F60171224095012F3
:102343008E828F83A3A3123C67A3E070059006647B
:102353008003900318E0900631F0900355E41222B5
:102363003570030223F8E0F9EEFAEFFB120D479004
:102373000315E06402703E7A3A7B03120D3B90062C
:1023830031E0F9750C30750D00750E00750F00788E
:102393000C1207F9E9125FF6E4F50AF50B780C79EC
:1023A30008120908780C12089C7A3A7B03120D294B
:1023B30074041208518E828F83A3A3A3A3E0FC7D30
:1023C3000090064CE0FA79021213CB7A017B0312D8
:1023D3000D3B9003077441F0A37413F090030E12A6
:1023E300071C7A017B03120D29740412085179101A
:1023F300120BD9800E900315E06402700612135F6E
:10240300121359022AA3E0F8900318E0C39822C0DC
:1024130082C0839003407447F0A37413F090034980
:10242300744DF0A37413F09003527465F0A3741306
:10243300F09006B2743BF0A37413F09003D274EBE4
:10244300F0A37417F01213AD9003B1E04410023BF4
:102453002974F212047D74F71208B39003ABE060A1
:102463000302252F90062BE0700302252F8A828B0F
:1024730083A3A3A3A3A3A312621E8A828B83A3A312
:10248300A3A3A3E0F8740758FCE8C4540F5407F55A
:10249300098008EE2402FEEF3400FF8C0874FF2548
:1024A300081C04602790064AC0828E828F8312180C
:1024B300D7F8758306D082E0687003A3E06970D310
:1024C3007E028024EE2408FEEF3400FF85090A749F
:1024D300FF250AF509046054EEFCEFFD7A5A7B06EA
:1024E3001212ABE960DE7E039003ABE0D2E2123559
:1024F300A4120C217901121209750CA0750D037831
:102503000C1208A0750C01750D00780C1208A09030
:1025130006461207207406120A8BAC82AD83EEFACC
:102523007905120C4B74061208518051900631E064
:10253300640F6049E0F890064CE0686040900649FB
:10254300E0703A120BE5E96034A2AFE433FEC2AFA8
:10255300900315E064027020900312E0F4601912F6
:102563004739701490037812473C700C7A017B034F
:10257300120D3B7900121341EEA2E092AF740902EF
:10258300298474F012047DEAFEEBFF7508008E8245
:102593008F8312269F400302269C900631E0640F2E
:1025A300700302269C900646E0F47003A3E0F470E7
:1025B3000302269C900640E0F47003A3E0F470034A
:1025C30002269C8E828F83A3A3A3A3E064017005DC
:1025D30075090280258E828F83A3A3A3A3E07005D0
:1025E3007509018015F4600302269C900315E060D1
:1025F3000302269C7509017508017A437B03120DBA
:102603003B7A3A7B03120D3B7A017B03120D3BA20B
:10261300AFE433F50AC2AFE509900315F090030E5A
:10262300E41226A81247399003177004740180013D
:10263300E4F0E508900316F0A2E09003555004740B
:10264300038001E4F0E50AA2E092AF122954FB797A
:10265300E1121113900317E064017005792012123F
:10266300039003497453F0A37413F0750C30750D84
:1026730000750E00750F00900631E0780C1207F913
:1026830090801D780C12097C780C12089C7A437B8D
:1026930003120D2F7404120851022AA3A3A3E024EA
:1026A300F5C3941222121A69A3F0A374FFF02274E3
:1026B300F012047D12276C1202BB88088909E4F525
:1026C3000AF50B900631E0640F604812100B8A0C78
:1026D3008B0D8C0E8D0F90030E780C790812098FD9
:1026E300780C1207DA502C750C30750D00750E003E
:1026F300750F00900631E0780C1207F97808790C11
:1027030012098F90801D780812097C90030E7808B7
:102713001208847A8E7B03120D3B780812089C7A88
:102723008E7B03022A9B74F412047D900631E064CD
:102733000F602F90064CE0602E7A4C7B03120D3B0A
:1027430012276C1202BB88088909E4F50AF50B7895
:102753000812089C7A4C7B03120D2F740412085143
:102763008005791012120F800E9006511254EC7AE4
:10277300147B00221208517F04020651C082C083D9
:1027830090035F12473C60061255B0120E979003F8
:102793005C12404F7408F0A3E4F0A3F09003D4F06C
:1027A300900361F07C0BFDF97A627B03120E137CBC
:1027B3000B7D0079007A6D7B03120E13023B2A74A2
:1027C300F712047D74F71208B3EAFEEBFF1235909B
:1027D300740512287674031251F3124265EE243005
:1027E300FCEF3400FD8C828D83125203122861604A
:1027F3000BEE242E12359374FFF0A3F0EE242EEF8C
:1028030034001C1CFD8C828D83A3E0C0E08A828B84
:1028130083123C63D0E01228618882898312468444
:1028230024031252CF1212B17408120A8B7403F0EC
:102833009006461207207402120A8BAC82AD83798C
:1028430003EEFAEFFB120C457402120851E9F50886
:102853007007EEFAEFFB120B1FA9080235F71255AA
:102863003B1229718A828B83E8F0A3E9F08C828D75
:1028730083E022F0A3E4F0EE240D12502F2274F231
:1028830012047DEAFEEBFF8C088D09890A12295494
:10289300122968740E120A8B122976E824FF18E9AC
:1028A30034FFF988828983E50A1251FF90064B129F
:1028B30051FC90064A1251FC7410120A8B122976AD
:1028C300EE2404FCEF3400FD880B8A828B83E0F551
:1028D3000C8C828D83E0250CC3950B125212E8F009
:1028E300A3E9123E36A3A3A3A3A3A3A3A3E0640374
:1028F300700812295CF0A3E4800AEE240EF582EF3F
:10290300125729A31228797409F0750C0B750D0061
:10291300780C1208A07C627D03125104120E0D7410
:1029230002120851750CFF750DFF780C1208A0AC4C
:1029330008AD097903EEFAEFFB120C457402120895
:1029430051E9F5087007EEFAEFFB120B1FA9088097
:1029530033EE2402FAEF340022EE240EF582EF1256
:102963005032740122FB8A828B8312297122124214
:1029730078F922E0F50CA312520312523FE50CF052
:10298300221208517F0602065174F012047DEAFEFA
:10299300EBFF890B8C0E8D0F750A00A2AFE433F5A4
:1029A3000CC2AF900378803F122A705037122A7DF1
:1029B30064037030EE24F9FEEF34FFFF850882854F
:1029C3000983A3A3E02405FCA3E03400FDEEFAEFA2
:1029D300FB1212B1EE24FF1EEF34FFFF7410250A21
:1029E300F50A150B123DE6126006E50B6006E508D5
:1029F300450970B4E50CA2E092AFA2AFE433F50C45
:102A0300C2AF90037880232402FAE5093400FB8ADD
:102A1300828B83123936122A8C8A828B8312391E57
:102A2300122A8C050A150B123DE6123DFB60271294
:102A33002A7D640270F1122A70E50840CA123B092C
:102A4300E509123A49A2E550DE850E82850F8374AB
:102A530001F0E50B70D1E50CA2E092AF8E828F837B
:102A6300E50AF0EE24FFFAEF34FFFB8033E50812AA
:102A73003C5BE509122CBEA2E62285088285098308
:102A8300A3A3123C7A124D6122E08E828F83F0EE73
:102A930024FF1EEF34FFFF22120D2F74041208517E
:102AA3007F0802065174EC12047D74F61208B38990
:102AB300118A0F8B0E851882851983E4F090037EAB
:102AC300E0C3940840057510078003E0F510E51096
:102AD30033333354F8F8900630E0282437F50CFAF2
:102AE3007B00120E198A088B09EA45097003022C30
:102AF30045EA2402F50AEB3400F50BEA250CF8EB62
:102B03003400F9850A82850B83124272EA2404F5A4
:102B13000CEB3400F50D850C82F583E4F090063060
:102B2300E0F512F8C3E498F895E0F9850A82850B7D
:102B330083E028FEA3E039FF75130078121208A082
:102B430090062E1251EDEEFAEFFB120E0D740212E7
:102B53000851851882851983AC82AD83A910EE24B0
:102B6300FFFAEF34FFFB1213058A128B13AE12AF79
:102B7300138E828F83E4122A91E50EC454F0F990E8
:102B830003D5E0C4333354C0F890062AE0A2E0E44E
:102B93003313134849440F122A8DE50FC454F045EB
:102BA300118E828F83F0EEF8850A82850B83E0FA1B
:102BB300850C82850D83E02AC398F0850A82850BF4
:102BC30083EEF0A3EFF0E508240E125725A3F0E5FA
:102BD30008240D1257257409120A8BE4F0750A0BA9
:102BE300F50B780A1208A07C6D7D03E508241BFA17
:102BF300E5093400FB120E0D740212085185188288
:102C0300851983E0600EE508240EF582E509123A82
:102C1300494408F0E4F50A780A1208A07403120A7A
:102C23008BAE82AF83120C27EEFCEFFDAA08AB0933
:102C3300120C457402120851E9AA08AB0960071285
:102C43000E1F7A007B00740A1208517F0C02065192
:102C530074F312047D8A0A8B0BA2AFE433F50CC222
:102C6300AF750800750900900378802C122E9350DD
:102C730024850A82850B83A3A31251ED8E828F8351
:102C8300A3A31255B3120C2DE9600A122CB4C2E6A9
:102C9300F08E088F09122E8812315770CFE5084540
:102CA300096006122D80D2E6F0E50CA2E092AF8017
:102CB30012122CB822EE2411F582EF123E23E022E9
:102CC3001208517F0502065174F012047DEAFEEBEF
:102CD300FF8C0C8D0D750E00A2AFE433F50FC2AF60
:102CE3007508007509009003788025850A08850B0F
:102CF30009122D80D2E4F0E508123B09E509123AE6
:102D030049D2E7F0E50A24FBF582E50B34FFF583AE
:102D1300E0F50AA3E0F50BE50A450B6043E50A126B
:102D23003C5BE50B122D7A50DB850A82850B83A36E
:102D3300A3120720AC0CAD0DEEFAEFFB120C3374AB
:102D430002120851E960BDE5084509609EE50824C3
:102D53000DF582E5091231497006122F9BD2E4F07A
:102D6300E50FA2E092AFE50845096006120B19755D
:102D73000E01A90E022AA3122CBEA2E722E5081215
:102D83003C5BE509122CBE2274F212047D74FE1220
:102D930008B3750C00750D00851882851983E4F05E
:102DA300A3F0A2AF33F50AC2AF90037812621E807C
:102DB3003BEE24FBF582EF34FF126004780C12081B
:102DC300A0EEFCEFFD7A787B03120E497402120821
:102DD30051EEFCEFFD851882851983AA82AB83121D
:102DE3000E37AE08AF0990037EE014F0EE4F602774
:102DF300122E935019EE240BF8EF12392D24FFF005
:102E0300A3E034FFF08882898312473C60A38E0CD1
:102E13008F0D122E888095E50AA2E092AF90037E73
:102E2300E06031900631E0640F60069003D4E070F7
:102E3300237A567B03120D3B90801D12071C7A5692
:102E43007B03120D2F7404120851800874F012438F
:102E530020120B0D851882851983AA82AB83120E6B
:102E63003D8A0A8B0BAE0AAF0BEE4F60131212F9B9
:102E7300122CB4A2E28E828F83A350D074E980CE49
:102E83007402022984EE24FBF582EF34FFF58322DA
:102E9300122CB8A2E72274F712047DEAFEEBFF12AC
:102EA30012F9123C601205FDE9640190064D700AA7
:102EB300E02401F8A3E034008003124C4BF9EE2424
:102EC3000B12359312427290037EE070219006310B
:102ED300E0640F70197A567B03120D3B90801D122C
:102EE300071C7A567B03120D2F7404120851E5A8B0
:102EF300F8C2AF90037EE004F0E8024C0A74F712C4
:102F0300047DEAFEEBFF122F36F01212F9EEFCEF0E
:102F1300FD7A787B03120E43E5A8F8C2AF90037ED7
:102F230012399D900631E0640F70057908120BD9B0
:102F330002432D122CB8C2E42274F712047D74EA02
:102F43001208B3EAFEEBFF90062AE060468518827A
:102F53008519837401F0120A8BE4123025120A8B4F
:102F6300AA82AB831212B18E828F83122FA1C0E08B
:102F7300740A120A8BD0E0124676740B120A8BAADB
:102F830082AB83120C63851882851983AA82AB8373
:102F9300120D7D74160235F9850882850983A3A372
:102FA300123C7AE02274F712047DEAFEEBFF12135F
:102FB3001174DC69601E74DD69601974E46960145E
:102FC30074F369600F74DE69600A74DF6960057405
:102FD300DB697007EEFAEFFB120BDF02432D74F788
:102FE30012047D74EB1208B3EAFEEBFF85188285A9
:102FF30019837406123025120A8BAA82AB8312122C
:10300300B1123587740A120A8BAA82AB83120C633E
:10301300851882851983AA82AB83120D7D741502EC
:1030230035F9F0EE2413FCEF3400FD74022274F73B
:1030330012047D74F71208B3EAFEEBFFEE2430129C
:103043003A466070123A3A851882851983AA82AB90
:10305300831212B17408120A8B7403F0900646129D
:103063000720EE242E123593120720900659E0F91B
:103073007404120A8BAC82AD83EEFAEFFB12130BCE
:10308300740412085174DC69602374DD69601E7472
:10309300E469601974F369601474DE69600F74DFA6
:1030A30069600A74E869600574DB697007EEFAEF1A
:1030B300FB120BDF0235F774F212047D8A088B09C9
:1030C300750A00750B00750CE7A2AFE433F50DC26A
:1030D300AF90037880078E0A8F0B122E8812315718
:1030E3006035122E9350EF12314370EAEE24321200
:1030F300314F8A828B83A3A3E06870DA780A1208BF
:10310300A0EEFCEFFD7A787B03120E4974021208DD
:103113005190037EE014F0E50DA2E092AFEE4F6014
:1031230013EEFAEFFB1212F979F0EEFAEFFB120B42
:10313300DF750C00A90CAA08AB09120BDF02298763
:10314300EE240DF582EF122CBE640122F582EF12FC
:103153002CBEF822E0FEA3E0FFEE4F2274F412042B
:103163007D74F71208B3EAFEEBFF8E828F83A3E030
:1031730064F3700302320D8E828F83A3E064DF70E9
:103183000302320D8E828F83A3E064E8607C8E821B
:103193008F83A3E064DB60721213A7E9F508706202
:1031A300EE240E123A46605A123219120ACBEA4B37
:1031B30060507408120A8B1232241207207508FF1C
:1031C3007509FF78081208A08E828F83A3A3A3A397
:1031D300A3A3A3A3E0F97404120A8BAC82AD8312F8
:1031E300130B7404120851E9F50874F365086012AF
:1031F30074DF6508600C74E86508600674DB6508B5
:10320300700F8E828F83A3E508F0EEFAEFFB120AAC
:103213009B7409022777EE240FFAEF3400FB790938
:10322300227402124B9174FFF0A3125BF8A3227471
:10323300F412047DEAFEEBFF7508008E828F83A3F0
:10324300A3A3A3A3A312269F40037508E88E828F2E
:1032530083A3A3A3A3A3A3A3A3A3A3E0C394104003
:10326300057508E880138E828F83A3A3A3A3A3A36A
:10327300A3A3A3A3E0640F600B9003B1E054087011
:10328300037508E8EE240B12314F8E828F83A3A3BC
:10329300A3A3A3A3A3A3A3A3E0C398500DEE240B5E
:1032A300123A46640F60037508E890064AE0F4702A
:1032B30003A3E0F470037508EC7A237B00120E91EC
:1032C30090035F12550690035F12473C6020750A16
:1032D30023750B00780A1208A0EE2402FCEF3400D9
:1032E300FD1255B0120E0D740212085180037508B9
:1032F3001AA90802277A74F612047DEAFEEBFF8E00
:10330300828F83A3A3A3A3A3A3A3A3E09006311255
:103313005C1390064C125C0B90062C125C18900305
:10332300D5F0F912112B9003D5E0601AEE2404FABC
:10333300EF3400FB7950121113EE2406FAEF340038
:10334300FB79E11211139003D41222336004740148
:103353008001E49003611240AE1208A0EE240DFC3C
:10336300EF3400FD7A627B03120E0D7402120851D2
:1033730078081208A0EE2418FCEF3400FD7A6D7B68
:10338300030252E374F712047DEAFEEBFF8E828F91
:1033930083A3E070061255B0120A958E828F837450
:1033A3002C124320120BF702432D74F712047DEA0B
:1033B300FEEBFF90035F12473C600D1255B0900384
:1033C3005FE4F0A3F0120E978E828F83740812438A
:1033D30020120D7D02432D74F612047D9003D4E078
:1033E3006013900361E0700D1233FB1212FFEA4B7E
:1033F3006003120B1F0252EB90062CE0FB90064C6D
:10340300E0FA900631E0F92274F612047DEAFEEB4D
:10341300FF750800121125E975F064A4F8A9F07A84
:10342300FF7B001202B3E8FA8E828F83A3A31239C3
:1034330023FBA3A882A983A2E0500690062AE0609A
:1034430003750801EBA2E15021E508A2E0501B88B7
:10345300828983E0FCA308A983EE242F123FED9C0D
:1034630040057508018003750800EBA2E25011E5E1
:1034730008A2E0500B88828983E0C39A402180062A
:10348300E508A2E050199003D4E06013900361E0D3
:10349300700D1233FB1212FFEA4B6003120B1F0273
:1034A30052EB74F512047D74E71208B3EAFEEBFFE6
:1034B300750A018E828F83A3A3A3A3A3A3A3E0A270
:1034C300E2507EEE242BF582EF34001251EB1235DD
:1034D3007E1212F3E9706A908010E06401700DEEC1
:1034E300241B1242557005750A00805575080B752B
:1034F300090078081208A01235877410120A8BAAE3
:1035030082AB83120E0D7402120851120C27E9FAD2
:10351300740E120A8B85820885830978081208A025
:1035230075083075090078081208A0EE242B1235AF
:10353300931207201254D87901120C4B7406120807
:10354300518518828519837410123025120A8BAAAB
:1035530082AB831212A5EE242B1254E1740B120AD0
:103563008B124272740D120A8BE50A1235A4120DE6
:103573007D74191208517F03020651EE2413FAEFEA
:103583003400FB22EE2408FCEF3400FD22EE240E6F
:10359300F582EF12503222851882851983EAF0A34F
:1035A300EB1235A822124B91AA82AB8322C082C0B0
:1035B300839003D5E06003120CA5023B2AC082C0AE
:1035C300839003CC74FBF0A37417F0A37462F0A38D
:1035D3007417F0A374F3F0A37417125A50F0900603
:1035E300AE74E7F0A37412F09006B074E1F0A37424
:1035F30012023B22740912085102432DC082C08378
:1036030074FE1208B3800D7A787B03120E3D1235D7
:103613009A120C1B90037812473C70EB90037A12BA
:10362300473C600F7A7A7B03120E3D12359A120CD7
:103633001B80E9900378E4F0A3F090037E121A69EB
:1036430090038B7443F0A3740BF074028002741123
:10365300120851023B2A74F612047DE9FF8F0874A5
:10366300952508F5827417124945FE8E08FA7B00EA
:10367300120E19EA4B600BEA2508124A22A3E4F062
:1036830080297A027B00120E19EA4B601A8F0874A4
:103693007D2508F5827417123B0EF0A3741AF0907F
:1036A30003ACE0F9120E257A007B000252EBE9FD30
:1036B30074062DFCEAA2E0501EEC75F00A84A8F013
:1036C300E86014740A2CC398FCE8C394054004749E
:1036D3000A2CFC740B2CFCEDC39413400478148067
:1036E300027806E82C2409F8E43400F97A0A7B000E
:1036F3001202B3E8F902081EC082C0839003B1E04E
:103703005402600A120D83E9600479018002790092
:10371300023B2AC082C0839003B1E054026016903A
:10372300037EE0700C124739600B123C50A2E75045
:1037330004790180027900023B2AC082C083908011
:103743000EE0F8900380E0C3985005120E19800430
:103753007A007B00023B2AC082C083120C1B7900D3
:10376300023B2A74F712047D74FE1208B385188293
:10377300851983EAF0A3EB12397A601114606C2483
:10378300FE606F24F870030238A8023903900631F3
:10379300E0640F6018120BF1E97012851882851925
:1037A300831255B39006B2123C631205FD9006597D
:1037B300E0C0E0851882851983124654D0E012399F
:1037C3006FF58388827414F08518828519831251EA
:1037D300ED7A7A7B03120E37E5A8F8C2AF90038027
:1037E30012399D7920120BD90240D7123962741510
:1037F30080D5123913A3A3E070030239038518821D
:10380300851983123923FAA3E0FB8A828B83E0C0F4
:10381300E0851882851983E0FCA3E0CC2406F582B9
:10382300EC123596D0E012552F88828983EAF0A3F3
:10383300EB12396FC8123B09E8123A4985188285A1
:1038430019836008123944403F0239031239445046
:103853002212394DFA851882851983A3E0C82406FC
:10386300F582E812315274E128F582741712494542
:103873006A6015851882851983123936E0640870E9
:103883007F12394D6408707812394D141239882427
:103893000AC0E0851882851983123C63D0E012398F
:1038A30088040237CA1239131254E888828983E0E4
:1038B300541F6403703AE0C4135407F8E58228F8F0
:1038C300E5833400F9E82402F582E9123A49641FDA
:1038D300701EA3A3A3E0C0E0851882851983123963
:1038E3001ED0E012397A640770061239627431F01F
:1038F300851882851983122FA3643170030237CB95
:10390300851882851983AA82AB83120C1B0237EBBD
:10391300851882851983A312469722123958A32248
:10392300E02402F8A3E012392D223400F9888289B9
:1039330083E02212393A22123E58C82406123E204E
:103943002212393AE014C394092285188285198317
:10395300123958E022E0F8123968A3A3A3A3228501
:103963001882851983A3E0F5838882221239732292
:10397300124B91123E5822123973F5838882A3A306
:10398300A3A3A3E022123973C82406F582E8122CFC
:10399300BE22E5A8F8C2AF90037FE004F0E8A2E7F7
:1039A300A2E792AF22C082C08390038312473C6098
:1039B300081239691205FD80027900023B2A74F767
:1039C30012047DEAFEEBFFEE240D12295F123FF293
:1039D300F8A3E0F9123590124272EE2435123A46FA
:1039E300C0E0EE2413123593D0E0F0EE2436123A01
:1039F30046C0E0EE2414123593D0E0F0EE243812E2
:103A03003A46C0E0EE2418123593D0E012550C125A
:103A13000720123A3AEE2431F582EF123DF6120CEA
:103A2300457402120851E9F5087007EEFAEFFB122C
:103A33000B1FA90802432DEE2426FCEF3400FD22C0
:103A4300EE2410F582EF122CBE22C082C083120B2B
:103A5300F1E96004792080027901023B2AC082C027
:103A630083EA123C5BEB123A49D2E0023B29C08263
:103A7300C083123B011231497011123B16400C8A6C
:103A8300828B83A3E0F9120BDF8071EA123B09EB0F
:103A9300123A49A2E650128A828B83A3E0F9900678
:103AA300B4123C631205FD8053123B01123149707D
:103AB3000D123B1650088A828B83743080358A82BC
:103AC3008B83A3E0641B8A828B837004742280231C
:103AD300A3E0700F123B0112315274A128F58274D6
:103AE30017800D123B01123152747D28F582741731
:103AF300123B0EF09003ACE0F9120E258029EA2464
:103B03000DF582EB22E82410F582221249498A82BC
:103B13008B8322EA2410F582EB122CBEA2E322F05F
:103B23009003B1E04402F0D083D08202081E74F700
:103B330012047DE9FE1247397003023C4DEE60101A
:103B4300741B6E70121254F1E064057003023C1B87
:103B53001258EEE4023C1F74E96E705B123C8370F2
:103B63000B120D89E96005123C9C605B9003811286
:103B73003C809003816039123C9F900381700B124B
:103B83003C8014F012125D023C4D123C8EC2E712CF
:103B93003E3E240DF582E8125FF0700C900381E045
:103BA300F8A3123C50D2E2F0123C6B1205FD807672
:103BB3001258F174E9806574E16E703F120D89E962
:103BC3006056123C9C7051900653E0C0E0124C4882
:103BD300C82412F582E8123596D0E0F0900642E050
:103BE300C0E0900381123C67123C67D0E0F090067E
:103BF30042E004F07901121245804F741C6E701874
:103C03009003811255B39006BA123C631205FD90DE
:103C13000381E4F0A3F080321258EEEEF0900381BA
:103C23001255B3120B0D123E0FE054806010900634
:103C330059E0F912114F900658E0F912114390031D
:103C430081E4F0A3F07910120BD902432DE0C812DE
:103C53003C5BE8122CBE22E82411F582229006B8C0
:103C6300123C7A2212469422900381E0FAA3E0FBED
:103C73009006B0123C7A22E0F812396822E0F8A3E9
:103C8300E0C82412F582E8122CBE22E0F8A3E0C8B3
:103C93002410F582E8122CBE22900381123E16E016
:103CA30054042274F412047D750A00750B00A2AF4C
:103CB300E433FFC2AF1247396003023D9E123C60FA
:103CC3001205FDE94410F8900378800985080A85F8
:103CD300090B123DE6123DFB7003023D9E122D803F
:103CE300586870E8780A1208A0AC08AD097A787BA6
:103CF30003120E497402120851900381E508F0A3E0
:103D0300E509123E3E123C5BE8122D7A5003023D58
:103D1300A590037FE014F0EFA2E092AF900381E05F
:103D2300240EF8A3E03400F9880889098882F58312
:103D33001255B3900381123953F9120AD1E9900352
:103D43007CF0123E34E054806018124C48C82413AF
:103D5300123DF312114F124C48C82414123DF312B2
:103D63001143123E0FA3E05401606690037C124797
:103D73003C6049123E286044123E28F879009003C3
:103D83007C1255B31202BBE8C0E0123E03D0E0122E
:103D93003E43C3941340117402800EEFA2E092AF2E
:103DA300803E90037E023D17E4C0E0900382E0C8AA
:103DB300241AF582E8123596D0E08010123E03747F
:103DC30001123E3E241AF582E8122962F07903803B
:103DD3000C900381123C8EA2E1B3E433F912124535
:103DE30002277AE50824FBF582E50934FFF58322EF
:103DF300F582E8122CBEF92212600AE50845092271
:103E030012551F2419F582E81250322290038112B1
:103E13003E1622123E58C8240E123E2022F582E896
:103E23003400F5832212551F2418F582E8122CBEA4
:103E330022A3E4F085088285098322123E50C8221A
:103E4300123E50F5838882A3A3A3A3E022F090033C
:103E530081123E5822E0F8A3E02274F712047DEAAF
:103E6300FEEBFF120C15EE123B09EF123B1C400A4E
:103E7300123143700590800C800390800DE0F9EEC1
:103E8300FCEFFD7A787B03120E4FE96034EEFAEF14
:103E9300FB9006B6123C631205FDEE240E123ED4CF
:103EA3007010123995EE240E123FE57021120B1992
:103EB300801CEEFAEFFB9006AE123C631205FD8008
:103EC3000D8E828F83A374F1124320120B0D0243D4
:103ED3002DF582EF122CBE540422C082C083120B34
:103EE30019023B2A74F712047DEAFEEBFF79009076
:103EF30003B1E05402700AEE2433123ED460027917
:103F0300E89003B1E05460700CEE2433123A465447
:103F130002600279E88E828F83A3A3A3A3E0C394F4
:103F230075400279E8EE2431123A46700CEE242EE5
:103F3300123A46700479F58009E97003120AFBE925
:103F43006007EEFAEFFB120BDF02432DC082C08342
:103F53008A828B83740DF0120D7D023B2A74F41256
:103F6300047DEAFEEBFF8E828F83E4F0A3123FF21F
:103F7300540490800C7012E0F890037FE0C39840E3
:103F83001279F1120BDF02277AE0F890037EE0C387
:103F93009850EEEE2433123FE56035EE2437123F9E
:103FA300ED94054039EE2433123A465405702F7AC6
:103FB300857B03120D3BEE2437123593121ECB780B
:103FC3000812089C7A857B03120D2F740412085182
:103FD300EEFAEFFB9003ACE0F9120E2580A879E826
:103FE30080A112502FA3E0540122122CBBC322F054
:103FF300EE2433122CBB2274F612047DE9FE245105
:10400300FAE43400FB120E19EA4B6015EE8A828B38
:1040130083A3A3A3A3F0EA2451124A2D1242728070
:10402300047A007B000252EB023EDDC082C0839023
:1040330003A8E4F09003ABF090039412404F740292
:10404300F090039D12404F7401023B2974D9F0A3F1
:10405300740BF0A32274F612047D74F11208B38575
:1040630018828519837402F07401120A8BE9F060D7
:10407300047AFF7BFF7402120A8BEAF0A3EB12406F
:10408300AE1208A07CA07D037406120A8BAA82AB31
:1040930083120E0D7402120851851882851983AAA2
:1040A30082AB83120D7D740F0252E8F075080B7515
:1040B300090078082274F712047D74FE1208B38590
:1040C3001882851983740AF07401120A8BE9123578
:1040D300A4120D7D74020235F974F012047D125E90
:1040E30030120A4C7808790C120314780812089CD1
:1040F3007A977B03022A9B74F412047D74C6120818
:10410300B3900631E0640F601085188285198374BB
:104113002E124B99120BF780277A8E7B03120D3BDD
:1041230012276C1202BB88088909E4F50AF50B789B
:104133000812089C7A8E7B03120D2F740412085107
:10414300743A02277774F612047D74F71208B3EAFF
:10415300FEEBFF8E828F83A3E0F508600302423EED
:104163001242526008E0640360037508E8EE2426F7
:104173001235931226A15034E508600302423EEE45
:104183002426FAEF3400FB79E1121113EE2431FAFD
:10419300EF3400FB79501211131242527014EE24C3
:1041A300281254E190064012427280187508E80202
:1041B300424290064074FEF0A30412425B7A377BBE
:1041C300061212B175080B75090078081208A0EEE3
:1041D300241BFCEF3400FD7AA07B03120E0D740246
:1041E30012085112295C122876740212425B851858
:1041F30082851983AA82AB831212A5EE243112524F
:10420300AD1229688A828B83E8F0A3E9123FF21288
:1042130052C31208A07402120A8BAC82AD83798355
:104223001A1AEFFB120C457402120851E9F50970D2
:1042330007EEFAEFFB120B1F850908E508600B1266
:1042430063BB7417124320120BF774090252E8EE92
:104253002430122CBB640222F0EE2428FCEF34003D
:10426300FD22FB8A828B83124278F98A828B83E850
:10427300F0A3E9F022E024FFF8A3E034FF2274F670
:1042830012047D74F71208B39003ABE07045740118
:10429300F0F9121209851882851983AA82AB831259
:1042A3000C217508A075090378081208A075080188
:1042B30075090078081208A09006461207207406B4
:1042C300120A8BAC82AD837A037905120C4B740608
:1042D30012085102424D74F712047DEAFEEBFF7996
:1042E3000112120F8E828F83E064207004A374EB9B
:1042F300F09003ABE0A2E25003C2E2F0E0A2E1508F
:1043030008124529120B55800C8E828F83742A1252
:104313004320120BF780138E828F837429F0EEFAF9
:10432300EFFB22EEFAEFFB120C997F0102065174A8
:10433300F412047D74FE1208B3EAFEEBFF79011256
:10434300120F7A8E7B03120D3B7A977B03120D3B80
:1043530012466085188285198312468DE0F5087030
:1043630015851882851983AA82AB83795312111399
:10437300125FE2121113750A0B750B00780A12080B
:10438300A01235877AA07B03120E0D740212085116
:104393008518828519831255B3A908120B4F900310
:1043A300ABE0A2E1500A8E828F83A3E0F9120B5592
:1043B3009003ABE4F0740202277774F712047DEAEA
:1043C300FEEBFF8E828F83A374EBF09003ABE0A22E
:1043D300E1500579EB120B55EEFAEFFB120B850258
:1043E300432D74F712047DEAFEEBFF790112120FDD
:1043F3007A8E7B03120D3B7A977B03120D3B90035E
:10440300A8E4F09003ABF07AFF7BFF8E828F83A347
:10441300E0F9120B4F02432D74F712047DEAFEEB11
:10442300FF120B7F02432674F712047DEAFEEBFFB3
:10443300790112120F8E828F83A3A3A3A3E06003DB
:10444300E4800274EB12447B5003C2E2F0E0A2E189
:104453005008124529120B558014A2E050108E8289
:104463008F83742AF0A374EB124320120BF7EEFA36
:10447300EFFB120B3102432D8E828F83A3F0900347
:10448300ABE0A2E22274F612047DEAFEEBFF900396
:10449300ABE0D2E1F079011212098E828F83A3E09F
:1044A3007041120C27E9FAEE240DF508EF3400F5FC
:1044B3000978081208A07508017509007808120820
:1044C300A0EE240B123593120720EE2402FCEF34E6
:1044D30000FD7905120C4B7406120851E98E828F88
:1044E30083A3F08E828F83A3E06004F9120B55023D
:1044F30052EB74F712047DEAFEEBFF790112120FFF
:104503008E828F83E064207004A374EBF09003AB7E
:10451300E0A2E25003C2E2F0E0A2E1500612452914
:10452300120B5502432DC2E11263C6A3E0F92274B4
:10453300F712047DEAFEEBFF790112120F7A8E7BEC
:1045430003120D3B8E828F83A3A3A3A3E06003E436
:10455300800274EB12447B5003C2E2F0E0A2E1500C
:1045630006124529120B5502447174F712047DEAB1
:10457300FEEBFF790112120F8E828F83A374EB126D
:1045830044805003C2E2F0E0A2E150061245291232
:104593000B5502432D74F712047DEAFEEBFF7A8E6E
:1045A3007B03120D3BEEFAEFFB120BA902432674B9
:1045B300F712047DEAFEEBFF7A8E7B03120D3BEECE
:1045C300FAEFFB120BA902432D74F712047D74EF6B
:1045D3001208B3EAFEEBFF1254D87A377B061212A5
:1045E3009FE960688518828519837409F074011244
:1045F3000A8B74EFF0124660F87402120A8BE81209
:10460300468DA3A3E0C0E07404120A8BD0E01246E7
:1046130084640870158E828F83A3A3124654E0C06E
:10462300E07405120A8BD0E080067405120A8BE44D
:104633001246767406120A8BAA82AB83120C638528
:104643001882851983AA82AB83120D7D74110235FA
:10465300F91255222407F582E8125032221252B77A
:10466300FB8A828B831254EC88828983E0FCA3E06B
:10467300F9EC2212467A22F0EE2408FCEF3400FD16
:104683002212468822125C01E02212553812469407
:1046930022E0F8A3123969A3A322C082C083120CBB
:1046A300A5023B2AC082C0839003C87427F0A37479
:1046B30017F0A374CEF0A37417F09006BE74ECF059
:1046C300A37414F0A37454F0A37415125A3E023B5E
:1046D30029C082C083EAFCEBFD7902120C03023B82
:1046E3002A74F612047D74FE1208B39003AD1247C8
:1046F3003C60077AAD7B03120C1B9003B3E4F0908C
:10470300068C12473C602C800D851882851983AA7C
:1047130082AB83120C1B9003ACE0F9120E318A08B2
:104723008B09A808A909851882851983124272E8A2
:104733004970D60252E69003811254ECE849227480
:10474300F612047DE9FA7B009003ACE0F9120E55F2
:104753000252EB74F712047D74F01208B3EAFEEB15
:10476300FF89088E828F83E0F874AD28F582741771
:10477300124945C0E07401120A8BD0E0F0640B705B
:104783000D8E828F83A3E9F0120C8702485AE070E2
:104793000302485A640C6003024846741A650870A1
:1047A3000B7404120A8BE4F0A30248457404120A42
:1047B3008BEEF0A3EF125527C0E07403120A8BD0DF
:1047C300E0125BF4120A747406120A8B120A688EE2
:1047D300828F83A3A3A3A3A3A3A3A3A31254E874C5
:1047E3000A120A8B125216E054106009851882854A
:1047F3001983E48012EE241212314F900653E0C362
:1048030098851882851983F0E0C0E0740C120A8B36
:10481300D0E0F0EE2415123A46C0E0740D120A8B74
:10482300D0E0F0EE2416123A46C0E0740E120A8B62
:10483300D0E0F0EE2417123A46C0E0740F120A8B50
:10484300D0E0F07402120A8BE508F07401120A8BAF
:10485300AA82AB83120D7D74100235F9C082C08326
:104863009003B3E07004790180027900023B2AC00F
:1048730082C0839003B3E060046402700479018012
:10488300027900023B2AC082C0839003B3E0640331
:104893007004790180027900023B2A74F612047DC8
:1048A3009003B3E0C333F8E433F974BC28F582749E
:1048B3000639F583124DA3C2E7F0C333FCE82CF5A8
:1048C30082E9123596A3E493FEC333FCE433FD740B
:1048D300BC2CF58274063D1251EBEC4D6005EE9055
:1048E30003B3F08A828B83E0C333FCE433FDE82C0B
:1048F300F582E93DF583E493F508C4540FC333F817
:1049030074C228F582740312359612473C7005125F
:104913000C75801BE508540FC333FCE82CF582E9C2
:10492300124945C0E0740193F583D0821205FD025C
:1049330052EB890CEAFEEBFF890874C32508F58264
:10494300741712494922123E23E4932274F312048A
:104953007D74FE1208B3124935FA7B00120E198AD0
:10496300088B09EA4509602F8A828B83E50CF012D4
:104973004A391208A0EEFCEFFDEA2402FAEB3400F8
:10498300FB120E0D7402120851AA08AB099003AC76
:10499300E0F9120E258012851882851983E50CF043
:1049A300791AAA82AB83120BDF7402022CC374F050
:1049B30012047D74FE1208B3124935F50AFA7B001E
:1049C300120E198A088B09EA4509603A8A828B8399
:1049D300E50CF0A3E4F0EA250A124A22124A39123E
:1049E30008A0EEFCEFFDEA241BFAEB3400FB120EE9
:1049F3000D7402120851AA08AB099003ACE0F91236
:104A03000E2579008014851882851983E50CF079C9
:104A13001AAA82AB83120BDF791A7402022AA0123C
:104A23004A2DE8125538A3A3A322F8EB3400F98AE0
:104A3300828B83A3A322A3E4F0850C0A74B8250A0E
:104A4300F5827417124949F50A750B00780A22C0DA
:104A530082C083E99003AC023B2974F612047D748F
:104A6300FE1208B3EAFEEBFFEE5420702E8037E50A
:104A7300A8F8C2AF900380E01412399F8A828B8317
:104A8300124B83125503120BF7851882851983E0A5
:104A9300641560077AAF7B03120C1B7A7A7B0312CF
:104AA3000E3DEA4B70C9EF5480700F801912550305
:104AB300120BF77AAF7B03120C1B9003ACE0F912D5
:104AC3000E31EA4B70E7EE5410600E85188285199B
:104AD30083742D124B99120BF7EEA2E0500E85183A
:104AE300828519837424124B99120BF7EE540260DA
:104AF3000E8518828519837425124B99120BF7EED4
:104B03005404600E8518828519837426124B9912FA
:104B13000BF7EE5408600E851882851983742812EA
:104B23004B99120BF7EE544060107401120A8B126A
:104B33004B8C742C124B99120BF7EE54806010744B
:104B430001120A8B124B8C742F124B99120BF79094
:104B530003AD12473C6022E5A8F8C2AF9003AD1243
:104B630055B39003ADE4F0A312399FA31255061277
:104B73000BF77AAF7B03120C1B7A007B000252E621
:104B8300E0851882851983F022E4124B9122F08587
:104B9300188285198322F0AA82AB8322C082C08344
:104BA3009003AF1254E8EA687002EB697007900350
:104BB300AFE4F0A3F0023B2A74F712047DEAFEEBA4
:104BC300FFEE4F7003120F69A2AFE433F508C2AFD3
:104BD3008E828F8312473C6028E824FBFAE934FF76
:104BE300FB9003AF1251EDE86C7002E96D70079012
:104BF30003AFE4F0A3F08E828F83E4F0A3F0120EF0
:104C030097E508A2E08004A2E7A2E792AF02432D52
:104C1300C082C083900640E064FE7003A3E0F4709A
:104C2300097C377D061212A580188A828B83A3A381
:104C3300A3A3A3A3A3A37402F0900640124C4B12A8
:104C4300426D023B2A900381123E5822C082C083E8
:104C530090064AC3E094FEA3E094FF4004790380E6
:104C6300027902023B2AC082C083124E098C828DD4
:104C730083124D6168703B740268701C8A828B8357
:104C8300124CBAE068702B8A828B83A3124CBAA3AE
:104C9300E068701E7901801C7403687015EC2405AC
:104CA300FCED3400FDEA2405FAEB3400FB1212ABF1
:104CB30080027900023B2AA3A3A3A3A3E0F88C827A
:104CC3008D83A3A3A3A3A32274F612047D7E007491
:104CD3000A120A8BE0124D55FF8A828B83A3A3A38A
:104CE300A3A3A3A3A3E06F706474026F704D8A82C1
:104CF3008B83C082C08388828983A3A3A3A3A3E0F9
:104D0300F50888828983A3A3A3A3A3A3E0FBAA082E
:104D1300D083D082E06A7003A3E06B70308882890D
:104D230083A3A3A3E0FA88828983A3A3A3A3E0F9BF
:104D3300EA6C7002E96D70150E801274036F700DCA
:104D4300E82405FCE93400FD1212ABE9FEEEF9029A
:104D530052EBF8A3E0F988828983124D6122A3E024
:104D63001313543F540322C082C0838A828B83A3CC
:104D7300A3A3A3A3A3A3A3E0640270169006401207
:104D83004DA3687003A3E06970047901800F790073
:104D9300800BEAFCEBFD7A377B0612129F023B2A5B
:104DA3001254EC8A828B83E022C082C083124E09A4
:104DB300603A740268703D900640C3E094FEA3E03D
:104DC30094FF50308A828B83A3A3A3A3A3E0FC8A1E
:104DD300828B83A3A3A3A3A3A3E0F9ECF8758306B3
:104DE300758240E0687003A3E06970047901801361
:104DF3007900800FEA2405FCEB3400FD7A377B064B
:104E03001212AB023B2A8A828B83124D61F8227401
:104E1300EC12047DEAFEEBFF8C128D13750A00750C
:104E23000B008C828D83A3A3A3A3A3A3A3A3E0F569
:104E330010E9A2E75008750CFF750DFF800A900674
:104E430046E0F50CA3E0F50DE9C2E7F511EE240EFB
:104E5300123A465420600AEE2410123593740880E7
:104E630006EE241012502012503F540460071250D3
:104E73002874808005125028741012503F5410601B
:104E830008EE2412125020800E900653E0C0E0EE8C
:104E93002412123593D0E012503FA2E05003750A5A
:104EA30020540860067410450AF50A8E828F83A386
:104EB300A3E024FFF508A3E012501BEE240D123FDC
:104EC300ED9402E04010640B6007E014125045803B
:104ED30003750B227403450AF50A85110E750F003D
:104EE300740E780E1209A2E50F450BF50B7414121C
:104EF3000A8B12510D74026511700E90064B1250FD
:104F03004490064A125036801374036511701612CA
:104F130050137C5A7D06AA08FB1212B1E50824FF40
:104F23001250178004E5116028E5106014E50E6542
:104F33000C7004E50F650D70087440450AF50A808E
:104F430010850882850983E50D12505DE50C12502A
:104F53004B85100C750D00740A780C1209A2E50D2F
:104F6300450BF50B7402651070158512828513834A
:104F7300A312504485128285138312503680137412
:104F83000365107016125013AC12AD13AA08FB126E
:104F930012B1E50824FF1250178004E51060108554
:104FA3000882850983E50F12505DE50E12504BA868
:104FB30008A909E824FFF508E912501BEE240D1295
:104FC3003A4670059006368003900642E0FA04F0F4
:104FD300EA88828983123E36E50B12505DE50AF0BA
:104FE300EE2404F8EF3400F9122954FBAC088A824A
:104FF3008B83E0F50A88828983E0250AC39C1252D9
:1050030012ECF0A3E5091263C2A3E4F0F9022C4EFB
:10501300E50824F9F508E50934FFF50922F582EFDF
:10502300125032E422EE241112502F22F582EF1295
:105033003E2322E0850882850983F02212521EE076
:1050430022E085088285098312504F22F0E5082467
:10505300FFF508E50934FFF5092212504F85088250
:10506300F5832274EB12047D890D8A0C8C108D114B
:105073007415120A8BE0F50AA3E0F50B7417120AF4
:105083008B12510D75141A7419120A8B126006AA29
:1050930008FB120ACB8A128B13AE12AF13EE4F60CA
:1050A30059123590E50EF0A3E50F122879E50DF0BE
:1050B300750E0B750F00780E1208A0AC08AD09121F
:1050C3005104120E0D7402120851780A1208A0AC92
:1050D30010AD11A90CEEFAEFFB120C457402120885
:1050E30051E9F5147014E50D24F9600314700412EA
:1050F30051E5F0EEFAEFFB120B1FA9147F0D020628
:1051030051EE241BFAEF3400FB22E0F50EA3E0F589
:105113000F2274F212047DEAFEEBFF8C088D0989DD
:105123000A740E120A8B1251ED7A008E828F83A3BA
:10513300A312296D88828983740712522988828970
:1051430083E41251FF88828983741F1251FF741103
:10515300120A8BE060031252097410120A8BE0608A
:105163000312520988828983E50A12522974012A9B
:10517300C43354E04403888289831251F3FB880BC0
:105183008A828B83E0C3950B8E828F83A3A3A3A311
:10519300125212125216E4F0A3122879740BF0F58E
:1051A3000C750D00780C1208A0125104120E0D7428
:1051B30002120851750CFF750DFF780C1208A0AC94
:1051C30008AD097902EEFAEFFB120C4574021208DE
:1051D30051E9F50870091251E5124320120B1F0221
:1051E3002950122CB8D2E522F583E0FCA3E0FD227E
:1051F300F0EE2402FAEF340022125203125231224B
:10520300E08882898322888289831252310A22129A
:10521300553B22E8F0A3E912521E22F0EE240EF5CC
:1052230082EF123E232212523FE4125231221252D3
:105233003522F0E824FF18E934FFF92212523588A9
:105243008289832274F612047D74F71208B3EAFE8E
:10525300EBFF7801EE2432123A46600278051235EC
:1052630090E812287674041252CF1212A5EE242F5E
:105273001252AD124265EE2431123A461252C31253
:1052830008A07402120A8BAC82AD8379031A1AEF59
:10529300FB120C457402120851E9F5087007EEFA87
:1052A300EFFB120B1FA90802424D12502F12600A86
:1052B3001252B722EE2402F8EF3400F9E8FAE92299
:1052C3008882898312468804F0780822F0EE242627
:1052D300FCEF3400FD851882851983AA82AB8322F3
:1052E300120E0D74021208517F0202065174F3125A
:1052F300047D8A088B09ECFEEDFF8A828B8374059B
:105303001255278A828B83A3A3F0EA2403F50AEBC1
:105313003400F50B850A821254E6EE2425123593E8
:10532300120A74123C5AE9123596120A681254D8BA
:10533300E8FAE9FB1212A5850A82850B831258F657
:10534300FAA3E0FB88828983A3A3A3A3A3A3A3A3B4
:10535300A3EAF0A3EB12550CE0C0E0123B08E912FC
:105363003596D0E01255142415F582E81250231215
:105373005514240EF582E8125023124676850A82CC
:10538300850B83E02416FAA3E03400FB120C638E32
:10539300828F83A3A3A3A3A3A3A3E0C0E0850A8270
:1053A300850B83E0F8A31254F1D0E01254FCFAA366
:1053B300E0FB850A82850B831254E8E8240BFCE9A1
:1053C3003400FD8A828B83E08C828D83F0A3E41208
:1053D300552FE0F50B8C828D83A3E0450B125212FF
:1053E300A3E0FCA30A0AAB83A2E7E433C0E0E8240A
:1053F3000FF582E9123596D0E0F074075C6004780B
:10540300018002780075F00374075CA428F8EA2889
:10541300FAEB3400FBE5082405F8E5093400F98AC2
:10542300828B8312520312552F850882850983A329
:10543300A3A3A3A3A312550688828983E0F8540784
:10544300C333FCE8C4540F5407F50A750B00740307
:10545300780A1209A2EC250AF8EA28F8EB3400F9D5
:10546300850882850983A3A3A3A3A3A3A3A3A3E876
:10547300F0A3E9124684FA8E828F83A3A3E02AFA6B
:10548300A3E03400FBC3EA98EB9940308E828F830C
:10549300A3A3E0F8850882850983A3A3A3A3A3A3F9
:1054A300A3A3A3E0FA8E828F83A3A3A3A3E0C39A4B
:1054B30028850882850983A3A3A380108508828594
:1054C3000983A3A3A3A3A3A3A3123E34A3A3A3A3C8
:1054D300A3F0022CC6EE2413FCEF3400FD22F58268
:1054E300EF3400F5831254EC22123E58F922E0C83F
:1054F300240DF582E8125032221263C6A3A3E022E0
:105503009003AFEAF0A3EBF022F0EE242F12502F1A
:1055130022F0850A82850B83125522229003811281
:105523003E58C822F0EE2432122CBB2212553BA364
:10553300AA82AB8322F0A3E9F08A828B832274F6DA
:1055430012047D75080B75090078081208A0025231
:10555300E302081EC082C0837918120BDF023B2AC4
:10556300C082C0838A828B83E0C3940B5003120CE6
:105573006F023B2AC082C083791980DE74F712045C
:105583007DEAFEEBFF9003AD12473C60109003AD44
:105593001255B3120C7B7AAD7B03120C1BEEFAEFA0
:1055A300FB120C159003ADEEF0A3EF800B90035F9D
:1055B300E0FAA3E0FB22F0A3F002432D74F71204F8
:1055C3007D74DE1208B3EAFEEBFF8E828F83E02444
:1055D300FD601124FE601524ED600924FA600D14AA
:1055E300600A803D7416120A8BE480077416120A4F
:1055F3008B7401F0123A3A740B120A8BAA82AB83B2
:105603001212B17413120A8B12569A120A8B124297
:1056130072740A120A8B1256A6120A8B12427280F5
:10562300417416120A8B7402F01254D8740B120AC6
:105633008BAA82AB831212B17413120A8B12569A7D
:10564300120A8B124272740A120A8B1256A6120A9B
:105653008BE8F0A3E91256B2120A8BAA82AB83122B
:105663000C63851882851983740B1263C2A3E0C08F
:10567300E07401120A8BD0E01256B2120A8BAA828E
:10568300AB83120C63851882851983AA82AB8312BC
:105693000D7D74220235F97403F090064A1254EC1E
:1056A3007402227402F09006461254EC741422120F
:1056B300467A74172274F712047DEAFEEBFF8E829A
:1056C3008F83A3E0F5087035EE242F12572F700354
:1056D300A3E06960037508E8EE2426FAEF3400FBC3
:1056E300120C39E96029EE2432F582EF125729E5CD
:1056F30008700AEEFAEFFB120C57E9F508E50860AB
:105703000B1263BB7419124320120BF702432DEEE5
:105713002432123A4660D89003D4E070D27508E878
:1057230080DFF582E509125032E4F02212502F1285
:1057330054EC900646E06822C082C08374F11208DC
:10574300B37402120A8B7404125212A3E0C0E07401
:1057530003120A8BD0E0F0EA242FF582EB1254E413
:10576300740D120A8B124272EA2426FCEB3400FDFC
:105773007404120A8BAA82AB831212A57404120A50
:105783008BAA82AB83120C39E9600E1257AD12114A
:105793001390064074FFF0A3F07402120A8BAA82DE
:1057A300AB83120D7D740F023653851882851983DE
:1057B30074FFF0A31235A879532274F612047D7492
:1057C300E81208B38A088B097402120A8B7403F077
:1057D300EA2413FEEB3400FFEEFCEFFD7404120A1F
:1057E3008BAA82AB831212B1122F9BC0E0740C12EE
:1057F3000A8BD0E0F0E5082408FCE5093400FD74C9
:105803000D120A8BAA82AB83120C63EEFAEFFB1222
:105813000C39E9600E1257AD12111390064074FF54
:10582300F0A3F07402120A8BAA82AB83120D7D746B
:10583300180252E874F612047D74D41208B3EAFE17
:10584300EBFF8E828F83A3A31258F1E0A2E65017D9
:105853009006461258F6687003A3E0697009900336
:10586300D5E06046120CA5740B120A8BA882A9839B
:105873007403120A8B125F51120C5D85188285190D
:1058830083742B124B99120BF790062BE06008746C
:1058930008120A8BE0600E8518828519837405123D
:1058A3004B99120D7D742C0252E890064FE060B7BD
:1058B30012357E120C39E970AEEE2408F508EF3488
:1058C30000F50978081208A0750801750900780821
:1058D3001208A09006461207207C377D067A0379CA
:1058E30006120C4B740612085180BA900381123CC5
:1058F3007AA3221254ECEE242B122CBB22C082C0BA
:105903008374EF1208B38518828519837409F074C0
:1059130001120A8B74EE1235A4120D7D02365174F6
:10592300F712047DE9FFA2AFE433F508C2AFEF60DD
:105933000312110712109B900659E0F912114F90B0
:105943000658E0F91211439003D5E0F912112B9098
:1059530006461255B312113190064A1255B312116D
:10596300377A5A7B0612113D7E001259AC12473C1E
:1059730060091259AC123C631205FD0EEEC3940785
:1059830040E8120D05120BD39003D6E4F0120AC5BA
:105993009003D5E4F07A497B067952121113E50896
:1059A300A2E092AF790002432DEEC333F8E433F95A
:1059B30074B428F582740339F58322C082C08379D5
:1059C30009120BFD023B2AC082C0839003C27454A8
:1059D300F0A37417F0A374D8F0A37417F0A3748919
:1059E300F0A37417125A35121095023B2A02081EAF
:1059F30074F712047DE9FE9003D6E06E6016E07042
:105A030017120BEBE96011EEF9121239E96009EE96
:105A13009003D6F07900800279E202432DC082C060
:105A2300839003D6E060081212339003D6E4F002A9
:105A33003B2AF09003B1E4F0A3F022F09003B47496
:105A430049F0A3740BF09003B1E0440122F09006F7
:105A5300C474BCF0A37415F09003B67417F0A37468
:105A6300132274F712047DEAFEEBFFECF8EDF98ED6
:105A7300828F837407125AC8E08E828F83A3A31286
:105A83005AC8A3A3E08E828F83A3A3A3F08882893D
:105A930083A3A3120A748E828F83A3A3A3A3120AE0
:105AA300688E828F83A3A3A3A3A3A3A3A3E4F0E895
:105AB3002418F582E9123152126224A3A3A3E8F059
:105AC300A3E90255BBF088828983A3A3A3A3A3A35D
:105AD3002274F412047DEAFEEBFF9003D8E4125B18
:105AE300F4A3E0C3940640069003D874E8F08E82D2
:105AF3008F83A3A3A3A3A3A3A3E0C3940F40158EF3
:105B0300828F83A3A3A3A3A3A3E0640360159003DD
:105B1300D874E8F08E828F83A3A3A3A3A3A3E06426
:105B230003700E9003B1E0A2E040069003D874E83E
